{
  "contractName": "Campaign",
  "abi": [
    {
      "inputs": [
        {
          "internalType": "uint256",
          "name": "_minimum",
          "type": "uint256"
        },
        {
          "internalType": "address payable",
          "name": "_host",
          "type": "address"
        },
        {
          "internalType": "address",
          "name": "_initialAdmin",
          "type": "address"
        }
      ],
      "payable": false,
      "stateMutability": "nonpayable",
      "type": "constructor"
    },
    {
      "anonymous": false,
      "inputs": [
        {
          "indexed": false,
          "internalType": "address",
          "name": "new_campaign_address",
          "type": "address"
        }
      ],
      "name": "LogNewDonationActivity",
      "type": "event"
    },
    {
      "payable": true,
      "stateMutability": "payable",
      "type": "fallback"
    },
    {
      "constant": true,
      "inputs": [],
      "name": "admin",
      "outputs": [
        {
          "internalType": "address",
          "name": "",
          "type": "address"
        }
      ],
      "payable": false,
      "stateMutability": "view",
      "type": "function"
    },
    {
      "constant": true,
      "inputs": [],
      "name": "campaignFactory",
      "outputs": [
        {
          "internalType": "address",
          "name": "",
          "type": "address"
        }
      ],
      "payable": false,
      "stateMutability": "view",
      "type": "function"
    },
    {
      "constant": true,
      "inputs": [],
      "name": "host",
      "outputs": [
        {
          "internalType": "address payable",
          "name": "",
          "type": "address"
        }
      ],
      "payable": false,
      "stateMutability": "view",
      "type": "function"
    },
    {
      "constant": true,
      "inputs": [],
      "name": "minimumContribution",
      "outputs": [
        {
          "internalType": "uint256",
          "name": "",
          "type": "uint256"
        }
      ],
      "payable": false,
      "stateMutability": "view",
      "type": "function"
    },
    {
      "constant": true,
      "inputs": [],
      "name": "modifierFromCampaign",
      "outputs": [
        {
          "internalType": "address",
          "name": "_campaignFactory",
          "type": "address"
        }
      ],
      "payable": false,
      "stateMutability": "view",
      "type": "function"
    },
    {
      "constant": false,
      "inputs": [],
      "name": "contribute",
      "outputs": [],
      "payable": true,
      "stateMutability": "payable",
      "type": "function"
    },
    {
      "constant": true,
      "inputs": [],
      "name": "getHost",
      "outputs": [
        {
          "internalType": "address",
          "name": "",
          "type": "address"
        }
      ],
      "payable": false,
      "stateMutability": "view",
      "type": "function"
    },
    {
      "constant": true,
      "inputs": [],
      "name": "getAdmin",
      "outputs": [
        {
          "internalType": "address",
          "name": "",
          "type": "address"
        }
      ],
      "payable": false,
      "stateMutability": "view",
      "type": "function"
    },
    {
      "constant": true,
      "inputs": [],
      "name": "getMinimumContribution",
      "outputs": [
        {
          "internalType": "uint256",
          "name": "",
          "type": "uint256"
        }
      ],
      "payable": false,
      "stateMutability": "view",
      "type": "function"
    },
    {
      "constant": true,
      "inputs": [],
      "name": "getBalance",
      "outputs": [
        {
          "internalType": "uint256",
          "name": "",
          "type": "uint256"
        }
      ],
      "payable": false,
      "stateMutability": "view",
      "type": "function"
    },
    {
      "constant": true,
      "inputs": [],
      "name": "getCampaignFactory",
      "outputs": [
        {
          "internalType": "address",
          "name": "",
          "type": "address"
        }
      ],
      "payable": false,
      "stateMutability": "view",
      "type": "function"
    },
    {
      "constant": false,
      "inputs": [
        {
          "internalType": "bytes32",
          "name": "requestCreateDonationActivityCode",
          "type": "bytes32"
        },
        {
          "internalType": "address payable",
          "name": "_host",
          "type": "address"
        },
        {
          "internalType": "address",
          "name": "_authority",
          "type": "address"
        },
        {
          "internalType": "address",
          "name": "_campaignFactory",
          "type": "address"
        }
      ],
      "name": "requestToCreateDonationActivity",
      "outputs": [],
      "payable": false,
      "stateMutability": "nonpayable",
      "type": "function"
    },
    {
      "constant": true,
      "inputs": [],
      "name": "getRequestToCreateDonationActivityList",
      "outputs": [
        {
          "internalType": "bytes32[]",
          "name": "",
          "type": "bytes32[]"
        }
      ],
      "payable": false,
      "stateMutability": "view",
      "type": "function"
    },
    {
      "constant": true,
      "inputs": [
        {
          "internalType": "bytes32",
          "name": "key",
          "type": "bytes32"
        }
      ],
      "name": "getRequestToCreateDonationActivityListAtKey",
      "outputs": [
        {
          "internalType": "address",
          "name": "_host",
          "type": "address"
        },
        {
          "internalType": "address",
          "name": "_authority",
          "type": "address"
        },
        {
          "internalType": "address",
          "name": "_campaignFactory",
          "type": "address"
        }
      ],
      "payable": false,
      "stateMutability": "view",
      "type": "function"
    },
    {
      "constant": false,
      "inputs": [
        {
          "internalType": "bytes32",
          "name": "requestToCreateDonationActivityCode",
          "type": "bytes32"
        }
      ],
      "name": "cancelCreateDonationActivityRequest",
      "outputs": [],
      "payable": false,
      "stateMutability": "nonpayable",
      "type": "function"
    },
    {
      "constant": false,
      "inputs": [
        {
          "internalType": "bytes32",
          "name": "requestToCreateDonationActivityCode",
          "type": "bytes32"
        }
      ],
      "name": "newDonationActivity",
      "outputs": [],
      "payable": false,
      "stateMutability": "nonpayable",
      "type": "function"
    },
    {
      "constant": true,
      "inputs": [
        {
          "internalType": "address",
          "name": "donationActivity_key",
          "type": "address"
        }
      ],
      "name": "getDonationActivity",
      "outputs": [
        {
          "internalType": "address",
          "name": "_host",
          "type": "address"
        },
        {
          "internalType": "address",
          "name": "_authority",
          "type": "address"
        }
      ],
      "payable": false,
      "stateMutability": "view",
      "type": "function"
    },
    {
      "constant": true,
      "inputs": [],
      "name": "getDonationActivityList",
      "outputs": [
        {
          "internalType": "address[]",
          "name": "",
          "type": "address[]"
        }
      ],
      "payable": false,
      "stateMutability": "view",
      "type": "function"
    },
    {
      "constant": false,
      "inputs": [
        {
          "internalType": "bytes32",
          "name": "requestToCreateOrderFromDonationActivityCode",
          "type": "bytes32"
        },
        {
          "internalType": "address payable",
          "name": "_donationActivity",
          "type": "address"
        },
        {
          "internalType": "address payable",
          "name": "_retailer",
          "type": "address"
        },
        {
          "internalType": "string",
          "name": "_receiptURI",
          "type": "string"
        },
        {
          "internalType": "uint256",
          "name": "_totalAmount",
          "type": "uint256"
        }
      ],
      "name": "requestToCreateOrderFromDonationActivity",
      "outputs": [],
      "payable": false,
      "stateMutability": "nonpayable",
      "type": "function"
    },
    {
      "constant": false,
      "inputs": [
        {
          "internalType": "bytes32",
          "name": "requestToCreateOrderFromDonationActivityCode",
          "type": "bytes32"
        }
      ],
      "name": "newOrderFromDonationActivity",
      "outputs": [],
      "payable": false,
      "stateMutability": "nonpayable",
      "type": "function"
    },
    {
      "constant": false,
      "inputs": [
        {
          "internalType": "bytes32",
          "name": "requestToCreateOrderFromDonationActivityCode",
          "type": "bytes32"
        }
      ],
      "name": "cancelOrderFromDonationActivity",
      "outputs": [],
      "payable": false,
      "stateMutability": "nonpayable",
      "type": "function"
    },
    {
      "constant": true,
      "inputs": [
        {
          "internalType": "bytes32",
          "name": "requestToCreateOrderFromDonationActivityCode",
          "type": "bytes32"
        }
      ],
      "name": "getRequestToCreateOrderFromDonationActivity",
      "outputs": [
        {
          "internalType": "address",
          "name": "donationActivity",
          "type": "address"
        },
        {
          "internalType": "address payable",
          "name": "retailer",
          "type": "address"
        },
        {
          "internalType": "string",
          "name": "receiptURI",
          "type": "string"
        },
        {
          "internalType": "uint256",
          "name": "totalAmount",
          "type": "uint256"
        }
      ],
      "payable": false,
      "stateMutability": "view",
      "type": "function"
    },
    {
      "constant": true,
      "inputs": [],
      "name": "getRequestToCreateOrderFromDonationActivityList",
      "outputs": [
        {
          "internalType": "bytes32[]",
          "name": "",
          "type": "bytes32[]"
        }
      ],
      "payable": false,
      "stateMutability": "view",
      "type": "function"
    },
    {
      "constant": false,
      "inputs": [
        {
          "internalType": "bytes32",
          "name": "requestToCreateCashOutFromDonationActivityCode",
          "type": "bytes32"
        },
        {
          "internalType": "uint256",
          "name": "_amount",
          "type": "uint256"
        },
        {
          "internalType": "address payable",
          "name": "_donationActivity",
          "type": "address"
        }
      ],
      "name": "requestToCreateCashOutFromDonationActivity",
      "outputs": [],
      "payable": false,
      "stateMutability": "nonpayable",
      "type": "function"
    },
    {
      "constant": false,
      "inputs": [
        {
          "internalType": "bytes32",
          "name": "requestToCreateCashOutFromDonationActivityCode",
          "type": "bytes32"
        }
      ],
      "name": "newCashOutFromDonationActivity",
      "outputs": [],
      "payable": false,
      "stateMutability": "nonpayable",
      "type": "function"
    },
    {
      "constant": false,
      "inputs": [
        {
          "internalType": "bytes32",
          "name": "requestToCreateCashOutFromDonationActivityCode",
          "type": "bytes32"
        }
      ],
      "name": "cancelCashOutFromDonationActivity",
      "outputs": [],
      "payable": false,
      "stateMutability": "nonpayable",
      "type": "function"
    },
    {
      "constant": true,
      "inputs": [
        {
          "internalType": "bytes32",
          "name": "requestToCreateCashOutFromDonationActivityCode",
          "type": "bytes32"
        }
      ],
      "name": "getRequestToCreateCashOutFromDonationActivity",
      "outputs": [
        {
          "internalType": "address payable",
          "name": "donationActivity",
          "type": "address"
        },
        {
          "internalType": "uint256",
          "name": "amount",
          "type": "uint256"
        }
      ],
      "payable": false,
      "stateMutability": "view",
      "type": "function"
    },
    {
      "constant": true,
      "inputs": [],
      "name": "getRequestToCreateCashOutFromDonationActivityList",
      "outputs": [
        {
          "internalType": "bytes32[]",
          "name": "",
          "type": "bytes32[]"
        }
      ],
      "payable": false,
      "stateMutability": "view",
      "type": "function"
    }
  ],
  "bytecode": "0x608060405234801561001057600080fd5b50604051613d2e380380613d2e8339818101604052606081101561003357600080fd5b508051602082015160409283015183516347952e3f60e11b8152935192939192909133918291638f2a5c7e916004808301926000929190829003018186803b15801561007e57600080fd5b505afa158015610092573d6000803e3d6000fd5b5050600080546001600160a01b039687166001600160a01b0319918216179091556002969096555050600180549290931691841691909117909155506003805490911633179055613c46806100e86000396000f3fe608060405260043610620001e25760003560e01c806389df17191162000103578063da6c0ba91162000097578063f437bc59116200006d578063f437bc59146200079b578063f7779d4814620007b3578063f84038b114620007e1578063f851a44014620007f957620001e2565b8063da6c0ba91462000335578063da733a7d1462000755578063e91b6501146200078357620001e2565b8063af1f668411620000d9578063af1f668414620005e4578063b59f80cd1462000612578063cdf0f14a146200066f578063d7bb99ba146200074b57620001e2565b806389df171914620004bc578063937e09b114620004ea5780639e013968146200050257620001e2565b806340874ea4116200017b57806366e07006116200015157806366e0700614620004055780636e9960c3146200043357806374c4c604146200044b5780638729a0e8146200046357620001e2565b806340874ea4146200034d5780634a6b419c14620003655780635effc5d514620003b457620001e2565b806320bc442511620001bd57806320bc4425146200027f5780632fbd685614620002b3578063315d4e6714620002cb5780633dd555dd146200033557620001e2565b806312065fe014620001e45780631825a0be146200020e5780631e8e2808146200023c575b005b348015620001f157600080fd5b50620001fc62000811565b60408051918252519081900360200190f35b3480156200021b57600080fd5b50620001e2600480360360208110156200023457600080fd5b503562000816565b3480156200024957600080fd5b50620001e2600480360360608110156200026257600080fd5b50803590602081013590604001356001600160a01b0316620008fc565b3480156200028c57600080fd5b506200029762000ba4565b604080516001600160a01b039092168252519081900360200190f35b348015620002c057600080fd5b506200029762000bb3565b348015620002d857600080fd5b50620002e362000bc2565b60408051602080825283518183015283519192839290830191858101910280838360005b838110156200032157818101518382015260200162000307565b505050509050019250505060405180910390f35b3480156200034257600080fd5b506200029762000bd5565b3480156200035a57600080fd5b50620002e362000be4565b3480156200037257600080fd5b50620001e2600480360360808110156200038b57600080fd5b508035906001600160a01b03602082013581169160408101358216916060909101351662000bf2565b348015620003c157600080fd5b50620003e260048036036020811015620003da57600080fd5b503562000d40565b604080516001600160a01b03909316835260208301919091528051918290030190f35b3480156200041257600080fd5b50620001e2600480360360208110156200042b57600080fd5b503562000dd8565b3480156200044057600080fd5b506200029762001151565b3480156200045857600080fd5b50620002e362001160565b3480156200047057600080fd5b5062000491600480360360208110156200048957600080fd5b50356200116e565b604080516001600160a01b039485168152928416602084015292168183015290519081900360600190f35b348015620004c957600080fd5b50620001e260048036036020811015620004e257600080fd5b5035620011ca565b348015620004f757600080fd5b50620001fc620012c4565b3480156200050f57600080fd5b5062000530600480360360208110156200052857600080fd5b5035620012ca565b60405180856001600160a01b03166001600160a01b03168152602001846001600160a01b03166001600160a01b0316815260200180602001838152602001828103825284818151815260200191508051906020019080838360005b83811015620005a55781810151838201526020016200058b565b50505050905090810190601f168015620005d35780820380516001836020036101000a031916815260200191505b509550505050505060405180910390f35b348015620005f157600080fd5b50620001e2600480360360208110156200060a57600080fd5b503562001426565b3480156200061f57600080fd5b5062000649600480360360208110156200063857600080fd5b50356001600160a01b031662001530565b604080516001600160a01b03938416815291909216602082015281519081900390910190f35b3480156200067c57600080fd5b50620001e2600480360360a08110156200069557600080fd5b8135916001600160a01b03602082013581169260408301359091169190810190608081016060820135640100000000811115620006d157600080fd5b820183602082011115620006e457600080fd5b803590602001918460018302840111640100000000831117156200070757600080fd5b91908080601f01602080910402602001604051908101604052809392919081815260200183838082843760009201919091525092955050913592506200167d915050565b620001e2620019af565b3480156200076257600080fd5b50620001e2600480360360208110156200077b57600080fd5b5035620019c0565b3480156200079057600080fd5b50620002e362001bd2565b348015620007a857600080fd5b506200029762001be0565b348015620007c057600080fd5b50620001e260048036036020811015620007d957600080fd5b503562001bef565b348015620007ee57600080fd5b50620001fc62001e09565b3480156200080657600080fd5b506200029762001e0f565b475b90565b6000546001600160a01b03163314806200083a57506001546001600160a01b031633145b620008775760405162461bcd60e51b8152600401808060200182810382526025815260200180620039a76025913960400191505060405180910390fd5b6200088a600b8263ffffffff62001e1e16565b620008c75760405162461bcd60e51b815260040180806020018281038252603b815260200180620038cd603b913960400191505060405180910390fd5b620008da600b8263ffffffff62001e6a16565b6000908152600f6020526040812080546001600160a01b031916815560010155565b6000546001600160a01b031633146200095c576040805162461bcd60e51b815260206004820152601c60248201527f596f75206d75737420626520686f737420746f20657865637574652e00000000604482015290519081900360640190fd5b80836000829050806001600160a01b0316635c73b79e836040518263ffffffff1660e01b81526004018082815260200191505060206040518083038186803b158015620009a857600080fd5b505afa158015620009bd573d6000803e3d6000fd5b505050506040513d6020811015620009d457600080fd5b505115156001141562000a2e576040805162461bcd60e51b815260206004820152601a60248201527f43616e6e6f74206475706c6963617465207468697320636f6465000000000000604482015290519081900360640190fd5b6040805163447c795960e11b81523360048201529051859182916001600160a01b038316916388f8f2b2916024808301926020929190829003018186803b15801562000a7957600080fd5b505afa15801562000a8e573d6000803e3d6000fd5b505050506040513d602081101562000aa557600080fd5b505162000ae45760405162461bcd60e51b815260040180806020018281038252602a81526020018062003b10602a913960400191505060405180910390fd5b62000af7600b8963ffffffff62001e1e16565b1562000b355760405162461bcd60e51b8152600401808060200182810382526041815260200180620039086041913960600191505060405180910390fd5b62000b3f620021f0565b506040805180820182526001600160a01b03888116825260208083018b815260008d8152600f909252939020825181546001600160a01b0319169216919091178155915160019092019190915562000b99600b8a62001f3f565b505050505050505050565b6000546001600160a01b031690565b6003546001600160a01b031681565b606062000bd0600962001ff1565b905090565b6003546001600160a01b031690565b606062000bd0600b62001ff1565b6000546001600160a01b0316331462000c52576040805162461bcd60e51b815260206004820152601c60248201527f596f75206d75737420626520686f737420746f20657865637574652e00000000604482015290519081900360640190fd5b62000c6560078563ffffffff62001e1e16565b1562000ca35760405162461bcd60e51b815260040180806020018281038252603481526020018062003aa36034913960400191505060405180910390fd5b62000cad62002207565b50604080516060810182526001600160a01b038086168252848116602080840191825285831684860190815260008a8152600d909252949020835181549084166001600160a01b031991821617825591516001820180549185169184169190911790559351600290940180549490921693169290921790915562000d3960078663ffffffff62001f3f16565b5050505050565b60008062000d56600b8463ffffffff62001e1e16565b62000d935760405162461bcd60e51b815260040180806020018281038252603b81526020018062003949603b913960400191505060405180910390fd5b62000d9d620021f0565b5050506000908152600f6020908152604091829020825180840190935280546001600160a01b03168084526001909101549290910182905291565b6001546001600160a01b0316331462000e38576040805162461bcd60e51b815260206004820152601d60248201527f596f75206d7573742062652061646d696e20746f20657865637574652e000000604482015290519081900360640190fd5b62000e4b60098263ffffffff62001e1e16565b62000e885760405162461bcd60e51b815260040180806020018281038252603981526020018062003b3a6039913960400191505060405180910390fd5b62000e9262002227565b6000828152600e6020908152604091829020825160808101845281546001600160a01b039081168252600180840154909116828501526002808401805487516101009482161594909402600019011691909104601f8101869004860283018601875280835292959394938601939192909183018282801562000f585780601f1062000f2c5761010080835404028352916020019162000f58565b820191906000526020600020905b81548152906001019060200180831162000f3a57829003601f168201915b505050505081526020016003820154815250509050600081600001519050478260600151111562000fbb5760405162461bcd60e51b8152600401808060200182810382526023815260200180620039846023913960400191505060405180910390fd5b806001600160a01b031663eb170761848460200151856040015186606001516040518563ffffffff1660e01b815260040180858152602001846001600160a01b03166001600160a01b0316815260200180602001838152602001828103825284818151815260200191508051906020019080838360005b838110156200104c57818101518382015260200162001032565b50505050905090810190601f1680156200107a5780820380516001836020036101000a031916815260200191505b5095505050505050600060405180830381600087803b1580156200109d57600080fd5b505af1158015620010b2573d6000803e3d6000fd5b5050835160608501516040516001600160a01b03909216935080156108fc029250906000818181858888f19350505050158015620010f4573d6000803e3d6000fd5b506200110860098463ffffffff62001e6a16565b6000838152600e6020526040812080546001600160a01b0319908116825560018201805490911690559062001141600283018262002261565b600382016000905550505b505050565b6001546001600160a01b031690565b606062000bd060056200204f565b60008060006200117d62002207565b505050600091825250600d6020908152604091829020825160608101845281546001600160a01b039081168083526001840154821694830185905260029093015416930183905292909190565b6000546001600160a01b0316331480620011ee57506001546001600160a01b031633145b6200122b5760405162461bcd60e51b8152600401808060200182810382526025815260200180620039a76025913960400191505060405180910390fd5b6200123e60078263ffffffff62001e1e16565b6200127b5760405162461bcd60e51b815260040180806020018281038252602a81526020018062003a79602a913960400191505060405180910390fd5b6200128e60078263ffffffff62001e6a16565b6000908152600d6020526040902080546001600160a01b0319908116825560018201805482169055600290910180549091169055565b60025481565b600080606081620012e360098663ffffffff62001e1e16565b620013205760405162461bcd60e51b815260040180806020018281038252603981526020018062003ad76039913960400191505060405180910390fd5b6200132a62002227565b6000868152600e6020908152604091829020825160808101845281546001600160a01b039081168252600180840154909116828501526002808401805487516101009482161594909402600019011691909104601f81018690048602830186018752808352929593949386019391929091830182828015620013f05780601f10620013c457610100808354040283529160200191620013f0565b820191906000526020600020905b815481529060010190602001808311620013d257829003601f168201915b50505091835250506003919091015460209182015281519082015160408301516060909301519199909850919650945092505050565b6000546001600160a01b03163314806200144a57506001546001600160a01b031633145b620014875760405162461bcd60e51b8152600401808060200182810382526025815260200180620039a76025913960400191505060405180910390fd5b6200149a60098263ffffffff62001e1e16565b620014d75760405162461bcd60e51b815260040180806020018281038252603981526020018062003b3a6039913960400191505060405180910390fd5b620014ea60098263ffffffff62001e6a16565b6000818152600e6020526040812080546001600160a01b0319908116825560018201805490911690559062001523600283018262002261565b6003820160009055505050565b6000806200154660058463ffffffff620020b616565b620015835760405162461bcd60e51b815260040180806020018281038252603081526020018062003be26030913960400191505060405180910390fd5b6001600160a01b038084166000908152600460208181526040928390205483516320bc442560e01b8152935194169384936320bc442593818101939291829003018186803b158015620015d557600080fd5b505afa158015620015ea573d6000803e3d6000fd5b505050506040513d60208110156200160157600080fd5b5051604080516307158bc560e51b815290516001600160a01b0384169163e2b178a0916004808301926020929190829003018186803b1580156200164457600080fd5b505afa15801562001659573d6000803e3d6000fd5b505050506040513d60208110156200167057600080fd5b5051909350915050915091565b6000546001600160a01b03163314620016dd576040805162461bcd60e51b815260206004820152601c60248201527f596f75206d75737420626520686f737420746f20657865637574652e00000000604482015290519081900360640190fd5b83856000829050806001600160a01b031663cb1e6758836040518263ffffffff1660e01b81526004018082815260200191505060206040518083038186803b1580156200172957600080fd5b505afa1580156200173e573d6000803e3d6000fd5b505050506040513d60208110156200175557600080fd5b5051151560011415620017af576040805162461bcd60e51b815260206004820152601a60248201527f43616e6e6f74206475706c6963617465207468697320636f6465000000000000604482015290519081900360640190fd5b6040805163447c795960e11b81523360048201529051889182916001600160a01b038316916388f8f2b2916024808301926020929190829003018186803b158015620017fa57600080fd5b505afa1580156200180f573d6000803e3d6000fd5b505050506040513d60208110156200182657600080fd5b5051620018655760405162461bcd60e51b815260040180806020018281038252602a81526020018062003b10602a913960400191505060405180910390fd5b6200187860098b63ffffffff62001e1e16565b15620018b65760405162461bcd60e51b815260040180806020018281038252603f81526020018062003b73603f913960400191505060405180910390fd5b620018c062002227565b60405180608001604052808b6001600160a01b031681526020018a6001600160a01b0316815260200189815260200188815250905080600e60008d815260200190815260200160002060008201518160000160006101000a8154816001600160a01b0302191690836001600160a01b0316021790555060208201518160010160006101000a8154816001600160a01b0302191690836001600160a01b03160217905550604082015181600201908051906020019062001981929190620022ac565b5060609190910151600390910155620019a260098c63ffffffff62001f3f16565b5050505050505050505050565b6002543411620019be57600080fd5b565b6001546001600160a01b0316331462001a20576040805162461bcd60e51b815260206004820152601d60248201527f596f75206d7573742062652061646d696e20746f20657865637574652e000000604482015290519081900360640190fd5b62001a33600b8263ffffffff62001e1e16565b62001a705760405162461bcd60e51b815260040180806020018281038252603b815260200180620038cd603b913960400191505060405180910390fd5b62001a7a620021f0565b506000818152600f6020908152604091829020825180840190935280546001600160a01b03168084526001909101549183018290529047101562001af05760405162461bcd60e51b8152600401808060200182810382526023815260200180620039846023913960400191505060405180910390fd5b806001600160a01b0316632b140eda8484602001516040518363ffffffff1660e01b81526004018083815260200182815260200192505050600060405180830381600087803b15801562001b4357600080fd5b505af115801562001b58573d6000803e3d6000fd5b5050835160208501516040516001600160a01b03909216935080156108fc029250906000818181858888f1935050505015801562001b9a573d6000803e3d6000fd5b5062001bae600b8463ffffffff62001e6a16565b50506000908152600f6020526040812080546001600160a01b031916815560010155565b606062000bd0600762001ff1565b6000546001600160a01b031681565b6001546001600160a01b0316331462001c4f576040805162461bcd60e51b815260206004820152601d60248201527f596f75206d7573742062652061646d696e20746f20657865637574652e000000604482015290519081900360640190fd5b62001c6260078263ffffffff62001e1e16565b62001c9f5760405162461bcd60e51b815260040180806020018281038252603081526020018062003bb26030913960400191505060405180910390fd5b62001ca962002207565b506000818152600d60209081526040808320815160608101835281546001600160a01b039081168083526001840154821695830186905260029093015416818401819052925190949391929062001d009062002331565b6001600160a01b03938416815291831660208301529091166040808301919091525190819003606001906000f08015801562001d40573d6000803e3d6000fd5b506001600160a01b038116600081815260046020526040902080546001600160a01b0319169091179055905062001d7f60058263ffffffff6200211416565b62001d9260078463ffffffff62001e6a16565b6000838152600d602090815260409182902080546001600160a01b031990811682556001820180548216905560029091018054909116905581516001600160a01b038416815291517fbe4c6026d0afde301115d237ae81c17ab834f7448d2e365380c307b4e50dc0c49281900390910190a1505050565b60025490565b6001546001600160a01b031681565b600182015460009062001e345750600062001e64565b600082815260208490526040902054600184018054849290811062001e5557fe5b90600052602060002001541490505b92915050565b62001e76828262001e1e565b62001eb35760405162461bcd60e51b815260040180806020018281038252603581526020018062003a0f6035913960400191505060405180910390fd5b600082600101600162001ec685620021e9565b038154811062001ed257fe5b600091825260208083209091015484835290859052604080832054828452922082905560018501805491935083918390811062001f0b57fe5b60009182526020808320909101929092558481529085905260408120556001840180549062000d399060001983016200233f565b8062001f7d5760405162461bcd60e51b8152600401808060200182810382526028815260200180620038a56028913960400191505060405180910390fd5b62001f89828262001e1e565b1562001fc75760405162461bcd60e51b815260040180806020018281038252603581526020018062003a446035913960400191505060405180910390fd5b60018281018054918201815560009081526020808220830184905592815292909152604090912055565b6060816001018054806020026020016040519081016040528092919081815260200182805480156200204357602002820191906000526020600020905b8154815260200190600101908083116200202e575b50505050509050919050565b6060816001018054806020026020016040519081016040528092919081815260200182805480156200204357602002820191906000526020600020905b81546001600160a01b031681526001909101906020018083116200208c5750505050509050919050565b6001820154600090620020cc5750600062001e64565b6001600160a01b0382166000818152602085905260409020546001850180549091908110620020f757fe5b6000918252602090912001546001600160a01b0316149392505050565b6001600160a01b0381166200215b5760405162461bcd60e51b8152600401808060200182810382526028815260200180620038a56028913960400191505060405180910390fd5b620021678282620020b6565b15620021a55760405162461bcd60e51b8152600401808060200182810382526043815260200180620039cc6043913960600191505060405180910390fd5b60018281018054918201815560009081526020808220830180546001600160a01b039095166001600160a01b03199095168517905592815292909152604090912055565b6001015490565b604080518082019091526000808252602082015290565b604080516060810182526000808252602082018190529181019190915290565b604051806080016040528060006001600160a01b0316815260200160006001600160a01b0316815260200160608152602001600081525090565b50805460018160011615610100020316600290046000825580601f10620022895750620022a9565b601f016020900490600052602060002090810190620022a9919062002361565b50565b828054600181600116156101000203166002900490600052602060002090601f016020900481019282601f10620022ef57805160ff19168380011785556200231f565b828001600101855582156200231f579182015b828111156200231f57825182559160200191906001019062002302565b506200232d92915062002361565b5090565b611526806200237f83390190565b8154818355818111156200114c576000838152602090206200114c9181019083015b6200081391905b808211156200232d57600081556001016200236856fe608060405234801561001057600080fd5b5060405162001526380380620015268339818101604052606081101561003557600080fd5b508051602080830151604093840151845163da6c0ba960e01b815294519394919390923392839263da6c0ba992600480840193919291829003018186803b15801561007f57600080fd5b505afa158015610093573d6000803e3d6000fd5b505050506040513d60208110156100a957600080fd5b5051600280546001600160a01b0319166001600160a01b03928316179055604080516001621b9ac960e11b03198152868316600482015290518492879284929183169163ffc8ca6e91602480820192602092909190829003018186803b15801561011257600080fd5b505afa158015610126573d6000803e3d6000fd5b505050506040513d602081101561013c57600080fd5b5051610183576040805162461bcd60e51b81526020600482015260116024820152702cb7ba9030b932903737ba103437b9ba1760791b604482015290519081900360640190fd5b84866000829050806001600160a01b0316632330f247836040518263ffffffff1660e01b815260040180826001600160a01b03166001600160a01b0316815260200191505060206040518083038186803b1580156101e057600080fd5b505afa1580156101f4573d6000803e3d6000fd5b505050506040513d602081101561020a57600080fd5b505161025d576040805162461bcd60e51b815260206004820152601660248201527f596f7520617265206e6f7420617574686f726974792e00000000000000000000604482015290519081900360640190fd5b5050600080546001600160a01b03998a166001600160a01b031991821617909155600180549890991697169690961790965550505050505061128180620002a56000396000f3fe60806040526004361061011f5760003560e01c806360d93d78116100a0578063bf7e214f11610064578063bf7e214f146104a3578063cb1e6758146104b8578063e2b178a0146104e2578063eb170761146104f7578063f437bc59146105c15761011f565b806360d93d78146103255780637489ec231461033a57806388f8f2b21461036457806399f4e5ea14610397578063a6f0b2af146103c15761011f565b80632fbd6856116100e75780632fbd68561461023b57806331634eed146102505780633ff2550b1461027a57806358fa468b146102bd5780635c73b79e146102e75761011f565b806303a2775314610121578063163dd8bb1461014b57806320bc4425146101b05780632b140eda146101e15780632d692e3a14610211575b005b34801561012d57600080fd5b5061011f6004803603602081101561014457600080fd5b50356105d6565b34801561015757600080fd5b506101606106d3565b60408051602080825283518183015283519192839290830191858101910280838360005b8381101561019c578181015183820152602001610184565b505050509050019250505060405180910390f35b3480156101bc57600080fd5b506101c56106e5565b604080516001600160a01b039092168252519081900360200190f35b3480156101ed57600080fd5b5061011f6004803603604081101561020457600080fd5b50803590602001356106f4565b34801561021d57600080fd5b5061011f6004803603602081101561023457600080fd5b50356107d3565b34801561024757600080fd5b506101c5610850565b34801561025c57600080fd5b5061011f6004803603602081101561027357600080fd5b503561085f565b34801561028657600080fd5b506102a46004803603602081101561029d57600080fd5b503561091c565b6040805192835290151560208301528051918290030190f35b3480156102c957600080fd5b5061011f600480360360208110156102e057600080fd5b503561095e565b3480156102f357600080fd5b506103116004803603602081101561030a57600080fd5b503561098d565b604080519115158252519081900360200190f35b34801561033157600080fd5b506101606109b5565b34801561034657600080fd5b5061011f6004803603602081101561035d57600080fd5b50356109c1565b34801561037057600080fd5b506103116004803603602081101561038757600080fd5b50356001600160a01b0316610a06565b3480156103a357600080fd5b5061011f600480360360208110156103ba57600080fd5b5035610a2d565b3480156103cd57600080fd5b506103eb600480360360208110156103e457600080fd5b5035610b13565b6040518086815260200180602001856001600160a01b03166001600160a01b0316815260200184600281111561041d57fe5b60ff16815260200183151515158152602001828103825286818151815260200191508051906020019080838360005b8381101561046457818101518382015260200161044c565b50505050905090810190601f1680156104915780820380516001836020036101000a031916815260200191505b50965050505050505060405180910390f35b3480156104af57600080fd5b506101c5610c6a565b3480156104c457600080fd5b50610311600480360360208110156104db57600080fd5b5035610c79565b3480156104ee57600080fd5b506101c5610c8c565b34801561050357600080fd5b5061011f6004803603608081101561051a57600080fd5b8135916001600160a01b036020820135169181019060608101604082013564010000000081111561054a57600080fd5b82018360208201111561055c57600080fd5b8035906020019184600183028401116401000000008311171561057e57600080fd5b91908080601f0160208091040260200160405190810160405280939291908181526020018383808284376000920191909152509295505091359250610c9b915050565b3480156105cd57600080fd5b506101c5610e28565b6001546001600160a01b0316331461062f576040805162461bcd60e51b8152602060048201526017602482015276596f7520617265206e6f7420417574686f72697479202160481b604482015290519081900360640190fd5b60008181526005602052604090206002808201805460ff60a81b1916600160a81b1790555b600282810154600160a01b900460ff169081111561066e57fe5b14801561068b57506002810154600160a81b900460ff1615156001145b156106cf57600281015481546040516001600160a01b039092169181156108fc0291906000818181858888f193505050501580156106cd573d6000803e3d6000fd5b505b5050565b60606106df6003610e37565b90505b90565b6000546001600160a01b031690565b6000339050806001600160a01b031663da6c0ba96040518163ffffffff1660e01b815260040160206040518083038186803b15801561073257600080fd5b505afa158015610746573d6000803e3d6000fd5b505050506040513d602081101561075c57600080fd5b5051600280546001600160a01b0319166001600160a01b03909216919091179055610785611061565b506040805180820182528381526000602080830182815287835260089091529290208151815591516001909201805460ff1916921515929092179091556107cd600685610e93565b50505050565b6000546001600160a01b03163314610827576040805162461bcd60e51b8152602060048201526012602482015271596f7520617265206e6f7420486f7374202160701b604482015290519081900360640190fd5b60008181526005602052604090206002808201805460ff60a01b1916600160a11b179055610654565b6002546001600160a01b031681565b6001546001600160a01b031633146108b8576040805162461bcd60e51b8152602060048201526017602482015276596f7520617265206e6f7420417574686f72697479202160481b604482015290519081900360640190fd5b60008181526008602052604090206001808201805460ff191682179081905560ff16151514156106cf576000805482546040516001600160a01b039092169281156108fc029290818181858888f193505050501580156106cd573d6000803e3d6000fd5b600080610927611061565b5050506000908152600860209081526040918290208251808401909352805480845260019091015460ff1615159290910182905291565b61096f60068263ffffffff610f3f16565b6000908152600860205260408120908155600101805460ff19169055565b60006109a060068363ffffffff61101116565b6109ac575060006109b0565b5060015b919050565b60606106df6006610e37565b6109d260038263ffffffff610f3f16565b6000818152600560205260408120818155906109f16001830182611078565b5060020180546001600160b01b031916905550565b600080546001600160a01b0383811691161415610a25575060016109b0565b5060006109b0565b60025460408051630bb4137160e31b815233600482015290516001600160a01b03909216918291635da09b88916024808301926020929190829003018186803b158015610a7957600080fd5b505afa158015610a8d573d6000803e3d6000fd5b505050506040513d6020811015610aa357600080fd5b5051610aee576040805162461bcd60e51b81526020600482015260156024820152742cb7ba9030b932903737ba103932ba30b4b632b91760591b604482015290519081900360640190fd5b506000908152600560205260409020600201805460ff60a01b1916600160a01b179055565b600060606000806000610b246110bf565b600560008881526020019081526020016000206040518060a001604052908160008201548152602001600182018054600181600116156101000203166002900480601f016020809104026020016040519081016040528092919081815260200182805460018160011615610100020316600290048015610be55780601f10610bba57610100808354040283529160200191610be5565b820191906000526020600020905b815481529060010190602001808311610bc857829003601f168201915b50505091835250506002828101546001600160a01b0381166020840152604090920191600160a01b900460ff1690811115610c1c57fe5b6002811115610c2757fe5b815260029190910154600160a81b900460ff16151560209182015281519082015160408301516060840151608090940151929b919a509850919650945092505050565b6001546001600160a01b031681565b60006109a060038363ffffffff61101116565b6001546001600160a01b031690565b6000339050806001600160a01b031663da6c0ba96040518163ffffffff1660e01b815260040160206040518083038186803b158015610cd957600080fd5b505afa158015610ced573d6000803e3d6000fd5b505050506040513d6020811015610d0357600080fd5b5051600280546001600160a01b0319166001600160a01b03909216919091179055610d2c6110bf565b6040518060a00160405280848152602001858152602001866001600160a01b0316815260200160006002811115610d5f57fe5b81526000602091820181905288815260058252604090208251815582820151805193945084939192610d9992600185019290910190611102565b506040820151600282810180546001600160a01b0319166001600160a01b03909316929092178083556060850151929160ff60a01b1990911690600160a01b908490811115610de457fe5b02179055506080919091015160029091018054911515600160a81b0260ff60a81b19909216919091179055610e2060038763ffffffff610e9316565b505050505050565b6000546001600160a01b031681565b606081600101805480602002602001604051908101604052809291908181526020018280548015610e8757602002820191906000526020600020905b815481526020019060010190808311610e73575b50505050509050919050565b80610ecf5760405162461bcd60e51b81526004018080602001828103825260288152602001806111bb6028913960400191505060405180910390fd5b610ed98282611011565b15610f155760405162461bcd60e51b81526004018080602001828103825260358152602001806112186035913960400191505060405180910390fd5b60018281018054918201815560009081526020808220830184905592815292909152604090912055565b610f498282611011565b610f845760405162461bcd60e51b81526004018080602001828103825260358152602001806111e36035913960400191505060405180910390fd5b6000826001016001610f958561105a565b0381548110610fa057fe5b6000918252602080832090910154848352908590526040808320548284529220829055600185018054919350839183908110610fd857fe5b60009182526020808320909101929092558481529085905260408120556001840180549061100a906000198301611180565b5050505050565b600182015460009061102557506000611054565b600082815260208490526040902054600184018054849290811061104557fe5b90600052602060002001541490505b92915050565b6001015490565b604080518082019091526000808252602082015290565b50805460018160011615610100020316600290046000825580601f1061109e57506110bc565b601f0160209004906000526020600020908101906110bc91906111a0565b50565b6040518060a00160405280600081526020016060815260200160006001600160a01b03168152602001600060028111156110f557fe5b8152600060209091015290565b828054600181600116156101000203166002900490600052602060002090601f016020900481019282601f1061114357805160ff1916838001178555611170565b82800160010185558215611170579182015b82811115611170578251825591602001919060010190611155565b5061117c9291506111a0565b5090565b8154818355818111156106cd576000838152602090206106cd9181019083015b6106e291905b8082111561117c57600081556001016111a656fe556e6f7264657265644b65795365742831303029202d204b65792063616e6e6f7420626520307830556e6f7264657265644b65795365742831303229202d204b657920646f6573206e6f7420657869737420696e20746865207365742e556e6f7264657265644b65795365742831303129202d204b657920616c72656164792065786973747320696e20746865207365742ea265627a7a72315820be2788ee81c3c64950b61e554f26533f8f538de190124c61483a080a696cef5764736f6c63430005100032556e6f7264657265644b65795365742831303029202d204b65792063616e6e6f742062652030783072657175657374546f437265617465436173684f757446726f6d446f6e6174696f6e4163746976697479436f6465206973206e6f742076616c696472657175657374546f437265617465436173684f757446726f6d446f6e6174696f6e4163746976697479436f646520494420616c7265616479206578697374732e52657175657374546f437265617465436173684f757446726f6d446f6e6174696f6e4163746976697479436f6465206973206e6f742076616c6964446f6e2774204861766520456e6f756768204d6f6e657920496e2043616d706169676e596f75206d75737420626520686f7374206f722061646d696e20746f20657865637574652e556e6f726465726564416464726573735365742831303129202d204164647265737320286b65792920616c72656164792065786973747320696e20746865207365742e556e6f7264657265644b65795365742831303229202d204b657920646f6573206e6f7420657869737420696e20746865207365742e556e6f7264657265644b65795365742831303129202d204b657920616c72656164792065786973747320696e20746865207365742e496e76616c69642072657175657374546f437265617465446f6e6174696f6e416374697669747920494452657175657374437265617465446f6e6174696f6e4163746976697479436f646520494420616c7265616479206578697374732e52657175657374546f4372656174654f7264657246726f6d446f6e6174696f6e4163746976697479436f6465206973206e6f742076616c6964596f7520617265206e6f7420686f7374206f66207468697320646f6e6174696f6e20616374697669747972657175657374546f4372656174654f7264657246726f6d446f6e6174696f6e4163746976697479436f6465206973206e6f742076616c696472657175657374546f4372656174654f7264657246726f6d446f6e6174696f6e4163746976697479436f646520494420616c7265616479206578697374732e72657175657374546f437265617465446f6e6174696f6e4163746976697479436f6465206973206e6f742076616c696443616e277420676574206120446f6e6174696f6e4163746976697479207468617420646f65736e27742065786973742ea265627a7a72315820a0afa3116f5ceb3581ac8b0b7c765969fdf878bee132054f58931ba20689e11464736f6c63430005100032",
  "source": "pragma solidity 0.5.16;\r\n\r\nimport \"./HitchensUnorderedAddressSet.sol\";\r\nimport \"./HitchensUnorderedKeySet.sol\";\r\nimport \"./CampaignFactory.sol\";\r\nimport \"./DonationActivity.sol\";\r\n\r\ncontract Campaign{\r\n    \r\n    struct RequestToCreateDonationActivity {\r\n        address payable host;\r\n        address authority;\r\n        address campaignFactory;\r\n    }\r\n\r\n    struct RequestToCreateOrderFromDonationActivity {\r\n        address payable donationActivity;\r\n        address payable retailer;\r\n        string receiptURI;\r\n        uint256 totalAmount;\r\n    }\r\n    struct RequestToCreateCashOutFromDonationActivity {\r\n        address payable donationActivity;\r\n        uint256 totalAmount;\r\n    }\r\n    \r\n    address payable public host;\r\n    address public admin;\r\n    uint public minimumContribution;\r\n    address public campaignFactory;\r\n    mapping(address => DonationActivity) donationActivities;\r\n    // address[] public contributers;\r\n    event LogNewDonationActivity(address new_campaign_address);\r\n\r\n    using HitchensUnorderedAddressSetLib for HitchensUnorderedAddressSetLib.Set;\r\n    using HitchensUnorderedKeySetLib for HitchensUnorderedKeySetLib.Set;\r\n    HitchensUnorderedAddressSetLib.Set donationActivitySet;\r\n    HitchensUnorderedKeySetLib.Set requestToCreateDonationActivitySet;\r\n    HitchensUnorderedKeySetLib.Set requestToCreateOrderFromDonationActivitySet;\r\n    HitchensUnorderedKeySetLib.Set requestToCreateCashOutFromDonationActivitySet;\r\n\r\n    mapping(bytes32 => RequestToCreateDonationActivity) requestsToCreateDonationActivity;\r\n    mapping(bytes32 => RequestToCreateOrderFromDonationActivity) requestsToCreateOrderFromDonationActivity;\r\n    mapping(bytes32 => RequestToCreateCashOutFromDonationActivity) requestsToCreateCashOutFromDonationActivity;\r\n    constructor (uint _minimum, address payable _host, address _initialAdmin) public originFromCampaignFactory{\r\n        host = _host;\r\n        minimumContribution = _minimum;\r\n        admin = _initialAdmin;\r\n        campaignFactory = msg.sender;\r\n    }\r\n\r\n    function modifierFromCampaign() public view returns(address _campaignFactory){\r\n        return campaignFactory;\r\n    }\r\n\r\n    modifier originFromCampaignFactory() {\r\n        CampaignFactory _cf = CampaignFactory(msg.sender);\r\n        _cf.modifierFromCampaignFactory();\r\n        _;\r\n    }\r\n\r\n    modifier onlyHost() {\r\n        require(msg.sender== host, \"You must be host to execute.\");\r\n        _;\r\n    }\r\n    modifier onlyAdmin() {\r\n        require(msg.sender == admin ,\"You must be admin to execute.\");\r\n        _;\r\n    }\r\n    modifier onlyHostOrAdmin() {\r\n        require(((msg.sender == host) || (msg.sender== admin)), \"You must be host or admin to execute.\");\r\n        _;\r\n    }\r\n    \r\n    function contribute() public payable {\r\n        require(msg.value > minimumContribution);\r\n        \r\n    }\r\n\r\n    //getter\r\n    function getHost() public view returns(address) { return host; }\r\n    function getAdmin() public view returns(address) { return admin; }\r\n\r\n    function getMinimumContribution() public view returns(uint) { return minimumContribution; }\r\n    \r\n    function getBalance() public view returns(uint256) {return address(this).balance; }\r\n    function getCampaignFactory() public view returns(address) {return campaignFactory; }\r\n    function () external payable{\r\n        \r\n    }\r\n    //REQUEST TO CREATE DONATION ACTIVITY CRUD \r\n    function requestToCreateDonationActivity(bytes32 requestCreateDonationActivityCode,address payable _host, address _authority, address _campaignFactory) onlyHost public{\r\n        require(!requestToCreateDonationActivitySet.exists(requestCreateDonationActivityCode), \"RequestCreateDonationActivityCode ID already exists.\");\r\n        RequestToCreateDonationActivity memory re = RequestToCreateDonationActivity(_host, _authority, _campaignFactory);\r\n        requestsToCreateDonationActivity[requestCreateDonationActivityCode] = re;\r\n        requestToCreateDonationActivitySet.insert(requestCreateDonationActivityCode);\r\n    }\r\n    \r\n    function getRequestToCreateDonationActivityList() public view returns(bytes32[] memory){\r\n        return requestToCreateDonationActivitySet.listKey();\r\n    }\r\n    \r\n    function getRequestToCreateDonationActivityListAtKey(bytes32 key) public view returns(address _host, address _authority, address _campaignFactory) {\r\n        RequestToCreateDonationActivity memory re = requestsToCreateDonationActivity[key];\r\n        return (re.host, re.authority,re.campaignFactory);\r\n    }\r\n\r\n    function cancelCreateDonationActivityRequest(bytes32 requestToCreateDonationActivityCode) onlyHostOrAdmin public {\r\n        require(requestToCreateDonationActivitySet.exists(requestToCreateDonationActivityCode), \"Invalid requestToCreateDonationActivity ID\");\r\n        requestToCreateDonationActivitySet.remove(requestToCreateDonationActivityCode);\r\n        delete requestsToCreateDonationActivity[requestToCreateDonationActivityCode];\r\n    }\r\n\r\n    \r\n    function newDonationActivity(bytes32 requestToCreateDonationActivityCode) public onlyAdmin{\r\n         // Note that this will fail automatically if the key already exists.\r\n        // require(validatedHostSet.exists(host), \"Host is not validated.\r\n        require(requestToCreateDonationActivitySet.exists(requestToCreateDonationActivityCode), \"requestToCreateDonationActivityCode is not valid\");\r\n        \r\n        RequestToCreateDonationActivity memory re = requestsToCreateDonationActivity[requestToCreateDonationActivityCode];\r\n        \r\n        DonationActivity w = new DonationActivity(re.host, re.authority,re.campaignFactory);\r\n    \r\n        donationActivities[address(w)] = w ;\r\n        donationActivitySet.insert(address(w));\r\n\r\n        \r\n        requestToCreateDonationActivitySet.remove(requestToCreateDonationActivityCode);\r\n        delete requestsToCreateDonationActivity[requestToCreateDonationActivityCode];\r\n        emit LogNewDonationActivity(address(w));\r\n    }\r\n\r\n    function getDonationActivity(address donationActivity_key) public view returns(address _host, address _authority) {\r\n        require(donationActivitySet.exists(donationActivity_key), \"Can't get a DonationActivity that doesn't exist.\");\r\n        DonationActivity w = donationActivities[donationActivity_key];\r\n        return (w.getHost(), w.getAuthority());\r\n    }\r\n    \r\n    function getDonationActivityList() public view returns(address[] memory){\r\n        return donationActivitySet.listKey();\r\n    }\r\n\r\n    //ORDER OF DONATION ACTIVITY CRUD\r\n    modifier requestToCreateOrderFromDonationActivityCodeExist(address payable _donationActivity,bytes32 _requestToCreateOrderFromDonationActivityCode) {\r\n        DonationActivity w = DonationActivity(_donationActivity);\r\n        if( w.orderCodeExist(_requestToCreateOrderFromDonationActivityCode) == true){\r\n            revert(\"Cannot duplicate this code\");\r\n        }\r\n        _;\r\n    }\r\n\r\n    modifier checkHostDonationActivity(address payable _donationActivity) {\r\n        DonationActivity w = DonationActivity(_donationActivity);\r\n        if(w.isDonationActivityHost(msg.sender) == false){\r\n            revert(\"You are not host of this donation activity\");\r\n        }\r\n        _;\r\n    }\r\n    \r\n    function requestToCreateOrderFromDonationActivity(bytes32 requestToCreateOrderFromDonationActivityCode,address payable _donationActivity,address payable _retailer, string memory _receiptURI, uint256 _totalAmount) onlyHost requestToCreateOrderFromDonationActivityCodeExist(_donationActivity,requestToCreateOrderFromDonationActivityCode) checkHostDonationActivity(_donationActivity) public{\r\n        require(!requestToCreateOrderFromDonationActivitySet.exists(requestToCreateOrderFromDonationActivityCode), \"requestToCreateOrderFromDonationActivityCode ID already exists.\");\r\n        RequestToCreateOrderFromDonationActivity memory re = RequestToCreateOrderFromDonationActivity(_donationActivity,_retailer, _receiptURI, _totalAmount);\r\n        requestsToCreateOrderFromDonationActivity[requestToCreateOrderFromDonationActivityCode] = re;\r\n        requestToCreateOrderFromDonationActivitySet.insert(requestToCreateOrderFromDonationActivityCode);\r\n    }\r\n\r\n    function newOrderFromDonationActivity(bytes32 requestToCreateOrderFromDonationActivityCode) public onlyAdmin{\r\n\r\n        require(requestToCreateOrderFromDonationActivitySet.exists(requestToCreateOrderFromDonationActivityCode), \"requestToCreateOrderFromDonationActivityCode is not valid\");\r\n        \r\n        RequestToCreateOrderFromDonationActivity memory re = requestsToCreateOrderFromDonationActivity[requestToCreateOrderFromDonationActivityCode];\r\n        \r\n        DonationActivity w = DonationActivity(re.donationActivity);\r\n        if(re.totalAmount > address(this).balance){\r\n            revert(\"Don't Have Enough Money In Campaign\");\r\n        } else {\r\n            w.addOrder(requestToCreateOrderFromDonationActivityCode, re.retailer, re.receiptURI, re.totalAmount);\r\n            address(re.donationActivity).transfer(re.totalAmount);\r\n            \r\n            requestToCreateOrderFromDonationActivitySet.remove(requestToCreateOrderFromDonationActivityCode);\r\n            delete requestsToCreateOrderFromDonationActivity[requestToCreateOrderFromDonationActivityCode];\r\n        }\r\n\r\n    }\r\n\r\n    function cancelOrderFromDonationActivity(bytes32 requestToCreateOrderFromDonationActivityCode) public onlyHostOrAdmin{\r\n        require(requestToCreateOrderFromDonationActivitySet.exists(requestToCreateOrderFromDonationActivityCode), \"requestToCreateOrderFromDonationActivityCode is not valid\");\r\n        requestToCreateOrderFromDonationActivitySet.remove(requestToCreateOrderFromDonationActivityCode);\r\n        delete requestsToCreateOrderFromDonationActivity[requestToCreateOrderFromDonationActivityCode];\r\n    }\r\n\r\n    function getRequestToCreateOrderFromDonationActivity(bytes32 requestToCreateOrderFromDonationActivityCode) public view returns(address donationActivity,address payable retailer,string memory receiptURI,uint256 totalAmount) {\r\n        require(requestToCreateOrderFromDonationActivitySet.exists(requestToCreateOrderFromDonationActivityCode), \"RequestToCreateOrderFromDonationActivityCode is not valid\");\r\n        RequestToCreateOrderFromDonationActivity memory w = requestsToCreateOrderFromDonationActivity[requestToCreateOrderFromDonationActivityCode];\r\n        return (w.donationActivity,w.retailer,w.receiptURI,w.totalAmount);\r\n    }\r\n    \r\n    function getRequestToCreateOrderFromDonationActivityList() public view returns(bytes32[] memory){\r\n        return requestToCreateOrderFromDonationActivitySet.listKey();\r\n    }\r\n\r\n    //CASH OUT OF DONATION ACTIVITY CRUD\r\n    modifier requestToCreateCashOutFromDonationActivityCodeExist(address payable _donationActivity,bytes32 _requestToCreateCashOutFromDonationActivityCode) {\r\n        DonationActivity w = DonationActivity(_donationActivity);\r\n        if( w.cashOutCodeExist(_requestToCreateCashOutFromDonationActivityCode) == true){\r\n            revert(\"Cannot duplicate this code\");\r\n        }\r\n        _;\r\n    }\r\n    \r\n    function requestToCreateCashOutFromDonationActivity(bytes32 requestToCreateCashOutFromDonationActivityCode,uint256 _amount, address payable _donationActivity) onlyHost requestToCreateCashOutFromDonationActivityCodeExist(_donationActivity,requestToCreateCashOutFromDonationActivityCode) checkHostDonationActivity(_donationActivity) public{\r\n        require(!requestToCreateCashOutFromDonationActivitySet.exists(requestToCreateCashOutFromDonationActivityCode), \"requestToCreateCashOutFromDonationActivityCode ID already exists.\");\r\n        RequestToCreateCashOutFromDonationActivity memory re = RequestToCreateCashOutFromDonationActivity(_donationActivity,_amount);\r\n        requestsToCreateCashOutFromDonationActivity[requestToCreateCashOutFromDonationActivityCode] = re;\r\n        requestToCreateCashOutFromDonationActivitySet.insert(requestToCreateCashOutFromDonationActivityCode);\r\n    }\r\n\r\n    function newCashOutFromDonationActivity(bytes32 requestToCreateCashOutFromDonationActivityCode) public onlyAdmin{\r\n\r\n        require(requestToCreateCashOutFromDonationActivitySet.exists(requestToCreateCashOutFromDonationActivityCode), \"requestToCreateCashOutFromDonationActivityCode is not valid\");\r\n        \r\n        RequestToCreateCashOutFromDonationActivity memory re = requestsToCreateCashOutFromDonationActivity[requestToCreateCashOutFromDonationActivityCode] ;\r\n        \r\n        DonationActivity w = DonationActivity(re.donationActivity);\r\n        if(re.totalAmount > address(this).balance){\r\n            revert(\"Don't Have Enough Money In Campaign\");\r\n        } else {\r\n            w.addCashOut(requestToCreateCashOutFromDonationActivityCode, re.totalAmount);\r\n            address(re.donationActivity).transfer(re.totalAmount);\r\n            \r\n            requestToCreateCashOutFromDonationActivitySet.remove(requestToCreateCashOutFromDonationActivityCode);\r\n            delete requestsToCreateCashOutFromDonationActivity[requestToCreateCashOutFromDonationActivityCode];\r\n        }\r\n\r\n    }\r\n    function cancelCashOutFromDonationActivity(bytes32 requestToCreateCashOutFromDonationActivityCode) public onlyHostOrAdmin{\r\n \r\n        require(requestToCreateCashOutFromDonationActivitySet.exists(requestToCreateCashOutFromDonationActivityCode), \"requestToCreateCashOutFromDonationActivityCode is not valid\");\r\n        \r\n        requestToCreateCashOutFromDonationActivitySet.remove(requestToCreateCashOutFromDonationActivityCode);\r\n        delete requestsToCreateCashOutFromDonationActivity[requestToCreateCashOutFromDonationActivityCode];\r\n    }\r\n\r\n    function getRequestToCreateCashOutFromDonationActivity(bytes32 requestToCreateCashOutFromDonationActivityCode) public view returns(address payable donationActivity,uint256 amount) {\r\n        require(requestToCreateCashOutFromDonationActivitySet.exists(requestToCreateCashOutFromDonationActivityCode), \"RequestToCreateCashOutFromDonationActivityCode is not valid\");\r\n        RequestToCreateCashOutFromDonationActivity memory re = requestsToCreateCashOutFromDonationActivity[requestToCreateCashOutFromDonationActivityCode];\r\n        return (re.donationActivity,re.totalAmount);\r\n    }\r\n    \r\n    function getRequestToCreateCashOutFromDonationActivityList() public view returns(bytes32[] memory){\r\n        return requestToCreateCashOutFromDonationActivitySet.listKey();\r\n    }\r\n    \r\n}",
  "sourcePath": "D:\\UNI\\D n\\Main Project\\blockchain_charity_repo\\Truffle Test\\contracts\\Campaign.sol",
  "compiler": {
    "name": "solc",
    "version": "0.5.16+commit.9c3226ce.Emscripten.clang"
  },
  "schemaVersion": "3.4.3",
  "updatedAt": "2021-12-09T08:19:34.721Z",
  "devdoc": {
    "methods": {}
  },
  "userdoc": {
    "methods": {}
  }
}