{
  "contractName": "DonationActivity",
  "abi": [
    {
      "inputs": [
        {
          "internalType": "address payable",
          "name": "_host",
          "type": "address"
        },
        {
          "internalType": "address",
          "name": "_authority",
          "type": "address"
        },
        {
          "internalType": "address",
          "name": "_campaignFactory",
          "type": "address"
        }
      ],
      "payable": false,
      "stateMutability": "nonpayable",
      "type": "constructor"
    },
    {
      "payable": true,
      "stateMutability": "payable",
      "type": "fallback"
    },
    {
      "constant": true,
      "inputs": [],
      "name": "authority",
      "outputs": [
        {
          "internalType": "address",
          "name": "",
          "type": "address"
        }
      ],
      "payable": false,
      "stateMutability": "view",
      "type": "function"
    },
    {
      "constant": true,
      "inputs": [],
      "name": "campaignFactory",
      "outputs": [
        {
          "internalType": "address",
          "name": "",
          "type": "address"
        }
      ],
      "payable": false,
      "stateMutability": "view",
      "type": "function"
    },
    {
      "constant": true,
      "inputs": [],
      "name": "host",
      "outputs": [
        {
          "internalType": "address payable",
          "name": "",
          "type": "address"
        }
      ],
      "payable": false,
      "stateMutability": "view",
      "type": "function"
    },
    {
      "constant": false,
      "inputs": [
        {
          "internalType": "bytes32",
          "name": "_orderCode",
          "type": "bytes32"
        }
      ],
      "name": "retailerConfirmDeliveryOrder",
      "outputs": [],
      "payable": false,
      "stateMutability": "nonpayable",
      "type": "function"
    },
    {
      "constant": false,
      "inputs": [
        {
          "internalType": "bytes32",
          "name": "_orderCode",
          "type": "bytes32"
        }
      ],
      "name": "hostConfirmReceivedOrder",
      "outputs": [],
      "payable": false,
      "stateMutability": "nonpayable",
      "type": "function"
    },
    {
      "constant": false,
      "inputs": [
        {
          "internalType": "bytes32",
          "name": "_orderCode",
          "type": "bytes32"
        }
      ],
      "name": "authorityConfirmReceivedOrder",
      "outputs": [],
      "payable": false,
      "stateMutability": "nonpayable",
      "type": "function"
    },
    {
      "constant": false,
      "inputs": [
        {
          "internalType": "bytes32",
          "name": "_orderCode",
          "type": "bytes32"
        },
        {
          "internalType": "address payable",
          "name": "_retailer",
          "type": "address"
        },
        {
          "internalType": "string",
          "name": "_receiptURI",
          "type": "string"
        },
        {
          "internalType": "uint256",
          "name": "_totalAmount",
          "type": "uint256"
        }
      ],
      "name": "addOrder",
      "outputs": [],
      "payable": false,
      "stateMutability": "nonpayable",
      "type": "function"
    },
    {
      "constant": true,
      "inputs": [
        {
          "internalType": "bytes32",
          "name": "_orderCode",
          "type": "bytes32"
        }
      ],
      "name": "getOrderByCode",
      "outputs": [
        {
          "internalType": "uint256",
          "name": "totalAmount",
          "type": "uint256"
        },
        {
          "internalType": "string",
          "name": "receiptURI",
          "type": "string"
        },
        {
          "internalType": "address",
          "name": "retailer",
          "type": "address"
        },
        {
          "internalType": "enum DonationActivity.OrderState",
          "name": "orderState",
          "type": "uint8"
        },
        {
          "internalType": "bool",
          "name": "authorityConfirmation",
          "type": "bool"
        }
      ],
      "payable": false,
      "stateMutability": "view",
      "type": "function"
    },
    {
      "constant": true,
      "inputs": [],
      "name": "getOrderList",
      "outputs": [
        {
          "internalType": "bytes32[]",
          "name": "",
          "type": "bytes32[]"
        }
      ],
      "payable": false,
      "stateMutability": "view",
      "type": "function"
    },
    {
      "constant": false,
      "inputs": [
        {
          "internalType": "bytes32",
          "name": "_orderCode",
          "type": "bytes32"
        }
      ],
      "name": "cancelOrder",
      "outputs": [],
      "payable": false,
      "stateMutability": "nonpayable",
      "type": "function"
    },
    {
      "constant": true,
      "inputs": [
        {
          "internalType": "bytes32",
          "name": "_orderCode",
          "type": "bytes32"
        }
      ],
      "name": "orderCodeExist",
      "outputs": [
        {
          "internalType": "bool",
          "name": "check",
          "type": "bool"
        }
      ],
      "payable": false,
      "stateMutability": "view",
      "type": "function"
    },
    {
      "constant": false,
      "inputs": [
        {
          "internalType": "bytes32",
          "name": "_cashOutCode",
          "type": "bytes32"
        },
        {
          "internalType": "uint256",
          "name": "_amount",
          "type": "uint256"
        }
      ],
      "name": "addCashOut",
      "outputs": [],
      "payable": false,
      "stateMutability": "nonpayable",
      "type": "function"
    },
    {
      "constant": true,
      "inputs": [
        {
          "internalType": "bytes32",
          "name": "_cashOutCode",
          "type": "bytes32"
        }
      ],
      "name": "getCashOutByCode",
      "outputs": [
        {
          "internalType": "uint256",
          "name": "amount",
          "type": "uint256"
        },
        {
          "internalType": "bool",
          "name": "authorityConfirmation",
          "type": "bool"
        }
      ],
      "payable": false,
      "stateMutability": "view",
      "type": "function"
    },
    {
      "constant": true,
      "inputs": [],
      "name": "getCashOutList",
      "outputs": [
        {
          "internalType": "bytes32[]",
          "name": "",
          "type": "bytes32[]"
        }
      ],
      "payable": false,
      "stateMutability": "view",
      "type": "function"
    },
    {
      "constant": false,
      "inputs": [
        {
          "internalType": "bytes32",
          "name": "_cashOutCode",
          "type": "bytes32"
        }
      ],
      "name": "cancelCashOut",
      "outputs": [],
      "payable": false,
      "stateMutability": "nonpayable",
      "type": "function"
    },
    {
      "constant": true,
      "inputs": [
        {
          "internalType": "bytes32",
          "name": "_cashOutCode",
          "type": "bytes32"
        }
      ],
      "name": "cashOutCodeExist",
      "outputs": [
        {
          "internalType": "bool",
          "name": "check",
          "type": "bool"
        }
      ],
      "payable": false,
      "stateMutability": "view",
      "type": "function"
    },
    {
      "constant": false,
      "inputs": [
        {
          "internalType": "bytes32",
          "name": "_cashOutCode",
          "type": "bytes32"
        }
      ],
      "name": "authorityConfirmReceivedCashOut",
      "outputs": [],
      "payable": false,
      "stateMutability": "nonpayable",
      "type": "function"
    },
    {
      "constant": true,
      "inputs": [],
      "name": "getHost",
      "outputs": [
        {
          "internalType": "address",
          "name": "",
          "type": "address"
        }
      ],
      "payable": false,
      "stateMutability": "view",
      "type": "function"
    },
    {
      "constant": true,
      "inputs": [],
      "name": "getAuthority",
      "outputs": [
        {
          "internalType": "address",
          "name": "",
          "type": "address"
        }
      ],
      "payable": false,
      "stateMutability": "view",
      "type": "function"
    },
    {
      "constant": true,
      "inputs": [
        {
          "internalType": "address payable",
          "name": "_host",
          "type": "address"
        }
      ],
      "name": "isDonationActivityHost",
      "outputs": [
        {
          "internalType": "bool",
          "name": "check",
          "type": "bool"
        }
      ],
      "payable": false,
      "stateMutability": "view",
      "type": "function"
    }
  ],
  "bytecode": "0x60806040523480156200001157600080fd5b506040516200163e3803806200163e833981810160405260608110156200003757600080fd5b508051602080830151604093840151845163da6c0ba960e01b815294519394919390923392839263da6c0ba992600480840193919291829003018186803b1580156200008257600080fd5b505afa15801562000097573d6000803e3d6000fd5b505050506040513d6020811015620000ae57600080fd5b5051600280546001600160a01b0319166001600160a01b03928316179055604080516001621b9ac960e11b03198152868316600482015290518492879284929183169163ffc8ca6e91602480820192602092909190829003018186803b1580156200011857600080fd5b505afa1580156200012d573d6000803e3d6000fd5b505050506040513d60208110156200014457600080fd5b50516200018c576040805162461bcd60e51b81526020600482015260116024820152702cb7ba9030b932903737ba103437b9ba1760791b604482015290519081900360640190fd5b84866000829050806001600160a01b0316632330f247836040518263ffffffff1660e01b815260040180826001600160a01b03166001600160a01b0316815260200191505060206040518083038186803b158015620001ea57600080fd5b505afa158015620001ff573d6000803e3d6000fd5b505050506040513d60208110156200021657600080fd5b50516200026a576040805162461bcd60e51b815260206004820152601660248201527f596f7520617265206e6f7420617574686f726974792e00000000000000000000604482015290519081900360640190fd5b5050600080546001600160a01b03998a166001600160a01b031991821617909155600180549890991697169690961790965550505050505061138c80620002b26000396000f3fe60806040526004361061011f5760003560e01c806360d93d78116100a0578063bf7e214f11610064578063bf7e214f146104a3578063cb1e6758146104b8578063e2b178a0146104e2578063eb170761146104f7578063f437bc59146105c15761011f565b806360d93d78146103255780637489ec231461033a57806388f8f2b21461036457806399f4e5ea14610397578063a6f0b2af146103c15761011f565b80632fbd6856116100e75780632fbd68561461023b57806331634eed146102505780633ff2550b1461027a57806358fa468b146102bd5780635c73b79e146102e75761011f565b806303a2775314610121578063163dd8bb1461014b57806320bc4425146101b05780632b140eda146101e15780632d692e3a14610211575b005b34801561012d57600080fd5b5061011f6004803603602081101561014457600080fd5b50356105d6565b34801561015757600080fd5b5061016061071b565b60408051602080825283518183015283519192839290830191858101910280838360005b8381101561019c578181015183820152602001610184565b505050509050019250505060405180910390f35b3480156101bc57600080fd5b506101c561072d565b604080516001600160a01b039092168252519081900360200190f35b3480156101ed57600080fd5b5061011f6004803603604081101561020457600080fd5b508035906020013561073c565b34801561021d57600080fd5b5061011f6004803603602081101561023457600080fd5b503561081b565b34801561024757600080fd5b506101c5610905565b34801561025c57600080fd5b5061011f6004803603602081101561027357600080fd5b5035610914565b34801561028657600080fd5b506102a46004803603602081101561029d57600080fd5b5035610a1e565b6040805192835290151560208301528051918290030190f35b3480156102c957600080fd5b5061011f600480360360208110156102e057600080fd5b5035610a60565b3480156102f357600080fd5b506103116004803603602081101561030a57600080fd5b5035610a8f565b604080519115158252519081900360200190f35b34801561033157600080fd5b50610160610ab7565b34801561034657600080fd5b5061011f6004803603602081101561035d57600080fd5b5035610ac3565b34801561037057600080fd5b506103116004803603602081101561038757600080fd5b50356001600160a01b0316610b08565b3480156103a357600080fd5b5061011f600480360360208110156103ba57600080fd5b5035610b2f565b3480156103cd57600080fd5b506103eb600480360360208110156103e457600080fd5b5035610c15565b6040518086815260200180602001856001600160a01b03166001600160a01b0316815260200184600281111561041d57fe5b60ff16815260200183151515158152602001828103825286818151815260200191508051906020019080838360005b8381101561046457818101518382015260200161044c565b50505050905090810190601f1680156104915780820380516001836020036101000a031916815260200191505b50965050505050505060405180910390f35b3480156104af57600080fd5b506101c5610d6c565b3480156104c457600080fd5b50610311600480360360208110156104db57600080fd5b5035610d7b565b3480156104ee57600080fd5b506101c5610d8e565b34801561050357600080fd5b5061011f6004803603608081101561051a57600080fd5b8135916001600160a01b036020820135169181019060608101604082013564010000000081111561054a57600080fd5b82018360208201111561055c57600080fd5b8035906020019184600183028401116401000000008311171561057e57600080fd5b91908080601f0160208091040260200160405190810160405280939291908181526020018383808284376000920191909152509295505091359250610d9d915050565b3480156105cd57600080fd5b506101c5610f2a565b6001546001600160a01b0316331461062f576040805162461bcd60e51b8152602060048201526017602482015276596f7520617265206e6f7420417574686f72697479202160481b604482015290519081900360640190fd5b60008181526005602052604090206002810154600160a81b900460ff166106ca576002808201805460ff60a81b1916600160a81b179055600282810154600160a01b900460ff169081111561068057fe5b14156106c557600281015481546040516001600160a01b039092169181156108fc0291906000818181858888f193505050501580156106c3573d6000803e3d6000fd5b505b610717565b6040805162461bcd60e51b815260206004820152601b60248201527f54686973206f7264657220616c726561647920636f6d706c6574650000000000604482015290519081900360640190fd5b5050565b60606107276003610f39565b90505b90565b6000546001600160a01b031690565b6000339050806001600160a01b031663da6c0ba96040518163ffffffff1660e01b815260040160206040518083038186803b15801561077a57600080fd5b505afa15801561078e573d6000803e3d6000fd5b505050506040513d60208110156107a457600080fd5b5051600280546001600160a01b0319166001600160a01b039092169190911790556107cd611163565b506040805180820182528381526000602080830182815287835260089091529290208151815591516001909201805460ff191692151592909217909155610815600685610f95565b50505050565b6000546001600160a01b0316331461086f576040805162461bcd60e51b8152602060048201526012602482015271596f7520617265206e6f7420486f7374202160701b604482015290519081900360640190fd5b600081815260056020526040902060028082810154600160a01b900460ff169081111561089857fe5b146106ca5760028101805460ff60a01b1916600160a11b1790819055600160a81b900460ff161515600114156106c557600281015481546040516001600160a01b039092169181156108fc0291906000818181858888f193505050501580156106c3573d6000803e3d6000fd5b6002546001600160a01b031681565b6001546001600160a01b0316331461096d576040805162461bcd60e51b8152602060048201526017602482015276596f7520617265206e6f7420417574686f72697479202160481b604482015290519081900360640190fd5b6000818152600860205260409020600181015460ff166109d1576001818101805460ff191690911790556000805482546040516001600160a01b039092169281156108fc029290818181858888f193505050501580156106c3573d6000803e3d6000fd5b6040805162461bcd60e51b815260206004820152601d60248201527f5468697320636173686f757420616c726561647920636f6d706c657465000000604482015290519081900360640190fd5b600080610a29611163565b5050506000908152600860209081526040918290208251808401909352805480845260019091015460ff1615159290910182905291565b610a7160068263ffffffff61104116565b6000908152600860205260408120908155600101805460ff19169055565b6000610aa260068363ffffffff61111316565b610aae57506000610ab2565b5060015b919050565b60606107276006610f39565b610ad460038263ffffffff61104116565b600081815260056020526040812081815590610af3600183018261117a565b5060020180546001600160b01b031916905550565b600080546001600160a01b0383811691161415610b2757506001610ab2565b506000610ab2565b60025460408051630bb4137160e31b815233600482015290516001600160a01b03909216918291635da09b88916024808301926020929190829003018186803b158015610b7b57600080fd5b505afa158015610b8f573d6000803e3d6000fd5b505050506040513d6020811015610ba557600080fd5b5051610bf0576040805162461bcd60e51b81526020600482015260156024820152742cb7ba9030b932903737ba103932ba30b4b632b91760591b604482015290519081900360640190fd5b506000908152600560205260409020600201805460ff60a01b1916600160a01b179055565b600060606000806000610c266111c1565b600560008881526020019081526020016000206040518060a001604052908160008201548152602001600182018054600181600116156101000203166002900480601f016020809104026020016040519081016040528092919081815260200182805460018160011615610100020316600290048015610ce75780601f10610cbc57610100808354040283529160200191610ce7565b820191906000526020600020905b815481529060010190602001808311610cca57829003601f168201915b50505091835250506002828101546001600160a01b0381166020840152604090920191600160a01b900460ff1690811115610d1e57fe5b6002811115610d2957fe5b815260029190910154600160a81b900460ff16151560209182015281519082015160408301516060840151608090940151929b919a509850919650945092505050565b6001546001600160a01b031681565b6000610aa260038363ffffffff61111316565b6001546001600160a01b031690565b6000339050806001600160a01b031663da6c0ba96040518163ffffffff1660e01b815260040160206040518083038186803b158015610ddb57600080fd5b505afa158015610def573d6000803e3d6000fd5b505050506040513d6020811015610e0557600080fd5b5051600280546001600160a01b0319166001600160a01b03909216919091179055610e2e6111c1565b6040518060a00160405280848152602001858152602001866001600160a01b0316815260200160006002811115610e6157fe5b81526000602091820181905288815260058252604090208251815582820151805193945084939192610e9b92600185019290910190611204565b506040820151600282810180546001600160a01b0319166001600160a01b03909316929092178083556060850151929160ff60a01b1990911690600160a01b908490811115610ee657fe5b02179055506080919091015160029091018054911515600160a81b0260ff60a81b19909216919091179055610f2260038763ffffffff610f9516565b505050505050565b6000546001600160a01b031681565b606081600101805480602002602001604051908101604052809291908181526020018280548015610f8957602002820191906000526020600020905b815481526020019060010190808311610f75575b50505050509050919050565b80610fd15760405162461bcd60e51b81526004018080602001828103825260288152602001806112c66028913960400191505060405180910390fd5b610fdb8282611113565b156110175760405162461bcd60e51b81526004018080602001828103825260358152602001806113236035913960400191505060405180910390fd5b60018281018054918201815560009081526020808220830184905592815292909152604090912055565b61104b8282611113565b6110865760405162461bcd60e51b81526004018080602001828103825260358152602001806112ee6035913960400191505060405180910390fd5b60008260010160016110978561115c565b03815481106110a257fe5b60009182526020808320909101548483529085905260408083205482845292208290556001850180549193508391839081106110da57fe5b60009182526020808320909101929092558481529085905260408120556001840180549061110c906000198301611282565b5050505050565b600182015460009061112757506000611156565b600082815260208490526040902054600184018054849290811061114757fe5b90600052602060002001541490505b92915050565b6001015490565b604080518082019091526000808252602082015290565b50805460018160011615610100020316600290046000825580601f106111a057506111be565b601f0160209004906000526020600020908101906111be91906112ab565b50565b6040518060a00160405280600081526020016060815260200160006001600160a01b03168152602001600060028111156111f757fe5b8152600060209091015290565b828054600181600116156101000203166002900490600052602060002090601f016020900481019282601f1061124557805160ff1916838001178555611272565b82800160010185558215611272579182015b82811115611272578251825591602001919060010190611257565b5061127e9291506112ab565b5090565b8154818355818111156112a6576000838152602090206112a69181019083016112ab565b505050565b61072a91905b8082111561127e57600081556001016112b156fe556e6f7264657265644b65795365742831303029202d204b65792063616e6e6f7420626520307830556e6f7264657265644b65795365742831303229202d204b657920646f6573206e6f7420657869737420696e20746865207365742e556e6f7264657265644b65795365742831303129202d204b657920616c72656164792065786973747320696e20746865207365742ea265627a7a723158205e6603d5e9ce9bf44329a0e442c64146759d36189bbd5f6ee0c5dfd87c51e47e64736f6c63430005100032",
  "source": "pragma solidity 0.5.16;\r\n\r\nimport \"./HitchensUnorderedKeySet.sol\";\r\nimport \"./CampaignFactory.sol\";\r\nimport \"./Campaign.sol\";\r\ncontract DonationActivity{\r\n    address payable public host;\r\n    address public authority;\r\n    address public campaignFactory;\r\n    modifier onlyValidatedHostCF(address _campaignFactory, address _host) {\r\n        CampaignFactory _cf = CampaignFactory(_campaignFactory);\r\n        if( _cf.isHostValidated(_host) == false){\r\n            revert(\"You are not host.\");\r\n        }\r\n        _;\r\n    }\r\n\r\n    modifier onlyAuthorityCF(address _campaignFactory, address _authority) {\r\n        CampaignFactory _cf = CampaignFactory(_campaignFactory);\r\n        if( _cf.isAuthority(_authority) == false){\r\n            revert(\"You are not authority.\");\r\n        }\r\n        _;\r\n    }\r\n\r\n    modifier originFromCampaign() {\r\n        Campaign _c = Campaign(msg.sender);\r\n        campaignFactory = _c.modifierFromCampaign();\r\n        _;\r\n    }\r\n\r\n    modifier onlyRetailer() {\r\n        CampaignFactory _cf = CampaignFactory(campaignFactory);\r\n        if( _cf.isRetailer(msg.sender) == false){\r\n            revert(\"You are not retailer.\");\r\n        }\r\n        _;\r\n    }\r\n\r\n    modifier onlyAuthority() {\r\n        require(authority == msg.sender, \"You are not Authority !\");\r\n        _;\r\n    }\r\n\r\n    modifier onlyHost() {\r\n        require(host == msg.sender, \"You are not Host !\");\r\n        _;\r\n    }\r\n\r\n    constructor (address payable _host, address _authority, address _campaignFactory) originFromCampaign onlyValidatedHostCF(_campaignFactory,_host) onlyAuthorityCF(_campaignFactory, _authority) public {\r\n        host = _host;\r\n        authority = _authority;\r\n        // campaignFactory = 0xC14FF563492d4f43EEc6218858B08fA9e0C71129;\r\n    }\r\n\r\n    enum OrderState{ ORDERING, DELIVERING, RECEIVED }\r\n    struct Order {\r\n        uint256 totalAmount;\r\n        string receiptURI;\r\n        address payable retailer;\r\n        OrderState orderState;\r\n        bool authorityConfirmation;\r\n    }\r\n\r\n    struct CashOut {\r\n        uint256 amount;\r\n        bool authorityConfirmation;\r\n    }\r\n    using HitchensUnorderedKeySetLib for HitchensUnorderedKeySetLib.Set;\r\n\r\n    HitchensUnorderedKeySetLib.Set orderSet;\r\n    mapping(bytes32 => Order) orders;\r\n    HitchensUnorderedKeySetLib.Set cashOutSet;\r\n    mapping(bytes32 => CashOut) cashOuts;\r\n\r\n    \r\n    function retailerConfirmDeliveryOrder(bytes32 _orderCode) onlyRetailer public {\r\n        Order storage or = orders[_orderCode];\r\n        or.orderState = OrderState.DELIVERING;\r\n    }\r\n\r\n    function hostConfirmReceivedOrder(bytes32 _orderCode) onlyHost public {\r\n        Order storage or = orders[_orderCode];\r\n        if(or.orderState != OrderState.RECEIVED){\r\n            or.orderState = OrderState.RECEIVED;\r\n            if(or.authorityConfirmation == true){\r\n                address(or.retailer).transfer(or.totalAmount);\r\n            }\r\n        }else {\r\n            revert(\"This order already complete\");\r\n        }\r\n    }\r\n\r\n    function authorityConfirmReceivedOrder(bytes32 _orderCode) onlyAuthority public {\r\n        Order storage or = orders[_orderCode];\r\n        if(or.authorityConfirmation == false){\r\n            or.authorityConfirmation = true;\r\n            if(or.orderState == OrderState.RECEIVED){\r\n                address(or.retailer).transfer(or.totalAmount);\r\n            }\r\n        }else {\r\n            revert(\"This order already complete\");\r\n        }\r\n        \r\n    }\r\n\r\n    //ORDER CRUD\r\n    function addOrder(bytes32 _orderCode, address payable _retailer, string memory _receiptURI, uint256 _totalAmount) originFromCampaign public{\r\n        Order memory or = Order(_totalAmount,_receiptURI,_retailer, OrderState.ORDERING,false);\r\n        orders[_orderCode] = or;\r\n        orderSet.insert(_orderCode);\r\n    }\r\n\r\n    function getOrderByCode(bytes32 _orderCode) public view returns(uint256 totalAmount,string memory receiptURI,address retailer,OrderState orderState,bool authorityConfirmation){\r\n        Order memory or = orders[_orderCode];\r\n        return (or.totalAmount, or.receiptURI, or.retailer, or.orderState, or.authorityConfirmation);\r\n    }\r\n\r\n    function getOrderList() public view returns(bytes32[] memory) {\r\n        return orderSet.listKey();\r\n    }\r\n\r\n    function cancelOrder(bytes32 _orderCode) public{\r\n        orderSet.remove(_orderCode);\r\n        delete orders[_orderCode];\r\n    }\r\n\r\n    function orderCodeExist(bytes32 _orderCode) public view returns(bool check){\r\n        if(orderSet.exists(_orderCode) == false){\r\n            return false;\r\n        } else {\r\n            return true;\r\n        }\r\n    }\r\n\r\n\r\n    //CASHOUT CRUD\r\n    function addCashOut(bytes32 _cashOutCode, uint256 _amount) originFromCampaign public{\r\n        CashOut memory or = CashOut(_amount,false);\r\n        cashOuts[_cashOutCode] = or;\r\n        cashOutSet.insert(_cashOutCode);\r\n    }\r\n\r\n    function getCashOutByCode(bytes32 _cashOutCode) public view returns(uint256 amount,bool authorityConfirmation){\r\n        CashOut memory or = cashOuts[_cashOutCode];\r\n        return (or.amount, or.authorityConfirmation);\r\n    }\r\n\r\n    function getCashOutList() public view returns(bytes32[] memory) {\r\n        return cashOutSet.listKey();\r\n    }\r\n\r\n    function cancelCashOut(bytes32 _cashOutCode) public{\r\n        cashOutSet.remove(_cashOutCode);\r\n        delete cashOuts[_cashOutCode];\r\n    }\r\n\r\n    function cashOutCodeExist(bytes32 _cashOutCode) public view returns(bool check){\r\n        if(cashOutSet.exists(_cashOutCode) == false){\r\n            return false;\r\n        } else {\r\n            return true;\r\n        }\r\n    }\r\n\r\n    function authorityConfirmReceivedCashOut(bytes32 _cashOutCode) onlyAuthority public {\r\n        CashOut storage or = cashOuts[_cashOutCode];\r\n        if(or.authorityConfirmation == false){\r\n            or.authorityConfirmation = true;\r\n            address(host).transfer(or.amount);\r\n        }else {\r\n            revert(\"This cashout already complete\");\r\n        }\r\n    }\r\n\r\n\r\n    //GETTER\r\n    function getHost() public view returns(address) { return host; }\r\n    function getAuthority() public view returns(address) { return authority; }\r\n\r\n    function isDonationActivityHost(address payable _host) public view returns(bool check){\r\n        if(_host == host){\r\n            return true;\r\n        } else {\r\n            return false;\r\n        }\r\n    }\r\n\r\n    function () external payable{\r\n        \r\n    }   \r\n}",
  "sourcePath": "D:\\UNI\\D n\\Main Project\\blockchain_charity_repo\\Truffle Test\\contracts\\DonationActivity.sol",
  "compiler": {
    "name": "solc",
    "version": "0.5.16+commit.9c3226ce.Emscripten.clang"
  },
  "schemaVersion": "3.4.3",
  "updatedAt": "2021-12-11T05:11:23.093Z",
  "devdoc": {
    "methods": {}
  },
  "userdoc": {
    "methods": {}
  }
}