{
  "contractName": "CampaignFactory",
  "abi": [
    {
      "anonymous": false,
      "inputs": [
        {
          "indexed": false,
          "internalType": "address",
          "name": "new_campaign_address",
          "type": "address"
        },
        {
          "indexed": false,
          "internalType": "address",
          "name": "admin",
          "type": "address"
        },
        {
          "indexed": false,
          "internalType": "address",
          "name": "host",
          "type": "address"
        },
        {
          "indexed": false,
          "internalType": "uint256",
          "name": "minimum_contribution",
          "type": "uint256"
        }
      ],
      "name": "LogNewCampaign",
      "type": "event"
    },
    {
      "constant": true,
      "inputs": [],
      "name": "owner",
      "outputs": [
        {
          "internalType": "address",
          "name": "",
          "type": "address"
        }
      ],
      "payable": false,
      "stateMutability": "view",
      "type": "function"
    },
    {
      "constant": true,
      "inputs": [],
      "name": "modifierFromCampaignFactory",
      "outputs": [],
      "payable": false,
      "stateMutability": "pure",
      "type": "function"
    },
    {
      "constant": false,
      "inputs": [
        {
          "internalType": "address",
          "name": "_admin",
          "type": "address"
        }
      ],
      "name": "addAdmin",
      "outputs": [],
      "payable": false,
      "stateMutability": "nonpayable",
      "type": "function"
    },
    {
      "constant": false,
      "inputs": [
        {
          "internalType": "address",
          "name": "_admin",
          "type": "address"
        }
      ],
      "name": "removeAdmin",
      "outputs": [],
      "payable": false,
      "stateMutability": "nonpayable",
      "type": "function"
    },
    {
      "constant": true,
      "inputs": [],
      "name": "getAdminList",
      "outputs": [
        {
          "internalType": "address[]",
          "name": "",
          "type": "address[]"
        }
      ],
      "payable": false,
      "stateMutability": "view",
      "type": "function"
    },
    {
      "constant": false,
      "inputs": [
        {
          "internalType": "address",
          "name": "_retailer",
          "type": "address"
        }
      ],
      "name": "addRetailer",
      "outputs": [],
      "payable": false,
      "stateMutability": "nonpayable",
      "type": "function"
    },
    {
      "constant": false,
      "inputs": [
        {
          "internalType": "address",
          "name": "_retailer",
          "type": "address"
        }
      ],
      "name": "removeRetailer",
      "outputs": [],
      "payable": false,
      "stateMutability": "nonpayable",
      "type": "function"
    },
    {
      "constant": true,
      "inputs": [],
      "name": "getRetailerList",
      "outputs": [
        {
          "internalType": "address[]",
          "name": "",
          "type": "address[]"
        }
      ],
      "payable": false,
      "stateMutability": "view",
      "type": "function"
    },
    {
      "constant": false,
      "inputs": [
        {
          "internalType": "address",
          "name": "_authority",
          "type": "address"
        }
      ],
      "name": "addAuthority",
      "outputs": [],
      "payable": false,
      "stateMutability": "nonpayable",
      "type": "function"
    },
    {
      "constant": false,
      "inputs": [
        {
          "internalType": "address",
          "name": "_authority",
          "type": "address"
        }
      ],
      "name": "removeAuthority",
      "outputs": [],
      "payable": false,
      "stateMutability": "nonpayable",
      "type": "function"
    },
    {
      "constant": true,
      "inputs": [],
      "name": "getAuthorityList",
      "outputs": [
        {
          "internalType": "address[]",
          "name": "",
          "type": "address[]"
        }
      ],
      "payable": false,
      "stateMutability": "view",
      "type": "function"
    },
    {
      "constant": false,
      "inputs": [
        {
          "internalType": "address",
          "name": "_host",
          "type": "address"
        }
      ],
      "name": "validateHost",
      "outputs": [],
      "payable": false,
      "stateMutability": "nonpayable",
      "type": "function"
    },
    {
      "constant": false,
      "inputs": [
        {
          "internalType": "address",
          "name": "_host",
          "type": "address"
        }
      ],
      "name": "rejectValidateRequestHost",
      "outputs": [],
      "payable": false,
      "stateMutability": "nonpayable",
      "type": "function"
    },
    {
      "constant": false,
      "inputs": [
        {
          "internalType": "address",
          "name": "_host",
          "type": "address"
        }
      ],
      "name": "removeValidatedHost",
      "outputs": [],
      "payable": false,
      "stateMutability": "nonpayable",
      "type": "function"
    },
    {
      "constant": true,
      "inputs": [],
      "name": "getValidatedHostList",
      "outputs": [
        {
          "internalType": "address[]",
          "name": "",
          "type": "address[]"
        }
      ],
      "payable": false,
      "stateMutability": "view",
      "type": "function"
    },
    {
      "constant": false,
      "inputs": [
        {
          "internalType": "bytes32",
          "name": "requestToOpenCampaign",
          "type": "bytes32"
        }
      ],
      "name": "newCampaign",
      "outputs": [],
      "payable": false,
      "stateMutability": "nonpayable",
      "type": "function"
    },
    {
      "constant": false,
      "inputs": [
        {
          "internalType": "bytes32",
          "name": "requestToOpenCampaign",
          "type": "bytes32"
        }
      ],
      "name": "rejectCreateCampaign",
      "outputs": [],
      "payable": false,
      "stateMutability": "nonpayable",
      "type": "function"
    },
    {
      "constant": false,
      "inputs": [
        {
          "internalType": "address",
          "name": "campaign_key",
          "type": "address"
        }
      ],
      "name": "removeCampaign",
      "outputs": [],
      "payable": false,
      "stateMutability": "nonpayable",
      "type": "function"
    },
    {
      "constant": true,
      "inputs": [
        {
          "internalType": "address",
          "name": "campaign_key",
          "type": "address"
        }
      ],
      "name": "getCampaign",
      "outputs": [
        {
          "internalType": "address",
          "name": "host",
          "type": "address"
        },
        {
          "internalType": "uint256",
          "name": "minimum_contribution",
          "type": "uint256"
        }
      ],
      "payable": false,
      "stateMutability": "view",
      "type": "function"
    },
    {
      "constant": true,
      "inputs": [],
      "name": "getCampaignList",
      "outputs": [
        {
          "internalType": "address[]",
          "name": "",
          "type": "address[]"
        }
      ],
      "payable": false,
      "stateMutability": "view",
      "type": "function"
    },
    {
      "constant": false,
      "inputs": [],
      "name": "requestToBeValidHost",
      "outputs": [],
      "payable": false,
      "stateMutability": "nonpayable",
      "type": "function"
    },
    {
      "constant": true,
      "inputs": [],
      "name": "getRequestToBeHostList",
      "outputs": [
        {
          "internalType": "address[]",
          "name": "",
          "type": "address[]"
        }
      ],
      "payable": false,
      "stateMutability": "view",
      "type": "function"
    },
    {
      "constant": true,
      "inputs": [],
      "name": "hostValidateState",
      "outputs": [
        {
          "internalType": "int256",
          "name": "",
          "type": "int256"
        }
      ],
      "payable": false,
      "stateMutability": "view",
      "type": "function"
    },
    {
      "constant": false,
      "inputs": [],
      "name": "cancelToBeValidHostRequest",
      "outputs": [],
      "payable": false,
      "stateMutability": "nonpayable",
      "type": "function"
    },
    {
      "constant": false,
      "inputs": [
        {
          "internalType": "bytes32",
          "name": "requestOpenCampaignCode",
          "type": "bytes32"
        },
        {
          "internalType": "uint32",
          "name": "minimumContribution",
          "type": "uint32"
        }
      ],
      "name": "requestToOpenCampaign",
      "outputs": [],
      "payable": false,
      "stateMutability": "nonpayable",
      "type": "function"
    },
    {
      "constant": true,
      "inputs": [],
      "name": "getRequestToOpenCampaignList",
      "outputs": [
        {
          "internalType": "bytes32[]",
          "name": "",
          "type": "bytes32[]"
        }
      ],
      "payable": false,
      "stateMutability": "view",
      "type": "function"
    },
    {
      "constant": true,
      "inputs": [
        {
          "internalType": "bytes32",
          "name": "key",
          "type": "bytes32"
        }
      ],
      "name": "getRequestToOpenCampaignListAtKey",
      "outputs": [
        {
          "internalType": "address payable",
          "name": "_requestToOpenCampaignHost",
          "type": "address"
        },
        {
          "internalType": "uint32",
          "name": "_requestToOpenCampaignMinimumContribution",
          "type": "uint32"
        }
      ],
      "payable": false,
      "stateMutability": "view",
      "type": "function"
    },
    {
      "constant": false,
      "inputs": [
        {
          "internalType": "bytes32",
          "name": "requestToOpenCampaignCode",
          "type": "bytes32"
        }
      ],
      "name": "cancelOpenCampaignRequest",
      "outputs": [],
      "payable": false,
      "stateMutability": "nonpayable",
      "type": "function"
    },
    {
      "constant": true,
      "inputs": [
        {
          "internalType": "address",
          "name": "validatedHostAddress",
          "type": "address"
        }
      ],
      "name": "isHostValidated",
      "outputs": [
        {
          "internalType": "bool",
          "name": "_result",
          "type": "bool"
        }
      ],
      "payable": false,
      "stateMutability": "view",
      "type": "function"
    },
    {
      "constant": true,
      "inputs": [
        {
          "internalType": "address",
          "name": "_retailer",
          "type": "address"
        }
      ],
      "name": "isRetailer",
      "outputs": [
        {
          "internalType": "bool",
          "name": "_result",
          "type": "bool"
        }
      ],
      "payable": false,
      "stateMutability": "view",
      "type": "function"
    },
    {
      "constant": true,
      "inputs": [
        {
          "internalType": "address",
          "name": "_authority",
          "type": "address"
        }
      ],
      "name": "isAuthority",
      "outputs": [
        {
          "internalType": "bool",
          "name": "_result",
          "type": "bool"
        }
      ],
      "payable": false,
      "stateMutability": "view",
      "type": "function"
    }
  ],
  "bytecode": "0x6080604052600080546001600160a01b03191633179055615eb7806100256000396000f3fe60806040523480156200001157600080fd5b5060043610620002145760003560e01c806372fcc96511620001295780639ce9d19a11620000b1578063d544e010116200007b578063d544e01014620005d7578063d9f774fc1462000600578063e4663a5b146200060a578063ffc8ca6e14620006335762000214565b80639ce9d19a1462000571578063b63e78f8146200057b578063b9e517d71462000585578063c5a308f914620005ae5762000214565b80638e5604a511620000f35780638e5604a5146200052a5780638ec4f50514620005345780638f2a5c7e146200055d5780639ce6113d14620005675762000214565b806372fcc9651462000482578063731301cf146200048c5780637da37c3c14620004d85780638da5cb5b14620005045762000214565b806345b5e86f11620001ad57806352d209e7116200017757806352d209e714620003e75780635da09b88146200040757806370099ec814620004305780637048027514620004595762000214565b806345b5e86f14620003505780634ba20b26146200035a5780635084b67b14620003765780635190604714620003be5762000214565b80632330f24711620001ef5780632330f24714620002c057806326defa7314620002fd57806327b383b114620003265780633590125614620003305762000214565b80630410b0b3146200021957806307e9002f14620002755780631785f53c1462000297575b600080fd5b620002236200065c565b60408051602080825283518183015283519192839290830191858101910280838360005b838110156200026157818101518382015260200162000247565b505050509050019250505060405180910390f35b62000295600480360360208110156200028d57600080fd5b503562000670565b005b6200029560048036036020811015620002af57600080fd5b50356001600160a01b03166200089a565b620002e960048036036020811015620002d857600080fd5b50356001600160a01b031662000964565b604080519115158252519081900360200190f35b62000295600480360360208110156200031557600080fd5b50356001600160a01b031662000991565b6200022362000a44565b62000295600480360360208110156200034857600080fd5b503562000a52565b6200022362000b52565b6200036462000be4565b60408051918252519081900360200190f35b62000396600480360360208110156200038e57600080fd5b503562000c33565b604080516001600160a01b03909316835263ffffffff90911660208301528051918290030190f35b6200029560048036036020811015620003d657600080fd5b50356001600160a01b031662000d07565b6200029560048036036020811015620003ff57600080fd5b503562000de9565b620002e9600480360360208110156200041f57600080fd5b50356001600160a01b031662000f74565b62000295600480360360208110156200044857600080fd5b50356001600160a01b031662000f89565b62000295600480360360208110156200047157600080fd5b50356001600160a01b031662001050565b6200029562001118565b620004b560048036036020811015620004a457600080fd5b50356001600160a01b03166200119a565b604080516001600160a01b03909316835260208301919091528051918290030190f35b6200029560048036036040811015620004f057600080fd5b508035906020013563ffffffff16620012e9565b6200050e62001426565b604080516001600160a01b039092168252519081900360200190f35b6200022362001435565b62000295600480360360208110156200054c57600080fd5b50356001600160a01b031662001443565b62000295620014f6565b62000223620014f8565b620002956200158a565b620002236200168c565b62000295600480360360208110156200059d57600080fd5b50356001600160a01b03166200169a565b6200029560048036036020811015620005c657600080fd5b50356001600160a01b03166200178e565b6200029560048036036020811015620005ef57600080fd5b50356001600160a01b0316620018cf565b6200022362001996565b62000295600480360360208110156200062257600080fd5b50356001600160a01b0316620019a4565b620002e9600480360360208110156200064b57600080fd5b50356001600160a01b031662001a48565b60606200066a600162001a5d565b90505b90565b6200068360053363ffffffff62001ac516565b806200069957506000546001600160a01b031633145b620006da576040805162461bcd60e51b815260206004820152601a602482015260008051602062005c7a833981519152604482015290519081900360640190fd5b620006ed600d8263ffffffff62001b2516565b6200072a5760405162461bcd60e51b815260040180806020018281038252602281526020018062005c366022913960400191505060405180910390fd5b6200073462001f36565b506000818152600f602090815260408083208151808301835290546001600160a01b038116808352600160a01b90910463ffffffff16938201849052915190939291903290620007849062001f4d565b63ffffffff90931683526001600160a01b039182166020840152166040808301919091525190819003606001906000f080158015620007c7573d6000803e3d6000fd5b506001600160a01b038116600081815260116020526040902080546001600160a01b031916909117905590506200080660018263ffffffff62001b7016565b62000819600d8463ffffffff62001c4516565b6000838152600f602090815260409182902080546001600160c01b031916905583518482015183516001600160a01b0386811682523294820194909452929091168284015263ffffffff16606082015290517f5948053af121e790a339d98109484d88df5a0d32a10cae2ca231701091c74a929181900360800190a1505050565b6000546001600160a01b03163314620008e9576040805162461bcd60e51b815260206004820152601d602482015260008051602062005d69833981519152604482015290519081900360640190fd5b620008fc60058263ffffffff62001ac516565b6200094e576040805162461bcd60e51b815260206004820152601b60248201527f54686973206163636f756e74206973206e6f742061646d696e20210000000000604482015290519081900360640190fd5b6200096160058263ffffffff62001d2116565b50565b600062000979600b8363ffffffff62001ac516565b1562000988575060016200098c565b5060005b919050565b6000546001600160a01b03163314620009e0576040805162461bcd60e51b815260206004820152601d602482015260008051602062005d69833981519152604482015290519081900360640190fd5b620009f3600b8263ffffffff62001ac516565b1562000a315760405162461bcd60e51b815260040180806020018281038252602381526020018062005e606023913960400191505060405180910390fd5b62000961600b8263ffffffff62001b7016565b60606200066a600b62001a5d565b62000a6560053363ffffffff62001ac516565b8062000a7b57506000546001600160a01b031633145b62000abc576040805162461bcd60e51b815260206004820152601a602482015260008051602062005c7a833981519152604482015290519081900360640190fd5b62000acf600d8263ffffffff62001b2516565b62000b21576040805162461bcd60e51b815260206004820181905260248201527f496e76616c69642072657175657374546f4f70656e43616d706169676e204944604482015290519081900360640190fd5b62000b34600d8263ffffffff62001c4516565b6000908152600f6020526040902080546001600160c01b0319169055565b606062000b6760053363ffffffff62001ac516565b8062000b7d57506000546001600160a01b031633145b8062000b97575062000b9760033363ffffffff62001ac516565b62000bd8576040805162461bcd60e51b815260206004820152601a602482015260008051602062005c7a833981519152604482015290519081900360640190fd5b6200066a600762001a5d565b600062000bf960073363ffffffff62001ac516565b1562000c08575060016200066d565b62000c1b60033363ffffffff62001ac516565b1562000c2a575060026200066d565b5060006200066d565b60008062000c4960053363ffffffff62001ac516565b8062000c5f57506000546001600160a01b031633145b8062000c79575062000c7960033363ffffffff62001ac516565b62000cba576040805162461bcd60e51b815260206004820152601a602482015260008051602062005c7a833981519152604482015290519081900360640190fd5b62000cc462001f36565b5050506000908152600f60209081526040918290208251808401909352546001600160a01b038116808452600160a01b90910463ffffffff169290910182905291565b62000d1a60053363ffffffff62001ac516565b8062000d3057506000546001600160a01b031633145b62000d71576040805162461bcd60e51b815260206004820152601a602482015260008051602062005c7a833981519152604482015290519081900360640190fd5b62000d8460038263ffffffff62001ac516565b62000dd6576040805162461bcd60e51b815260206004820152601860248201527f54686973206163636f756e74206973206e6f7420686f73740000000000000000604482015290519081900360640190fd5b6200096160038263ffffffff62001d2116565b62000dfc60033363ffffffff62001ac516565b62000e4e576040805162461bcd60e51b815260206004820152601a60248201527f596f7520617265206e6f7420612076616c696420686f73742021000000000000604482015290519081900360640190fd5b62000e61600d8263ffffffff62001b2516565b62000eb3576040805162461bcd60e51b815260206004820181905260248201527f496e76616c69642072657175657374546f4f70656e43616d706169676e204944604482015290519081900360640190fd5b62000ebd62001f36565b506000818152600f60209081526040918290208251808401909352546001600160a01b038116808452600160a01b90910463ffffffff169183019190915233141562000f385762000f16600d8363ffffffff62001c4516565b6000828152600f6020526040902080546001600160c01b031916905562000f70565b60405162461bcd60e51b815260040180806020018281038252602781526020018062005dc86027913960400191505060405180910390fd5b5050565b60006200097960098363ffffffff62001ac516565b6000546001600160a01b0316331462000fd8576040805162461bcd60e51b815260206004820152601d602482015260008051602062005d69833981519152604482015290519081900360640190fd5b62000feb60098263ffffffff62001ac516565b6200103d576040805162461bcd60e51b815260206004820152601e60248201527f54686973206163636f756e74206973206e6f742052657461696c657220210000604482015290519081900360640190fd5b6200096160098263ffffffff62001d2116565b6000546001600160a01b031633146200109f576040805162461bcd60e51b815260206004820152601d602482015260008051602062005d69833981519152604482015290519081900360640190fd5b620010b260058263ffffffff62001ac516565b1562001105576040805162461bcd60e51b815260206004820152601f60248201527f54686973206163636f756e742069732041646d696e20616c7265616479202100604482015290519081900360640190fd5b6200096160058263ffffffff62001b7016565b6200112b60073363ffffffff62001ac516565b620011685760405162461bcd60e51b815260040180806020018281038252602281526020018062005def6022913960400191505060405180910390fd5b6200117b60073363ffffffff62001d2116565b33600090815260106020526040902080546001600160a01b0319169055565b600080620011b060018463ffffffff62001ac516565b620011ed5760405162461bcd60e51b815260040180806020018281038252602881526020018062005e116028913960400191505060405180910390fd5b6001600160a01b038084166000908152601160209081526040918290205482516320bc442560e01b8152925193169283926320bc4425926004808301939192829003018186803b1580156200124157600080fd5b505afa15801562001256573d6000803e3d6000fd5b505050506040513d60208110156200126d57600080fd5b50516040805163f84038b160e01b815290516001600160a01b0384169163f84038b1916004808301926020929190829003018186803b158015620012b057600080fd5b505afa158015620012c5573d6000803e3d6000fd5b505050506040513d6020811015620012dc57600080fd5b5051909350915050915091565b620012fc60033363ffffffff62001ac516565b6200134e576040805162461bcd60e51b815260206004820152601a60248201527f596f7520617265206e6f7420612076616c696420686f73742021000000000000604482015290519081900360640190fd5b62001361600d8363ffffffff62001b2516565b156200139f5760405162461bcd60e51b815260040180806020018281038252602a81526020018062005c0c602a913960400191505060405180910390fd5b620013a962001f36565b5060408051808201825233815263ffffffff80841660208084019182526000878152600f909152939093208251815494518316600160a01b0263ffffffff60a01b196001600160a01b03929092166001600160a01b0319909616959095171693909317909255906200142190600d90859062001e2016565b505050565b6000546001600160a01b031681565b60606200066a600362001a5d565b6000546001600160a01b0316331462001492576040805162461bcd60e51b815260206004820152601d602482015260008051602062005d69833981519152604482015290519081900360640190fd5b620014a560098263ffffffff62001ac516565b15620014e35760405162461bcd60e51b815260040180806020018281038252602281526020018062005c586022913960400191505060405180910390fd5b6200096160098263ffffffff62001b7016565b565b60606200150d60053363ffffffff62001ac516565b806200152357506000546001600160a01b031633145b806200153d57506200153d60033363ffffffff62001ac516565b6200157e576040805162461bcd60e51b815260206004820152601a602482015260008051602062005c7a833981519152604482015290519081900360640190fd5b6200066a600d62001ed2565b6200159d60033363ffffffff62001ac516565b15620015e9576040805162461bcd60e51b8152602060048201526016602482015275486f73742069732076616c696420616c72656164792160501b604482015290519081900360640190fd5b620015fc60073363ffffffff62001ac516565b156200163a5760405162461bcd60e51b815260040180806020018281038252602281526020018062005cdd6022913960400191505060405180910390fd5b6200164462001f5b565b5060408051602080820183523380835260008181526010909252929020815181546001600160a01b0319166001600160a01b0390911617905590620009619060079062001b70565b60606200066a600962001a5d565b620016ad60053363ffffffff62001ac516565b80620016c357506000546001600160a01b031633145b62001704576040805162461bcd60e51b815260206004820152601a602482015260008051602062005c7a833981519152604482015290519081900360640190fd5b6200171760078263ffffffff62001ac516565b620017545760405162461bcd60e51b815260040180806020018281038252602781526020018062005e396027913960400191505060405180910390fd5b6200176760078263ffffffff62001d2116565b6001600160a01b0316600090815260106020526040902080546001600160a01b0319169055565b620017a160053363ffffffff62001ac516565b80620017b757506000546001600160a01b031633145b620017f8576040805162461bcd60e51b815260206004820152601a602482015260008051602062005c7a833981519152604482015290519081900360640190fd5b6200180b60038263ffffffff62001ac516565b1562001857576040805162461bcd60e51b8152602060048201526016602482015275486f73742069732076616c696420616c72656164792160501b604482015290519081900360640190fd5b6200186a60078263ffffffff62001ac516565b620018bc576040805162461bcd60e51b815260206004820181905260248201527f486f737420686176656e2774207265717565737420746f20626520486f73742e604482015290519081900360640190fd5b6200175460038263ffffffff62001b7016565b6000546001600160a01b031633146200191e576040805162461bcd60e51b815260206004820152601d602482015260008051602062005d69833981519152604482015290519081900360640190fd5b62001931600b8263ffffffff62001ac516565b62001983576040805162461bcd60e51b815260206004820152601f60248201527f54686973206163636f756e74206973206e6f7420417574686f72697479202100604482015290519081900360640190fd5b62000961600b8263ffffffff62001d2116565b60606200066a600562001a5d565b620019b760053363ffffffff62001ac516565b80620019cd57506000546001600160a01b031633145b62001a0e576040805162461bcd60e51b815260206004820152601a602482015260008051602062005c7a833981519152604482015290519081900360640190fd5b62001a2160018263ffffffff62001d2116565b6001600160a01b0316600090815260116020526040902080546001600160a01b0319169055565b60006200097960038363ffffffff62001ac516565b60608160010180548060200260200160405190810160405280929190818152602001828054801562001ab957602002820191906000526020600020905b81546001600160a01b0316815260019091019060200180831162001a9a575b50505050509050919050565b600182015460009062001adb5750600062001b1f565b6001600160a01b038216600081815260208590526040902054600185018054909190811062001b0657fe5b6000918252602090912001546001600160a01b03161490505b92915050565b600182015460009062001b3b5750600062001b1f565b600082815260208490526040902054600184018054849290811062001b5c57fe5b906000526020600020015414905092915050565b6001600160a01b03811662001bb75760405162461bcd60e51b815260040180806020018281038252602881526020018062005be46028913960400191505060405180910390fd5b62001bc3828262001ac5565b1562001c015760405162461bcd60e51b815260040180806020018281038252604381526020018062005c9a6043913960600191505060405180910390fd5b60018281018054918201815560009081526020808220830180546001600160a01b039095166001600160a01b03199095168517905592815292909152604090912055565b62001c51828262001b25565b62001c8e5760405162461bcd60e51b815260040180806020018281038252603581526020018062005cff6035913960400191505060405180910390fd5b600082600101600162001ca18562001f2f565b038154811062001cad57fe5b600091825260208083209091015484835290859052604080832054828452922082905560018501805491935083918390811062001ce657fe5b60009182526020808320909101929092558481529085905260408120556001840180549062001d1a90600019830162001f6d565b5050505050565b62001d2d828262001ac5565b62001d6a5760405162461bcd60e51b815260040180806020018281038252603f81526020018062005d89603f913960400191505060405180910390fd5b600082600101600162001d7d8562001f2f565b038154811062001d8957fe5b60009182526020808320909101546001600160a01b0385811684529186905260408084205492909116808452922081905560018501805492935090918391908390811062001dd357fe5b600091825260208083209190910180546001600160a01b0319166001600160a01b0394851617905591851681529085905260408120556001840180549062001d1a90600019830162001f6d565b8062001e5e5760405162461bcd60e51b815260040180806020018281038252602881526020018062005be46028913960400191505060405180910390fd5b62001e6a828262001b25565b1562001ea85760405162461bcd60e51b815260040180806020018281038252603581526020018062005d346035913960400191505060405180910390fd5b60018281018054918201815560009081526020808220830184905592815292909152604090912055565b60608160010180548060200260200160405190810160405280929190818152602001828054801562001ab957602002820191906000526020600020905b81548152602001906001019080831162001f0f5750505050509050919050565b6001015490565b604080518082019091526000808252602082015290565b613c348062001fb083390190565b60408051602081019091526000815290565b8154818355818111156200142157600083815260209020620014219181019083016200066d91905b8082111562001fab576000815560010162001f95565b509056fe608060405234801561001057600080fd5b50604051613c34380380613c348339818101604052606081101561003357600080fd5b508051602082015160409283015183516347952e3f60e11b8152935192939192909133918291638f2a5c7e916004808301926000929190829003018186803b15801561007e57600080fd5b505afa158015610092573d6000803e3d6000fd5b5050600080546001600160a01b039687166001600160a01b0319918216179091556002969096555050600180549290931691841691909117909155506003805490911633179055613b4c806100e86000396000f3fe608060405260043610620001e25760003560e01c80638729a0e81162000103578063d7bb99ba1162000097578063f437bc59116200006d578063f437bc591462000787578063f7779d48146200079f578063f84038b114620007cd578063f851a44014620007e557620001e2565b8063d7bb99ba1462000765578063da6c0ba91462000372578063e91b6501146200076f57620001e2565b80639e01396811620000d95780639e013968146200051c578063af1f668414620005fe578063b59f80cd146200062c578063cdf0f14a146200068957620001e2565b80638729a0e8146200047d57806389df171914620004d6578063937e09b1146200050457620001e2565b80633dd555dd116200017b5780635effc5d511620001515780635effc5d514620003f157806366e07006146200041f5780636e9960c3146200044d57806374c4c604146200046557620001e2565b80633dd555dd146200037257806340874ea4146200038a5780634a6b419c14620003a257620001e2565b80631ff8885211620001bd5780631ff88852146200027f57806320bc442514620002bc5780632fbd685614620002f0578063315d4e67146200030857620001e2565b806312065fe014620001e45780631825a0be146200020e5780631e8e2808146200023c575b005b348015620001f157600080fd5b50620001fc620007fd565b60408051918252519081900360200190f35b3480156200021b57600080fd5b50620001e2600480360360208110156200023457600080fd5b503562000802565b3480156200024957600080fd5b50620001e2600480360360608110156200026257600080fd5b50803590602081013590604001356001600160a01b0316620008d7565b3480156200028c57600080fd5b50620001e260048036036040811015620002a557600080fd5b50803590602001356001600160a01b031662000b3e565b348015620002c957600080fd5b50620002d462000d06565b604080516001600160a01b039092168252519081900360200190f35b348015620002fd57600080fd5b50620002d462000d15565b3480156200031557600080fd5b506200032062000d24565b60408051602080825283518183015283519192839290830191858101910280838360005b838110156200035e57818101518382015260200162000344565b505050509050019250505060405180910390f35b3480156200037f57600080fd5b50620002d462000d37565b3480156200039757600080fd5b506200032062000d46565b348015620003af57600080fd5b50620001e260048036036080811015620003c857600080fd5b508035906001600160a01b03602082013581169160408101358216916060909101351662000d54565b348015620003fe57600080fd5b50620001fc600480360360208110156200041757600080fd5b503562000ea2565b3480156200042c57600080fd5b50620001e2600480360360208110156200044557600080fd5b503562000f07565b3480156200045a57600080fd5b50620002d462001280565b3480156200047257600080fd5b50620003206200128f565b3480156200048a57600080fd5b50620004ab60048036036020811015620004a357600080fd5b50356200129d565b604080516001600160a01b039485168152928416602084015292168183015290519081900360600190f35b348015620004e357600080fd5b50620001e260048036036020811015620004fc57600080fd5b5035620012f9565b3480156200051157600080fd5b50620001fc620013f3565b3480156200052957600080fd5b506200054a600480360360208110156200054257600080fd5b5035620013f9565b60405180856001600160a01b03166001600160a01b03168152602001846001600160a01b03166001600160a01b0316815260200180602001838152602001828103825284818151815260200191508051906020019080838360005b83811015620005bf578181015183820152602001620005a5565b50505050905090810190601f168015620005ed5780820380516001836020036101000a031916815260200191505b509550505050505060405180910390f35b3480156200060b57600080fd5b50620001e2600480360360208110156200062457600080fd5b503562001555565b3480156200063957600080fd5b5062000663600480360360208110156200065257600080fd5b50356001600160a01b03166200165f565b604080516001600160a01b03938416815291909216602082015281519081900390910190f35b3480156200069657600080fd5b50620001e2600480360360a0811015620006af57600080fd5b8135916001600160a01b03602082013581169260408301359091169190810190608081016060820135640100000000811115620006eb57600080fd5b820183602082011115620006fe57600080fd5b803590602001918460018302840111640100000000831117156200072157600080fd5b91908080601f0160208091040260200160405190810160405280939291908181526020018383808284376000920191909152509295505091359250620017ac915050565b620001e262001ade565b3480156200077c57600080fd5b506200032062001aef565b3480156200079457600080fd5b50620002d462001afd565b348015620007ac57600080fd5b50620001e260048036036020811015620007c557600080fd5b503562001b0c565b348015620007da57600080fd5b50620001fc62001d26565b348015620007f257600080fd5b50620002d462001d2c565b475b90565b6000546001600160a01b03163314806200082657506001546001600160a01b031633145b620008635760405162461bcd60e51b8152600401808060200182810382526025815260200180620038ad6025913960400191505060405180910390fd5b62000876600b8263ffffffff62001d3b16565b620008b35760405162461bcd60e51b815260040180806020018281038252603b815260200180620037d3603b913960400191505060405180910390fd5b620008c6600b8263ffffffff62001d8716565b6000908152600f6020526040812055565b6000546001600160a01b0316331462000937576040805162461bcd60e51b815260206004820152601c60248201527f596f75206d75737420626520686f737420746f20657865637574652e00000000604482015290519081900360640190fd5b80836000829050806001600160a01b0316635c73b79e836040518263ffffffff1660e01b81526004018082815260200191505060206040518083038186803b1580156200098357600080fd5b505afa15801562000998573d6000803e3d6000fd5b505050506040513d6020811015620009af57600080fd5b505115156001141562000a09576040805162461bcd60e51b815260206004820152601a60248201527f43616e6e6f74206475706c6963617465207468697320636f6465000000000000604482015290519081900360640190fd5b6040805163447c795960e11b81523360048201529051859182916001600160a01b038316916388f8f2b2916024808301926020929190829003018186803b15801562000a5457600080fd5b505afa15801562000a69573d6000803e3d6000fd5b505050506040513d602081101562000a8057600080fd5b505162000abf5760405162461bcd60e51b815260040180806020018281038252602a81526020018062003a16602a913960400191505060405180910390fd5b62000ad2600b8963ffffffff62001d3b16565b1562000b105760405162461bcd60e51b81526004018080602001828103825260418152602001806200380e6041913960600191505060405180910390fd5b6000888152600f6020526040902087905562000b34600b8963ffffffff62001e5c16565b5050505050505050565b6001546001600160a01b0316331462000b9e576040805162461bcd60e51b815260206004820152601d60248201527f596f75206d7573742062652061646d696e20746f20657865637574652e000000604482015290519081900360640190fd5b62000bb1600b8363ffffffff62001d3b16565b62000bee5760405162461bcd60e51b815260040180806020018281038252603b815260200180620037d3603b913960400191505060405180910390fd5b6000828152600f6020526040902054814782111562000c3f5760405162461bcd60e51b81526004018080602001828103825260238152602001806200388a6023913960400191505060405180910390fd5b806001600160a01b0316632b140eda85846040518363ffffffff1660e01b81526004018083815260200182815260200192505050600060405180830381600087803b15801562000c8e57600080fd5b505af115801562000ca3573d6000803e3d6000fd5b50506040516001600160a01b038616925084156108fc02915084906000818181858888f1935050505015801562000cde573d6000803e3d6000fd5b5062000cf2600b8563ffffffff62001d8716565b5050506000908152600f6020526040812055565b6000546001600160a01b031690565b6003546001600160a01b031681565b606062000d32600962001f0e565b905090565b6003546001600160a01b031690565b606062000d32600b62001f0e565b6000546001600160a01b0316331462000db4576040805162461bcd60e51b815260206004820152601c60248201527f596f75206d75737420626520686f737420746f20657865637574652e00000000604482015290519081900360640190fd5b62000dc760078563ffffffff62001d3b16565b1562000e055760405162461bcd60e51b8152600401808060200182810382526034815260200180620039a96034913960400191505060405180910390fd5b62000e0f6200210d565b50604080516060810182526001600160a01b038086168252848116602080840191825285831684860190815260008a8152600d909252949020835181549084166001600160a01b031991821617825591516001820180549185169184169190911790559351600290940180549490921693169290921790915562000e9b60078663ffffffff62001e5c16565b5050505050565b600062000eb7600b8363ffffffff62001d3b16565b62000ef45760405162461bcd60e51b815260040180806020018281038252603b8152602001806200384f603b913960400191505060405180910390fd5b506000908152600f602052604090205490565b6001546001600160a01b0316331462000f67576040805162461bcd60e51b815260206004820152601d60248201527f596f75206d7573742062652061646d696e20746f20657865637574652e000000604482015290519081900360640190fd5b62000f7a60098263ffffffff62001d3b16565b62000fb75760405162461bcd60e51b815260040180806020018281038252603981526020018062003a406039913960400191505060405180910390fd5b62000fc16200212d565b6000828152600e6020908152604091829020825160808101845281546001600160a01b039081168252600180840154909116828501526002808401805487516101009482161594909402600019011691909104601f81018690048602830186018752808352929593949386019391929091830182828015620010875780601f106200105b5761010080835404028352916020019162001087565b820191906000526020600020905b8154815290600101906020018083116200106957829003601f168201915b5050505050815260200160038201548152505090506000816000015190504782606001511115620010ea5760405162461bcd60e51b81526004018080602001828103825260238152602001806200388a6023913960400191505060405180910390fd5b806001600160a01b031663eb170761848460200151856040015186606001516040518563ffffffff1660e01b815260040180858152602001846001600160a01b03166001600160a01b0316815260200180602001838152602001828103825284818151815260200191508051906020019080838360005b838110156200117b57818101518382015260200162001161565b50505050905090810190601f168015620011a95780820380516001836020036101000a031916815260200191505b5095505050505050600060405180830381600087803b158015620011cc57600080fd5b505af1158015620011e1573d6000803e3d6000fd5b5050835160608501516040516001600160a01b03909216935080156108fc029250906000818181858888f1935050505015801562001223573d6000803e3d6000fd5b506200123760098463ffffffff62001d8716565b6000838152600e6020526040812080546001600160a01b0319908116825560018201805490911690559062001270600283018262002167565b600382016000905550505b505050565b6001546001600160a01b031690565b606062000d32600562001f6c565b6000806000620012ac6200210d565b505050600091825250600d6020908152604091829020825160608101845281546001600160a01b039081168083526001840154821694830185905260029093015416930183905292909190565b6000546001600160a01b03163314806200131d57506001546001600160a01b031633145b6200135a5760405162461bcd60e51b8152600401808060200182810382526025815260200180620038ad6025913960400191505060405180910390fd5b6200136d60078263ffffffff62001d3b16565b620013aa5760405162461bcd60e51b815260040180806020018281038252602a8152602001806200397f602a913960400191505060405180910390fd5b620013bd60078263ffffffff62001d8716565b6000908152600d6020526040902080546001600160a01b0319908116825560018201805482169055600290910180549091169055565b60025481565b6000806060816200141260098663ffffffff62001d3b16565b6200144f5760405162461bcd60e51b8152600401808060200182810382526039815260200180620039dd6039913960400191505060405180910390fd5b620014596200212d565b6000868152600e6020908152604091829020825160808101845281546001600160a01b039081168252600180840154909116828501526002808401805487516101009482161594909402600019011691909104601f810186900486028301860187528083529295939493860193919290918301828280156200151f5780601f10620014f3576101008083540402835291602001916200151f565b820191906000526020600020905b8154815290600101906020018083116200150157829003601f168201915b50505091835250506003919091015460209182015281519082015160408301516060909301519199909850919650945092505050565b6000546001600160a01b03163314806200157957506001546001600160a01b031633145b620015b65760405162461bcd60e51b8152600401808060200182810382526025815260200180620038ad6025913960400191505060405180910390fd5b620015c960098263ffffffff62001d3b16565b620016065760405162461bcd60e51b815260040180806020018281038252603981526020018062003a406039913960400191505060405180910390fd5b6200161960098263ffffffff62001d8716565b6000818152600e6020526040812080546001600160a01b0319908116825560018201805490911690559062001652600283018262002167565b6003820160009055505050565b6000806200167560058463ffffffff62001fd316565b620016b25760405162461bcd60e51b815260040180806020018281038252603081526020018062003ae86030913960400191505060405180910390fd5b6001600160a01b038084166000908152600460208181526040928390205483516320bc442560e01b8152935194169384936320bc442593818101939291829003018186803b1580156200170457600080fd5b505afa15801562001719573d6000803e3d6000fd5b505050506040513d60208110156200173057600080fd5b5051604080516307158bc560e51b815290516001600160a01b0384169163e2b178a0916004808301926020929190829003018186803b1580156200177357600080fd5b505afa15801562001788573d6000803e3d6000fd5b505050506040513d60208110156200179f57600080fd5b5051909350915050915091565b6000546001600160a01b031633146200180c576040805162461bcd60e51b815260206004820152601c60248201527f596f75206d75737420626520686f737420746f20657865637574652e00000000604482015290519081900360640190fd5b83856000829050806001600160a01b031663cb1e6758836040518263ffffffff1660e01b81526004018082815260200191505060206040518083038186803b1580156200185857600080fd5b505afa1580156200186d573d6000803e3d6000fd5b505050506040513d60208110156200188457600080fd5b5051151560011415620018de576040805162461bcd60e51b815260206004820152601a60248201527f43616e6e6f74206475706c6963617465207468697320636f6465000000000000604482015290519081900360640190fd5b6040805163447c795960e11b81523360048201529051889182916001600160a01b038316916388f8f2b2916024808301926020929190829003018186803b1580156200192957600080fd5b505afa1580156200193e573d6000803e3d6000fd5b505050506040513d60208110156200195557600080fd5b5051620019945760405162461bcd60e51b815260040180806020018281038252602a81526020018062003a16602a913960400191505060405180910390fd5b620019a760098b63ffffffff62001d3b16565b15620019e55760405162461bcd60e51b815260040180806020018281038252603f81526020018062003a79603f913960400191505060405180910390fd5b620019ef6200212d565b60405180608001604052808b6001600160a01b031681526020018a6001600160a01b0316815260200189815260200188815250905080600e60008d815260200190815260200160002060008201518160000160006101000a8154816001600160a01b0302191690836001600160a01b0316021790555060208201518160010160006101000a8154816001600160a01b0302191690836001600160a01b03160217905550604082015181600201908051906020019062001ab0929190620021b2565b506060919091015160039091015562001ad160098c63ffffffff62001e5c16565b5050505050505050505050565b600254341162001aed57600080fd5b565b606062000d32600762001f0e565b6000546001600160a01b031681565b6001546001600160a01b0316331462001b6c576040805162461bcd60e51b815260206004820152601d60248201527f596f75206d7573742062652061646d696e20746f20657865637574652e000000604482015290519081900360640190fd5b62001b7f60078263ffffffff62001d3b16565b62001bbc5760405162461bcd60e51b815260040180806020018281038252603081526020018062003ab86030913960400191505060405180910390fd5b62001bc66200210d565b506000818152600d60209081526040808320815160608101835281546001600160a01b039081168083526001840154821695830186905260029093015416818401819052925190949391929062001c1d9062002237565b6001600160a01b03938416815291831660208301529091166040808301919091525190819003606001906000f08015801562001c5d573d6000803e3d6000fd5b506001600160a01b038116600081815260046020526040902080546001600160a01b0319169091179055905062001c9c60058263ffffffff6200203116565b62001caf60078463ffffffff62001d8716565b6000838152600d602090815260409182902080546001600160a01b031990811682556001820180548216905560029091018054909116905581516001600160a01b038416815291517fbe4c6026d0afde301115d237ae81c17ab834f7448d2e365380c307b4e50dc0c49281900390910190a1505050565b60025490565b6001546001600160a01b031681565b600182015460009062001d515750600062001d81565b600082815260208490526040902054600184018054849290811062001d7257fe5b90600052602060002001541490505b92915050565b62001d93828262001d3b565b62001dd05760405162461bcd60e51b8152600401808060200182810382526035815260200180620039156035913960400191505060405180910390fd5b600082600101600162001de38562002106565b038154811062001def57fe5b600091825260208083209091015484835290859052604080832054828452922082905560018501805491935083918390811062001e2857fe5b60009182526020808320909101929092558481529085905260408120556001840180549062000e9b90600019830162002245565b8062001e9a5760405162461bcd60e51b8152600401808060200182810382526028815260200180620037ab6028913960400191505060405180910390fd5b62001ea6828262001d3b565b1562001ee45760405162461bcd60e51b81526004018080602001828103825260358152602001806200394a6035913960400191505060405180910390fd5b60018281018054918201815560009081526020808220830184905592815292909152604090912055565b60608160010180548060200260200160405190810160405280929190818152602001828054801562001f6057602002820191906000526020600020905b81548152602001906001019080831162001f4b575b50505050509050919050565b60608160010180548060200260200160405190810160405280929190818152602001828054801562001f6057602002820191906000526020600020905b81546001600160a01b0316815260019091019060200180831162001fa95750505050509050919050565b600182015460009062001fe95750600062001d81565b6001600160a01b03821660008181526020859052604090205460018501805490919081106200201457fe5b6000918252602090912001546001600160a01b0316149392505050565b6001600160a01b038116620020785760405162461bcd60e51b8152600401808060200182810382526028815260200180620037ab6028913960400191505060405180910390fd5b62002084828262001fd3565b15620020c25760405162461bcd60e51b8152600401808060200182810382526043815260200180620038d26043913960600191505060405180910390fd5b60018281018054918201815560009081526020808220830180546001600160a01b039095166001600160a01b03199095168517905592815292909152604090912055565b6001015490565b604080516060810182526000808252602082018190529181019190915290565b604051806080016040528060006001600160a01b0316815260200160006001600160a01b0316815260200160608152602001600081525090565b50805460018160011615610100020316600290046000825580601f106200218f5750620021af565b601f016020900490600052602060002090810190620021af919062002267565b50565b828054600181600116156101000203166002900490600052602060002090601f016020900481019282601f10620021f557805160ff191683800117855562002225565b8280016001018555821562002225579182015b828111156200222557825182559160200191906001019062002208565b506200223392915062002267565b5090565b611526806200228583390190565b8154818355818111156200127b576000838152602090206200127b9181019083015b620007ff91905b808211156200223357600081556001016200226e56fe608060405234801561001057600080fd5b5060405162001526380380620015268339818101604052606081101561003557600080fd5b508051602080830151604093840151845163da6c0ba960e01b815294519394919390923392839263da6c0ba992600480840193919291829003018186803b15801561007f57600080fd5b505afa158015610093573d6000803e3d6000fd5b505050506040513d60208110156100a957600080fd5b5051600280546001600160a01b0319166001600160a01b03928316179055604080516001621b9ac960e11b03198152868316600482015290518492879284929183169163ffc8ca6e91602480820192602092909190829003018186803b15801561011257600080fd5b505afa158015610126573d6000803e3d6000fd5b505050506040513d602081101561013c57600080fd5b5051610183576040805162461bcd60e51b81526020600482015260116024820152702cb7ba9030b932903737ba103437b9ba1760791b604482015290519081900360640190fd5b84866000829050806001600160a01b0316632330f247836040518263ffffffff1660e01b815260040180826001600160a01b03166001600160a01b0316815260200191505060206040518083038186803b1580156101e057600080fd5b505afa1580156101f4573d6000803e3d6000fd5b505050506040513d602081101561020a57600080fd5b505161025d576040805162461bcd60e51b815260206004820152601660248201527f596f7520617265206e6f7420617574686f726974792e00000000000000000000604482015290519081900360640190fd5b5050600080546001600160a01b03998a166001600160a01b031991821617909155600180549890991697169690961790965550505050505061128180620002a56000396000f3fe60806040526004361061011f5760003560e01c806360d93d78116100a0578063bf7e214f11610064578063bf7e214f146104a3578063cb1e6758146104b8578063e2b178a0146104e2578063eb170761146104f7578063f437bc59146105c15761011f565b806360d93d78146103255780637489ec231461033a57806388f8f2b21461036457806399f4e5ea14610397578063a6f0b2af146103c15761011f565b80632fbd6856116100e75780632fbd68561461023b57806331634eed146102505780633ff2550b1461027a57806358fa468b146102bd5780635c73b79e146102e75761011f565b806303a2775314610121578063163dd8bb1461014b57806320bc4425146101b05780632b140eda146101e15780632d692e3a14610211575b005b34801561012d57600080fd5b5061011f6004803603602081101561014457600080fd5b50356105d6565b34801561015757600080fd5b506101606106d3565b60408051602080825283518183015283519192839290830191858101910280838360005b8381101561019c578181015183820152602001610184565b505050509050019250505060405180910390f35b3480156101bc57600080fd5b506101c56106e5565b604080516001600160a01b039092168252519081900360200190f35b3480156101ed57600080fd5b5061011f6004803603604081101561020457600080fd5b50803590602001356106f4565b34801561021d57600080fd5b5061011f6004803603602081101561023457600080fd5b50356107d3565b34801561024757600080fd5b506101c5610850565b34801561025c57600080fd5b5061011f6004803603602081101561027357600080fd5b503561085f565b34801561028657600080fd5b506102a46004803603602081101561029d57600080fd5b503561091c565b6040805192835290151560208301528051918290030190f35b3480156102c957600080fd5b5061011f600480360360208110156102e057600080fd5b503561095e565b3480156102f357600080fd5b506103116004803603602081101561030a57600080fd5b503561098d565b604080519115158252519081900360200190f35b34801561033157600080fd5b506101606109b5565b34801561034657600080fd5b5061011f6004803603602081101561035d57600080fd5b50356109c1565b34801561037057600080fd5b506103116004803603602081101561038757600080fd5b50356001600160a01b0316610a06565b3480156103a357600080fd5b5061011f600480360360208110156103ba57600080fd5b5035610a2d565b3480156103cd57600080fd5b506103eb600480360360208110156103e457600080fd5b5035610b13565b6040518086815260200180602001856001600160a01b03166001600160a01b0316815260200184600281111561041d57fe5b60ff16815260200183151515158152602001828103825286818151815260200191508051906020019080838360005b8381101561046457818101518382015260200161044c565b50505050905090810190601f1680156104915780820380516001836020036101000a031916815260200191505b50965050505050505060405180910390f35b3480156104af57600080fd5b506101c5610c6a565b3480156104c457600080fd5b50610311600480360360208110156104db57600080fd5b5035610c79565b3480156104ee57600080fd5b506101c5610c8c565b34801561050357600080fd5b5061011f6004803603608081101561051a57600080fd5b8135916001600160a01b036020820135169181019060608101604082013564010000000081111561054a57600080fd5b82018360208201111561055c57600080fd5b8035906020019184600183028401116401000000008311171561057e57600080fd5b91908080601f0160208091040260200160405190810160405280939291908181526020018383808284376000920191909152509295505091359250610c9b915050565b3480156105cd57600080fd5b506101c5610e28565b6001546001600160a01b0316331461062f576040805162461bcd60e51b8152602060048201526017602482015276596f7520617265206e6f7420417574686f72697479202160481b604482015290519081900360640190fd5b60008181526005602052604090206002808201805460ff60a81b1916600160a81b1790555b600282810154600160a01b900460ff169081111561066e57fe5b14801561068b57506002810154600160a81b900460ff1615156001145b156106cf57600281015481546040516001600160a01b039092169181156108fc0291906000818181858888f193505050501580156106cd573d6000803e3d6000fd5b505b5050565b60606106df6003610e37565b90505b90565b6000546001600160a01b031690565b6000339050806001600160a01b031663da6c0ba96040518163ffffffff1660e01b815260040160206040518083038186803b15801561073257600080fd5b505afa158015610746573d6000803e3d6000fd5b505050506040513d602081101561075c57600080fd5b5051600280546001600160a01b0319166001600160a01b03909216919091179055610785611061565b506040805180820182528381526000602080830182815287835260089091529290208151815591516001909201805460ff1916921515929092179091556107cd600685610e93565b50505050565b6000546001600160a01b03163314610827576040805162461bcd60e51b8152602060048201526012602482015271596f7520617265206e6f7420486f7374202160701b604482015290519081900360640190fd5b60008181526005602052604090206002808201805460ff60a01b1916600160a11b179055610654565b6002546001600160a01b031681565b6001546001600160a01b031633146108b8576040805162461bcd60e51b8152602060048201526017602482015276596f7520617265206e6f7420417574686f72697479202160481b604482015290519081900360640190fd5b60008181526008602052604090206001808201805460ff191682179081905560ff16151514156106cf576000805482546040516001600160a01b039092169281156108fc029290818181858888f193505050501580156106cd573d6000803e3d6000fd5b600080610927611061565b5050506000908152600860209081526040918290208251808401909352805480845260019091015460ff1615159290910182905291565b61096f60068263ffffffff610f3f16565b6000908152600860205260408120908155600101805460ff19169055565b60006109a060068363ffffffff61101116565b6109ac575060006109b0565b5060015b919050565b60606106df6006610e37565b6109d260038263ffffffff610f3f16565b6000818152600560205260408120818155906109f16001830182611078565b5060020180546001600160b01b031916905550565b600080546001600160a01b0383811691161415610a25575060016109b0565b5060006109b0565b60025460408051630bb4137160e31b815233600482015290516001600160a01b03909216918291635da09b88916024808301926020929190829003018186803b158015610a7957600080fd5b505afa158015610a8d573d6000803e3d6000fd5b505050506040513d6020811015610aa357600080fd5b5051610aee576040805162461bcd60e51b81526020600482015260156024820152742cb7ba9030b932903737ba103932ba30b4b632b91760591b604482015290519081900360640190fd5b506000908152600560205260409020600201805460ff60a01b1916600160a01b179055565b600060606000806000610b246110bf565b600560008881526020019081526020016000206040518060a001604052908160008201548152602001600182018054600181600116156101000203166002900480601f016020809104026020016040519081016040528092919081815260200182805460018160011615610100020316600290048015610be55780601f10610bba57610100808354040283529160200191610be5565b820191906000526020600020905b815481529060010190602001808311610bc857829003601f168201915b50505091835250506002828101546001600160a01b0381166020840152604090920191600160a01b900460ff1690811115610c1c57fe5b6002811115610c2757fe5b815260029190910154600160a81b900460ff16151560209182015281519082015160408301516060840151608090940151929b919a509850919650945092505050565b6001546001600160a01b031681565b60006109a060038363ffffffff61101116565b6001546001600160a01b031690565b6000339050806001600160a01b031663da6c0ba96040518163ffffffff1660e01b815260040160206040518083038186803b158015610cd957600080fd5b505afa158015610ced573d6000803e3d6000fd5b505050506040513d6020811015610d0357600080fd5b5051600280546001600160a01b0319166001600160a01b03909216919091179055610d2c6110bf565b6040518060a00160405280848152602001858152602001866001600160a01b0316815260200160006002811115610d5f57fe5b81526000602091820181905288815260058252604090208251815582820151805193945084939192610d9992600185019290910190611102565b506040820151600282810180546001600160a01b0319166001600160a01b03909316929092178083556060850151929160ff60a01b1990911690600160a01b908490811115610de457fe5b02179055506080919091015160029091018054911515600160a81b0260ff60a81b19909216919091179055610e2060038763ffffffff610e9316565b505050505050565b6000546001600160a01b031681565b606081600101805480602002602001604051908101604052809291908181526020018280548015610e8757602002820191906000526020600020905b815481526020019060010190808311610e73575b50505050509050919050565b80610ecf5760405162461bcd60e51b81526004018080602001828103825260288152602001806111bb6028913960400191505060405180910390fd5b610ed98282611011565b15610f155760405162461bcd60e51b81526004018080602001828103825260358152602001806112186035913960400191505060405180910390fd5b60018281018054918201815560009081526020808220830184905592815292909152604090912055565b610f498282611011565b610f845760405162461bcd60e51b81526004018080602001828103825260358152602001806111e36035913960400191505060405180910390fd5b6000826001016001610f958561105a565b0381548110610fa057fe5b6000918252602080832090910154848352908590526040808320548284529220829055600185018054919350839183908110610fd857fe5b60009182526020808320909101929092558481529085905260408120556001840180549061100a906000198301611180565b5050505050565b600182015460009061102557506000611054565b600082815260208490526040902054600184018054849290811061104557fe5b90600052602060002001541490505b92915050565b6001015490565b604080518082019091526000808252602082015290565b50805460018160011615610100020316600290046000825580601f1061109e57506110bc565b601f0160209004906000526020600020908101906110bc91906111a0565b50565b6040518060a00160405280600081526020016060815260200160006001600160a01b03168152602001600060028111156110f557fe5b8152600060209091015290565b828054600181600116156101000203166002900490600052602060002090601f016020900481019282601f1061114357805160ff1916838001178555611170565b82800160010185558215611170579182015b82811115611170578251825591602001919060010190611155565b5061117c9291506111a0565b5090565b8154818355818111156106cd576000838152602090206106cd9181019083015b6106e291905b8082111561117c57600081556001016111a656fe556e6f7264657265644b65795365742831303029202d204b65792063616e6e6f7420626520307830556e6f7264657265644b65795365742831303229202d204b657920646f6573206e6f7420657869737420696e20746865207365742e556e6f7264657265644b65795365742831303129202d204b657920616c72656164792065786973747320696e20746865207365742ea265627a7a7231582004d1648d1cc9bd23df47ce515529401406eb08638abbf417f299564c5dc6caa464736f6c63430005100032556e6f7264657265644b65795365742831303029202d204b65792063616e6e6f742062652030783072657175657374546f437265617465436173684f757446726f6d446f6e6174696f6e4163746976697479436f6465206973206e6f742076616c696472657175657374546f437265617465436173684f757446726f6d446f6e6174696f6e4163746976697479436f646520494420616c7265616479206578697374732e52657175657374546f437265617465436173684f757446726f6d446f6e6174696f6e4163746976697479436f6465206973206e6f742076616c6964446f6e2774204861766520456e6f756768204d6f6e657920496e2043616d706169676e596f75206d75737420626520686f7374206f722061646d696e20746f20657865637574652e556e6f726465726564416464726573735365742831303129202d204164647265737320286b65792920616c72656164792065786973747320696e20746865207365742e556e6f7264657265644b65795365742831303229202d204b657920646f6573206e6f7420657869737420696e20746865207365742e556e6f7264657265644b65795365742831303129202d204b657920616c72656164792065786973747320696e20746865207365742e496e76616c69642072657175657374546f437265617465446f6e6174696f6e416374697669747920494452657175657374437265617465446f6e6174696f6e4163746976697479436f646520494420616c7265616479206578697374732e52657175657374546f4372656174654f7264657246726f6d446f6e6174696f6e4163746976697479436f6465206973206e6f742076616c6964596f7520617265206e6f7420686f7374206f66207468697320646f6e6174696f6e20616374697669747972657175657374546f4372656174654f7264657246726f6d446f6e6174696f6e4163746976697479436f6465206973206e6f742076616c696472657175657374546f4372656174654f7264657246726f6d446f6e6174696f6e4163746976697479436f646520494420616c7265616479206578697374732e72657175657374546f437265617465446f6e6174696f6e4163746976697479436f6465206973206e6f742076616c696443616e277420676574206120446f6e6174696f6e4163746976697479207468617420646f65736e27742065786973742ea265627a7a72315820c6adc747e8cc75900f72bf18929e9f36337a08ee67a1aae9cdddf36e7331097f64736f6c63430005100032556e6f7264657265644b65795365742831303029202d204b65792063616e6e6f7420626520307830526571756573744f70656e43616d706169676e436f646520494420616c7265616479206578697374732e52657175657374546f4f70656e43616d706169676e206973206e6f742076616c696454686973206163636f756e742069732052657461696c657220616c72656164792021596f7520617265206e6f742061646d696e206f72206f776e6572000000000000556e6f726465726564416464726573735365742831303129202d204164647265737320286b65792920616c72656164792065786973747320696e20746865207365742e486f737420697320696e2076616c69646174652070656e64696e6720737461746521556e6f7264657265644b65795365742831303229202d204b657920646f6573206e6f7420657869737420696e20746865207365742e556e6f7264657265644b65795365742831303129202d204b657920616c72656164792065786973747320696e20746865207365742e596f75206d757374206265206f776e657220746f20657865637574652e000000556e6f7264657265644b65795365742831303229202d204164647265737320286b65792920646f6573206e6f7420657869737420696e20746865207365742e596f752063616e6e6f742063616e63656c206f7468657220686f7374732072657175657374732e596f752068617665206e6f742072657175657374656420746f20626520686f73742e43616e27742067657420612043616d706169676e207468617420646f65736e27742065786973742e486f737420686176656e277420637265617465207265717565737420746f20626520486f73742e54686973206163636f756e7420697320417574686f7269747920616c72656164792021a265627a7a72315820e36add34ff51ed0faf551905dec51ff02412888c7ef4885f32eec2e32fbc1e5b64736f6c63430005100032",
  "source": "pragma solidity 0.5.16;\r\n\r\nimport \"./HitchensUnorderedAddressSet.sol\";\r\nimport \"./HitchensUnorderedKeySet.sol\";\r\nimport \"./Ownable_CampaignFactory.sol\";\r\nimport \"./Campaign.sol\";\r\ncontract CampaignFactory is Ownable_CampaignFactory{   \r\n\r\n    struct RequestTobeHost {\r\n        address requestSender;\r\n    }\r\n    struct RequestToOpenCampaign {\r\n        address payable requestHost;\r\n        uint32 minimumContribution;\r\n    }\r\n    using HitchensUnorderedAddressSetLib for HitchensUnorderedAddressSetLib.Set;\r\n    using HitchensUnorderedKeySetLib for HitchensUnorderedKeySetLib.Set;\r\n\r\n    HitchensUnorderedAddressSetLib.Set campaignSet;\r\n    HitchensUnorderedAddressSetLib.Set validatedHostSet;\r\n    HitchensUnorderedAddressSetLib.Set validatedAdminSet;\r\n    HitchensUnorderedAddressSetLib.Set requestTobeHostSet;\r\n    HitchensUnorderedAddressSetLib.Set retailerSet;\r\n    HitchensUnorderedAddressSetLib.Set authoritySet;\r\n    HitchensUnorderedKeySetLib.Set requestToOpenCampaignSet;\r\n\r\n    mapping(bytes32 => RequestToOpenCampaign) requestsToOpenCampaign;\r\n\r\n    mapping(address => RequestTobeHost) requestsTobeHost;\r\n\r\n    mapping(address => Campaign) campaigns;\r\n    \r\n    event LogNewCampaign(address new_campaign_address, address admin, address host, uint minimum_contribution);\r\n    \r\n    function modifierFromCampaignFactory() public pure{\r\n        \r\n    }\r\n    //ADMIN CRUD\r\n    function addAdmin(address _admin) public onlyOwner{\r\n        require(!validatedAdminSet.exists(_admin), \"This account is Admin already !\");\r\n        validatedAdminSet.insert(_admin);\r\n    }\r\n    function removeAdmin(address _admin) public onlyOwner{\r\n        require(validatedAdminSet.exists(_admin), \"This account is not admin !\");\r\n        validatedAdminSet.remove(_admin);\r\n    }\r\n    function getAdminList() public view returns(address[] memory){\r\n        return validatedAdminSet.listKey();\r\n    }\r\n\r\n    //Retailer CRUD\r\n    function addRetailer(address _retailer) public onlyOwner{\r\n        require(!retailerSet.exists(_retailer), \"This account is Retailer already !\");\r\n        retailerSet.insert(_retailer);\r\n    }\r\n    \r\n    function removeRetailer(address _retailer) public onlyOwner{\r\n        require(retailerSet.exists(_retailer), \"This account is not Retailer !\");\r\n        retailerSet.remove(_retailer);\r\n    }\r\n\r\n    function getRetailerList() public view returns(address[] memory){\r\n        return retailerSet.listKey();\r\n    }\r\n\r\n    //Authority CRUD\r\n    function addAuthority(address _authority) public onlyOwner{\r\n        require(!authoritySet.exists(_authority), \"This account is Authority already !\");\r\n        authoritySet.insert(_authority);\r\n    }\r\n    \r\n    function removeAuthority(address _authority) public onlyOwner{\r\n        require(authoritySet.exists(_authority), \"This account is not Authority !\");\r\n        authoritySet.remove(_authority);\r\n    }\r\n\r\n    function getAuthorityList() public view returns(address[] memory){\r\n        return authoritySet.listKey();\r\n    }\r\n    \r\n    //HOST CRUD\r\n    function validateHost(address _host) public onlyAdminAndOwner{\r\n        require(!validatedHostSet.exists(_host), \"Host is valid already!\");\r\n        require(requestTobeHostSet.exists(_host), \"Host haven't request to be Host.\");\r\n        validatedHostSet.insert(_host);\r\n        requestTobeHostSet.remove(_host);\r\n        delete requestsTobeHost[_host];\r\n       \r\n    }\r\n    \r\n    function rejectValidateRequestHost(address _host) public onlyAdminAndOwner{\r\n        require(requestTobeHostSet.exists(_host), \"Host haven't create request to be Host.\");\r\n        requestTobeHostSet.remove(_host);\r\n        delete requestsTobeHost[_host];\r\n       \r\n    }\r\n\r\n    function removeValidatedHost(address _host) public onlyAdminAndOwner{\r\n        require(validatedHostSet.exists(_host), \"This account is not host\");\r\n        validatedHostSet.remove(_host);\r\n    }\r\n    \r\n    function getValidatedHostList() public view returns(address[] memory){\r\n        return validatedHostSet.listKey();\r\n    }\r\n    \r\n    //CAMPAIGN CRUD\r\n    function newCampaign(bytes32 requestToOpenCampaign) public onlyAdminAndOwner{\r\n         \r\n        // require(validatedHostSet.exists(host), \"Host is not validated\r\n        require(requestToOpenCampaignSet.exists(requestToOpenCampaign), \"RequestToOpenCampaign is not valid\");\r\n        \r\n        RequestToOpenCampaign memory re = requestsToOpenCampaign[requestToOpenCampaign];\r\n        \r\n        Campaign w = new Campaign(re.minimumContribution,re.requestHost,tx.origin);\r\n    \r\n        campaigns[address(w)] = w ;\r\n        campaignSet.insert(address(w));\r\n        \r\n        requestToOpenCampaignSet.remove(requestToOpenCampaign);\r\n        delete requestsToOpenCampaign[requestToOpenCampaign];\r\n        emit LogNewCampaign(address(w),tx.origin,re.requestHost,re.minimumContribution);\r\n    }\r\n    \r\n    function rejectCreateCampaign(bytes32 requestToOpenCampaign) public onlyAdminAndOwner{\r\n         \r\n        require(requestToOpenCampaignSet.exists(requestToOpenCampaign), \"Invalid requestToOpenCampaign ID\");\r\n        requestToOpenCampaignSet.remove(requestToOpenCampaign);\r\n        delete requestsToOpenCampaign[requestToOpenCampaign];\r\n\r\n    }\r\n    function removeCampaign(address campaign_key) public onlyAdminAndOwner{\r\n        \r\n        campaignSet.remove(campaign_key); \r\n        delete campaigns[campaign_key];\r\n\r\n    }\r\n    \r\n    function getCampaign(address campaign_key) public view returns(address host, uint minimum_contribution) {\r\n        require(campaignSet.exists(campaign_key), \"Can't get a Campaign that doesn't exist.\");\r\n        Campaign w = campaigns[campaign_key];\r\n        return(w.getHost(),w.getMinimumContribution());\r\n    }\r\n    \r\n    function getCampaignList() public view returns(address[] memory){\r\n        return campaignSet.listKey();\r\n    }\r\n    \r\n    \r\n    //REQUEST TO BE VALIDATED HOST CRUD\r\n    function requestToBeValidHost() public {\r\n        require(!validatedHostSet.exists(msg.sender), \"Host is valid already!\");\r\n        require(!requestTobeHostSet.exists(msg.sender), \"Host is in validate pending state!\");\r\n        RequestTobeHost memory re = RequestTobeHost(msg.sender);\r\n        requestsTobeHost[msg.sender] = re;\r\n        requestTobeHostSet.insert(msg.sender);\r\n    }\r\n    function getRequestToBeHostList() public onlyAdminAndOwnerAndValidatedHost view returns(address[] memory){\r\n        return requestTobeHostSet.listKey();\r\n    }\r\n    function hostValidateState() public view returns(int){\r\n        if(requestTobeHostSet.exists(msg.sender)){\r\n            return 1;//sending\r\n        } else {\r\n            if(validatedHostSet.exists(msg.sender)){\r\n                return 2;//already success\r\n            } else {\r\n                return 0;//havent sent\r\n            }\r\n        }\r\n    }\r\n\r\n    function cancelToBeValidHostRequest() public {\r\n        require(requestTobeHostSet.exists(msg.sender), \"You have not requested to be host.\");\r\n        requestTobeHostSet.remove(msg.sender);\r\n        delete requestsTobeHost[msg.sender];\r\n    }\r\n    //REQUEST TO OPEN CAMPAIGN CRUD \r\n    function requestToOpenCampaign(bytes32 requestOpenCampaignCode, uint32 minimumContribution) public onlyValidatedHost{\r\n        require(!requestToOpenCampaignSet.exists(requestOpenCampaignCode), \"RequestOpenCampaignCode ID already exists.\");\r\n        RequestToOpenCampaign memory re = RequestToOpenCampaign(msg.sender,minimumContribution);\r\n        requestsToOpenCampaign[requestOpenCampaignCode] = re;\r\n        requestToOpenCampaignSet.insert(requestOpenCampaignCode);\r\n    }\r\n    function getRequestToOpenCampaignList() public onlyAdminAndOwnerAndValidatedHost view returns(bytes32[] memory){\r\n        return requestToOpenCampaignSet.listKey();\r\n    }\r\n\r\n    function getRequestToOpenCampaignListAtKey(bytes32 key) public onlyAdminAndOwnerAndValidatedHost view returns(address payable _requestToOpenCampaignHost, uint32  _requestToOpenCampaignMinimumContribution) {\r\n        RequestToOpenCampaign memory re = requestsToOpenCampaign[key];\r\n        return (re.requestHost, re.minimumContribution);\r\n    }\r\n    function cancelOpenCampaignRequest(bytes32 requestToOpenCampaignCode) public onlyValidatedHost {\r\n        require(requestToOpenCampaignSet.exists(requestToOpenCampaignCode), \"Invalid requestToOpenCampaign ID\");\r\n        RequestToOpenCampaign memory re = requestsToOpenCampaign[requestToOpenCampaignCode];\r\n       \r\n        if(re.requestHost == msg.sender){\r\n            requestToOpenCampaignSet.remove(requestToOpenCampaignCode);\r\n            delete requestsToOpenCampaign[requestToOpenCampaignCode];\r\n        } else {\r\n            revert(\"You cannot cancel other hosts requests.\");\r\n        }\r\n        \r\n    }\r\n    \r\n    modifier onlyAdmin() {\r\n        require(validatedAdminSet.exists(msg.sender), \"You are not admin !\");\r\n        _;\r\n    }\r\n    //Modifier Helper Function\r\n    function isHostValidated(address validatedHostAddress) public view returns(bool _result){\r\n        if(validatedHostSet.exists(validatedHostAddress)){\r\n            return true;\r\n        } else {\r\n            return false;\r\n        }\r\n    }\r\n    function isRetailer(address _retailer) public view returns(bool _result){\r\n        if(retailerSet.exists(_retailer)){\r\n            return true;\r\n        } else {\r\n            return false;\r\n        }\r\n    }\r\n    function isAuthority(address _authority) public view returns(bool _result){\r\n        if(authoritySet.exists(_authority)){\r\n            return true;\r\n        } else {\r\n            return false;\r\n        }\r\n    }\r\n    modifier onlyAdminAndOwner() {\r\n        if(!((validatedAdminSet.exists(msg.sender)) || (owner == msg.sender))){\r\n            revert(\"You are not admin or owner\");\r\n        }\r\n        _;\r\n    }\r\n    modifier onlyAdminAndOwnerAndValidatedHost() {\r\n        if(!((validatedAdminSet.exists(msg.sender)) || (owner == msg.sender) || (validatedHostSet.exists(msg.sender)))){\r\n            revert(\"You are not admin or owner\");\r\n        }\r\n        _;\r\n    }\r\n    modifier onlyValidatedHost() {\r\n        require(validatedHostSet.exists(msg.sender), \"You are not a valid host !\");\r\n        _;\r\n    }\r\n    modifier onlyRetailer() {\r\n        require(retailerSet.exists(msg.sender), \"You are not a retailer !\");\r\n        _;\r\n    }\r\n}",
  "sourcePath": "D:\\UNI\\D n\\Main Project\\blockchain_charity_repo\\Truffle_Test\\contracts\\CampaignFactory.sol",
  "compiler": {
    "name": "solc",
    "version": "0.5.16+commit.9c3226ce.Emscripten.clang"
  },
  "schemaVersion": "3.4.3",
  "updatedAt": "2021-12-07T07:10:13.533Z",
  "networkType": "ethereum",
  "devdoc": {
    "methods": {}
  },
  "userdoc": {
    "methods": {}
  }
}