{
  "contractName": "CampaignFactory",
  "abi": [
    {
      "anonymous": false,
      "inputs": [
        {
          "indexed": false,
          "internalType": "address",
          "name": "new_campaign_address",
          "type": "address"
        },
        {
          "indexed": false,
          "internalType": "address",
          "name": "admin",
          "type": "address"
        },
        {
          "indexed": false,
          "internalType": "address",
          "name": "host",
          "type": "address"
        },
        {
          "indexed": false,
          "internalType": "uint256",
          "name": "minimum_contribution",
          "type": "uint256"
        }
      ],
      "name": "LogNewCampaign",
      "type": "event"
    },
    {
      "constant": true,
      "inputs": [],
      "name": "owner",
      "outputs": [
        {
          "internalType": "address",
          "name": "",
          "type": "address"
        }
      ],
      "payable": false,
      "stateMutability": "view",
      "type": "function"
    },
    {
      "constant": false,
      "inputs": [
        {
          "internalType": "address",
          "name": "_admin",
          "type": "address"
        }
      ],
      "name": "addAdmin",
      "outputs": [],
      "payable": false,
      "stateMutability": "nonpayable",
      "type": "function"
    },
    {
      "constant": false,
      "inputs": [
        {
          "internalType": "address",
          "name": "_admin",
          "type": "address"
        }
      ],
      "name": "removeAdmin",
      "outputs": [],
      "payable": false,
      "stateMutability": "nonpayable",
      "type": "function"
    },
    {
      "constant": true,
      "inputs": [
        {
          "internalType": "uint256",
          "name": "index",
          "type": "uint256"
        }
      ],
      "name": "getAdminInAdminListAtIndex",
      "outputs": [
        {
          "internalType": "address",
          "name": "_admin",
          "type": "address"
        }
      ],
      "payable": false,
      "stateMutability": "view",
      "type": "function"
    },
    {
      "constant": true,
      "inputs": [],
      "name": "getAdminList",
      "outputs": [
        {
          "internalType": "address[]",
          "name": "",
          "type": "address[]"
        }
      ],
      "payable": false,
      "stateMutability": "view",
      "type": "function"
    },
    {
      "constant": false,
      "inputs": [
        {
          "internalType": "address",
          "name": "_host",
          "type": "address"
        }
      ],
      "name": "validateHost",
      "outputs": [],
      "payable": false,
      "stateMutability": "nonpayable",
      "type": "function"
    },
    {
      "constant": false,
      "inputs": [
        {
          "internalType": "address",
          "name": "_host",
          "type": "address"
        }
      ],
      "name": "rejectValidateRequestHost",
      "outputs": [],
      "payable": false,
      "stateMutability": "nonpayable",
      "type": "function"
    },
    {
      "constant": false,
      "inputs": [
        {
          "internalType": "address",
          "name": "_host",
          "type": "address"
        }
      ],
      "name": "removeValidatedHost",
      "outputs": [],
      "payable": false,
      "stateMutability": "nonpayable",
      "type": "function"
    },
    {
      "constant": true,
      "inputs": [
        {
          "internalType": "uint256",
          "name": "index",
          "type": "uint256"
        }
      ],
      "name": "getHostInHostListAtIndex",
      "outputs": [
        {
          "internalType": "address",
          "name": "_host",
          "type": "address"
        }
      ],
      "payable": false,
      "stateMutability": "view",
      "type": "function"
    },
    {
      "constant": true,
      "inputs": [
        {
          "internalType": "address",
          "name": "validatedHostAddress",
          "type": "address"
        }
      ],
      "name": "isHostValidated",
      "outputs": [
        {
          "internalType": "bool",
          "name": "_result",
          "type": "bool"
        }
      ],
      "payable": false,
      "stateMutability": "view",
      "type": "function"
    },
    {
      "constant": true,
      "inputs": [],
      "name": "getValidatedHostList",
      "outputs": [
        {
          "internalType": "address[]",
          "name": "",
          "type": "address[]"
        }
      ],
      "payable": false,
      "stateMutability": "view",
      "type": "function"
    },
    {
      "constant": false,
      "inputs": [
        {
          "internalType": "bytes32",
          "name": "requestToOpenCampaign",
          "type": "bytes32"
        }
      ],
      "name": "newCampaign",
      "outputs": [],
      "payable": false,
      "stateMutability": "nonpayable",
      "type": "function"
    },
    {
      "constant": false,
      "inputs": [
        {
          "internalType": "bytes32",
          "name": "requestToOpenCampaign",
          "type": "bytes32"
        }
      ],
      "name": "rejectCreateCampaign",
      "outputs": [],
      "payable": false,
      "stateMutability": "nonpayable",
      "type": "function"
    },
    {
      "constant": false,
      "inputs": [
        {
          "internalType": "address",
          "name": "campaign_key",
          "type": "address"
        }
      ],
      "name": "removeCampaign",
      "outputs": [],
      "payable": false,
      "stateMutability": "nonpayable",
      "type": "function"
    },
    {
      "constant": true,
      "inputs": [
        {
          "internalType": "address",
          "name": "campaign_key",
          "type": "address"
        }
      ],
      "name": "getCampaign",
      "outputs": [
        {
          "internalType": "address",
          "name": "host",
          "type": "address"
        },
        {
          "internalType": "uint256",
          "name": "minimum_contribution",
          "type": "uint256"
        }
      ],
      "payable": false,
      "stateMutability": "view",
      "type": "function"
    },
    {
      "constant": true,
      "inputs": [],
      "name": "getCampaignList",
      "outputs": [
        {
          "internalType": "address[]",
          "name": "",
          "type": "address[]"
        }
      ],
      "payable": false,
      "stateMutability": "view",
      "type": "function"
    },
    {
      "constant": true,
      "inputs": [
        {
          "internalType": "uint256",
          "name": "index",
          "type": "uint256"
        }
      ],
      "name": "getCampaignInCampaignListAtIndex",
      "outputs": [
        {
          "internalType": "address",
          "name": "campaign_key",
          "type": "address"
        }
      ],
      "payable": false,
      "stateMutability": "view",
      "type": "function"
    },
    {
      "constant": false,
      "inputs": [],
      "name": "requestToBeValidHost",
      "outputs": [],
      "payable": false,
      "stateMutability": "nonpayable",
      "type": "function"
    },
    {
      "constant": true,
      "inputs": [],
      "name": "getRequestToBeHostList",
      "outputs": [
        {
          "internalType": "address[]",
          "name": "",
          "type": "address[]"
        }
      ],
      "payable": false,
      "stateMutability": "view",
      "type": "function"
    },
    {
      "constant": true,
      "inputs": [],
      "name": "hostValidateState",
      "outputs": [
        {
          "internalType": "int256",
          "name": "",
          "type": "int256"
        }
      ],
      "payable": false,
      "stateMutability": "view",
      "type": "function"
    },
    {
      "constant": true,
      "inputs": [
        {
          "internalType": "uint256",
          "name": "index",
          "type": "uint256"
        }
      ],
      "name": "getRequestInRequestToBeHostListAtIndex",
      "outputs": [
        {
          "internalType": "address",
          "name": "_requestToBeHost",
          "type": "address"
        }
      ],
      "payable": false,
      "stateMutability": "view",
      "type": "function"
    },
    {
      "constant": false,
      "inputs": [],
      "name": "cancelToBeValidHostRequest",
      "outputs": [],
      "payable": false,
      "stateMutability": "nonpayable",
      "type": "function"
    },
    {
      "constant": false,
      "inputs": [
        {
          "internalType": "bytes32",
          "name": "requestOpenCampaignCode",
          "type": "bytes32"
        },
        {
          "internalType": "uint32",
          "name": "minimumContribution",
          "type": "uint32"
        }
      ],
      "name": "requestToOpenCampaign",
      "outputs": [],
      "payable": false,
      "stateMutability": "nonpayable",
      "type": "function"
    },
    {
      "constant": true,
      "inputs": [],
      "name": "getRequestToOpenCampaignList",
      "outputs": [
        {
          "internalType": "bytes32[]",
          "name": "",
          "type": "bytes32[]"
        }
      ],
      "payable": false,
      "stateMutability": "view",
      "type": "function"
    },
    {
      "constant": true,
      "inputs": [
        {
          "internalType": "uint256",
          "name": "index",
          "type": "uint256"
        }
      ],
      "name": "getRequestToOpenCampaignListAtIndex",
      "outputs": [
        {
          "internalType": "bytes32",
          "name": "_requestToOpenCampaign",
          "type": "bytes32"
        }
      ],
      "payable": false,
      "stateMutability": "view",
      "type": "function"
    },
    {
      "constant": true,
      "inputs": [
        {
          "internalType": "bytes32",
          "name": "key",
          "type": "bytes32"
        }
      ],
      "name": "getRequestToOpenCampaignListAtKey",
      "outputs": [
        {
          "internalType": "address payable",
          "name": "_requestToOpenCampaignHost",
          "type": "address"
        },
        {
          "internalType": "uint32",
          "name": "_requestToOpenCampaignMinimumContribution",
          "type": "uint32"
        }
      ],
      "payable": false,
      "stateMutability": "view",
      "type": "function"
    },
    {
      "constant": false,
      "inputs": [
        {
          "internalType": "bytes32",
          "name": "requestToOpenCampaignCode",
          "type": "bytes32"
        }
      ],
      "name": "cancelOpenCampaignRequest",
      "outputs": [],
      "payable": false,
      "stateMutability": "nonpayable",
      "type": "function"
    },
    {
      "constant": false,
      "inputs": [
        {
          "internalType": "bytes32",
          "name": "requestToWithdrawMoney",
          "type": "bytes32"
        }
      ],
      "name": "withDrawMoneyFunction",
      "outputs": [],
      "payable": false,
      "stateMutability": "nonpayable",
      "type": "function"
    },
    {
      "constant": false,
      "inputs": [
        {
          "internalType": "bytes32",
          "name": "requestToWithdrawMoney",
          "type": "bytes32"
        }
      ],
      "name": "cancelWithDrawMoneyRequest",
      "outputs": [],
      "payable": false,
      "stateMutability": "nonpayable",
      "type": "function"
    },
    {
      "constant": false,
      "inputs": [
        {
          "internalType": "bytes32",
          "name": "requestToWithdrawMoney",
          "type": "bytes32"
        }
      ],
      "name": "rejectWithdrawMoneyRequest",
      "outputs": [],
      "payable": false,
      "stateMutability": "nonpayable",
      "type": "function"
    },
    {
      "constant": false,
      "inputs": [
        {
          "internalType": "bytes32",
          "name": "requestWithdrawMoneyCode",
          "type": "bytes32"
        },
        {
          "internalType": "uint256",
          "name": "requestAmount",
          "type": "uint256"
        },
        {
          "internalType": "address payable",
          "name": "requestCampaign",
          "type": "address"
        }
      ],
      "name": "requestToWithdrawMoney",
      "outputs": [],
      "payable": false,
      "stateMutability": "nonpayable",
      "type": "function"
    },
    {
      "constant": true,
      "inputs": [],
      "name": "getRequestToWithdrawMoneyList",
      "outputs": [
        {
          "internalType": "bytes32[]",
          "name": "",
          "type": "bytes32[]"
        }
      ],
      "payable": false,
      "stateMutability": "view",
      "type": "function"
    },
    {
      "constant": true,
      "inputs": [
        {
          "internalType": "uint256",
          "name": "index",
          "type": "uint256"
        }
      ],
      "name": "getRequestToWithdrawMoneyListAtIndex",
      "outputs": [
        {
          "internalType": "bytes32",
          "name": "_requestToOpenCampaign",
          "type": "bytes32"
        }
      ],
      "payable": false,
      "stateMutability": "view",
      "type": "function"
    },
    {
      "constant": true,
      "inputs": [
        {
          "internalType": "bytes32",
          "name": "key",
          "type": "bytes32"
        }
      ],
      "name": "getRequestToWithdrawMoneyListAtKey",
      "outputs": [
        {
          "internalType": "address payable",
          "name": "_requestToWithdrawMoneyHost",
          "type": "address"
        },
        {
          "internalType": "address payable",
          "name": "_requestToWithdrawMoneyCampaign",
          "type": "address"
        },
        {
          "internalType": "uint256",
          "name": "_requestToWithdrawMoneyAmount",
          "type": "uint256"
        }
      ],
      "payable": false,
      "stateMutability": "view",
      "type": "function"
    }
  ],
  "bytecode": "0x6080604052600080546001600160a01b03191633179055612ef6806100256000396000f3fe608060405234801561001057600080fd5b50600436106102055760003560e01c8063731301cf1161011a578063aca3d9bf116100ad578063cf62a20b1161007c578063cf62a20b146105e2578063d9f774fc146105ff578063e35d6be514610607578063e4663a5b14610624578063ffc8ca6e1461064a57610205565b8063aca3d9bf14610571578063b9e517d71461058e578063bd3fd4a0146105b4578063c5a308f9146105bc57610205565b80638e5604a5116100e95780638e5604a51461053c5780639ce6113d146105445780639ce9d19a1461054c578063a8769a921461055457610205565b8063731301cf146104a55780637a3a4edf146104ee5780637da37c3c1461050b5780638da5cb5b1461053457610205565b8063326d03af1161019d5780635084b67b1161016c5780635084b67b146103ef578063519060471461043457806352d209e71461045a578063704802751461047757806372fcc9651461049d57610205565b8063326d03af146103a557806335901256146103c257806345b5e86f146103df5780634ba20b26146103e757610205565b80631785f53c116101d95780631785f53c146102e55780632ac95a441461030b5780632e806a2c1461033d578063325dba0a1461037657610205565b8062d697071461020a5780630410b0b31461025157806307e9002f146102a9578063106cd855146102c8575b600080fd5b6102276004803603602081101561022057600080fd5b5035610684565b604080516001600160a01b0394851681529290931660208301528183015290519081900360600190f35b610259610759565b60408051602080825283518183015283519192839290830191858101910280838360005b8381101561029557818101518382015260200161027d565b505050509050019250505060405180910390f35b6102c6600480360360208110156102bf57600080fd5b503561076b565b005b6102c6600480360360208110156102de57600080fd5b5035610983565b6102c6600480360360208110156102fb57600080fd5b50356001600160a01b0316610bba565b6102c66004803603606081101561032157600080fd5b50803590602081013590604001356001600160a01b0316610c8f565b61035a6004803603602081101561035357600080fd5b5035610f2b565b604080516001600160a01b039092168252519081900360200190f35b6103936004803603602081101561038c57600080fd5b5035610f46565b60408051918252519081900360200190f35b61035a600480360360208110156103bb57600080fd5b5035610fd5565b6102c6600480360360208110156103d857600080fd5b5035610fe8565b6102596110de565b610393611166565b61040c6004803603602081101561040557600080fd5b50356111ac565b604080516001600160a01b03909316835263ffffffff90911660208301528051918290030190f35b6102c66004803603602081101561044a57600080fd5b50356001600160a01b0316611276565b6102c66004803603602081101561047057600080fd5b503561134e565b6102c66004803603602081101561048d57600080fd5b50356001600160a01b03166114c9565b6102c661159c565b6104cb600480360360208110156104bb57600080fd5b50356001600160a01b0316611618565b604080516001600160a01b03909316835260208301919091528051918290030190f35b61035a6004803603602081101561050457600080fd5b503561175d565b6102c66004803603604081101561052157600080fd5b508035906020013563ffffffff166117ec565b61035a611916565b610259611925565b610259611931565b6102c66119b9565b6102c66004803603602081101561056a57600080fd5b5035611ab0565b61035a6004803603602081101561058757600080fd5b5035611b94565b6102c6600480360360208110156105a457600080fd5b50356001600160a01b0316611ba7565b610259611c90565b6102c6600480360360208110156105d257600080fd5b50356001600160a01b0316611d18565b6102c6600480360360208110156105f857600080fd5b5035611e4c565b610259611fc5565b6103936004803603602081101561061d57600080fd5b5035611fd1565b6102c66004803603602081101561063a57600080fd5b50356001600160a01b0316612060565b6106706004803603602081101561066057600080fd5b50356001600160a01b03166120fd565b604080519115158252519081900360200190f35b6000808061069960053363ffffffff61212516565b806106ae57506000546001600160a01b031633145b806106c557506106c560033363ffffffff61212516565b610704576040805162461bcd60e51b815260206004820152601a6024820152600080516020612c73833981519152604482015290519081900360640190fd5b61070c612625565b505050600091825250600e6020908152604091829020825160608101845281546001600160a01b039081168083526001840154909116938201849052600290920154930183905292909190565b60606107656001612182565b90505b90565b61077c60053363ffffffff61212516565b8061079157506000546001600160a01b031633145b6107d0576040805162461bcd60e51b815260206004820152601a6024820152600080516020612c73833981519152604482015290519081900360640190fd5b6107e160098263ffffffff6121e816565b61081c5760405162461bcd60e51b8152600401808060200182810382526022815260200180612bfb6022913960400191505060405180910390fd5b610824612645565b506000818152600d602090815260408083208151808301835290546001600160a01b038116808352600160a01b90910463ffffffff169382018490529151909392919032906108729061265c565b63ffffffff90931683526001600160a01b039182166020840152166040808301919091525190819003606001906000f0801580156108b4573d6000803e3d6000fd5b506001600160a01b038116600081815260106020526040902080546001600160a01b031916909117905590506108f160018263ffffffff61223016565b61090260098463ffffffff6122ff16565b6000838152600d602090815260409182902080546001600160c01b031916905583518482015183516001600160a01b0386811682523294820194909452929091168284015263ffffffff16606082015290517f5948053af121e790a339d98109484d88df5a0d32a10cae2ca231701091c74a929181900360800190a1505050565b61099460053363ffffffff61212516565b6109db576040805162461bcd60e51b8152602060048201526013602482015272596f7520617265206e6f742061646d696e202160681b604482015290519081900360640190fd5b6109ec600b8263ffffffff6121e816565b610a275760405162461bcd60e51b8152600401808060200182810382526021815260200180612c526021913960400191505060405180910390fd5b610a2f612625565b506000818152600e6020908152604091829020825160608101845281546001600160a01b039081168252600183015416818401819052600290920154818501528351629032ff60e51b815293519093919283926312065fe09260048083019392829003018186803b158015610aa357600080fd5b505afa158015610ab7573d6000803e3d6000fd5b505050506040513d6020811015610acd57600080fd5b505160408301511115610b115760405162461bcd60e51b815260040180806020018281038252602a815260200180612dea602a913960400191505060405180910390fd5b806001600160a01b031663827cc45283604001516040518263ffffffff1660e01b815260040180828152602001915050600060405180830381600087803b158015610b5b57600080fd5b505af1158015610b6f573d6000803e3d6000fd5b50505050610b8783600b6122ff90919063ffffffff16565b6000838152600e6020526040812080546001600160a01b031990811682556001820180549091169055600201555b505050565b6000546001600160a01b03163314610c19576040805162461bcd60e51b815260206004820152601d60248201527f596f75206d757374206265206f776e657220746f20657865637574652e000000604482015290519081900360640190fd5b610c2a60058263ffffffff61212516565b610c7b576040805162461bcd60e51b815260206004820152601b60248201527f54686973206163636f756e74206973206e6f742061646d696e20210000000000604482015290519081900360640190fd5b610c8c60058263ffffffff6123d116565b50565b610ca060033363ffffffff61212516565b610cee576040805162461bcd60e51b815260206004820152601a602482015279596f7520617265206e6f7420612076616c696420686f7374202160301b604482015290519081900360640190fd5b610cff600b8463ffffffff6121e816565b15610d3b5760405162461bcd60e51b8152600401808060200182810382526029815260200180612e996029913960400191505060405180910390fd5b6000819050336001600160a01b0316816001600160a01b03166320bc44256040518163ffffffff1660e01b815260040160206040518083038186803b158015610d8357600080fd5b505afa158015610d97573d6000803e3d6000fd5b505050506040513d6020811015610dad57600080fd5b50516001600160a01b03161415610eee5782816001600160a01b03166312065fe06040518163ffffffff1660e01b815260040160206040518083038186803b158015610df857600080fd5b505afa158015610e0c573d6000803e3d6000fd5b505050506040513d6020811015610e2257600080fd5b505110610eb257610e31612625565b50604080516060810182523381526001600160a01b03848116602080840191825283850188815260008a8152600e909252949020835181549084166001600160a01b03199182161782559151600182018054919094169216919091179091559151600290920191909155610eac600b8663ffffffff6124c616565b50610ee9565b60405162461bcd60e51b8152600401808060200182810382526036815260200180612e146036913960400191505060405180910390fd5b610f25565b60405162461bcd60e51b8152600401808060200182810382526035815260200180612c1d6035913960400191505060405180910390fd5b50505050565b6000610f3e60058363ffffffff61257216565b90505b919050565b6000610f5960053363ffffffff61212516565b80610f6e57506000546001600160a01b031633145b80610f855750610f8560033363ffffffff61212516565b610fc4576040805162461bcd60e51b815260206004820152601a6024820152600080516020612c73833981519152604482015290519081900360640190fd5b610f3e60098363ffffffff61259f16565b6000610f3e60038363ffffffff61257216565b610ff960053363ffffffff61212516565b8061100e57506000546001600160a01b031633145b61104d576040805162461bcd60e51b815260206004820152601a6024820152600080516020612c73833981519152604482015290519081900360640190fd5b61105e60098263ffffffff6121e816565b6110af576040805162461bcd60e51b815260206004820181905260248201527f496e76616c69642072657175657374546f4f70656e43616d706169676e204944604482015290519081900360640190fd5b6110c060098263ffffffff6122ff16565b6000908152600d6020526040902080546001600160c01b0319169055565b60606110f160053363ffffffff61212516565b8061110657506000546001600160a01b031633145b8061111d575061111d60033363ffffffff61212516565b61115c576040805162461bcd60e51b815260206004820152601a6024820152600080516020612c73833981519152604482015290519081900360640190fd5b6107656007612182565b600061117960073363ffffffff61212516565b1561118657506001610768565b61119760033363ffffffff61212516565b156111a457506002610768565b506000610768565b6000806111c060053363ffffffff61212516565b806111d557506000546001600160a01b031633145b806111ec57506111ec60033363ffffffff61212516565b61122b576040805162461bcd60e51b815260206004820152601a6024820152600080516020612c73833981519152604482015290519081900360640190fd5b611233612645565b5050506000908152600d60209081526040918290208251808401909352546001600160a01b038116808452600160a01b90910463ffffffff169290910182905291565b61128760053363ffffffff61212516565b8061129c57506000546001600160a01b031633145b6112db576040805162461bcd60e51b815260206004820152601a6024820152600080516020612c73833981519152604482015290519081900360640190fd5b6112ec60038263ffffffff61212516565b61133d576040805162461bcd60e51b815260206004820152601860248201527f54686973206163636f756e74206973206e6f7420686f73740000000000000000604482015290519081900360640190fd5b610c8c60038263ffffffff6123d116565b61135f60033363ffffffff61212516565b6113ad576040805162461bcd60e51b815260206004820152601a602482015279596f7520617265206e6f7420612076616c696420686f7374202160301b604482015290519081900360640190fd5b6113be60098263ffffffff6121e816565b61140f576040805162461bcd60e51b815260206004820181905260248201527f496e76616c69642072657175657374546f4f70656e43616d706169676e204944604482015290519081900360640190fd5b611417612645565b506000818152600d60209081526040918290208251808401909352546001600160a01b038116808452600160a01b90910463ffffffff169183019190915233141561148e5761146d60098363ffffffff6122ff16565b6000828152600d6020526040902080546001600160c01b03191690556114c5565b60405162461bcd60e51b8152600401808060200182810382526027815260200180612da16027913960400191505060405180910390fd5b5050565b6000546001600160a01b03163314611528576040805162461bcd60e51b815260206004820152601d60248201527f596f75206d757374206265206f776e657220746f20657865637574652e000000604482015290519081900360640190fd5b61153960058263ffffffff61212516565b1561158b576040805162461bcd60e51b815260206004820152601f60248201527f54686973206163636f756e742069732041646d696e20616c7265616479202100604482015290519081900360640190fd5b610c8c60058263ffffffff61223016565b6115ad60073363ffffffff61212516565b6115e85760405162461bcd60e51b8152600401808060200182810382526022815260200180612dc86022913960400191505060405180910390fd5b6115f960073363ffffffff6123d116565b336000908152600f6020526040902080546001600160a01b0319169055565b60008061162c60018463ffffffff61212516565b6116675760405162461bcd60e51b8152600401808060200182810382526028815260200180612e4a6028913960400191505060405180910390fd5b6001600160a01b038084166000908152601060209081526040918290205482516320bc442560e01b8152925193169283926320bc4425926004808301939192829003018186803b1580156116ba57600080fd5b505afa1580156116ce573d6000803e3d6000fd5b505050506040513d60208110156116e457600080fd5b50516040805163f84038b160e01b815290516001600160a01b0384169163f84038b1916004808301926020929190829003018186803b15801561172657600080fd5b505afa15801561173a573d6000803e3d6000fd5b505050506040513d602081101561175057600080fd5b5051909350915050915091565b600061177060053363ffffffff61212516565b8061178557506000546001600160a01b031633145b8061179c575061179c60033363ffffffff61212516565b6117db576040805162461bcd60e51b815260206004820152601a6024820152600080516020612c73833981519152604482015290519081900360640190fd5b610f3e60078363ffffffff61257216565b6117fd60033363ffffffff61212516565b61184b576040805162461bcd60e51b815260206004820152601a602482015279596f7520617265206e6f7420612076616c696420686f7374202160301b604482015290519081900360640190fd5b61185c60098363ffffffff6121e816565b156118985760405162461bcd60e51b815260040180806020018281038252602a815260200180612bd1602a913960400191505060405180910390fd5b6118a0612645565b5060408051808201825233815263ffffffff80841660208084019182526000878152600d909152939093208251815494518316600160a01b0263ffffffff60a01b196001600160a01b03929092166001600160a01b031990961695909517169390931790925590610bb59060099085906124c616565b6000546001600160a01b031681565b60606107656003612182565b606061194460053363ffffffff61212516565b8061195957506000546001600160a01b031633145b80611970575061197060033363ffffffff61212516565b6119af576040805162461bcd60e51b815260206004820152601a6024820152600080516020612c73833981519152604482015290519081900360640190fd5b61076560096125c3565b6119ca60033363ffffffff61212516565b15611a15576040805162461bcd60e51b8152602060048201526016602482015275486f73742069732076616c696420616c72656164792160501b604482015290519081900360640190fd5b611a2660073363ffffffff61212516565b15611a625760405162461bcd60e51b8152600401808060200182810382526022815260200180612cd66022913960400191505060405180910390fd5b611a6a612669565b506040805160208082018352338083526000818152600f909252929020815181546001600160a01b0319166001600160a01b0390911617905590610c8c90600790612230565b611ac160053363ffffffff61212516565b611b08576040805162461bcd60e51b8152602060048201526013602482015272596f7520617265206e6f742061646d696e202160681b604482015290519081900360640190fd5b611b19600b8263ffffffff6121e816565b611b545760405162461bcd60e51b8152600401808060200182810382526021815260200180612c526021913960400191505060405180910390fd5b611b65600b8263ffffffff6122ff16565b6000908152600e6020526040812080546001600160a01b03199081168255600182018054909116905560020155565b6000610f3e60018363ffffffff61257216565b611bb860053363ffffffff61212516565b80611bcd57506000546001600160a01b031633145b611c0c576040805162461bcd60e51b815260206004820152601a6024820152600080516020612c73833981519152604482015290519081900360640190fd5b611c1d60078263ffffffff61212516565b611c585760405162461bcd60e51b8152600401808060200182810382526027815260200180612e726027913960400191505060405180910390fd5b611c6960078263ffffffff6123d116565b6001600160a01b03166000908152600f6020526040902080546001600160a01b0319169055565b6060611ca360053363ffffffff61212516565b80611cb857506000546001600160a01b031633145b80611ccf5750611ccf60033363ffffffff61212516565b611d0e576040805162461bcd60e51b815260206004820152601a6024820152600080516020612c73833981519152604482015290519081900360640190fd5b610765600b6125c3565b611d2960053363ffffffff61212516565b80611d3e57506000546001600160a01b031633145b611d7d576040805162461bcd60e51b815260206004820152601a6024820152600080516020612c73833981519152604482015290519081900360640190fd5b611d8e60038263ffffffff61212516565b15611dd9576040805162461bcd60e51b8152602060048201526016602482015275486f73742069732076616c696420616c72656164792160501b604482015290519081900360640190fd5b611dea60078263ffffffff61212516565b611e3b576040805162461bcd60e51b815260206004820181905260248201527f486f737420686176656e2774207265717565737420746f20626520486f73742e604482015290519081900360640190fd5b611c5860038263ffffffff61223016565b611e5d60033363ffffffff61212516565b611eab576040805162461bcd60e51b815260206004820152601a602482015279596f7520617265206e6f7420612076616c696420686f7374202160301b604482015290519081900360640190fd5b611ebc600b8263ffffffff6121e816565b611ef75760405162461bcd60e51b8152600401808060200182810382526021815260200180612c526021913960400191505060405180910390fd5b611eff612625565b506000818152600e6020908152604091829020825160608101845281546001600160a01b0390811680835260018401549091169382019390935260029091015492810192909252331415611f845760405162461bcd60e51b8152600401808060200182810382526027815260200180612da16027913960400191505060405180910390fd5b611f95600b8363ffffffff6122ff16565b506000908152600e6020526040812080546001600160a01b03199081168255600182018054909116905560020155565b60606107656005612182565b6000611fe460053363ffffffff61212516565b80611ff957506000546001600160a01b031633145b80612010575061201060033363ffffffff61212516565b61204f576040805162461bcd60e51b815260206004820152601a6024820152600080516020612c73833981519152604482015290519081900360640190fd5b610f3e600b8363ffffffff61259f16565b61207160053363ffffffff61212516565b8061208657506000546001600160a01b031633145b6120c5576040805162461bcd60e51b815260206004820152601a6024820152600080516020612c73833981519152604482015290519081900360640190fd5b6120d660018263ffffffff6123d116565b6001600160a01b0316600090815260106020526040902080546001600160a01b0319169055565b600061211060038363ffffffff61212516565b1561211d57506001610f41565b506000610f41565b60018201546000906121395750600061217c565b6001600160a01b038216600081815260208590526040902054600185018054909190811061216357fe5b6000918252602090912001546001600160a01b03161490505b92915050565b6060816001018054806020026020016040519081016040528092919081815260200182805480156121dc57602002820191906000526020600020905b81546001600160a01b031681526001909101906020018083116121be575b50505050509050919050565b60018201546000906121fc5750600061217c565b600082815260208490526040902054600184018054849290811061221c57fe5b906000526020600020015414905092915050565b6001600160a01b0381166122755760405162461bcd60e51b8152600401808060200182810382526028815260200180612ba96028913960400191505060405180910390fd5b61227f8282612125565b156122bb5760405162461bcd60e51b8152600401808060200182810382526043815260200180612c936043913960600191505060405180910390fd5b60018281018054918201815560009081526020808220830180546001600160a01b039095166001600160a01b03199095168517905592815292909152604090912055565b61230982826121e8565b6123445760405162461bcd60e51b8152600401808060200182810382526035815260200180612cf86035913960400191505060405180910390fd5b60008260010160016123558561261e565b038154811061236057fe5b600091825260208083209091015484835290859052604080832054828452922082905560018501805491935083918390811061239857fe5b6000918252602080832090910192909255848152908590526040812055600184018054906123ca90600019830161267b565b5050505050565b6123db8282612125565b6124165760405162461bcd60e51b815260040180806020018281038252603f815260200180612d62603f913960400191505060405180910390fd5b60008260010160016124278561261e565b038154811061243257fe5b60009182526020808320909101546001600160a01b0385811684529186905260408084205492909116808452922081905560018501805492935090918391908390811061247b57fe5b600091825260208083209190910180546001600160a01b0319166001600160a01b039485161790559185168152908590526040812055600184018054906123ca90600019830161267b565b806125025760405162461bcd60e51b8152600401808060200182810382526028815260200180612ba96028913960400191505060405180910390fd5b61250c82826121e8565b156125485760405162461bcd60e51b8152600401808060200182810382526035815260200180612d2d6035913960400191505060405180910390fd5b60018281018054918201815560009081526020808220830184905592815292909152604090912055565b600082600101828154811061258357fe5b6000918252602090912001546001600160a01b03169392505050565b60008260010182815481106125b057fe5b9060005260206000200154905092915050565b6060816001018054806020026020016040519081016040528092919081815260200182805480156121dc57602002820191906000526020600020905b8154815260200190600101908083116125ff5750505050509050919050565b6001015490565b604080516060810182526000808252602082018190529181019190915290565b604080518082019091526000808252602082015290565b6104f0806126b983390190565b60408051602081019091526000815290565b815481835581811115610bb557600083815260209020610bb591810190830161076891905b808211156126b457600081556001016126a0565b509056fe608060405234801561001057600080fd5b506040516104f03803806104f08339818101604052606081101561003357600080fd5b5080516020820151604090920151600080546001600160a01b039485166001600160a01b031991821617909155600292909255600180549390911692909116919091179055610469806100876000396000f3fe60806040526004361061009c5760003560e01c8063c85e0be211610064578063c85e0be21461014a578063d7bb99ba1461017d578063dba3e70414610185578063f437bc59146101af578063f84038b1146101c4578063f851a440146101d95761009c565b806312065fe01461009e57806320bc4425146100c55780636e9960c3146100f6578063827cc4521461010b578063937e09b114610135575b005b3480156100aa57600080fd5b506100b36101ee565b60408051918252519081900360200190f35b3480156100d157600080fd5b506100da6101f2565b604080516001600160a01b039092168252519081900360200190f35b34801561010257600080fd5b506100da610201565b34801561011757600080fd5b5061009c6004803603602081101561012e57600080fd5b5035610210565b34801561014157600080fd5b506100b36102eb565b34801561015657600080fd5b5061009c6004803603602081101561016d57600080fd5b50356001600160a01b03166102f1565b61009c610372565b34801561019157600080fd5b5061009c600480360360208110156101a857600080fd5b5035610382565b3480156101bb57600080fd5b506100da6103e6565b3480156101d057600080fd5b506100b36103f5565b3480156101e557600080fd5b506100da6103fb565b4790565b6000546001600160a01b031690565b6001546001600160a01b031690565b6001546001600160a01b0316321461026f576040805162461bcd60e51b815260206004820152601d60248201527f596f75206d7573742062652061646d696e20746f20657865637574652e000000604482015290519081900360640190fd5b478111156102ae5760405162461bcd60e51b815260040180806020018281038252602a81526020018061040b602a913960400191505060405180910390fd5b600080546040516001600160a01b039091169183156108fc02918491818181858888f193505050501580156102e7573d6000803e3d6000fd5b5050565b60025481565b6001546001600160a01b03163214610350576040805162461bcd60e51b815260206004820152601d60248201527f596f75206d7573742062652061646d696e20746f20657865637574652e000000604482015290519081900360640190fd5b600080546001600160a01b0319166001600160a01b0392909216919091179055565b600254341161038057600080fd5b565b6001546001600160a01b031632146103e1576040805162461bcd60e51b815260206004820152601d60248201527f596f75206d7573742062652061646d696e20746f20657865637574652e000000604482015290519081900360640190fd5b600255565b6000546001600160a01b031681565b60025490565b6001546001600160a01b03168156fe43616e6e6f74207769746864726177206d6f7265207468616e2063757272656e742062616c616e63652ea265627a7a72315820166c12466780ce74537aa0a7243784ca80fb146861ae525b7df7ada9167a7c0c64736f6c63430005100032556e6f7264657265644b65795365742831303029202d204b65792063616e6e6f7420626520307830526571756573744f70656e43616d706169676e436f646520494420616c7265616479206578697374732e52657175657374546f4f70656e43616d706169676e206973206e6f742076616c69644f6e6c7920686f7374206f662063616d706169676e2063616e207265717565737420666f72206d6f6e65792077697468647261772e496e76616c69642072657175657374546f57697468647261774d6f6e6579204944596f7520617265206e6f742061646d696e206f72206f776e6572000000000000556e6f726465726564416464726573735365742831303129202d204164647265737320286b65792920616c72656164792065786973747320696e20746865207365742e486f737420697320696e2076616c69646174652070656e64696e6720737461746521556e6f7264657265644b65795365742831303229202d204b657920646f6573206e6f7420657869737420696e20746865207365742e556e6f7264657265644b65795365742831303129202d204b657920616c72656164792065786973747320696e20746865207365742e556e6f7264657265644b65795365742831303229202d204164647265737320286b65792920646f6573206e6f7420657869737420696e20746865207365742e596f752063616e6e6f742063616e63656c206f7468657220686f7374732072657175657374732e596f752068617665206e6f742072657175657374656420746f20626520686f73742e43616e6e6f74207769746864726177206d6f7265207468616e2063757272656e742062616c616e63652e43616e6e6f74207265717565737420746f207769746864726177206d6f7265207468616e2063616d706169676e2062616c616e63652e43616e27742067657420612043616d706169676e207468617420646f65736e27742065786973742e486f737420686176656e277420637265617465207265717565737420746f20626520486f73742e52657175657374546f57697468647261774d6f6e657920494420616c7265616479206578697374732ea265627a7a72315820eafba58f9da85b7713c0c47baff5d0557ad02d397ce04860d108e24a97e5945d64736f6c63430005100032",
  "source": "pragma solidity 0.5.16;\r\n\r\nimport \"./HitchensUnorderedAddressSet.sol\";\r\nimport \"./HitchensUnorderedKeySet.sol\";\r\nimport \"./Ownable_CampaignFactory.sol\";\r\nimport \"./Campaign.sol\";\r\ncontract CampaignFactory is Ownable_CampaignFactory{   \r\n    struct RequestTobeHost {\r\n        address requestSender;\r\n    }\r\n\r\n    struct RequestToOpenCampaign {\r\n        address payable requestHost;\r\n        uint32 minimumContribution;\r\n    }\r\n    \r\n    struct RequestToWithdrawMoney {\r\n        address payable requestHost;\r\n        address payable requestCampaign;\r\n        uint256 amount;\r\n    }\r\n    \r\n    using HitchensUnorderedAddressSetLib for HitchensUnorderedAddressSetLib.Set;\r\n    using HitchensUnorderedKeySetLib for HitchensUnorderedKeySetLib.Set;\r\n    \r\n    HitchensUnorderedAddressSetLib.Set campaignSet;\r\n    HitchensUnorderedAddressSetLib.Set validatedHostSet;\r\n    HitchensUnorderedAddressSetLib.Set validatedAdminSet;\r\n    HitchensUnorderedAddressSetLib.Set requestTobeHostSet;\r\n    HitchensUnorderedKeySetLib.Set requestToOpenCampaignSet;\r\n    HitchensUnorderedKeySetLib.Set requestToWithdrawMoneySet;\r\n    \r\n    \r\n    mapping(bytes32 => RequestToOpenCampaign) requestsToOpenCampaign;\r\n    mapping(bytes32 => RequestToWithdrawMoney) requestsToWithdrawMoney;\r\n    mapping(address => RequestTobeHost) requestsTobeHost;\r\n    \r\n    \r\n    mapping(address => Campaign) campaigns;\r\n    \r\n    \r\n    \r\n    modifier onlyAdmin() {\r\n        require(validatedAdminSet.exists(msg.sender), \"You are not admin !\");\r\n        _;\r\n    }\r\n    \r\n    modifier onlyAdminAndOwner() {\r\n        if(!((validatedAdminSet.exists(msg.sender)) || (owner == msg.sender))){\r\n            revert(\"You are not admin or owner\");\r\n        }\r\n        _;\r\n    }\r\n    \r\n    modifier onlyAdminAndOwnerAndValidatedHost() {\r\n        if(!((validatedAdminSet.exists(msg.sender)) || (owner == msg.sender) || (validatedHostSet.exists(msg.sender)))){\r\n            revert(\"You are not admin or owner\");\r\n        }\r\n        _;\r\n    }\r\n    \r\n    modifier onlyValidatedHost() {\r\n        require(validatedHostSet.exists(msg.sender), \"You are not a valid host !\");\r\n        _;\r\n    }\r\n    \r\n    event LogNewCampaign(address new_campaign_address, address admin, address host, uint minimum_contribution);\r\n    // event LogUpdateCampaign(address current_campaign,address sender, address host, uint minimum_contribution);\r\n    // event LogRemoveCampaign(address current_campaign,address sender);\r\n    \r\n    //ADMIN CRUD\r\n    function addAdmin(address _admin) public onlyOwner{\r\n        require(!validatedAdminSet.exists(_admin), \"This account is Admin already !\");\r\n        validatedAdminSet.insert(_admin);\r\n    }\r\n    \r\n    function removeAdmin(address _admin) public onlyOwner{\r\n        require(validatedAdminSet.exists(_admin), \"This account is not admin !\");\r\n        validatedAdminSet.remove(_admin);\r\n    }\r\n    function getAdminInAdminListAtIndex(uint index) public view returns(address _admin) {\r\n        return validatedAdminSet.keyAtIndex(index);\r\n    }\r\n    function getAdminList() public view returns(address[] memory){\r\n        return validatedAdminSet.listKey();\r\n    }\r\n    \r\n    \r\n\r\n    //HOST CRUD\r\n    function validateHost(address _host) public onlyAdminAndOwner{\r\n        require(!validatedHostSet.exists(_host), \"Host is valid already!\");\r\n        require(requestTobeHostSet.exists(_host), \"Host haven't request to be Host.\");\r\n        validatedHostSet.insert(_host);\r\n        requestTobeHostSet.remove(_host);\r\n        delete requestsTobeHost[_host];\r\n       \r\n    }\r\n    \r\n    function rejectValidateRequestHost(address _host) public onlyAdminAndOwner{\r\n        require(requestTobeHostSet.exists(_host), \"Host haven't create request to be Host.\");\r\n        requestTobeHostSet.remove(_host);\r\n        delete requestsTobeHost[_host];\r\n       \r\n    }\r\n\r\n    function removeValidatedHost(address _host) public onlyAdminAndOwner{\r\n        require(validatedHostSet.exists(_host), \"This account is not host\");\r\n        validatedHostSet.remove(_host);\r\n    }\r\n    function getHostInHostListAtIndex(uint index) public view returns(address _host) {\r\n        return validatedHostSet.keyAtIndex(index);\r\n    }\r\n    function isHostValidated(address validatedHostAddress) public view returns(bool _result){\r\n        if(validatedHostSet.exists(validatedHostAddress)){\r\n            return true;\r\n        } else {\r\n            return false;\r\n        }\r\n    }\r\n    function getValidatedHostList() public view returns(address[] memory){\r\n        return validatedHostSet.listKey();\r\n    }\r\n    \r\n    //CAMPAIGN CRUD\r\n    function newCampaign(bytes32 requestToOpenCampaign) public onlyAdminAndOwner{\r\n         // Note that this will fail automatically if the key already exists.\r\n        // require(validatedHostSet.exists(host), \"Host is not validated\r\n        require(requestToOpenCampaignSet.exists(requestToOpenCampaign), \"RequestToOpenCampaign is not valid\");\r\n        \r\n        RequestToOpenCampaign memory re = requestsToOpenCampaign[requestToOpenCampaign];\r\n        \r\n        Campaign w = new Campaign(re.minimumContribution,re.requestHost,tx.origin);\r\n    \r\n        campaigns[address(w)] = w ;\r\n        campaignSet.insert(address(w));\r\n        \r\n        requestToOpenCampaignSet.remove(requestToOpenCampaign);\r\n        delete requestsToOpenCampaign[requestToOpenCampaign];\r\n        emit LogNewCampaign(address(w),tx.origin,re.requestHost,re.minimumContribution);\r\n    }\r\n    \r\n    function rejectCreateCampaign(bytes32 requestToOpenCampaign) public onlyAdminAndOwner{\r\n         // Note that this will fail automatically if the key already exists.\r\n        require(requestToOpenCampaignSet.exists(requestToOpenCampaign), \"Invalid requestToOpenCampaign ID\");\r\n        requestToOpenCampaignSet.remove(requestToOpenCampaign);\r\n        delete requestsToOpenCampaign[requestToOpenCampaign];\r\n\r\n    }\r\n    \r\n    function removeCampaign(address campaign_key) public onlyAdminAndOwner{\r\n        \r\n        campaignSet.remove(campaign_key); // Note that this will fail automatically if the key doesn't exist\r\n        delete campaigns[campaign_key];\r\n        // emit LogRemoveCampaign(campaign_key,msg.sender);\r\n    }\r\n    \r\n    function getCampaign(address campaign_key) public view returns(address host, uint minimum_contribution) {\r\n        require(campaignSet.exists(campaign_key), \"Can't get a Campaign that doesn't exist.\");\r\n        Campaign w = campaigns[campaign_key];\r\n        return(w.getHost(),w.getMinimumContribution());\r\n    }\r\n    \r\n    function getCampaignList() public view returns(address[] memory){\r\n        return campaignSet.listKey();\r\n    }\r\n    \r\n    function getCampaignInCampaignListAtIndex(uint index) public view returns(address campaign_key) {\r\n        return campaignSet.keyAtIndex(index);\r\n    }\r\n    \r\n    //REQUEST TO BE VALIDATED HOST CRUD\r\n    \r\n    function requestToBeValidHost() public {\r\n        require(!validatedHostSet.exists(msg.sender), \"Host is valid already!\");\r\n        require(!requestTobeHostSet.exists(msg.sender), \"Host is in validate pending state!\");\r\n        RequestTobeHost memory re = RequestTobeHost(msg.sender);\r\n        requestsTobeHost[msg.sender] = re;\r\n        requestTobeHostSet.insert(msg.sender);\r\n    }\r\n    \r\n    function getRequestToBeHostList() public onlyAdminAndOwnerAndValidatedHost view returns(address[] memory){\r\n        return requestTobeHostSet.listKey();\r\n    }\r\n    \r\n    function hostValidateState() public view returns(int){\r\n        if(requestTobeHostSet.exists(msg.sender)){\r\n            return 1;//sending\r\n        } else {\r\n            if(validatedHostSet.exists(msg.sender)){\r\n                return 2;//already success\r\n            } else {\r\n                return 0;//havent sent\r\n            }\r\n        }\r\n    }\r\n    \r\n    function getRequestInRequestToBeHostListAtIndex(uint index) public onlyAdminAndOwnerAndValidatedHost view returns(address _requestToBeHost) {\r\n        return requestTobeHostSet.keyAtIndex(index);\r\n    }\r\n    \r\n    function cancelToBeValidHostRequest() public {\r\n        require(requestTobeHostSet.exists(msg.sender), \"You have not requested to be host.\");\r\n        requestTobeHostSet.remove(msg.sender);\r\n        delete requestsTobeHost[msg.sender];\r\n    }\r\n    \r\n    //REQUEST TO OPEN CAMPAIGN CRUD \r\n    function requestToOpenCampaign(bytes32 requestOpenCampaignCode, uint32 minimumContribution) public onlyValidatedHost{\r\n        require(!requestToOpenCampaignSet.exists(requestOpenCampaignCode), \"RequestOpenCampaignCode ID already exists.\");\r\n        RequestToOpenCampaign memory re = RequestToOpenCampaign(msg.sender,minimumContribution);\r\n        requestsToOpenCampaign[requestOpenCampaignCode] = re;\r\n        requestToOpenCampaignSet.insert(requestOpenCampaignCode);\r\n    }\r\n    \r\n    function getRequestToOpenCampaignList() public onlyAdminAndOwnerAndValidatedHost view returns(bytes32[] memory){\r\n        return requestToOpenCampaignSet.listKey();\r\n    }\r\n    \r\n    function getRequestToOpenCampaignListAtIndex(uint index) public onlyAdminAndOwnerAndValidatedHost view returns(bytes32 _requestToOpenCampaign) {\r\n        return requestToOpenCampaignSet.keyAtIndex(index);\r\n    }\r\n    function getRequestToOpenCampaignListAtKey(bytes32 key) public onlyAdminAndOwnerAndValidatedHost view returns(address payable _requestToOpenCampaignHost, uint32  _requestToOpenCampaignMinimumContribution) {\r\n        RequestToOpenCampaign memory re = requestsToOpenCampaign[key];\r\n        return (re.requestHost, re.minimumContribution);\r\n    }\r\n\r\n    function cancelOpenCampaignRequest(bytes32 requestToOpenCampaignCode) public onlyValidatedHost {\r\n        require(requestToOpenCampaignSet.exists(requestToOpenCampaignCode), \"Invalid requestToOpenCampaign ID\");\r\n        RequestToOpenCampaign memory re = requestsToOpenCampaign[requestToOpenCampaignCode];\r\n       \r\n        if(re.requestHost == msg.sender){\r\n            requestToOpenCampaignSet.remove(requestToOpenCampaignCode);\r\n            delete requestsToOpenCampaign[requestToOpenCampaignCode];\r\n        } else {\r\n            revert(\"You cannot cancel other hosts requests.\");\r\n        }\r\n        \r\n    }\r\n\r\n    //REQUEST TO WITHDRAW MONEY CRUD\r\n    function withDrawMoneyFunction(bytes32 requestToWithdrawMoney) public onlyAdmin {\r\n        require(requestToWithdrawMoneySet.exists(requestToWithdrawMoney), \"Invalid requestToWithdrawMoney ID\");\r\n        RequestToWithdrawMoney memory re = requestsToWithdrawMoney[requestToWithdrawMoney];\r\n       \r\n        Campaign a = Campaign(re.requestCampaign);\r\n        if(re.amount > a.getBalance()){\r\n            revert(\"Cannot withdraw more than current balance.\");\r\n        } else {\r\n            a.withDrawMoney(re.amount);\r\n            requestToWithdrawMoneySet.remove(requestToWithdrawMoney);\r\n            delete requestsToWithdrawMoney[requestToWithdrawMoney];\r\n        }\r\n        \r\n    }\r\n    \r\n    function cancelWithDrawMoneyRequest(bytes32 requestToWithdrawMoney) public onlyValidatedHost {\r\n        require(requestToWithdrawMoneySet.exists(requestToWithdrawMoney), \"Invalid requestToWithdrawMoney ID\");\r\n        RequestToWithdrawMoney memory re = requestsToWithdrawMoney[requestToWithdrawMoney];\r\n       \r\n        if(re.requestHost == msg.sender){\r\n            revert(\"You cannot cancel other hosts requests.\");\r\n        } else {\r\n            requestToWithdrawMoneySet.remove(requestToWithdrawMoney);\r\n            delete requestsToWithdrawMoney[requestToWithdrawMoney];\r\n        }\r\n        \r\n    }\r\n    \r\n    function rejectWithdrawMoneyRequest(bytes32 requestToWithdrawMoney) public onlyAdmin {\r\n        require(requestToWithdrawMoneySet.exists(requestToWithdrawMoney), \"Invalid requestToWithdrawMoney ID\");\r\n        requestToWithdrawMoneySet.remove(requestToWithdrawMoney);\r\n        delete requestsToWithdrawMoney[requestToWithdrawMoney];\r\n        \r\n    }\r\n    \r\n    \r\n    function requestToWithdrawMoney(bytes32 requestWithdrawMoneyCode, uint256 requestAmount, address payable requestCampaign) public onlyValidatedHost{\r\n        require(!requestToWithdrawMoneySet.exists(requestWithdrawMoneyCode), \"RequestToWithdrawMoney ID already exists.\");\r\n        \r\n        Campaign check = Campaign(requestCampaign);\r\n        if(check.getHost() == msg.sender){\r\n            if(check.getBalance() >= requestAmount){\r\n                RequestToWithdrawMoney memory re = RequestToWithdrawMoney(msg.sender,requestCampaign,requestAmount);\r\n                requestsToWithdrawMoney[requestWithdrawMoneyCode] = re;\r\n                requestToWithdrawMoneySet.insert(requestWithdrawMoneyCode);\r\n            } else {\r\n                revert(\"Cannot request to withdraw more than campaign balance.\");\r\n            }\r\n            \r\n        } else {\r\n            revert(\"Only host of campaign can request for money withdraw.\");\r\n        }\r\n        \r\n        \r\n    }\r\n    \r\n    function getRequestToWithdrawMoneyList() public onlyAdminAndOwnerAndValidatedHost view returns(bytes32[] memory){\r\n        return requestToWithdrawMoneySet.listKey();\r\n    }\r\n    \r\n    function getRequestToWithdrawMoneyListAtIndex(uint index) public onlyAdminAndOwnerAndValidatedHost view returns(bytes32 _requestToOpenCampaign) {\r\n        return requestToWithdrawMoneySet.keyAtIndex(index);\r\n    }\r\n    \r\n    function getRequestToWithdrawMoneyListAtKey(bytes32 key) public onlyAdminAndOwnerAndValidatedHost view returns(address payable _requestToWithdrawMoneyHost,address payable _requestToWithdrawMoneyCampaign, uint256  _requestToWithdrawMoneyAmount) {\r\n        RequestToWithdrawMoney memory re = requestsToWithdrawMoney[key];\r\n        return (re.requestHost, re.requestCampaign, re.amount);\r\n    }\r\n    \r\n}",
  "sourcePath": "D:\\UNI\\D n\\Main Project\\blockchain_charity_repo\\Blockchain_Truffle\\contracts\\CampaignFactory.sol",
  "compiler": {
    "name": "solc",
    "version": "0.5.16+commit.9c3226ce.Emscripten.clang"
  },
  "schemaVersion": "3.4.3",
  "updatedAt": "2021-11-09T17:20:53.627Z",
  "networkType": "ethereum",
  "devdoc": {
    "methods": {}
  },
  "userdoc": {
    "methods": {}
  }
}