{
  "contractName": "Campaign",
  "abi": [
    {
      "inputs": [
        {
          "internalType": "uint256",
          "name": "minimum",
          "type": "uint256"
        },
        {
          "internalType": "address payable",
          "name": "creator",
          "type": "address"
        },
        {
          "internalType": "address",
          "name": "initial_admin",
          "type": "address"
        }
      ],
      "payable": false,
      "stateMutability": "nonpayable",
      "type": "constructor"
    },
    {
      "payable": true,
      "stateMutability": "payable",
      "type": "fallback"
    },
    {
      "constant": true,
      "inputs": [],
      "name": "admin",
      "outputs": [
        {
          "internalType": "address",
          "name": "",
          "type": "address"
        }
      ],
      "payable": false,
      "stateMutability": "view",
      "type": "function"
    },
    {
      "constant": true,
      "inputs": [],
      "name": "host",
      "outputs": [
        {
          "internalType": "address payable",
          "name": "",
          "type": "address"
        }
      ],
      "payable": false,
      "stateMutability": "view",
      "type": "function"
    },
    {
      "constant": true,
      "inputs": [],
      "name": "minimumContribution",
      "outputs": [
        {
          "internalType": "uint256",
          "name": "",
          "type": "uint256"
        }
      ],
      "payable": false,
      "stateMutability": "view",
      "type": "function"
    },
    {
      "constant": false,
      "inputs": [],
      "name": "contribute",
      "outputs": [],
      "payable": true,
      "stateMutability": "payable",
      "type": "function"
    },
    {
      "constant": false,
      "inputs": [
        {
          "internalType": "uint256",
          "name": "index",
          "type": "uint256"
        }
      ],
      "name": "withDrawMoney",
      "outputs": [],
      "payable": false,
      "stateMutability": "nonpayable",
      "type": "function"
    },
    {
      "constant": true,
      "inputs": [],
      "name": "getHost",
      "outputs": [
        {
          "internalType": "address",
          "name": "",
          "type": "address"
        }
      ],
      "payable": false,
      "stateMutability": "view",
      "type": "function"
    },
    {
      "constant": true,
      "inputs": [],
      "name": "getAdmin",
      "outputs": [
        {
          "internalType": "address",
          "name": "",
          "type": "address"
        }
      ],
      "payable": false,
      "stateMutability": "view",
      "type": "function"
    },
    {
      "constant": true,
      "inputs": [],
      "name": "getMinimumContribution",
      "outputs": [
        {
          "internalType": "uint256",
          "name": "",
          "type": "uint256"
        }
      ],
      "payable": false,
      "stateMutability": "view",
      "type": "function"
    },
    {
      "constant": true,
      "inputs": [],
      "name": "getBalance",
      "outputs": [
        {
          "internalType": "uint256",
          "name": "",
          "type": "uint256"
        }
      ],
      "payable": false,
      "stateMutability": "view",
      "type": "function"
    },
    {
      "constant": false,
      "inputs": [
        {
          "internalType": "address payable",
          "name": "new_host",
          "type": "address"
        }
      ],
      "name": "setHost",
      "outputs": [],
      "payable": false,
      "stateMutability": "nonpayable",
      "type": "function"
    },
    {
      "constant": false,
      "inputs": [
        {
          "internalType": "uint256",
          "name": "new_minimum_contribution",
          "type": "uint256"
        }
      ],
      "name": "setMinimumContribution",
      "outputs": [],
      "payable": false,
      "stateMutability": "nonpayable",
      "type": "function"
    }
  ],
  "bytecode": "0x608060405234801561001057600080fd5b506040516104f03803806104f08339818101604052606081101561003357600080fd5b5080516020820151604090920151600080546001600160a01b039485166001600160a01b031991821617909155600292909255600180549390911692909116919091179055610469806100876000396000f3fe60806040526004361061009c5760003560e01c8063c85e0be211610064578063c85e0be21461014a578063d7bb99ba1461017d578063dba3e70414610185578063f437bc59146101af578063f84038b1146101c4578063f851a440146101d95761009c565b806312065fe01461009e57806320bc4425146100c55780636e9960c3146100f6578063827cc4521461010b578063937e09b114610135575b005b3480156100aa57600080fd5b506100b36101ee565b60408051918252519081900360200190f35b3480156100d157600080fd5b506100da6101f2565b604080516001600160a01b039092168252519081900360200190f35b34801561010257600080fd5b506100da610201565b34801561011757600080fd5b5061009c6004803603602081101561012e57600080fd5b5035610210565b34801561014157600080fd5b506100b36102eb565b34801561015657600080fd5b5061009c6004803603602081101561016d57600080fd5b50356001600160a01b03166102f1565b61009c610372565b34801561019157600080fd5b5061009c600480360360208110156101a857600080fd5b5035610382565b3480156101bb57600080fd5b506100da6103e6565b3480156101d057600080fd5b506100b36103f5565b3480156101e557600080fd5b506100da6103fb565b4790565b6000546001600160a01b031690565b6001546001600160a01b031690565b6001546001600160a01b0316321461026f576040805162461bcd60e51b815260206004820152601d60248201527f596f75206d7573742062652061646d696e20746f20657865637574652e000000604482015290519081900360640190fd5b478111156102ae5760405162461bcd60e51b815260040180806020018281038252602a81526020018061040b602a913960400191505060405180910390fd5b600080546040516001600160a01b039091169183156108fc02918491818181858888f193505050501580156102e7573d6000803e3d6000fd5b5050565b60025481565b6001546001600160a01b03163214610350576040805162461bcd60e51b815260206004820152601d60248201527f596f75206d7573742062652061646d696e20746f20657865637574652e000000604482015290519081900360640190fd5b600080546001600160a01b0319166001600160a01b0392909216919091179055565b600254341161038057600080fd5b565b6001546001600160a01b031632146103e1576040805162461bcd60e51b815260206004820152601d60248201527f596f75206d7573742062652061646d696e20746f20657865637574652e000000604482015290519081900360640190fd5b600255565b6000546001600160a01b031681565b60025490565b6001546001600160a01b03168156fe43616e6e6f74207769746864726177206d6f7265207468616e2063757272656e742062616c616e63652ea265627a7a72315820166c12466780ce74537aa0a7243784ca80fb146861ae525b7df7ada9167a7c0c64736f6c63430005100032",
  "source": "pragma solidity 0.5.16;\r\n\r\nimport \"./HitchensUnorderedAddressSet.sol\";\r\ncontract Campaign{\r\n    \r\n    address payable public host;\r\n    address public admin;\r\n    uint public minimumContribution;\r\n    // address[] public contributers;\r\n    \r\n    using HitchensUnorderedAddressSetLib for HitchensUnorderedAddressSetLib.Set;\r\n    HitchensUnorderedAddressSetLib.Set campaignSet;\r\n\r\n    constructor (uint minimum, address payable creator, address initial_admin) public {\r\n        host = creator;\r\n        minimumContribution = minimum;\r\n        admin = initial_admin;\r\n    }\r\n\r\n    modifier onlyHost() {\r\n        require(tx.origin== host, \"You must be host to execute.\");\r\n        _;\r\n    }\r\n    modifier onlyAdmin() {\r\n        require(tx.origin == admin ,\"You must be admin to execute.\");\r\n        _;\r\n    }\r\n    modifier onlyHostOrAdmin() {\r\n        require(((tx.origin == host) || (tx.origin== admin)), \"You must be host or admin to execute.\");\r\n        _;\r\n    }\r\n    \r\n    function contribute() public payable {\r\n        require(msg.value > minimumContribution);\r\n        \r\n        // contributers.push(msg.sender);\r\n    }\r\n    \r\n    function withDrawMoney(uint256 index) public onlyAdmin {\r\n        require(index <= address(this).balance, \"Cannot withdraw more than current balance.\");\r\n        address(host).transfer(index);\r\n    }\r\n\r\n    //getter\r\n    function getHost() public view returns(address) { return host; }\r\n    function getAdmin() public view returns(address) { return admin; }\r\n\r\n    function getMinimumContribution() public view returns(uint) { return minimumContribution; }\r\n    \r\n    // function getContributers() public view returns(address[] memory) { return contributers; }\r\n\r\n    function getBalance() public view returns(uint256) {return address(this).balance; }\r\n\r\n    //setter\r\n    function setHost(address payable new_host) public onlyAdmin { host = new_host; }\r\n    function setMinimumContribution(uint new_minimum_contribution) public onlyAdmin { minimumContribution = new_minimum_contribution; }\r\n\r\n    function () external payable{\r\n        \r\n    }\r\n}",
  "sourcePath": "D:\\UNI\\Dự Án\\blockchain-land-registry-with-laravel\\Smart Contract\\contracts\\Campaign.sol",
  "compiler": {
    "name": "solc",
    "version": "0.5.16+commit.9c3226ce.Emscripten.clang"
  },
  "schemaVersion": "3.4.3",
  "updatedAt": "2021-10-29T20:02:09.672Z",
  "devdoc": {
    "methods": {}
  },
  "userdoc": {
    "methods": {}
  }
}