{
  "contractName": "CampaignFactory",
  "abi": [
    {
      "constant": true,
      "inputs": [],
      "name": "owner",
      "outputs": [
        {
          "internalType": "address",
          "name": "",
          "type": "address"
        }
      ],
      "payable": false,
      "stateMutability": "view",
      "type": "function"
    },
    {
      "constant": false,
      "inputs": [
        {
          "internalType": "address",
          "name": "_admin",
          "type": "address"
        }
      ],
      "name": "addAdmin",
      "outputs": [],
      "payable": false,
      "stateMutability": "nonpayable",
      "type": "function"
    },
    {
      "constant": false,
      "inputs": [
        {
          "internalType": "address",
          "name": "_admin",
          "type": "address"
        }
      ],
      "name": "removeAdmin",
      "outputs": [],
      "payable": false,
      "stateMutability": "nonpayable",
      "type": "function"
    },
    {
      "constant": true,
      "inputs": [
        {
          "internalType": "uint256",
          "name": "index",
          "type": "uint256"
        }
      ],
      "name": "getAdminInAdminListAtIndex",
      "outputs": [
        {
          "internalType": "address",
          "name": "_admin",
          "type": "address"
        }
      ],
      "payable": false,
      "stateMutability": "view",
      "type": "function"
    },
    {
      "constant": true,
      "inputs": [],
      "name": "getAdminList",
      "outputs": [
        {
          "internalType": "address[]",
          "name": "",
          "type": "address[]"
        }
      ],
      "payable": false,
      "stateMutability": "view",
      "type": "function"
    },
    {
      "constant": false,
      "inputs": [
        {
          "internalType": "address",
          "name": "_host",
          "type": "address"
        }
      ],
      "name": "validateHost",
      "outputs": [],
      "payable": false,
      "stateMutability": "nonpayable",
      "type": "function"
    },
    {
      "constant": false,
      "inputs": [
        {
          "internalType": "address",
          "name": "_host",
          "type": "address"
        }
      ],
      "name": "removeValidatedHost",
      "outputs": [],
      "payable": false,
      "stateMutability": "nonpayable",
      "type": "function"
    },
    {
      "constant": true,
      "inputs": [
        {
          "internalType": "uint256",
          "name": "index",
          "type": "uint256"
        }
      ],
      "name": "getHostInHostListAtIndex",
      "outputs": [
        {
          "internalType": "address",
          "name": "_host",
          "type": "address"
        }
      ],
      "payable": false,
      "stateMutability": "view",
      "type": "function"
    },
    {
      "constant": true,
      "inputs": [],
      "name": "getHostList",
      "outputs": [
        {
          "internalType": "address[]",
          "name": "",
          "type": "address[]"
        }
      ],
      "payable": false,
      "stateMutability": "view",
      "type": "function"
    },
    {
      "constant": false,
      "inputs": [
        {
          "internalType": "bytes32",
          "name": "requestToOpenCampaign",
          "type": "bytes32"
        }
      ],
      "name": "newCampaign",
      "outputs": [],
      "payable": false,
      "stateMutability": "nonpayable",
      "type": "function"
    },
    {
      "constant": false,
      "inputs": [
        {
          "internalType": "address",
          "name": "campaign_key",
          "type": "address"
        }
      ],
      "name": "removeCampaign",
      "outputs": [],
      "payable": false,
      "stateMutability": "nonpayable",
      "type": "function"
    },
    {
      "constant": true,
      "inputs": [
        {
          "internalType": "address",
          "name": "campaign_key",
          "type": "address"
        }
      ],
      "name": "getCampaign",
      "outputs": [
        {
          "internalType": "address",
          "name": "host",
          "type": "address"
        },
        {
          "internalType": "uint256",
          "name": "minimum_contribution",
          "type": "uint256"
        }
      ],
      "payable": false,
      "stateMutability": "view",
      "type": "function"
    },
    {
      "constant": true,
      "inputs": [],
      "name": "getCampaignList",
      "outputs": [
        {
          "internalType": "address[]",
          "name": "",
          "type": "address[]"
        }
      ],
      "payable": false,
      "stateMutability": "view",
      "type": "function"
    },
    {
      "constant": true,
      "inputs": [
        {
          "internalType": "uint256",
          "name": "index",
          "type": "uint256"
        }
      ],
      "name": "getCampaignInCampaignListAtIndex",
      "outputs": [
        {
          "internalType": "address",
          "name": "campaign_key",
          "type": "address"
        }
      ],
      "payable": false,
      "stateMutability": "view",
      "type": "function"
    },
    {
      "constant": false,
      "inputs": [],
      "name": "requestToBeValidHost",
      "outputs": [],
      "payable": false,
      "stateMutability": "nonpayable",
      "type": "function"
    },
    {
      "constant": true,
      "inputs": [],
      "name": "getRequestToBeHostList",
      "outputs": [
        {
          "internalType": "address[]",
          "name": "",
          "type": "address[]"
        }
      ],
      "payable": false,
      "stateMutability": "view",
      "type": "function"
    },
    {
      "constant": true,
      "inputs": [
        {
          "internalType": "uint256",
          "name": "index",
          "type": "uint256"
        }
      ],
      "name": "getRequestInRequestToBeHostListAtIndex",
      "outputs": [
        {
          "internalType": "address",
          "name": "_requestToBeHost",
          "type": "address"
        }
      ],
      "payable": false,
      "stateMutability": "view",
      "type": "function"
    },
    {
      "constant": false,
      "inputs": [
        {
          "internalType": "bytes32",
          "name": "requestOpenCampaignCode",
          "type": "bytes32"
        },
        {
          "internalType": "uint32",
          "name": "minimumContribution",
          "type": "uint32"
        }
      ],
      "name": "requestToOpenCamapaign",
      "outputs": [],
      "payable": false,
      "stateMutability": "nonpayable",
      "type": "function"
    },
    {
      "constant": true,
      "inputs": [],
      "name": "getRequestToOpenCampaignList",
      "outputs": [
        {
          "internalType": "bytes32[]",
          "name": "",
          "type": "bytes32[]"
        }
      ],
      "payable": false,
      "stateMutability": "view",
      "type": "function"
    },
    {
      "constant": true,
      "inputs": [
        {
          "internalType": "uint256",
          "name": "index",
          "type": "uint256"
        }
      ],
      "name": "getRequestToOpenCampaignListAtIndex",
      "outputs": [
        {
          "internalType": "bytes32",
          "name": "_requestToOpenCampaign",
          "type": "bytes32"
        }
      ],
      "payable": false,
      "stateMutability": "view",
      "type": "function"
    }
  ],
  "bytecode": "0x6080604052600080546001600160a01b03191633179055611a73806100256000396000f3fe608060405234801561001057600080fd5b506004361061012c5760003560e01c80637a3a4edf116100ad578063aca3d9bf11610071578063aca3d9bf1461032d578063be72f5411461034a578063c5a308f914610373578063d9f774fc14610399578063e4663a5b146103a15761012c565b80637a3a4edf146102f05780638da5cb5b1461030d5780638e076cf0146103155780639ce6113d1461031d5780639ce9d19a146103255761012c565b8063326d03af116100f4578063326d03af1461023657806345b5e86f14610253578063519060471461025b5780637048027514610281578063731301cf146102a75761012c565b80630410b0b31461013157806307e9002f146101895780631785f53c146101a85780632e806a2c146101ce578063325dba0a14610207575b600080fd5b6101396103c7565b60408051602080825283518183015283519192839290830191858101910280838360005b8381101561017557818101518382015260200161015d565b505050509050019250505060405180910390f35b6101a66004803603602081101561019f57600080fd5b50356103d9565b005b6101a6600480360360208110156101be57600080fd5b50356001600160a01b0316610544565b6101eb600480360360208110156101e457600080fd5b5035610619565b604080516001600160a01b039092168252519081900360200190f35b6102246004803603602081101561021d57600080fd5b5035610632565b60408051918252519081900360200190f35b6101eb6004803603602081101561024c57600080fd5b50356106aa565b6101396106bd565b6101a66004803603602081101561027157600080fd5b50356001600160a01b031661072e565b6101a66004803603602081101561029757600080fd5b50356001600160a01b0316610806565b6102cd600480360360208110156102bd57600080fd5b50356001600160a01b03166108d9565b604080516001600160a01b03909316835260208301919091528051918290030190f35b6101eb6004803603602081101561030657600080fd5b5035610a1e565b6101eb610a96565b610139610aa5565b610139610ab1565b6101a6610b22565b6101eb6004803603602081101561034357600080fd5b5035610c19565b6101a66004803603604081101561036057600080fd5b508035906020013563ffffffff16610c2c565b6101a66004803603602081101561038957600080fd5b50356001600160a01b0316610d11565b610139610e7d565b6101a6600480360360208110156103b757600080fd5b50356001600160a01b0316610e89565b60606103d36001610f26565b90505b90565b6103ea60053363ffffffff610f8c16565b806103ff57506000546001600160a01b031633145b61043e576040805162461bcd60e51b815260206004820152601a60248201526000805160206118e9833981519152604482015290519081900360640190fd5b610446611424565b506000818152600b602090815260408083208151808301835290546001600160a01b038116808352600160a01b90910463ffffffff169382018490529151909392919032906104949061143b565b63ffffffff90931683526001600160a01b039182166020840152166040808301919091525190819003606001906000f0801580156104d6573d6000803e3d6000fd5b506001600160a01b0381166000818152600d6020526040902080546001600160a01b0319169091179055905061051360018263ffffffff610fe716565b61052460098463ffffffff6110b616565b50506000908152600b6020526040902080546001600160c01b0319169055565b6000546001600160a01b031633146105a3576040805162461bcd60e51b815260206004820152601d60248201527f596f75206d757374206265206f776e657220746f20657865637574652e000000604482015290519081900360640190fd5b6105b460058263ffffffff610f8c16565b610605576040805162461bcd60e51b815260206004820152601b60248201527f54686973206163636f756e74206973206e6f742061646d696e20210000000000604482015290519081900360640190fd5b61061660058263ffffffff61118816565b50565b600061062c60058363ffffffff61127d16565b92915050565b600061064560053363ffffffff610f8c16565b8061065a57506000546001600160a01b031633145b610699576040805162461bcd60e51b815260206004820152601a60248201526000805160206118e9833981519152604482015290519081900360640190fd5b61062c60098363ffffffff6112aa16565b600061062c60038363ffffffff61127d16565b60606106d060053363ffffffff610f8c16565b806106e557506000546001600160a01b031633145b610724576040805162461bcd60e51b815260206004820152601a60248201526000805160206118e9833981519152604482015290519081900360640190fd5b6103d36007610f26565b61073f60053363ffffffff610f8c16565b8061075457506000546001600160a01b031633145b610793576040805162461bcd60e51b815260206004820152601a60248201526000805160206118e9833981519152604482015290519081900360640190fd5b6107a460038263ffffffff610f8c16565b6107f5576040805162461bcd60e51b815260206004820152601860248201527f54686973206163636f756e74206973206e6f7420686f73740000000000000000604482015290519081900360640190fd5b61061660038263ffffffff61118816565b6000546001600160a01b03163314610865576040805162461bcd60e51b815260206004820152601d60248201527f596f75206d757374206265206f776e657220746f20657865637574652e000000604482015290519081900360640190fd5b61087660058263ffffffff610f8c16565b156108c8576040805162461bcd60e51b815260206004820152601f60248201527f54686973206163636f756e742069732041646d696e20616c7265616479202100604482015290519081900360640190fd5b61061660058263ffffffff610fe716565b6000806108ed60018463ffffffff610f8c16565b6109285760405162461bcd60e51b8152600401808060200182810382526028815260200180611a176028913960400191505060405180910390fd5b6001600160a01b038084166000908152600d60209081526040918290205482516320bc442560e01b8152925193169283926320bc4425926004808301939192829003018186803b15801561097b57600080fd5b505afa15801561098f573d6000803e3d6000fd5b505050506040513d60208110156109a557600080fd5b50516040805163f84038b160e01b815290516001600160a01b0384169163f84038b1916004808301926020929190829003018186803b1580156109e757600080fd5b505afa1580156109fb573d6000803e3d6000fd5b505050506040513d6020811015610a1157600080fd5b5051909350915050915091565b6000610a3160053363ffffffff610f8c16565b80610a4657506000546001600160a01b031633145b610a85576040805162461bcd60e51b815260206004820152601a60248201526000805160206118e9833981519152604482015290519081900360640190fd5b61062c60078363ffffffff61127d16565b6000546001600160a01b031681565b60606103d36003610f26565b6060610ac460053363ffffffff610f8c16565b80610ad957506000546001600160a01b031633145b610b18576040805162461bcd60e51b815260206004820152601a60248201526000805160206118e9833981519152604482015290519081900360640190fd5b6103d360096112ce565b610b3360033363ffffffff610f8c16565b15610b7e576040805162461bcd60e51b8152602060048201526016602482015275486f73742069732076616c696420616c72656164792160501b604482015290519081900360640190fd5b610b8f60073363ffffffff610f8c16565b15610bcb5760405162461bcd60e51b815260040180806020018281038252602281526020018061194c6022913960400191505060405180910390fd5b610bd3611448565b506040805160208082018352338083526000818152600c909252929020815181546001600160a01b0319166001600160a01b039091161790559061061690600790610fe7565b600061062c60018363ffffffff61127d16565b610c3d60033363ffffffff610f8c16565b610c8e576040805162461bcd60e51b815260206004820152601a60248201527f596f7520617265206e6f7420612076616c696420686f73742021000000000000604482015290519081900360640190fd5b610c96611424565b5060408051808201825233815263ffffffff80841660208084019182526000878152600b909152939093208251815494518316600160a01b0263ffffffff60a01b196001600160a01b03929092166001600160a01b031990961695909517169390931790925590610d0c90600990859061132916565b505050565b610d2260053363ffffffff610f8c16565b80610d3757506000546001600160a01b031633145b610d76576040805162461bcd60e51b815260206004820152601a60248201526000805160206118e9833981519152604482015290519081900360640190fd5b610d8760038263ffffffff610f8c16565b15610dd2576040805162461bcd60e51b8152602060048201526016602482015275486f73742069732076616c696420616c72656164792160501b604482015290519081900360640190fd5b610de360078263ffffffff610f8c16565b610e34576040805162461bcd60e51b815260206004820181905260248201527f486f737420686176656e2774207265717565737420746f20626520486f73742e604482015290519081900360640190fd5b610e4560038263ffffffff610fe716565b610e5660078263ffffffff61118816565b6001600160a01b03166000908152600c6020526040902080546001600160a01b0319169055565b60606103d36005610f26565b610e9a60053363ffffffff610f8c16565b80610eaf57506000546001600160a01b031633145b610eee576040805162461bcd60e51b815260206004820152601a60248201526000805160206118e9833981519152604482015290519081900360640190fd5b610eff60018263ffffffff61118816565b6001600160a01b03166000908152600d6020526040902080546001600160a01b0319169055565b606081600101805480602002602001604051908101604052809291908181526020018280548015610f8057602002820191906000526020600020905b81546001600160a01b03168152600190910190602001808311610f62575b50505050509050919050565b6001820154600090610fa05750600061062c565b6001600160a01b0382166000818152602085905260409020546001850180549091908110610fca57fe5b6000918252602090912001546001600160a01b0316149392505050565b6001600160a01b03811661102c5760405162461bcd60e51b81526004018080602001828103825260288152602001806118c16028913960400191505060405180910390fd5b6110368282610f8c565b156110725760405162461bcd60e51b81526004018080602001828103825260438152602001806119096043913960600191505060405180910390fd5b60018281018054918201815560009081526020808220830180546001600160a01b039095166001600160a01b03199095168517905592815292909152604090912055565b6110c082826113d5565b6110fb5760405162461bcd60e51b815260040180806020018281038252603581526020018061196e6035913960400191505060405180910390fd5b600082600101600161110c8561141d565b038154811061111757fe5b600091825260208083209091015484835290859052604080832054828452922082905560018501805491935083918390811061114f57fe5b60009182526020808320909101929092558481529085905260408120556001840180549061118190600019830161145a565b5050505050565b6111928282610f8c565b6111cd5760405162461bcd60e51b815260040180806020018281038252603f8152602001806119d8603f913960400191505060405180910390fd5b60008260010160016111de8561141d565b03815481106111e957fe5b60009182526020808320909101546001600160a01b0385811684529186905260408084205492909116808452922081905560018501805492935090918391908390811061123257fe5b600091825260208083209190910180546001600160a01b0319166001600160a01b0394851617905591851681529085905260408120556001840180549061118190600019830161145a565b600082600101828154811061128e57fe5b6000918252602090912001546001600160a01b03169392505050565b60008260010182815481106112bb57fe5b9060005260206000200154905092915050565b606081600101805480602002602001604051908101604052809291908181526020018280548015610f8057602002820191906000526020600020905b81548152602001906001019080831161130a5750505050509050919050565b806113655760405162461bcd60e51b81526004018080602001828103825260288152602001806118c16028913960400191505060405180910390fd5b61136f82826113d5565b156113ab5760405162461bcd60e51b81526004018080602001828103825260358152602001806119a36035913960400191505060405180910390fd5b60018281018054918201815560009081526020808220830184905592815292909152604090912055565b60018201546000906113e95750600061062c565b600082815260208490526040902054600184018054849290811061140957fe5b906000526020600020015414905092915050565b6001015490565b604080518082019091526000808252602082015290565b6104298061149883390190565b60408051602081019091526000815290565b815481835581811115610d0c57600083815260209020610d0c9181019083016103d691905b80821115611493576000815560010161147f565b509056fe608060405234801561001057600080fd5b506040516104293803806104298339818101604052606081101561003357600080fd5b5080516020820151604090920151600080546001600160a01b039485166001600160a01b0319918216179091556002929092556001805493909116929091169190911790556103a2806100876000396000f3fe60806040526004361061009c5760003560e01c8063c85e0be211610064578063c85e0be21461014a578063d7bb99ba1461017d578063dba3e70414610185578063f437bc59146101af578063f84038b1146101c4578063f851a440146101d95761009c565b806312065fe01461009e57806320bc4425146100c55780636e9960c3146100f6578063827cc4521461010b578063937e09b114610135575b005b3480156100aa57600080fd5b506100b36101ee565b60408051918252519081900360200190f35b3480156100d157600080fd5b506100da6101f3565b604080516001600160a01b039092168252519081900360200190f35b34801561010257600080fd5b506100da610202565b34801561011757600080fd5b5061009c6004803603602081101561012e57600080fd5b5035610211565b34801561014157600080fd5b506100b36102ad565b34801561015657600080fd5b5061009c6004803603602081101561016d57600080fd5b50356001600160a01b03166102b3565b61009c610334565b34801561019157600080fd5b5061009c600480360360208110156101a857600080fd5b5035610344565b3480156101bb57600080fd5b506100da610349565b3480156101d057600080fd5b506100b3610358565b3480156101e557600080fd5b506100da61035e565b303190565b6000546001600160a01b031690565b6001546001600160a01b031690565b6000546001600160a01b03163314610270576040805162461bcd60e51b815260206004820152601c60248201527f596f75206d75737420626520686f737420746f20657865637574652e00000000604482015290519081900360640190fd5b600080546040516001600160a01b039091169183156108fc02918491818181858888f193505050501580156102a9573d6000803e3d6000fd5b5050565b60025481565b6001546001600160a01b03163314610312576040805162461bcd60e51b815260206004820152601d60248201527f596f75206d7573742062652061646d696e20746f20657865637574652e000000604482015290519081900360640190fd5b600080546001600160a01b0319166001600160a01b0392909216919091179055565b600254341161034257600080fd5b565b600255565b6000546001600160a01b031681565b60025490565b6001546001600160a01b03168156fea265627a7a723158200fb009aa8dad76b4e540d19afe62438fd59a9ad597316b6a3cc23f93b368c48164736f6c634300050c0032556e6f7264657265644b65795365742831303029202d204b65792063616e6e6f7420626520307830596f7520617265206e6f742061646d696e206f72206f776e6572000000000000556e6f726465726564416464726573735365742831303129202d204164647265737320286b65792920616c72656164792065786973747320696e20746865207365742e486f737420697320696e2076616c69646174652070656e64696e6720737461746521556e6f7264657265644b65795365742831303229202d204b657920646f6573206e6f7420657869737420696e20746865207365742e556e6f7264657265644b65795365742831303129202d204b657920616c72656164792065786973747320696e20746865207365742e556e6f7264657265644b65795365742831303229202d204164647265737320286b65792920646f6573206e6f7420657869737420696e20746865207365742e43616e27742067657420612043616d706169676e207468617420646f65736e27742065786973742ea265627a7a7231582007ceafefeb5a531dd8283431888c8793b96bbaf68faeeebc6e338be7618d489264736f6c634300050c0032",
  "source": "pragma solidity 0.5.12;\n\nimport \"./HitchensUnorderedAddressSet.sol\";\nimport \"./HitchensUnorderedKeySet.sol\";\nimport \"./Ownable_CampaignFactory.sol\";\nimport \"./Campaign.sol\";\ncontract CampaignFactory is Ownable_CampaignFactory{   \n    struct RequestTobeHost {\n        address requestSender;\n    }\n\n    struct RequestToOpenCampaign {\n        address payable requestHost;\n        uint32 minimumContribution;\n    }\n    \n    using HitchensUnorderedAddressSetLib for HitchensUnorderedAddressSetLib.Set;\n    using HitchensUnorderedKeySetLib for HitchensUnorderedKeySetLib.Set;\n    \n    HitchensUnorderedAddressSetLib.Set campaignSet;\n    HitchensUnorderedAddressSetLib.Set validatedHostSet;\n    HitchensUnorderedAddressSetLib.Set validatedAdminSet;\n    HitchensUnorderedAddressSetLib.Set requestTobeHostSet;\n    HitchensUnorderedKeySetLib.Set requestToOpenCampaignSet;\n    \n    \n    mapping(bytes32 => RequestToOpenCampaign) requestsToOpenCampaign;\n    mapping(address => RequestTobeHost) requestsTobeHost;\n    \n    \n    mapping(address => Campaign) campaigns;\n    \n    \n    \n    modifier onlyAdmin() {\n        require(validatedAdminSet.exists(msg.sender), \"You are not admin !\");\n        _;\n    }\n    \n    modifier onlyAdminAndOwner() {\n        if(!((validatedAdminSet.exists(msg.sender)) || (owner == msg.sender))){\n            revert(\"You are not admin or owner\");\n        }\n        _;\n    }\n    \n    modifier onlyValidatedHost() {\n        require(validatedHostSet.exists(msg.sender), \"You are not a valid host !\");\n        _;\n    }\n    \n    // address[] validated_host;\n    \n    // event LogNewCampaign(address new_campaign, address sender, address host, uint minimum_contribution);\n    // event LogUpdateCampaign(address current_campaign,address sender, address host, uint minimum_contribution);\n    // event LogRemoveCampaign(address current_campaign,address sender);\n    \n    //ADMIN CRUD\n    function addAdmin(address _admin) public onlyOwner{\n        require(!validatedAdminSet.exists(_admin), \"This account is Admin already !\");\n        validatedAdminSet.insert(_admin);\n    }\n    \n    function removeAdmin(address _admin) public onlyOwner{\n        require(validatedAdminSet.exists(_admin), \"This account is not admin !\");\n        validatedAdminSet.remove(_admin);\n    }\n    function getAdminInAdminListAtIndex(uint index) public view returns(address _admin) {\n        return validatedAdminSet.keyAtIndex(index);\n    }\n    function getAdminList() public view returns(address[] memory){\n        return validatedAdminSet.listKey();\n    }\n    \n    \n\n    //HOST CRUD\n    function validateHost(address _host) public onlyAdminAndOwner{\n        require(!validatedHostSet.exists(_host), \"Host is valid already!\");\n        require(requestTobeHostSet.exists(_host), \"Host haven't request to be Host.\");\n        validatedHostSet.insert(_host);\n        requestTobeHostSet.remove(_host);\n        delete requestsTobeHost[_host];\n       \n    }\n\n    function removeValidatedHost(address _host) public onlyAdminAndOwner{\n        require(validatedHostSet.exists(_host), \"This account is not host\");\n        validatedHostSet.remove(_host);\n    }\n    function getHostInHostListAtIndex(uint index) public view returns(address _host) {\n        return validatedHostSet.keyAtIndex(index);\n    }\n    function getHostList() public view returns(address[] memory){\n        return validatedHostSet.listKey();\n    }\n    \n    //CAMPAIGN CRUD\n    function newCampaign(bytes32 requestToOpenCampaign) public onlyAdminAndOwner{\n         // Note that this will fail automatically if the key already exists.\n        // require(validatedHostSet.exists(host), \"Host is not validated\");\n        \n        RequestToOpenCampaign memory re = requestsToOpenCampaign[requestToOpenCampaign];\n        \n        Campaign w = new Campaign(re.minimumContribution,re.requestHost,tx.origin);\n    \n        campaigns[address(w)] = w ;\n        campaignSet.insert(address(w));\n        \n        requestToOpenCampaignSet.remove(requestToOpenCampaign);\n        delete requestsToOpenCampaign[requestToOpenCampaign];\n        // emit LogNewCampaign(address(w),msg.sender, host, minimum_contribution);\n    }\n    \n    function removeCampaign(address campaign_key) public onlyAdminAndOwner{\n        campaignSet.remove(campaign_key); // Note that this will fail automatically if the key doesn't exist\n        delete campaigns[campaign_key];\n        // emit LogRemoveCampaign(campaign_key,msg.sender);\n    }\n    \n    function getCampaign(address campaign_key) public view returns(address host, uint minimum_contribution) {\n        require(campaignSet.exists(campaign_key), \"Can't get a Campaign that doesn't exist.\");\n        Campaign w = campaigns[campaign_key];\n        return(w.getHost(),w.getMinimumContribution());\n    }\n    \n    function getCampaignList() public view returns(address[] memory){\n        return campaignSet.listKey();\n    }\n    \n    function getCampaignInCampaignListAtIndex(uint index) public view returns(address campaign_key) {\n        return campaignSet.keyAtIndex(index);\n    }\n    \n    //REQUEST To be host CRUD\n    \n    function requestToBeValidHost() public {\n        require(!validatedHostSet.exists(msg.sender), \"Host is valid already!\");\n        require(!requestTobeHostSet.exists(msg.sender), \"Host is in validate pending state!\");\n        RequestTobeHost memory re = RequestTobeHost(msg.sender);\n        requestsTobeHost[msg.sender] = re;\n        requestTobeHostSet.insert(msg.sender);\n    }\n    \n    function getRequestToBeHostList() public onlyAdminAndOwner view returns(address[] memory){\n        return requestTobeHostSet.listKey();\n    }\n    \n    function getRequestInRequestToBeHostListAtIndex(uint index) public onlyAdminAndOwner view returns(address _requestToBeHost) {\n        return requestTobeHostSet.keyAtIndex(index);\n    }\n    \n    //REQUEST To open campaign CRUD \n     function requestToOpenCamapaign(bytes32 requestOpenCampaignCode, uint32 minimumContribution) public onlyValidatedHost{\n        RequestToOpenCampaign memory re = RequestToOpenCampaign(msg.sender,minimumContribution);\n        requestsToOpenCampaign[requestOpenCampaignCode] = re;\n        requestToOpenCampaignSet.insert(requestOpenCampaignCode);\n    }\n    \n    function getRequestToOpenCampaignList() public onlyAdminAndOwner view returns(bytes32[] memory){\n        return requestToOpenCampaignSet.listKey();\n    }\n    \n    function getRequestToOpenCampaignListAtIndex(uint index) public onlyAdminAndOwner view returns(bytes32 _requestToOpenCampaign) {\n        return requestToOpenCampaignSet.keyAtIndex(index);\n    }\n    \n    // function getInfoRequestToOpenCampaign(bytes32 code) public view returns(address _requestHost ,uint32 _minimumContribution) {\n    //     RequestToOpenCampaign memory re = requestsToOpenCampaign[code];\n    //     return (re.requestHost,re.minimumContribution);\n    // }\n    \n}",
  "sourcePath": "D:/Tum/Study/University/D n/Testing Blockchain Project 3/test frontend/Smart Contract/contracts/CampaignFactory.sol",
  "compiler": {
    "name": "solc",
    "version": "0.5.12+commit.7709ece9.Emscripten.clang"
  },
  "schemaVersion": "3.0.20",
  "updatedAt": "2021-10-28T10:19:49.066Z",
  "networkType": "ethereum",
  "devdoc": {
    "methods": {}
  },
  "userdoc": {
    "methods": {}
  }
}