{
  "contractName": "CampaignFactory",
  "abi": [
    {
      "anonymous": false,
      "inputs": [
        {
          "indexed": false,
          "internalType": "address",
          "name": "new_campaign_address",
          "type": "address"
        },
        {
          "indexed": false,
          "internalType": "address",
          "name": "admin",
          "type": "address"
        },
        {
          "indexed": false,
          "internalType": "address",
          "name": "host",
          "type": "address"
        },
        {
          "indexed": false,
          "internalType": "uint256",
          "name": "minimum_contribution",
          "type": "uint256"
        }
      ],
      "name": "LogNewCampaign",
      "type": "event"
    },
    {
      "constant": true,
      "inputs": [],
      "name": "owner",
      "outputs": [
        {
          "internalType": "address",
          "name": "",
          "type": "address"
        }
      ],
      "payable": false,
      "stateMutability": "view",
      "type": "function"
    },
    {
      "constant": false,
      "inputs": [
        {
          "internalType": "address",
          "name": "_admin",
          "type": "address"
        }
      ],
      "name": "addAdmin",
      "outputs": [],
      "payable": false,
      "stateMutability": "nonpayable",
      "type": "function"
    },
    {
      "constant": false,
      "inputs": [
        {
          "internalType": "address",
          "name": "_admin",
          "type": "address"
        }
      ],
      "name": "removeAdmin",
      "outputs": [],
      "payable": false,
      "stateMutability": "nonpayable",
      "type": "function"
    },
    {
      "constant": true,
      "inputs": [
        {
          "internalType": "uint256",
          "name": "index",
          "type": "uint256"
        }
      ],
      "name": "getAdminInAdminListAtIndex",
      "outputs": [
        {
          "internalType": "address",
          "name": "_admin",
          "type": "address"
        }
      ],
      "payable": false,
      "stateMutability": "view",
      "type": "function"
    },
    {
      "constant": true,
      "inputs": [],
      "name": "getAdminList",
      "outputs": [
        {
          "internalType": "address[]",
          "name": "",
          "type": "address[]"
        }
      ],
      "payable": false,
      "stateMutability": "view",
      "type": "function"
    },
    {
      "constant": false,
      "inputs": [
        {
          "internalType": "address",
          "name": "_host",
          "type": "address"
        }
      ],
      "name": "validateHost",
      "outputs": [],
      "payable": false,
      "stateMutability": "nonpayable",
      "type": "function"
    },
    {
      "constant": false,
      "inputs": [
        {
          "internalType": "address",
          "name": "_host",
          "type": "address"
        }
      ],
      "name": "rejectValidateRequestHost",
      "outputs": [],
      "payable": false,
      "stateMutability": "nonpayable",
      "type": "function"
    },
    {
      "constant": false,
      "inputs": [
        {
          "internalType": "address",
          "name": "_host",
          "type": "address"
        }
      ],
      "name": "removeValidatedHost",
      "outputs": [],
      "payable": false,
      "stateMutability": "nonpayable",
      "type": "function"
    },
    {
      "constant": true,
      "inputs": [
        {
          "internalType": "uint256",
          "name": "index",
          "type": "uint256"
        }
      ],
      "name": "getHostInHostListAtIndex",
      "outputs": [
        {
          "internalType": "address",
          "name": "_host",
          "type": "address"
        }
      ],
      "payable": false,
      "stateMutability": "view",
      "type": "function"
    },
    {
      "constant": true,
      "inputs": [
        {
          "internalType": "address",
          "name": "validatedHostAddress",
          "type": "address"
        }
      ],
      "name": "isHostValidated",
      "outputs": [
        {
          "internalType": "bool",
          "name": "_result",
          "type": "bool"
        }
      ],
      "payable": false,
      "stateMutability": "view",
      "type": "function"
    },
    {
      "constant": true,
      "inputs": [],
      "name": "getValidatedHostList",
      "outputs": [
        {
          "internalType": "address[]",
          "name": "",
          "type": "address[]"
        }
      ],
      "payable": false,
      "stateMutability": "view",
      "type": "function"
    },
    {
      "constant": false,
      "inputs": [
        {
          "internalType": "bytes32",
          "name": "requestToOpenCampaign",
          "type": "bytes32"
        }
      ],
      "name": "newCampaign",
      "outputs": [],
      "payable": false,
      "stateMutability": "nonpayable",
      "type": "function"
    },
    {
      "constant": false,
      "inputs": [
        {
          "internalType": "bytes32",
          "name": "requestToOpenCampaign",
          "type": "bytes32"
        }
      ],
      "name": "rejectCreateCampaign",
      "outputs": [],
      "payable": false,
      "stateMutability": "nonpayable",
      "type": "function"
    },
    {
      "constant": false,
      "inputs": [
        {
          "internalType": "address",
          "name": "campaign_key",
          "type": "address"
        }
      ],
      "name": "removeCampaign",
      "outputs": [],
      "payable": false,
      "stateMutability": "nonpayable",
      "type": "function"
    },
    {
      "constant": true,
      "inputs": [
        {
          "internalType": "address",
          "name": "campaign_key",
          "type": "address"
        }
      ],
      "name": "getCampaign",
      "outputs": [
        {
          "internalType": "address",
          "name": "host",
          "type": "address"
        },
        {
          "internalType": "uint256",
          "name": "minimum_contribution",
          "type": "uint256"
        }
      ],
      "payable": false,
      "stateMutability": "view",
      "type": "function"
    },
    {
      "constant": true,
      "inputs": [],
      "name": "getCampaignList",
      "outputs": [
        {
          "internalType": "address[]",
          "name": "",
          "type": "address[]"
        }
      ],
      "payable": false,
      "stateMutability": "view",
      "type": "function"
    },
    {
      "constant": true,
      "inputs": [
        {
          "internalType": "uint256",
          "name": "index",
          "type": "uint256"
        }
      ],
      "name": "getCampaignInCampaignListAtIndex",
      "outputs": [
        {
          "internalType": "address",
          "name": "campaign_key",
          "type": "address"
        }
      ],
      "payable": false,
      "stateMutability": "view",
      "type": "function"
    },
    {
      "constant": false,
      "inputs": [],
      "name": "requestToBeValidHost",
      "outputs": [],
      "payable": false,
      "stateMutability": "nonpayable",
      "type": "function"
    },
    {
      "constant": true,
      "inputs": [],
      "name": "getRequestToBeHostList",
      "outputs": [
        {
          "internalType": "address[]",
          "name": "",
          "type": "address[]"
        }
      ],
      "payable": false,
      "stateMutability": "view",
      "type": "function"
    },
    {
      "constant": true,
      "inputs": [
        {
          "internalType": "uint256",
          "name": "index",
          "type": "uint256"
        }
      ],
      "name": "getRequestInRequestToBeHostListAtIndex",
      "outputs": [
        {
          "internalType": "address",
          "name": "_requestToBeHost",
          "type": "address"
        }
      ],
      "payable": false,
      "stateMutability": "view",
      "type": "function"
    },
    {
      "constant": false,
      "inputs": [
        {
          "internalType": "bytes32",
          "name": "requestOpenCampaignCode",
          "type": "bytes32"
        },
        {
          "internalType": "uint32",
          "name": "minimumContribution",
          "type": "uint32"
        }
      ],
      "name": "requestToOpenCamapaign",
      "outputs": [],
      "payable": false,
      "stateMutability": "nonpayable",
      "type": "function"
    },
    {
      "constant": true,
      "inputs": [],
      "name": "getRequestToOpenCampaignList",
      "outputs": [
        {
          "internalType": "bytes32[]",
          "name": "",
          "type": "bytes32[]"
        }
      ],
      "payable": false,
      "stateMutability": "view",
      "type": "function"
    },
    {
      "constant": true,
      "inputs": [
        {
          "internalType": "uint256",
          "name": "index",
          "type": "uint256"
        }
      ],
      "name": "getRequestToOpenCampaignListAtIndex",
      "outputs": [
        {
          "internalType": "bytes32",
          "name": "_requestToOpenCampaign",
          "type": "bytes32"
        }
      ],
      "payable": false,
      "stateMutability": "view",
      "type": "function"
    },
    {
      "constant": true,
      "inputs": [
        {
          "internalType": "bytes32",
          "name": "key",
          "type": "bytes32"
        }
      ],
      "name": "getRequestToOpenCampaignListAtKey",
      "outputs": [
        {
          "internalType": "address payable",
          "name": "_requestToOpenCampaignHost",
          "type": "address"
        },
        {
          "internalType": "uint32",
          "name": "_requestToOpenCampaignMinimumContribution",
          "type": "uint32"
        }
      ],
      "payable": false,
      "stateMutability": "view",
      "type": "function"
    }
  ],
  "bytecode": "0x6080604052600080546001600160a01b03191633179055611e11806100256000396000f3fe608060405234801561001057600080fd5b50600436106101585760003560e01c80637a3a4edf116100c3578063b9e517d71161007c578063b9e517d7146103d8578063be72f541146103fe578063c5a308f914610427578063d9f774fc1461044d578063e4663a5b14610455578063ffc8ca6e1461047b57610158565b80637a3a4edf1461037e5780638da5cb5b1461039b5780638e5604a5146103a35780639ce6113d146103ab5780639ce9d19a146103b3578063aca3d9bf146103bb57610158565b80633590125611610115578063359012561461027f57806345b5e86f1461029c5780635084b67b146102a457806351906047146102e9578063704802751461030f578063731301cf1461033557610158565b80630410b0b31461015d57806307e9002f146101b55780631785f53c146101d45780632e806a2c146101fa578063325dba0a14610233578063326d03af14610262575b600080fd5b6101656104b5565b60408051602080825283518183015283519192839290830191858101910280838360005b838110156101a1578181015183820152602001610189565b505050509050019250505060405180910390f35b6101d2600480360360208110156101cb57600080fd5b50356104c7565b005b6101d2600480360360208110156101ea57600080fd5b50356001600160a01b0316610698565b6102176004803603602081101561021057600080fd5b503561076d565b604080516001600160a01b039092168252519081900360200190f35b6102506004803603602081101561024957600080fd5b5035610788565b60408051918252519081900360200190f35b6102176004803603602081101561027857600080fd5b5035610800565b6101d26004803603602081101561029557600080fd5b5035610813565b6101656108a7565b6102c1600480360360208110156102ba57600080fd5b5035610918565b604080516001600160a01b03909316835263ffffffff90911660208301528051918290030190f35b6101d2600480360360208110156102ff57600080fd5b50356001600160a01b03166109cb565b6101d26004803603602081101561032557600080fd5b50356001600160a01b0316610aa3565b61035b6004803603602081101561034b57600080fd5b50356001600160a01b0316610b76565b604080516001600160a01b03909316835260208301919091528051918290030190f35b6102176004803603602081101561039457600080fd5b5035610cbb565b610217610d33565b610165610d42565b610165610d4e565b6101d2610dbf565b610217600480360360208110156103d157600080fd5b5035610eb6565b6101d2600480360360208110156103ee57600080fd5b50356001600160a01b0316610ec9565b6101d26004803603604081101561041457600080fd5b508035906020013563ffffffff16610fb2565b6101d26004803603602081101561043d57600080fd5b50356001600160a01b0316611097565b6101656111cb565b6101d26004803603602081101561046b57600080fd5b50356001600160a01b03166111d7565b6104a16004803603602081101561049157600080fd5b50356001600160a01b0316611274565b604080519115158252519081900360200190f35b60606104c1600161129c565b90505b90565b6104d860053363ffffffff61130216565b806104ed57506000546001600160a01b031633145b61052c576040805162461bcd60e51b815260206004820152601a6024820152600080516020611c60833981519152604482015290519081900360640190fd5b61053461179c565b506000818152600b602090815260408083208151808301835290546001600160a01b03808216808452600160a01b90920463ffffffff1694830185905285549351929594939192911690610587906117b3565b63ffffffff90931683526001600160a01b039182166020840152166040808301919091525190819003606001906000f0801580156105c9573d6000803e3d6000fd5b506001600160a01b0381166000818152600d6020526040902080546001600160a01b0319169091179055905061060660018263ffffffff61135f16565b61061760098463ffffffff61142e16565b6000838152600b602090815260409182902080546001600160c01b031916905583518482015183516001600160a01b0386811682523294820194909452929091168284015263ffffffff16606082015290517f5948053af121e790a339d98109484d88df5a0d32a10cae2ca231701091c74a929181900360800190a1505050565b6000546001600160a01b031633146106f7576040805162461bcd60e51b815260206004820152601d60248201527f596f75206d757374206265206f776e657220746f20657865637574652e000000604482015290519081900360640190fd5b61070860058263ffffffff61130216565b610759576040805162461bcd60e51b815260206004820152601b60248201527f54686973206163636f756e74206973206e6f742061646d696e20210000000000604482015290519081900360640190fd5b61076a60058263ffffffff61150016565b50565b600061078060058363ffffffff6115f516565b90505b919050565b600061079b60053363ffffffff61130216565b806107b057506000546001600160a01b031633145b6107ef576040805162461bcd60e51b815260206004820152601a6024820152600080516020611c60833981519152604482015290519081900360640190fd5b61078060098363ffffffff61162216565b600061078060038363ffffffff6115f516565b61082460053363ffffffff61130216565b8061083957506000546001600160a01b031633145b610878576040805162461bcd60e51b815260206004820152601a6024820152600080516020611c60833981519152604482015290519081900360640190fd5b61088960098263ffffffff61142e16565b6000908152600b6020526040902080546001600160c01b0319169055565b60606108ba60053363ffffffff61130216565b806108cf57506000546001600160a01b031633145b61090e576040805162461bcd60e51b815260206004820152601a6024820152600080516020611c60833981519152604482015290519081900360640190fd5b6104c1600761129c565b60008061092c60053363ffffffff61130216565b8061094157506000546001600160a01b031633145b610980576040805162461bcd60e51b815260206004820152601a6024820152600080516020611c60833981519152604482015290519081900360640190fd5b61098861179c565b5050506000908152600b60209081526040918290208251808401909352546001600160a01b038116808452600160a01b90910463ffffffff169290910182905291565b6109dc60053363ffffffff61130216565b806109f157506000546001600160a01b031633145b610a30576040805162461bcd60e51b815260206004820152601a6024820152600080516020611c60833981519152604482015290519081900360640190fd5b610a4160038263ffffffff61130216565b610a92576040805162461bcd60e51b815260206004820152601860248201527f54686973206163636f756e74206973206e6f7420686f73740000000000000000604482015290519081900360640190fd5b61076a60038263ffffffff61150016565b6000546001600160a01b03163314610b02576040805162461bcd60e51b815260206004820152601d60248201527f596f75206d757374206265206f776e657220746f20657865637574652e000000604482015290519081900360640190fd5b610b1360058263ffffffff61130216565b15610b65576040805162461bcd60e51b815260206004820152601f60248201527f54686973206163636f756e742069732041646d696e20616c7265616479202100604482015290519081900360640190fd5b61076a60058263ffffffff61135f16565b600080610b8a60018463ffffffff61130216565b610bc55760405162461bcd60e51b8152600401808060200182810382526028815260200180611d8e6028913960400191505060405180910390fd5b6001600160a01b038084166000908152600d60209081526040918290205482516320bc442560e01b8152925193169283926320bc4425926004808301939192829003018186803b158015610c1857600080fd5b505afa158015610c2c573d6000803e3d6000fd5b505050506040513d6020811015610c4257600080fd5b50516040805163f84038b160e01b815290516001600160a01b0384169163f84038b1916004808301926020929190829003018186803b158015610c8457600080fd5b505afa158015610c98573d6000803e3d6000fd5b505050506040513d6020811015610cae57600080fd5b5051909350915050915091565b6000610cce60053363ffffffff61130216565b80610ce357506000546001600160a01b031633145b610d22576040805162461bcd60e51b815260206004820152601a6024820152600080516020611c60833981519152604482015290519081900360640190fd5b61078060078363ffffffff6115f516565b6000546001600160a01b031681565b60606104c1600361129c565b6060610d6160053363ffffffff61130216565b80610d7657506000546001600160a01b031633145b610db5576040805162461bcd60e51b815260206004820152601a6024820152600080516020611c60833981519152604482015290519081900360640190fd5b6104c16009611646565b610dd060033363ffffffff61130216565b15610e1b576040805162461bcd60e51b8152602060048201526016602482015275486f73742069732076616c696420616c72656164792160501b604482015290519081900360640190fd5b610e2c60073363ffffffff61130216565b15610e685760405162461bcd60e51b8152600401808060200182810382526022815260200180611cc36022913960400191505060405180910390fd5b610e706117c0565b506040805160208082018352338083526000818152600c909252929020815181546001600160a01b0319166001600160a01b039091161790559061076a9060079061135f565b600061078060018363ffffffff6115f516565b610eda60053363ffffffff61130216565b80610eef57506000546001600160a01b031633145b610f2e576040805162461bcd60e51b815260206004820152601a6024820152600080516020611c60833981519152604482015290519081900360640190fd5b610f3f60078263ffffffff61130216565b610f7a5760405162461bcd60e51b8152600401808060200182810382526027815260200180611db66027913960400191505060405180910390fd5b610f8b60078263ffffffff61150016565b6001600160a01b03166000908152600c6020526040902080546001600160a01b0319169055565b610fc360033363ffffffff61130216565b611014576040805162461bcd60e51b815260206004820152601a60248201527f596f7520617265206e6f7420612076616c696420686f73742021000000000000604482015290519081900360640190fd5b61101c61179c565b5060408051808201825233815263ffffffff80841660208084019182526000878152600b909152939093208251815494518316600160a01b0263ffffffff60a01b196001600160a01b03929092166001600160a01b0319909616959095171693909317909255906110929060099085906116a116565b505050565b6110a860053363ffffffff61130216565b806110bd57506000546001600160a01b031633145b6110fc576040805162461bcd60e51b815260206004820152601a6024820152600080516020611c60833981519152604482015290519081900360640190fd5b61110d60038263ffffffff61130216565b15611158576040805162461bcd60e51b8152602060048201526016602482015275486f73742069732076616c696420616c72656164792160501b604482015290519081900360640190fd5b61116960078263ffffffff61130216565b6111ba576040805162461bcd60e51b815260206004820181905260248201527f486f737420686176656e2774207265717565737420746f20626520486f73742e604482015290519081900360640190fd5b610f7a60038263ffffffff61135f16565b60606104c1600561129c565b6111e860053363ffffffff61130216565b806111fd57506000546001600160a01b031633145b61123c576040805162461bcd60e51b815260206004820152601a6024820152600080516020611c60833981519152604482015290519081900360640190fd5b61124d60018263ffffffff61150016565b6001600160a01b03166000908152600d6020526040902080546001600160a01b0319169055565b600061128760038363ffffffff61130216565b1561129457506001610783565b506000610783565b6060816001018054806020026020016040519081016040528092919081815260200182805480156112f657602002820191906000526020600020905b81546001600160a01b031681526001909101906020018083116112d8575b50505050509050919050565b600182015460009061131657506000611359565b6001600160a01b038216600081815260208590526040902054600185018054909190811061134057fe5b6000918252602090912001546001600160a01b03161490505b92915050565b6001600160a01b0381166113a45760405162461bcd60e51b8152600401808060200182810382526028815260200180611c386028913960400191505060405180910390fd5b6113ae8282611302565b156113ea5760405162461bcd60e51b8152600401808060200182810382526043815260200180611c806043913960600191505060405180910390fd5b60018281018054918201815560009081526020808220830180546001600160a01b039095166001600160a01b03199095168517905592815292909152604090912055565b611438828261174d565b6114735760405162461bcd60e51b8152600401808060200182810382526035815260200180611ce56035913960400191505060405180910390fd5b600082600101600161148485611795565b038154811061148f57fe5b60009182526020808320909101548483529085905260408083205482845292208290556001850180549193508391839081106114c757fe5b6000918252602080832090910192909255848152908590526040812055600184018054906114f99060001983016117d2565b5050505050565b61150a8282611302565b6115455760405162461bcd60e51b815260040180806020018281038252603f815260200180611d4f603f913960400191505060405180910390fd5b600082600101600161155685611795565b038154811061156157fe5b60009182526020808320909101546001600160a01b038581168452918690526040808420549290911680845292208190556001850180549293509091839190839081106115aa57fe5b600091825260208083209190910180546001600160a01b0319166001600160a01b039485161790559185168152908590526040812055600184018054906114f99060001983016117d2565b600082600101828154811061160657fe5b6000918252602090912001546001600160a01b03169392505050565b600082600101828154811061163357fe5b9060005260206000200154905092915050565b6060816001018054806020026020016040519081016040528092919081815260200182805480156112f657602002820191906000526020600020905b8154815260200190600101908083116116825750505050509050919050565b806116dd5760405162461bcd60e51b8152600401808060200182810382526028815260200180611c386028913960400191505060405180910390fd5b6116e7828261174d565b156117235760405162461bcd60e51b8152600401808060200182810382526035815260200180611d1a6035913960400191505060405180910390fd5b60018281018054918201815560009081526020808220830184905592815292909152604090912055565b600182015460009061176157506000611359565b600082815260208490526040902054600184018054849290811061178157fe5b906000526020600020015414905092915050565b6001015490565b604080518082019091526000808252602082015290565b6104288061181083390190565b60408051602081019091526000815290565b815481835581811115611092576000838152602090206110929181019083016104c491905b8082111561180b57600081556001016117f7565b509056fe608060405234801561001057600080fd5b506040516104283803806104288339818101604052606081101561003357600080fd5b5080516020820151604090920151600080546001600160a01b039485166001600160a01b0319918216179091556002929092556001805493909116929091169190911790556103a1806100876000396000f3fe60806040526004361061009c5760003560e01c8063c85e0be211610064578063c85e0be21461014a578063d7bb99ba1461017d578063dba3e70414610185578063f437bc59146101af578063f84038b1146101c4578063f851a440146101d95761009c565b806312065fe01461009e57806320bc4425146100c55780636e9960c3146100f6578063827cc4521461010b578063937e09b114610135575b005b3480156100aa57600080fd5b506100b36101ee565b60408051918252519081900360200190f35b3480156100d157600080fd5b506100da6101f2565b604080516001600160a01b039092168252519081900360200190f35b34801561010257600080fd5b506100da610201565b34801561011757600080fd5b5061009c6004803603602081101561012e57600080fd5b5035610210565b34801561014157600080fd5b506100b36102ac565b34801561015657600080fd5b5061009c6004803603602081101561016d57600080fd5b50356001600160a01b03166102b2565b61009c610333565b34801561019157600080fd5b5061009c600480360360208110156101a857600080fd5b5035610343565b3480156101bb57600080fd5b506100da610348565b3480156101d057600080fd5b506100b3610357565b3480156101e557600080fd5b506100da61035d565b4790565b6000546001600160a01b031690565b6001546001600160a01b031690565b6000546001600160a01b0316331461026f576040805162461bcd60e51b815260206004820152601c60248201527f596f75206d75737420626520686f737420746f20657865637574652e00000000604482015290519081900360640190fd5b600080546040516001600160a01b039091169183156108fc02918491818181858888f193505050501580156102a8573d6000803e3d6000fd5b5050565b60025481565b6001546001600160a01b03163314610311576040805162461bcd60e51b815260206004820152601d60248201527f596f75206d7573742062652061646d696e20746f20657865637574652e000000604482015290519081900360640190fd5b600080546001600160a01b0319166001600160a01b0392909216919091179055565b600254341161034157600080fd5b565b600255565b6000546001600160a01b031681565b60025490565b6001546001600160a01b03168156fea265627a7a7231582065b65d6137b5ec30267c63c87308569242fe2883cd6143519e110e4672257f5f64736f6c63430005100032556e6f7264657265644b65795365742831303029202d204b65792063616e6e6f7420626520307830596f7520617265206e6f742061646d696e206f72206f776e6572000000000000556e6f726465726564416464726573735365742831303129202d204164647265737320286b65792920616c72656164792065786973747320696e20746865207365742e486f737420697320696e2076616c69646174652070656e64696e6720737461746521556e6f7264657265644b65795365742831303229202d204b657920646f6573206e6f7420657869737420696e20746865207365742e556e6f7264657265644b65795365742831303129202d204b657920616c72656164792065786973747320696e20746865207365742e556e6f7264657265644b65795365742831303229202d204164647265737320286b65792920646f6573206e6f7420657869737420696e20746865207365742e43616e27742067657420612043616d706169676e207468617420646f65736e27742065786973742e486f737420686176656e277420637265617465207265717565737420746f20626520486f73742ea265627a7a72315820c7d61c57b3143b9b75bb14b00034a96eeda9a12a2e6193d1cc4716484c278dcb64736f6c63430005100032",
  "source": "pragma solidity 0.5.16;\r\n\r\nimport \"./HitchensUnorderedAddressSet.sol\";\r\nimport \"./HitchensUnorderedKeySet.sol\";\r\nimport \"./Ownable_CampaignFactory.sol\";\r\nimport \"./Campaign.sol\";\r\ncontract CampaignFactory is Ownable_CampaignFactory{   \r\n    struct RequestTobeHost {\r\n        address requestSender;\r\n    }\r\n\r\n    struct RequestToOpenCampaign {\r\n        address payable requestHost;\r\n        uint32 minimumContribution;\r\n    }\r\n    \r\n    using HitchensUnorderedAddressSetLib for HitchensUnorderedAddressSetLib.Set;\r\n    using HitchensUnorderedKeySetLib for HitchensUnorderedKeySetLib.Set;\r\n    \r\n    HitchensUnorderedAddressSetLib.Set campaignSet;\r\n    HitchensUnorderedAddressSetLib.Set validatedHostSet;\r\n    HitchensUnorderedAddressSetLib.Set validatedAdminSet;\r\n    HitchensUnorderedAddressSetLib.Set requestTobeHostSet;\r\n    HitchensUnorderedKeySetLib.Set requestToOpenCampaignSet;\r\n    \r\n    \r\n    mapping(bytes32 => RequestToOpenCampaign) requestsToOpenCampaign;\r\n    mapping(address => RequestTobeHost) requestsTobeHost;\r\n    \r\n    \r\n    mapping(address => Campaign) campaigns;\r\n    \r\n    \r\n    \r\n    modifier onlyAdmin() {\r\n        require(validatedAdminSet.exists(msg.sender), \"You are not admin !\");\r\n        _;\r\n    }\r\n    \r\n    modifier onlyAdminAndOwner() {\r\n        if(!((validatedAdminSet.exists(msg.sender)) || (owner == msg.sender))){\r\n            revert(\"You are not admin or owner\");\r\n        }\r\n        _;\r\n    }\r\n    \r\n    modifier onlyValidatedHost() {\r\n        require(validatedHostSet.exists(msg.sender), \"You are not a valid host !\");\r\n        _;\r\n    }\r\n    \r\n    event LogNewCampaign(address new_campaign_address, address admin, address host, uint minimum_contribution);\r\n    // event LogUpdateCampaign(address current_campaign,address sender, address host, uint minimum_contribution);\r\n    // event LogRemoveCampaign(address current_campaign,address sender);\r\n    \r\n    //ADMIN CRUD\r\n    function addAdmin(address _admin) public onlyOwner{\r\n        require(!validatedAdminSet.exists(_admin), \"This account is Admin already !\");\r\n        validatedAdminSet.insert(_admin);\r\n    }\r\n    \r\n    function removeAdmin(address _admin) public onlyOwner{\r\n        require(validatedAdminSet.exists(_admin), \"This account is not admin !\");\r\n        validatedAdminSet.remove(_admin);\r\n    }\r\n    function getAdminInAdminListAtIndex(uint index) public view returns(address _admin) {\r\n        return validatedAdminSet.keyAtIndex(index);\r\n    }\r\n    function getAdminList() public view returns(address[] memory){\r\n        return validatedAdminSet.listKey();\r\n    }\r\n    \r\n    \r\n\r\n    //HOST CRUD\r\n    function validateHost(address _host) public onlyAdminAndOwner{\r\n        require(!validatedHostSet.exists(_host), \"Host is valid already!\");\r\n        require(requestTobeHostSet.exists(_host), \"Host haven't request to be Host.\");\r\n        validatedHostSet.insert(_host);\r\n        requestTobeHostSet.remove(_host);\r\n        delete requestsTobeHost[_host];\r\n       \r\n    }\r\n    \r\n    function rejectValidateRequestHost(address _host) public onlyAdminAndOwner{\r\n        require(requestTobeHostSet.exists(_host), \"Host haven't create request to be Host.\");\r\n        requestTobeHostSet.remove(_host);\r\n        delete requestsTobeHost[_host];\r\n       \r\n    }\r\n\r\n    function removeValidatedHost(address _host) public onlyAdminAndOwner{\r\n        require(validatedHostSet.exists(_host), \"This account is not host\");\r\n        validatedHostSet.remove(_host);\r\n    }\r\n    function getHostInHostListAtIndex(uint index) public view returns(address _host) {\r\n        return validatedHostSet.keyAtIndex(index);\r\n    }\r\n    function isHostValidated(address validatedHostAddress) public view returns(bool _result){\r\n        if(validatedHostSet.exists(validatedHostAddress)){\r\n            return true;\r\n        } else {\r\n            return false;\r\n        }\r\n    }\r\n    function getValidatedHostList() public view returns(address[] memory){\r\n        return validatedHostSet.listKey();\r\n    }\r\n    \r\n    //CAMPAIGN CRUD\r\n    function newCampaign(bytes32 requestToOpenCampaign) public onlyAdminAndOwner{\r\n         // Note that this will fail automatically if the key already exists.\r\n        // require(validatedHostSet.exists(host), \"Host is not validated\");\r\n        \r\n        RequestToOpenCampaign memory re = requestsToOpenCampaign[requestToOpenCampaign];\r\n        \r\n        Campaign w = new Campaign(re.minimumContribution,re.requestHost,owner);\r\n    \r\n        campaigns[address(w)] = w ;\r\n        campaignSet.insert(address(w));\r\n        \r\n        requestToOpenCampaignSet.remove(requestToOpenCampaign);\r\n        delete requestsToOpenCampaign[requestToOpenCampaign];\r\n        emit LogNewCampaign(address(w),tx.origin,re.requestHost,re.minimumContribution);\r\n    }\r\n    \r\n    function rejectCreateCampaign(bytes32 requestToOpenCampaign) public onlyAdminAndOwner{\r\n         // Note that this will fail automatically if the key already exists.\r\n\r\n        requestToOpenCampaignSet.remove(requestToOpenCampaign);\r\n        delete requestsToOpenCampaign[requestToOpenCampaign];\r\n\r\n    }\r\n    \r\n    function removeCampaign(address campaign_key) public onlyAdminAndOwner{\r\n        campaignSet.remove(campaign_key); // Note that this will fail automatically if the key doesn't exist\r\n        delete campaigns[campaign_key];\r\n        // emit LogRemoveCampaign(campaign_key,msg.sender);\r\n    }\r\n    \r\n    function getCampaign(address campaign_key) public view returns(address host, uint minimum_contribution) {\r\n        require(campaignSet.exists(campaign_key), \"Can't get a Campaign that doesn't exist.\");\r\n        Campaign w = campaigns[campaign_key];\r\n        return(w.getHost(),w.getMinimumContribution());\r\n    }\r\n    \r\n    function getCampaignList() public view returns(address[] memory){\r\n        return campaignSet.listKey();\r\n    }\r\n    \r\n    function getCampaignInCampaignListAtIndex(uint index) public view returns(address campaign_key) {\r\n        return campaignSet.keyAtIndex(index);\r\n    }\r\n    \r\n    //REQUEST To be host CRUD\r\n    \r\n    function requestToBeValidHost() public {\r\n        require(!validatedHostSet.exists(msg.sender), \"Host is valid already!\");\r\n        require(!requestTobeHostSet.exists(msg.sender), \"Host is in validate pending state!\");\r\n        RequestTobeHost memory re = RequestTobeHost(msg.sender);\r\n        requestsTobeHost[msg.sender] = re;\r\n        requestTobeHostSet.insert(msg.sender);\r\n    }\r\n    \r\n    function getRequestToBeHostList() public onlyAdminAndOwner view returns(address[] memory){\r\n        return requestTobeHostSet.listKey();\r\n    }\r\n    \r\n    function getRequestInRequestToBeHostListAtIndex(uint index) public onlyAdminAndOwner view returns(address _requestToBeHost) {\r\n        return requestTobeHostSet.keyAtIndex(index);\r\n    }\r\n    \r\n    //REQUEST To open campaign CRUD \r\n     function requestToOpenCamapaign(bytes32 requestOpenCampaignCode, uint32 minimumContribution) public onlyValidatedHost{\r\n        RequestToOpenCampaign memory re = RequestToOpenCampaign(msg.sender,minimumContribution);\r\n        requestsToOpenCampaign[requestOpenCampaignCode] = re;\r\n        requestToOpenCampaignSet.insert(requestOpenCampaignCode);\r\n    }\r\n    \r\n    function getRequestToOpenCampaignList() public onlyAdminAndOwner view returns(bytes32[] memory){\r\n        return requestToOpenCampaignSet.listKey();\r\n    }\r\n    \r\n    function getRequestToOpenCampaignListAtIndex(uint index) public onlyAdminAndOwner view returns(bytes32 _requestToOpenCampaign) {\r\n        return requestToOpenCampaignSet.keyAtIndex(index);\r\n    }\r\n    function getRequestToOpenCampaignListAtKey(bytes32 key) public onlyAdminAndOwner view returns(address payable _requestToOpenCampaignHost, uint32  _requestToOpenCampaignMinimumContribution) {\r\n        RequestToOpenCampaign memory re = requestsToOpenCampaign[key];\r\n        return (re.requestHost, re.minimumContribution);\r\n    }\r\n    // function getInfoRequestToOpenCampaign(bytes32 code) public view returns(address _requestHost ,uint32 _minimumContribution) {\r\n    //     RequestToOpenCampaign memory re = requestsToOpenCampaign[code];\r\n    //     return (re.requestHost,re.minimumContribution);\r\n    // }\r\n    \r\n}",
  "sourcePath": "D:\\UNI\\D n\\blockchain-land-registry-with-laravel\\Smart Contract\\contracts\\CampaignFactory.sol",
  "compiler": {
    "name": "solc",
    "version": "0.5.16+commit.9c3226ce.Emscripten.clang"
  },
  "schemaVersion": "3.4.3",
  "updatedAt": "2021-10-29T15:35:33.427Z",
  "networkType": "ethereum",
  "devdoc": {
    "methods": {}
  },
  "userdoc": {
    "methods": {}
  }
}