{
  "contractName": "CampaignFactory",
  "abi": [
    {
      "anonymous": false,
      "inputs": [
        {
          "indexed": false,
          "internalType": "address",
          "name": "new_campaign_address",
          "type": "address"
        },
        {
          "indexed": false,
          "internalType": "address",
          "name": "admin",
          "type": "address"
        },
        {
          "indexed": false,
          "internalType": "address",
          "name": "host",
          "type": "address"
        },
        {
          "indexed": false,
          "internalType": "uint256",
          "name": "minimum_contribution",
          "type": "uint256"
        }
      ],
      "name": "LogNewCampaign",
      "type": "event"
    },
    {
      "constant": true,
      "inputs": [],
      "name": "owner",
      "outputs": [
        {
          "internalType": "address",
          "name": "",
          "type": "address"
        }
      ],
      "payable": false,
      "stateMutability": "view",
      "type": "function"
    },
    {
      "constant": false,
      "inputs": [
        {
          "internalType": "address",
          "name": "_admin",
          "type": "address"
        }
      ],
      "name": "addAdmin",
      "outputs": [],
      "payable": false,
      "stateMutability": "nonpayable",
      "type": "function"
    },
    {
      "constant": false,
      "inputs": [
        {
          "internalType": "address",
          "name": "_admin",
          "type": "address"
        }
      ],
      "name": "removeAdmin",
      "outputs": [],
      "payable": false,
      "stateMutability": "nonpayable",
      "type": "function"
    },
    {
      "constant": true,
      "inputs": [
        {
          "internalType": "uint256",
          "name": "index",
          "type": "uint256"
        }
      ],
      "name": "getAdminInAdminListAtIndex",
      "outputs": [
        {
          "internalType": "address",
          "name": "_admin",
          "type": "address"
        }
      ],
      "payable": false,
      "stateMutability": "view",
      "type": "function"
    },
    {
      "constant": true,
      "inputs": [],
      "name": "getAdminList",
      "outputs": [
        {
          "internalType": "address[]",
          "name": "",
          "type": "address[]"
        }
      ],
      "payable": false,
      "stateMutability": "view",
      "type": "function"
    },
    {
      "constant": false,
      "inputs": [
        {
          "internalType": "address",
          "name": "_host",
          "type": "address"
        }
      ],
      "name": "validateHost",
      "outputs": [],
      "payable": false,
      "stateMutability": "nonpayable",
      "type": "function"
    },
    {
      "constant": false,
      "inputs": [
        {
          "internalType": "address",
          "name": "_host",
          "type": "address"
        }
      ],
      "name": "rejectValidateRequestHost",
      "outputs": [],
      "payable": false,
      "stateMutability": "nonpayable",
      "type": "function"
    },
    {
      "constant": false,
      "inputs": [
        {
          "internalType": "address",
          "name": "_host",
          "type": "address"
        }
      ],
      "name": "removeValidatedHost",
      "outputs": [],
      "payable": false,
      "stateMutability": "nonpayable",
      "type": "function"
    },
    {
      "constant": true,
      "inputs": [
        {
          "internalType": "uint256",
          "name": "index",
          "type": "uint256"
        }
      ],
      "name": "getHostInHostListAtIndex",
      "outputs": [
        {
          "internalType": "address",
          "name": "_host",
          "type": "address"
        }
      ],
      "payable": false,
      "stateMutability": "view",
      "type": "function"
    },
    {
      "constant": true,
      "inputs": [
        {
          "internalType": "address",
          "name": "validatedHostAddress",
          "type": "address"
        }
      ],
      "name": "isHostValidated",
      "outputs": [
        {
          "internalType": "bool",
          "name": "_result",
          "type": "bool"
        }
      ],
      "payable": false,
      "stateMutability": "view",
      "type": "function"
    },
    {
      "constant": true,
      "inputs": [],
      "name": "getValidatedHostList",
      "outputs": [
        {
          "internalType": "address[]",
          "name": "",
          "type": "address[]"
        }
      ],
      "payable": false,
      "stateMutability": "view",
      "type": "function"
    },
    {
      "constant": false,
      "inputs": [
        {
          "internalType": "bytes32",
          "name": "requestToOpenCampaign",
          "type": "bytes32"
        }
      ],
      "name": "newCampaign",
      "outputs": [],
      "payable": false,
      "stateMutability": "nonpayable",
      "type": "function"
    },
    {
      "constant": false,
      "inputs": [
        {
          "internalType": "bytes32",
          "name": "requestToOpenCampaign",
          "type": "bytes32"
        }
      ],
      "name": "rejectCreateCampaign",
      "outputs": [],
      "payable": false,
      "stateMutability": "nonpayable",
      "type": "function"
    },
    {
      "constant": false,
      "inputs": [
        {
          "internalType": "address",
          "name": "campaign_key",
          "type": "address"
        }
      ],
      "name": "removeCampaign",
      "outputs": [],
      "payable": false,
      "stateMutability": "nonpayable",
      "type": "function"
    },
    {
      "constant": true,
      "inputs": [
        {
          "internalType": "address",
          "name": "campaign_key",
          "type": "address"
        }
      ],
      "name": "getCampaign",
      "outputs": [
        {
          "internalType": "address",
          "name": "host",
          "type": "address"
        },
        {
          "internalType": "uint256",
          "name": "minimum_contribution",
          "type": "uint256"
        }
      ],
      "payable": false,
      "stateMutability": "view",
      "type": "function"
    },
    {
      "constant": true,
      "inputs": [],
      "name": "getCampaignList",
      "outputs": [
        {
          "internalType": "address[]",
          "name": "",
          "type": "address[]"
        }
      ],
      "payable": false,
      "stateMutability": "view",
      "type": "function"
    },
    {
      "constant": true,
      "inputs": [
        {
          "internalType": "uint256",
          "name": "index",
          "type": "uint256"
        }
      ],
      "name": "getCampaignInCampaignListAtIndex",
      "outputs": [
        {
          "internalType": "address",
          "name": "campaign_key",
          "type": "address"
        }
      ],
      "payable": false,
      "stateMutability": "view",
      "type": "function"
    },
    {
      "constant": false,
      "inputs": [],
      "name": "requestToBeValidHost",
      "outputs": [],
      "payable": false,
      "stateMutability": "nonpayable",
      "type": "function"
    },
    {
      "constant": true,
      "inputs": [],
      "name": "getRequestToBeHostList",
      "outputs": [
        {
          "internalType": "address[]",
          "name": "",
          "type": "address[]"
        }
      ],
      "payable": false,
      "stateMutability": "view",
      "type": "function"
    },
    {
      "constant": true,
      "inputs": [],
      "name": "hostValidateState",
      "outputs": [
        {
          "internalType": "int256",
          "name": "",
          "type": "int256"
        }
      ],
      "payable": false,
      "stateMutability": "view",
      "type": "function"
    },
    {
      "constant": true,
      "inputs": [
        {
          "internalType": "uint256",
          "name": "index",
          "type": "uint256"
        }
      ],
      "name": "getRequestInRequestToBeHostListAtIndex",
      "outputs": [
        {
          "internalType": "address",
          "name": "_requestToBeHost",
          "type": "address"
        }
      ],
      "payable": false,
      "stateMutability": "view",
      "type": "function"
    },
    {
      "constant": false,
      "inputs": [
        {
          "internalType": "bytes32",
          "name": "requestOpenCampaignCode",
          "type": "bytes32"
        },
        {
          "internalType": "uint32",
          "name": "minimumContribution",
          "type": "uint32"
        }
      ],
      "name": "requestToOpenCamapaign",
      "outputs": [],
      "payable": false,
      "stateMutability": "nonpayable",
      "type": "function"
    },
    {
      "constant": true,
      "inputs": [],
      "name": "getRequestToOpenCampaignList",
      "outputs": [
        {
          "internalType": "bytes32[]",
          "name": "",
          "type": "bytes32[]"
        }
      ],
      "payable": false,
      "stateMutability": "view",
      "type": "function"
    },
    {
      "constant": true,
      "inputs": [
        {
          "internalType": "uint256",
          "name": "index",
          "type": "uint256"
        }
      ],
      "name": "getRequestToOpenCampaignListAtIndex",
      "outputs": [
        {
          "internalType": "bytes32",
          "name": "_requestToOpenCampaign",
          "type": "bytes32"
        }
      ],
      "payable": false,
      "stateMutability": "view",
      "type": "function"
    },
    {
      "constant": true,
      "inputs": [
        {
          "internalType": "bytes32",
          "name": "key",
          "type": "bytes32"
        }
      ],
      "name": "getRequestToOpenCampaignListAtKey",
      "outputs": [
        {
          "internalType": "address payable",
          "name": "_requestToOpenCampaignHost",
          "type": "address"
        },
        {
          "internalType": "uint32",
          "name": "_requestToOpenCampaignMinimumContribution",
          "type": "uint32"
        }
      ],
      "payable": false,
      "stateMutability": "view",
      "type": "function"
    },
    {
      "constant": false,
      "inputs": [
        {
          "internalType": "bytes32",
          "name": "requestToWithdrawMoney",
          "type": "bytes32"
        }
      ],
      "name": "withDrawMoneyFunction",
      "outputs": [],
      "payable": false,
      "stateMutability": "nonpayable",
      "type": "function"
    },
    {
      "constant": false,
      "inputs": [
        {
          "internalType": "bytes32",
          "name": "requestToWithdrawMoney",
          "type": "bytes32"
        }
      ],
      "name": "rejectWithdrawMoneyRequest",
      "outputs": [],
      "payable": false,
      "stateMutability": "nonpayable",
      "type": "function"
    },
    {
      "constant": false,
      "inputs": [
        {
          "internalType": "bytes32",
          "name": "requestWithdrawMoneyCode",
          "type": "bytes32"
        },
        {
          "internalType": "uint256",
          "name": "requestAmount",
          "type": "uint256"
        },
        {
          "internalType": "address payable",
          "name": "requestCampaign",
          "type": "address"
        }
      ],
      "name": "requestToWithdrawMoney",
      "outputs": [],
      "payable": false,
      "stateMutability": "nonpayable",
      "type": "function"
    },
    {
      "constant": true,
      "inputs": [],
      "name": "getRequestToWithdrawMoneyList",
      "outputs": [
        {
          "internalType": "bytes32[]",
          "name": "",
          "type": "bytes32[]"
        }
      ],
      "payable": false,
      "stateMutability": "view",
      "type": "function"
    },
    {
      "constant": true,
      "inputs": [
        {
          "internalType": "uint256",
          "name": "index",
          "type": "uint256"
        }
      ],
      "name": "getRequestToWithdrawMoneyListAtIndex",
      "outputs": [
        {
          "internalType": "bytes32",
          "name": "_requestToOpenCampaign",
          "type": "bytes32"
        }
      ],
      "payable": false,
      "stateMutability": "view",
      "type": "function"
    },
    {
      "constant": true,
      "inputs": [
        {
          "internalType": "bytes32",
          "name": "key",
          "type": "bytes32"
        }
      ],
      "name": "getRequestToWithdrawMoneyListAtKey",
      "outputs": [
        {
          "internalType": "address payable",
          "name": "_requestToWithdrawMoneyHost",
          "type": "address"
        },
        {
          "internalType": "address payable",
          "name": "_requestToWithdrawMoneyCampaign",
          "type": "address"
        },
        {
          "internalType": "uint256",
          "name": "_requestToWithdrawMoneyAmount",
          "type": "uint256"
        }
      ],
      "payable": false,
      "stateMutability": "view",
      "type": "function"
    }
  ],
  "bytecode": "0x6080604052600080546001600160a01b03191633179055612a28806100256000396000f3fe608060405234801561001057600080fd5b50600436106101e45760003560e01c8063731301cf1161010f578063b9e517d7116100a2578063d9f774fc11610071578063d9f774fc1461059c578063e35d6be5146105a4578063e4663a5b146105c1578063ffc8ca6e146105e7576101e4565b8063b9e517d71461051f578063bd3fd4a014610545578063be72f5411461054d578063c5a308f914610576576101e4565b80639ce6113d116100de5780639ce6113d146104d55780639ce9d19a146104dd578063a8769a92146104e5578063aca3d9bf14610502576101e4565b8063731301cf1461045f5780637a3a4edf146104a85780638da5cb5b146104c55780638e5604a5146104cd576101e4565b8063325dba0a116101875780634ba20b26116101565780634ba20b26146103c65780635084b67b146103ce57806351906047146104135780637048027514610439576101e4565b8063325dba0a14610355578063326d03af1461038457806335901256146103a157806345b5e86f146103be576101e4565b8063106cd855116101c3578063106cd855146102a75780631785f53c146102c45780632ac95a44146102ea5780632e806a2c1461031c576101e4565b8062d69707146101e95780630410b0b31461023057806307e9002f14610288575b600080fd5b610206600480360360208110156101ff57600080fd5b5035610621565b604080516001600160a01b0394851681529290931660208301528183015290519081900360600190f35b6102386106df565b60408051602080825283518183015283519192839290830191858101910280838360005b8381101561027457818101518382015260200161025c565b505050509050019250505060405180910390f35b6102a56004803603602081101561029e57600080fd5b50356106f1565b005b6102a5600480360360208110156102bd57600080fd5b5035610909565b6102a5600480360360208110156102da57600080fd5b50356001600160a01b0316610b40565b6102a56004803603606081101561030057600080fd5b50803590602081013590604001356001600160a01b0316610c15565b6103396004803603602081101561033257600080fd5b5035610eb4565b604080516001600160a01b039092168252519081900360200190f35b6103726004803603602081101561036b57600080fd5b5035610ecf565b60408051918252519081900360200190f35b6103396004803603602081101561039a57600080fd5b5035610f47565b6102a5600480360360208110156103b757600080fd5b5035610f5a565b610238611050565b6103726110c1565b6103eb600480360360208110156103e457600080fd5b5035611107565b604080516001600160a01b03909316835263ffffffff90911660208301528051918290030190f35b6102a56004803603602081101561042957600080fd5b50356001600160a01b03166111ba565b6102a56004803603602081101561044f57600080fd5b50356001600160a01b0316611292565b6104856004803603602081101561047557600080fd5b50356001600160a01b0316611365565b604080516001600160a01b03909316835260208301919091528051918290030190f35b610339600480360360208110156104be57600080fd5b50356114aa565b610339611522565b610238611531565b61023861153d565b6102a56115ae565b6102a5600480360360208110156104fb57600080fd5b50356116a5565b6103396004803603602081101561051857600080fd5b5035611789565b6102a56004803603602081101561053557600080fd5b50356001600160a01b031661179c565b610238611885565b6102a56004803603604081101561056357600080fd5b508035906020013563ffffffff166118f6565b6102a56004803603602081101561058c57600080fd5b50356001600160a01b0316611a23565b610238611b57565b610372600480360360208110156105ba57600080fd5b5035611b63565b6102a5600480360360208110156105d757600080fd5b50356001600160a01b0316611bdb565b61060d600480360360208110156105fd57600080fd5b50356001600160a01b0316611c78565b604080519115158252519081900360200190f35b6000808061063660053363ffffffff611ca016565b8061064b57506000546001600160a01b031633145b61068a576040805162461bcd60e51b815260206004820152601a60248201526000805160206127ee833981519152604482015290519081900360640190fd5b6106926121a0565b505050600091825250600e6020908152604091829020825160608101845281546001600160a01b039081168083526001840154909116938201849052600290920154930183905292909190565b60606106eb6001611cfd565b90505b90565b61070260053363ffffffff611ca016565b8061071757506000546001600160a01b031633145b610756576040805162461bcd60e51b815260206004820152601a60248201526000805160206127ee833981519152604482015290519081900360640190fd5b61076760098263ffffffff611d6316565b6107a25760405162461bcd60e51b81526004018080602001828103825260228152602001806127766022913960400191505060405180910390fd5b6107aa6121c0565b506000818152600d602090815260408083208151808301835290546001600160a01b038116808352600160a01b90910463ffffffff169382018490529151909392919032906107f8906121d7565b63ffffffff90931683526001600160a01b039182166020840152166040808301919091525190819003606001906000f08015801561083a573d6000803e3d6000fd5b506001600160a01b038116600081815260106020526040902080546001600160a01b0319169091179055905061087760018263ffffffff611dab16565b61088860098463ffffffff611e7a16565b6000838152600d602090815260409182902080546001600160c01b031916905583518482015183516001600160a01b0386811682523294820194909452929091168284015263ffffffff16606082015290517f5948053af121e790a339d98109484d88df5a0d32a10cae2ca231701091c74a929181900360800190a1505050565b61091a60053363ffffffff611ca016565b610961576040805162461bcd60e51b8152602060048201526013602482015272596f7520617265206e6f742061646d696e202160681b604482015290519081900360640190fd5b610972600b8263ffffffff611d6316565b6109ad5760405162461bcd60e51b81526004018080602001828103825260218152602001806127cd6021913960400191505060405180910390fd5b6109b56121a0565b506000818152600e6020908152604091829020825160608101845281546001600160a01b039081168252600183015416818401819052600290920154818501528351629032ff60e51b815293519093919283926312065fe09260048083019392829003018186803b158015610a2957600080fd5b505afa158015610a3d573d6000803e3d6000fd5b505050506040513d6020811015610a5357600080fd5b505160408301511115610a975760405162461bcd60e51b815260040180806020018281038252602a81526020018061291c602a913960400191505060405180910390fd5b806001600160a01b031663827cc45283604001516040518263ffffffff1660e01b815260040180828152602001915050600060405180830381600087803b158015610ae157600080fd5b505af1158015610af5573d6000803e3d6000fd5b50505050610b0d83600b611e7a90919063ffffffff16565b6000838152600e6020526040812080546001600160a01b031990811682556001820180549091169055600201555b505050565b6000546001600160a01b03163314610b9f576040805162461bcd60e51b815260206004820152601d60248201527f596f75206d757374206265206f776e657220746f20657865637574652e000000604482015290519081900360640190fd5b610bb060058263ffffffff611ca016565b610c01576040805162461bcd60e51b815260206004820152601b60248201527f54686973206163636f756e74206973206e6f742061646d696e20210000000000604482015290519081900360640190fd5b610c1260058263ffffffff611f4c16565b50565b610c2660033363ffffffff611ca016565b610c77576040805162461bcd60e51b815260206004820152601a60248201527f596f7520617265206e6f7420612076616c696420686f73742021000000000000604482015290519081900360640190fd5b610c88600b8463ffffffff611d6316565b15610cc45760405162461bcd60e51b81526004018080602001828103825260298152602001806129cb6029913960400191505060405180910390fd5b6000819050336001600160a01b0316816001600160a01b03166320bc44256040518163ffffffff1660e01b815260040160206040518083038186803b158015610d0c57600080fd5b505afa158015610d20573d6000803e3d6000fd5b505050506040513d6020811015610d3657600080fd5b50516001600160a01b03161415610e775782816001600160a01b03166312065fe06040518163ffffffff1660e01b815260040160206040518083038186803b158015610d8157600080fd5b505afa158015610d95573d6000803e3d6000fd5b505050506040513d6020811015610dab57600080fd5b505110610e3b57610dba6121a0565b50604080516060810182523381526001600160a01b03848116602080840191825283850188815260008a8152600e909252949020835181549084166001600160a01b03199182161782559151600182018054919094169216919091179091559151600290920191909155610e35600b8663ffffffff61204116565b50610e72565b60405162461bcd60e51b81526004018080602001828103825260368152602001806129466036913960400191505060405180910390fd5b610eae565b60405162461bcd60e51b81526004018080602001828103825260358152602001806127986035913960400191505060405180910390fd5b50505050565b6000610ec760058363ffffffff6120ed16565b90505b919050565b6000610ee260053363ffffffff611ca016565b80610ef757506000546001600160a01b031633145b610f36576040805162461bcd60e51b815260206004820152601a60248201526000805160206127ee833981519152604482015290519081900360640190fd5b610ec760098363ffffffff61211a16565b6000610ec760038363ffffffff6120ed16565b610f6b60053363ffffffff611ca016565b80610f8057506000546001600160a01b031633145b610fbf576040805162461bcd60e51b815260206004820152601a60248201526000805160206127ee833981519152604482015290519081900360640190fd5b610fd060098263ffffffff611d6316565b611021576040805162461bcd60e51b815260206004820181905260248201527f496e76616c69642072657175657374546f4f70656e43616d706169676e204944604482015290519081900360640190fd5b61103260098263ffffffff611e7a16565b6000908152600d6020526040902080546001600160c01b0319169055565b606061106360053363ffffffff611ca016565b8061107857506000546001600160a01b031633145b6110b7576040805162461bcd60e51b815260206004820152601a60248201526000805160206127ee833981519152604482015290519081900360640190fd5b6106eb6007611cfd565b60006110d460073363ffffffff611ca016565b156110e1575060016106ee565b6110f260033363ffffffff611ca016565b156110ff575060026106ee565b5060006106ee565b60008061111b60053363ffffffff611ca016565b8061113057506000546001600160a01b031633145b61116f576040805162461bcd60e51b815260206004820152601a60248201526000805160206127ee833981519152604482015290519081900360640190fd5b6111776121c0565b5050506000908152600d60209081526040918290208251808401909352546001600160a01b038116808452600160a01b90910463ffffffff169290910182905291565b6111cb60053363ffffffff611ca016565b806111e057506000546001600160a01b031633145b61121f576040805162461bcd60e51b815260206004820152601a60248201526000805160206127ee833981519152604482015290519081900360640190fd5b61123060038263ffffffff611ca016565b611281576040805162461bcd60e51b815260206004820152601860248201527f54686973206163636f756e74206973206e6f7420686f73740000000000000000604482015290519081900360640190fd5b610c1260038263ffffffff611f4c16565b6000546001600160a01b031633146112f1576040805162461bcd60e51b815260206004820152601d60248201527f596f75206d757374206265206f776e657220746f20657865637574652e000000604482015290519081900360640190fd5b61130260058263ffffffff611ca016565b15611354576040805162461bcd60e51b815260206004820152601f60248201527f54686973206163636f756e742069732041646d696e20616c7265616479202100604482015290519081900360640190fd5b610c1260058263ffffffff611dab16565b60008061137960018463ffffffff611ca016565b6113b45760405162461bcd60e51b815260040180806020018281038252602881526020018061297c6028913960400191505060405180910390fd5b6001600160a01b038084166000908152601060209081526040918290205482516320bc442560e01b8152925193169283926320bc4425926004808301939192829003018186803b15801561140757600080fd5b505afa15801561141b573d6000803e3d6000fd5b505050506040513d602081101561143157600080fd5b50516040805163f84038b160e01b815290516001600160a01b0384169163f84038b1916004808301926020929190829003018186803b15801561147357600080fd5b505afa158015611487573d6000803e3d6000fd5b505050506040513d602081101561149d57600080fd5b5051909350915050915091565b60006114bd60053363ffffffff611ca016565b806114d257506000546001600160a01b031633145b611511576040805162461bcd60e51b815260206004820152601a60248201526000805160206127ee833981519152604482015290519081900360640190fd5b610ec760078363ffffffff6120ed16565b6000546001600160a01b031681565b60606106eb6003611cfd565b606061155060053363ffffffff611ca016565b8061156557506000546001600160a01b031633145b6115a4576040805162461bcd60e51b815260206004820152601a60248201526000805160206127ee833981519152604482015290519081900360640190fd5b6106eb600961213e565b6115bf60033363ffffffff611ca016565b1561160a576040805162461bcd60e51b8152602060048201526016602482015275486f73742069732076616c696420616c72656164792160501b604482015290519081900360640190fd5b61161b60073363ffffffff611ca016565b156116575760405162461bcd60e51b81526004018080602001828103825260228152602001806128516022913960400191505060405180910390fd5b61165f6121e4565b506040805160208082018352338083526000818152600f909252929020815181546001600160a01b0319166001600160a01b0390911617905590610c1290600790611dab565b6116b660053363ffffffff611ca016565b6116fd576040805162461bcd60e51b8152602060048201526013602482015272596f7520617265206e6f742061646d696e202160681b604482015290519081900360640190fd5b61170e600b8263ffffffff611d6316565b6117495760405162461bcd60e51b81526004018080602001828103825260218152602001806127cd6021913960400191505060405180910390fd5b61175a600b8263ffffffff611e7a16565b6000908152600e6020526040812080546001600160a01b03199081168255600182018054909116905560020155565b6000610ec760018363ffffffff6120ed16565b6117ad60053363ffffffff611ca016565b806117c257506000546001600160a01b031633145b611801576040805162461bcd60e51b815260206004820152601a60248201526000805160206127ee833981519152604482015290519081900360640190fd5b61181260078263ffffffff611ca016565b61184d5760405162461bcd60e51b81526004018080602001828103825260278152602001806129a46027913960400191505060405180910390fd5b61185e60078263ffffffff611f4c16565b6001600160a01b03166000908152600f6020526040902080546001600160a01b0319169055565b606061189860053363ffffffff611ca016565b806118ad57506000546001600160a01b031633145b6118ec576040805162461bcd60e51b815260206004820152601a60248201526000805160206127ee833981519152604482015290519081900360640190fd5b6106eb600b61213e565b61190760033363ffffffff611ca016565b611958576040805162461bcd60e51b815260206004820152601a60248201527f596f7520617265206e6f7420612076616c696420686f73742021000000000000604482015290519081900360640190fd5b61196960098363ffffffff611d6316565b156119a55760405162461bcd60e51b815260040180806020018281038252602a81526020018061274c602a913960400191505060405180910390fd5b6119ad6121c0565b5060408051808201825233815263ffffffff80841660208084019182526000878152600d909152939093208251815494518316600160a01b0263ffffffff60a01b196001600160a01b03929092166001600160a01b031990961695909517169390931790925590610b3b90600990859061204116565b611a3460053363ffffffff611ca016565b80611a4957506000546001600160a01b031633145b611a88576040805162461bcd60e51b815260206004820152601a60248201526000805160206127ee833981519152604482015290519081900360640190fd5b611a9960038263ffffffff611ca016565b15611ae4576040805162461bcd60e51b8152602060048201526016602482015275486f73742069732076616c696420616c72656164792160501b604482015290519081900360640190fd5b611af560078263ffffffff611ca016565b611b46576040805162461bcd60e51b815260206004820181905260248201527f486f737420686176656e2774207265717565737420746f20626520486f73742e604482015290519081900360640190fd5b61184d60038263ffffffff611dab16565b60606106eb6005611cfd565b6000611b7660053363ffffffff611ca016565b80611b8b57506000546001600160a01b031633145b611bca576040805162461bcd60e51b815260206004820152601a60248201526000805160206127ee833981519152604482015290519081900360640190fd5b610ec7600b8363ffffffff61211a16565b611bec60053363ffffffff611ca016565b80611c0157506000546001600160a01b031633145b611c40576040805162461bcd60e51b815260206004820152601a60248201526000805160206127ee833981519152604482015290519081900360640190fd5b611c5160018263ffffffff611f4c16565b6001600160a01b0316600090815260106020526040902080546001600160a01b0319169055565b6000611c8b60038363ffffffff611ca016565b15611c9857506001610eca565b506000610eca565b6001820154600090611cb457506000611cf7565b6001600160a01b0382166000818152602085905260409020546001850180549091908110611cde57fe5b6000918252602090912001546001600160a01b03161490505b92915050565b606081600101805480602002602001604051908101604052809291908181526020018280548015611d5757602002820191906000526020600020905b81546001600160a01b03168152600190910190602001808311611d39575b50505050509050919050565b6001820154600090611d7757506000611cf7565b6000828152602084905260409020546001840180548492908110611d9757fe5b906000526020600020015414905092915050565b6001600160a01b038116611df05760405162461bcd60e51b81526004018080602001828103825260288152602001806127246028913960400191505060405180910390fd5b611dfa8282611ca0565b15611e365760405162461bcd60e51b815260040180806020018281038252604381526020018061280e6043913960600191505060405180910390fd5b60018281018054918201815560009081526020808220830180546001600160a01b039095166001600160a01b03199095168517905592815292909152604090912055565b611e848282611d63565b611ebf5760405162461bcd60e51b81526004018080602001828103825260358152602001806128736035913960400191505060405180910390fd5b6000826001016001611ed085612199565b0381548110611edb57fe5b6000918252602080832090910154848352908590526040808320548284529220829055600185018054919350839183908110611f1357fe5b600091825260208083209091019290925584815290859052604081205560018401805490611f459060001983016121f6565b5050505050565b611f568282611ca0565b611f915760405162461bcd60e51b815260040180806020018281038252603f8152602001806128dd603f913960400191505060405180910390fd5b6000826001016001611fa285612199565b0381548110611fad57fe5b60009182526020808320909101546001600160a01b03858116845291869052604080842054929091168084529220819055600185018054929350909183919083908110611ff657fe5b600091825260208083209190910180546001600160a01b0319166001600160a01b03948516179055918516815290859052604081205560018401805490611f459060001983016121f6565b8061207d5760405162461bcd60e51b81526004018080602001828103825260288152602001806127246028913960400191505060405180910390fd5b6120878282611d63565b156120c35760405162461bcd60e51b81526004018080602001828103825260358152602001806128a86035913960400191505060405180910390fd5b60018281018054918201815560009081526020808220830184905592815292909152604090912055565b60008260010182815481106120fe57fe5b6000918252602090912001546001600160a01b03169392505050565b600082600101828154811061212b57fe5b9060005260206000200154905092915050565b606081600101805480602002602001604051908101604052809291908181526020018280548015611d5757602002820191906000526020600020905b81548152602001906001019080831161217a5750505050509050919050565b6001015490565b604080516060810182526000808252602082018190529181019190915290565b604080518082019091526000808252602082015290565b6104f08061223483390190565b60408051602081019091526000815290565b815481835581811115610b3b57600083815260209020610b3b9181019083016106ee91905b8082111561222f576000815560010161221b565b509056fe608060405234801561001057600080fd5b506040516104f03803806104f08339818101604052606081101561003357600080fd5b5080516020820151604090920151600080546001600160a01b039485166001600160a01b031991821617909155600292909255600180549390911692909116919091179055610469806100876000396000f3fe60806040526004361061009c5760003560e01c8063c85e0be211610064578063c85e0be21461014a578063d7bb99ba1461017d578063dba3e70414610185578063f437bc59146101af578063f84038b1146101c4578063f851a440146101d95761009c565b806312065fe01461009e57806320bc4425146100c55780636e9960c3146100f6578063827cc4521461010b578063937e09b114610135575b005b3480156100aa57600080fd5b506100b36101ee565b60408051918252519081900360200190f35b3480156100d157600080fd5b506100da6101f2565b604080516001600160a01b039092168252519081900360200190f35b34801561010257600080fd5b506100da610201565b34801561011757600080fd5b5061009c6004803603602081101561012e57600080fd5b5035610210565b34801561014157600080fd5b506100b36102eb565b34801561015657600080fd5b5061009c6004803603602081101561016d57600080fd5b50356001600160a01b03166102f1565b61009c610372565b34801561019157600080fd5b5061009c600480360360208110156101a857600080fd5b5035610382565b3480156101bb57600080fd5b506100da6103e6565b3480156101d057600080fd5b506100b36103f5565b3480156101e557600080fd5b506100da6103fb565b4790565b6000546001600160a01b031690565b6001546001600160a01b031690565b6001546001600160a01b0316321461026f576040805162461bcd60e51b815260206004820152601d60248201527f596f75206d7573742062652061646d696e20746f20657865637574652e000000604482015290519081900360640190fd5b478111156102ae5760405162461bcd60e51b815260040180806020018281038252602a81526020018061040b602a913960400191505060405180910390fd5b600080546040516001600160a01b039091169183156108fc02918491818181858888f193505050501580156102e7573d6000803e3d6000fd5b5050565b60025481565b6001546001600160a01b03163214610350576040805162461bcd60e51b815260206004820152601d60248201527f596f75206d7573742062652061646d696e20746f20657865637574652e000000604482015290519081900360640190fd5b600080546001600160a01b0319166001600160a01b0392909216919091179055565b600254341161038057600080fd5b565b6001546001600160a01b031632146103e1576040805162461bcd60e51b815260206004820152601d60248201527f596f75206d7573742062652061646d696e20746f20657865637574652e000000604482015290519081900360640190fd5b600255565b6000546001600160a01b031681565b60025490565b6001546001600160a01b03168156fe43616e6e6f74207769746864726177206d6f7265207468616e2063757272656e742062616c616e63652ea265627a7a72315820166c12466780ce74537aa0a7243784ca80fb146861ae525b7df7ada9167a7c0c64736f6c63430005100032556e6f7264657265644b65795365742831303029202d204b65792063616e6e6f7420626520307830526571756573744f70656e43616d706169676e436f646520494420616c7265616479206578697374732e52657175657374546f4f70656e43616d706169676e206973206e6f742076616c69644f6e6c7920686f7374206f662063616d706169676e2063616e207265717565737420666f72206d6f6e65792077697468647261772e496e76616c69642072657175657374546f57697468647261774d6f6e6579204944596f7520617265206e6f742061646d696e206f72206f776e6572000000000000556e6f726465726564416464726573735365742831303129202d204164647265737320286b65792920616c72656164792065786973747320696e20746865207365742e486f737420697320696e2076616c69646174652070656e64696e6720737461746521556e6f7264657265644b65795365742831303229202d204b657920646f6573206e6f7420657869737420696e20746865207365742e556e6f7264657265644b65795365742831303129202d204b657920616c72656164792065786973747320696e20746865207365742e556e6f7264657265644b65795365742831303229202d204164647265737320286b65792920646f6573206e6f7420657869737420696e20746865207365742e43616e6e6f74207769746864726177206d6f7265207468616e2063757272656e742062616c616e63652e43616e6e6f74207265717565737420746f207769746864726177206d6f7265207468616e2063616d706169676e2062616c616e63652e43616e27742067657420612043616d706169676e207468617420646f65736e27742065786973742e486f737420686176656e277420637265617465207265717565737420746f20626520486f73742e52657175657374546f57697468647261774d6f6e657920494420616c7265616479206578697374732ea265627a7a723158206cc98a70c7e8a2ff8ccff09ce7af5a4bfde18c19837e6f2b79bb59e09b8e67e764736f6c63430005100032",
  "source": "pragma solidity 0.5.16;\r\n\r\nimport \"./HitchensUnorderedAddressSet.sol\";\r\nimport \"./HitchensUnorderedKeySet.sol\";\r\nimport \"./Ownable_CampaignFactory.sol\";\r\nimport \"./Campaign.sol\";\r\ncontract CampaignFactory is Ownable_CampaignFactory{   \r\n    struct RequestTobeHost {\r\n        address requestSender;\r\n    }\r\n\r\n    struct RequestToOpenCampaign {\r\n        address payable requestHost;\r\n        uint32 minimumContribution;\r\n    }\r\n    \r\n    struct RequestToWithdrawMoney {\r\n        address payable requestHost;\r\n        address payable requestCampaign;\r\n        uint256 amount;\r\n    }\r\n    \r\n    using HitchensUnorderedAddressSetLib for HitchensUnorderedAddressSetLib.Set;\r\n    using HitchensUnorderedKeySetLib for HitchensUnorderedKeySetLib.Set;\r\n    \r\n    HitchensUnorderedAddressSetLib.Set campaignSet;\r\n    HitchensUnorderedAddressSetLib.Set validatedHostSet;\r\n    HitchensUnorderedAddressSetLib.Set validatedAdminSet;\r\n    HitchensUnorderedAddressSetLib.Set requestTobeHostSet;\r\n    HitchensUnorderedKeySetLib.Set requestToOpenCampaignSet;\r\n    HitchensUnorderedKeySetLib.Set requestToWithdrawMoneySet;\r\n    \r\n    \r\n    mapping(bytes32 => RequestToOpenCampaign) requestsToOpenCampaign;\r\n    mapping(bytes32 => RequestToWithdrawMoney) requestsToWithdrawMoney;\r\n    mapping(address => RequestTobeHost) requestsTobeHost;\r\n    \r\n    \r\n    mapping(address => Campaign) campaigns;\r\n    \r\n    \r\n    \r\n    modifier onlyAdmin() {\r\n        require(validatedAdminSet.exists(msg.sender), \"You are not admin !\");\r\n        _;\r\n    }\r\n    \r\n    modifier onlyAdminAndOwner() {\r\n        if(!((validatedAdminSet.exists(msg.sender)) || (owner == msg.sender))){\r\n            revert(\"You are not admin or owner\");\r\n        }\r\n        _;\r\n    }\r\n    \r\n    modifier onlyValidatedHost() {\r\n        require(validatedHostSet.exists(msg.sender), \"You are not a valid host !\");\r\n        _;\r\n    }\r\n    \r\n    event LogNewCampaign(address new_campaign_address, address admin, address host, uint minimum_contribution);\r\n    // event LogUpdateCampaign(address current_campaign,address sender, address host, uint minimum_contribution);\r\n    // event LogRemoveCampaign(address current_campaign,address sender);\r\n    \r\n    //ADMIN CRUD\r\n    function addAdmin(address _admin) public onlyOwner{\r\n        require(!validatedAdminSet.exists(_admin), \"This account is Admin already !\");\r\n        validatedAdminSet.insert(_admin);\r\n    }\r\n    \r\n    function removeAdmin(address _admin) public onlyOwner{\r\n        require(validatedAdminSet.exists(_admin), \"This account is not admin !\");\r\n        validatedAdminSet.remove(_admin);\r\n    }\r\n    function getAdminInAdminListAtIndex(uint index) public view returns(address _admin) {\r\n        return validatedAdminSet.keyAtIndex(index);\r\n    }\r\n    function getAdminList() public view returns(address[] memory){\r\n        return validatedAdminSet.listKey();\r\n    }\r\n    \r\n    \r\n\r\n    //HOST CRUD\r\n    function validateHost(address _host) public onlyAdminAndOwner{\r\n        require(!validatedHostSet.exists(_host), \"Host is valid already!\");\r\n        require(requestTobeHostSet.exists(_host), \"Host haven't request to be Host.\");\r\n        validatedHostSet.insert(_host);\r\n        requestTobeHostSet.remove(_host);\r\n        delete requestsTobeHost[_host];\r\n       \r\n    }\r\n    \r\n    function rejectValidateRequestHost(address _host) public onlyAdminAndOwner{\r\n        require(requestTobeHostSet.exists(_host), \"Host haven't create request to be Host.\");\r\n        requestTobeHostSet.remove(_host);\r\n        delete requestsTobeHost[_host];\r\n       \r\n    }\r\n\r\n    function removeValidatedHost(address _host) public onlyAdminAndOwner{\r\n        require(validatedHostSet.exists(_host), \"This account is not host\");\r\n        validatedHostSet.remove(_host);\r\n    }\r\n    function getHostInHostListAtIndex(uint index) public view returns(address _host) {\r\n        return validatedHostSet.keyAtIndex(index);\r\n    }\r\n    function isHostValidated(address validatedHostAddress) public view returns(bool _result){\r\n        if(validatedHostSet.exists(validatedHostAddress)){\r\n            return true;\r\n        } else {\r\n            return false;\r\n        }\r\n    }\r\n    function getValidatedHostList() public view returns(address[] memory){\r\n        return validatedHostSet.listKey();\r\n    }\r\n    \r\n    //CAMPAIGN CRUD\r\n    function newCampaign(bytes32 requestToOpenCampaign) public onlyAdminAndOwner{\r\n         // Note that this will fail automatically if the key already exists.\r\n        // require(validatedHostSet.exists(host), \"Host is not validated\r\n        require(requestToOpenCampaignSet.exists(requestToOpenCampaign), \"RequestToOpenCampaign is not valid\");\r\n        \r\n        RequestToOpenCampaign memory re = requestsToOpenCampaign[requestToOpenCampaign];\r\n        \r\n        Campaign w = new Campaign(re.minimumContribution,re.requestHost,tx.origin);\r\n    \r\n        campaigns[address(w)] = w ;\r\n        campaignSet.insert(address(w));\r\n        \r\n        requestToOpenCampaignSet.remove(requestToOpenCampaign);\r\n        delete requestsToOpenCampaign[requestToOpenCampaign];\r\n        emit LogNewCampaign(address(w),tx.origin,re.requestHost,re.minimumContribution);\r\n    }\r\n    \r\n    function rejectCreateCampaign(bytes32 requestToOpenCampaign) public onlyAdminAndOwner{\r\n         // Note that this will fail automatically if the key already exists.\r\n        require(requestToOpenCampaignSet.exists(requestToOpenCampaign), \"Invalid requestToOpenCampaign ID\");\r\n        requestToOpenCampaignSet.remove(requestToOpenCampaign);\r\n        delete requestsToOpenCampaign[requestToOpenCampaign];\r\n\r\n    }\r\n    \r\n    function removeCampaign(address campaign_key) public onlyAdminAndOwner{\r\n        \r\n        campaignSet.remove(campaign_key); // Note that this will fail automatically if the key doesn't exist\r\n        delete campaigns[campaign_key];\r\n        // emit LogRemoveCampaign(campaign_key,msg.sender);\r\n    }\r\n    \r\n    function getCampaign(address campaign_key) public view returns(address host, uint minimum_contribution) {\r\n        require(campaignSet.exists(campaign_key), \"Can't get a Campaign that doesn't exist.\");\r\n        Campaign w = campaigns[campaign_key];\r\n        return(w.getHost(),w.getMinimumContribution());\r\n    }\r\n    \r\n    function getCampaignList() public view returns(address[] memory){\r\n        return campaignSet.listKey();\r\n    }\r\n    \r\n    function getCampaignInCampaignListAtIndex(uint index) public view returns(address campaign_key) {\r\n        return campaignSet.keyAtIndex(index);\r\n    }\r\n    \r\n    //REQUEST TO BE VALIDATED HOST CRUD\r\n    \r\n    function requestToBeValidHost() public {\r\n        require(!validatedHostSet.exists(msg.sender), \"Host is valid already!\");\r\n        require(!requestTobeHostSet.exists(msg.sender), \"Host is in validate pending state!\");\r\n        RequestTobeHost memory re = RequestTobeHost(msg.sender);\r\n        requestsTobeHost[msg.sender] = re;\r\n        requestTobeHostSet.insert(msg.sender);\r\n    }\r\n    \r\n    function getRequestToBeHostList() public onlyAdminAndOwner view returns(address[] memory){\r\n        return requestTobeHostSet.listKey();\r\n    }\r\n    \r\n    function hostValidateState() public view returns(int){\r\n        if(requestTobeHostSet.exists(msg.sender)){\r\n            return 1;//sending\r\n        } else {\r\n            if(validatedHostSet.exists(msg.sender)){\r\n                return 2;//already success\r\n            } else {\r\n                return 0;//havent sent\r\n            }\r\n        }\r\n    }\r\n    \r\n    function getRequestInRequestToBeHostListAtIndex(uint index) public onlyAdminAndOwner view returns(address _requestToBeHost) {\r\n        return requestTobeHostSet.keyAtIndex(index);\r\n    }\r\n    \r\n    //REQUEST TO OPEN CAMPAIGN CRUD \r\n    function requestToOpenCamapaign(bytes32 requestOpenCampaignCode, uint32 minimumContribution) public onlyValidatedHost{\r\n        require(!requestToOpenCampaignSet.exists(requestOpenCampaignCode), \"RequestOpenCampaignCode ID already exists.\");\r\n        RequestToOpenCampaign memory re = RequestToOpenCampaign(msg.sender,minimumContribution);\r\n        requestsToOpenCampaign[requestOpenCampaignCode] = re;\r\n        requestToOpenCampaignSet.insert(requestOpenCampaignCode);\r\n    }\r\n    \r\n    function getRequestToOpenCampaignList() public onlyAdminAndOwner view returns(bytes32[] memory){\r\n        return requestToOpenCampaignSet.listKey();\r\n    }\r\n    \r\n    function getRequestToOpenCampaignListAtIndex(uint index) public onlyAdminAndOwner view returns(bytes32 _requestToOpenCampaign) {\r\n        return requestToOpenCampaignSet.keyAtIndex(index);\r\n    }\r\n    function getRequestToOpenCampaignListAtKey(bytes32 key) public onlyAdminAndOwner view returns(address payable _requestToOpenCampaignHost, uint32  _requestToOpenCampaignMinimumContribution) {\r\n        RequestToOpenCampaign memory re = requestsToOpenCampaign[key];\r\n        return (re.requestHost, re.minimumContribution);\r\n    }\r\n\r\n    //REQUEST TO WITHDRAW MONEY CRUD\r\n    function withDrawMoneyFunction(bytes32 requestToWithdrawMoney) public onlyAdmin {\r\n        require(requestToWithdrawMoneySet.exists(requestToWithdrawMoney), \"Invalid requestToWithdrawMoney ID\");\r\n        RequestToWithdrawMoney memory re = requestsToWithdrawMoney[requestToWithdrawMoney];\r\n       \r\n        Campaign a = Campaign(re.requestCampaign);\r\n        if(re.amount > a.getBalance()){\r\n            revert(\"Cannot withdraw more than current balance.\");\r\n        } else {\r\n            a.withDrawMoney(re.amount);\r\n            requestToWithdrawMoneySet.remove(requestToWithdrawMoney);\r\n            delete requestsToWithdrawMoney[requestToWithdrawMoney];\r\n        }\r\n        \r\n    }\r\n    \r\n    function rejectWithdrawMoneyRequest(bytes32 requestToWithdrawMoney) public onlyAdmin {\r\n        require(requestToWithdrawMoneySet.exists(requestToWithdrawMoney), \"Invalid requestToWithdrawMoney ID\");\r\n        requestToWithdrawMoneySet.remove(requestToWithdrawMoney);\r\n        delete requestsToWithdrawMoney[requestToWithdrawMoney];\r\n        \r\n    }\r\n    \r\n    function requestToWithdrawMoney(bytes32 requestWithdrawMoneyCode, uint256 requestAmount, address payable requestCampaign) public onlyValidatedHost{\r\n        require(!requestToWithdrawMoneySet.exists(requestWithdrawMoneyCode), \"RequestToWithdrawMoney ID already exists.\");\r\n        \r\n        Campaign check = Campaign(requestCampaign);\r\n        if(check.getHost() == msg.sender){\r\n            if(check.getBalance() >= requestAmount){\r\n                RequestToWithdrawMoney memory re = RequestToWithdrawMoney(msg.sender,requestCampaign,requestAmount);\r\n                requestsToWithdrawMoney[requestWithdrawMoneyCode] = re;\r\n                requestToWithdrawMoneySet.insert(requestWithdrawMoneyCode);\r\n            } else {\r\n                revert(\"Cannot request to withdraw more than campaign balance.\");\r\n            }\r\n            \r\n        } else {\r\n            revert(\"Only host of campaign can request for money withdraw.\");\r\n        }\r\n        \r\n        \r\n    }\r\n    \r\n    function getRequestToWithdrawMoneyList() public onlyAdminAndOwner view returns(bytes32[] memory){\r\n        return requestToWithdrawMoneySet.listKey();\r\n    }\r\n    \r\n    function getRequestToWithdrawMoneyListAtIndex(uint index) public onlyAdminAndOwner view returns(bytes32 _requestToOpenCampaign) {\r\n        return requestToWithdrawMoneySet.keyAtIndex(index);\r\n    }\r\n    \r\n    function getRequestToWithdrawMoneyListAtKey(bytes32 key) public onlyAdminAndOwner view returns(address payable _requestToWithdrawMoneyHost,address payable _requestToWithdrawMoneyCampaign, uint256  _requestToWithdrawMoneyAmount) {\r\n        RequestToWithdrawMoney memory re = requestsToWithdrawMoney[key];\r\n        return (re.requestHost, re.requestCampaign, re.amount);\r\n    }\r\n    \r\n}",
  "sourcePath": "D:\\UNI\\D n\\blockchain-land-registry-with-laravel\\Smart Contract\\contracts\\CampaignFactory.sol",
  "compiler": {
    "name": "solc",
    "version": "0.5.16+commit.9c3226ce.Emscripten.clang"
  },
  "schemaVersion": "3.4.3",
  "updatedAt": "2021-10-29T20:02:14.665Z",
  "networkType": "ethereum",
  "devdoc": {
    "methods": {}
  },
  "userdoc": {
    "methods": {}
  }
}