{
  "contractName": "Ownable_CampaignFactory",
  "abi": [
    {
      "inputs": [],
      "payable": false,
      "stateMutability": "nonpayable",
      "type": "constructor"
    },
    {
      "constant": true,
      "inputs": [],
      "name": "owner",
      "outputs": [
        {
          "internalType": "address",
          "name": "",
          "type": "address"
        }
      ],
      "payable": false,
      "stateMutability": "view",
      "type": "function"
    }
  ],
  "bytecode": "0x6080604052348015600f57600080fd5b50600080546001600160a01b031916331790556093806100306000396000f3fe6080604052348015600f57600080fd5b506004361060285760003560e01c80638da5cb5b14602d575b600080fd5b6033604f565b604080516001600160a01b039092168252519081900360200190f35b6000546001600160a01b03168156fea265627a7a723158201aa2fd536a83c920898f9badb61075ee4294f6767db4a19bfcf5a01009e1de5264736f6c63430005100032",
  "source": "pragma solidity 0.5.16;\r\n\r\n/// @dev Stub for access control.\r\n\r\ncontract Ownable_CampaignFactory {\r\n    \r\n    address public owner;\r\n    \r\n    \r\n    modifier onlyOwner {\r\n        require(msg.sender == owner, \"You must be owner to execute.\");\r\n        _;\r\n    }\r\n    \r\n    // event LogNewOwner(address sender, address newOwner);\r\n    \r\n    constructor() public {\r\n        owner = msg.sender;\r\n    }\r\n    \r\n    // function changeOwner(address newOwner) public onlyOwner {\r\n    //     require(newOwner != address(0));\r\n    //     emit LogNewOwner(msg.sender, newOwner);\r\n    // }\r\n}",
  "sourcePath": "D:\\UNI\\Dự Án\\blockchain-land-registry-with-laravel\\Smart Contract\\contracts\\Ownable_CampaignFactory.sol",
  "compiler": {
    "name": "solc",
    "version": "0.5.16+commit.9c3226ce.Emscripten.clang"
  },
  "schemaVersion": "3.4.3",
  "updatedAt": "2021-10-29T15:35:29.930Z",
  "devdoc": {
    "details": "Stub for access control.",
    "methods": {}
  },
  "userdoc": {
    "methods": {}
  }
}