{
  "contractName": "Ownable_CampaignFactory",
  "abi": [
    {
      "inputs": [],
      "payable": false,
      "stateMutability": "nonpayable",
      "type": "constructor"
    },
    {
      "constant": true,
      "inputs": [],
      "name": "owner",
      "outputs": [
        {
          "internalType": "address",
          "name": "",
          "type": "address"
        }
      ],
      "payable": false,
      "stateMutability": "view",
      "type": "function"
    }
  ],
  "bytecode": "0x6080604052348015600f57600080fd5b50600080546001600160a01b031916331790556093806100306000396000f3fe6080604052348015600f57600080fd5b506004361060285760003560e01c80638da5cb5b14602d575b600080fd5b6033604f565b604080516001600160a01b039092168252519081900360200190f35b6000546001600160a01b03168156fea265627a7a7231582050aba38c672137edbffe2de28b33207322425fd9f4581cead24cbb3a416dd25864736f6c634300050c0032",
  "source": "pragma solidity 0.5.12;\n\n/// @dev Stub for access control.\n\ncontract Ownable_CampaignFactory {\n    \n    address public owner;\n    \n    \n    modifier onlyOwner {\n        require(msg.sender == owner, \"You must be owner to execute.\");\n        _;\n    }\n    \n    // event LogNewOwner(address sender, address newOwner);\n    \n    constructor() public {\n        owner = msg.sender;\n    }\n    \n    // function changeOwner(address newOwner) public onlyOwner {\n    //     require(newOwner != address(0));\n    //     emit LogNewOwner(msg.sender, newOwner);\n    // }\n}",
  "sourcePath": "D:\\Tum\\Study\\University\\Dự Án\\Testing Blockchain Project 3\\test frontend\\Smart Contract\\contracts\\Ownable_CampaignFactory.sol",
  "compiler": {
    "name": "solc",
    "version": "0.5.12+commit.7709ece9.Emscripten.clang"
  },
  "schemaVersion": "3.0.20",
  "updatedAt": "2021-10-28T10:19:46.362Z",
  "devdoc": {
    "details": "Stub for access control.",
    "methods": {}
  },
  "userdoc": {
    "methods": {}
  }
}