{
  "contractName": "Campaign",
  "abi": [
    {
      "inputs": [
        {
          "internalType": "uint256",
          "name": "_minimum",
          "type": "uint256"
        },
        {
          "internalType": "address payable",
          "name": "_host",
          "type": "address"
        },
        {
          "internalType": "address",
          "name": "_initialAdmin",
          "type": "address"
        }
      ],
      "payable": false,
      "stateMutability": "nonpayable",
      "type": "constructor"
    },
    {
      "payable": true,
      "stateMutability": "payable",
      "type": "fallback"
    },
    {
      "constant": true,
      "inputs": [],
      "name": "admin",
      "outputs": [
        {
          "internalType": "address",
          "name": "",
          "type": "address"
        }
      ],
      "payable": false,
      "stateMutability": "view",
      "type": "function"
    },
    {
      "constant": true,
      "inputs": [],
      "name": "campaignFactory",
      "outputs": [
        {
          "internalType": "address",
          "name": "",
          "type": "address"
        }
      ],
      "payable": false,
      "stateMutability": "view",
      "type": "function"
    },
    {
      "constant": true,
      "inputs": [],
      "name": "host",
      "outputs": [
        {
          "internalType": "address payable",
          "name": "",
          "type": "address"
        }
      ],
      "payable": false,
      "stateMutability": "view",
      "type": "function"
    },
    {
      "constant": true,
      "inputs": [],
      "name": "minimumContribution",
      "outputs": [
        {
          "internalType": "uint256",
          "name": "",
          "type": "uint256"
        }
      ],
      "payable": false,
      "stateMutability": "view",
      "type": "function"
    },
    {
      "constant": true,
      "inputs": [],
      "name": "modifierFromCampaign",
      "outputs": [
        {
          "internalType": "address",
          "name": "_campaignFactory",
          "type": "address"
        }
      ],
      "payable": false,
      "stateMutability": "view",
      "type": "function"
    },
    {
      "constant": false,
      "inputs": [],
      "name": "contribute",
      "outputs": [],
      "payable": true,
      "stateMutability": "payable",
      "type": "function"
    },
    {
      "constant": true,
      "inputs": [],
      "name": "getHost",
      "outputs": [
        {
          "internalType": "address",
          "name": "",
          "type": "address"
        }
      ],
      "payable": false,
      "stateMutability": "view",
      "type": "function"
    },
    {
      "constant": true,
      "inputs": [],
      "name": "getAdmin",
      "outputs": [
        {
          "internalType": "address",
          "name": "",
          "type": "address"
        }
      ],
      "payable": false,
      "stateMutability": "view",
      "type": "function"
    },
    {
      "constant": true,
      "inputs": [],
      "name": "getMinimumContribution",
      "outputs": [
        {
          "internalType": "uint256",
          "name": "",
          "type": "uint256"
        }
      ],
      "payable": false,
      "stateMutability": "view",
      "type": "function"
    },
    {
      "constant": true,
      "inputs": [],
      "name": "getBalance",
      "outputs": [
        {
          "internalType": "uint256",
          "name": "",
          "type": "uint256"
        }
      ],
      "payable": false,
      "stateMutability": "view",
      "type": "function"
    },
    {
      "constant": false,
      "inputs": [
        {
          "internalType": "bytes32",
          "name": "requestCreateDonationActivityCode",
          "type": "bytes32"
        },
        {
          "internalType": "address payable",
          "name": "_host",
          "type": "address"
        },
        {
          "internalType": "address",
          "name": "_authority",
          "type": "address"
        },
        {
          "internalType": "address",
          "name": "_campaignFactory",
          "type": "address"
        }
      ],
      "name": "requestToCreateDonationActivity",
      "outputs": [],
      "payable": false,
      "stateMutability": "nonpayable",
      "type": "function"
    },
    {
      "constant": true,
      "inputs": [],
      "name": "getRequestToCreateDonationActivityList",
      "outputs": [
        {
          "internalType": "bytes32[]",
          "name": "",
          "type": "bytes32[]"
        }
      ],
      "payable": false,
      "stateMutability": "view",
      "type": "function"
    },
    {
      "constant": true,
      "inputs": [
        {
          "internalType": "bytes32",
          "name": "key",
          "type": "bytes32"
        }
      ],
      "name": "getRequestToCreateDonationActivityListAtKey",
      "outputs": [
        {
          "internalType": "address",
          "name": "_host",
          "type": "address"
        },
        {
          "internalType": "address",
          "name": "_authority",
          "type": "address"
        },
        {
          "internalType": "address",
          "name": "_campaignFactory",
          "type": "address"
        }
      ],
      "payable": false,
      "stateMutability": "view",
      "type": "function"
    },
    {
      "constant": false,
      "inputs": [
        {
          "internalType": "bytes32",
          "name": "requestToCreateDonationActivityCode",
          "type": "bytes32"
        }
      ],
      "name": "cancelOpenCampaignRequest",
      "outputs": [],
      "payable": false,
      "stateMutability": "nonpayable",
      "type": "function"
    },
    {
      "constant": false,
      "inputs": [
        {
          "internalType": "bytes32",
          "name": "requestToCreateDonationActivityCode",
          "type": "bytes32"
        }
      ],
      "name": "rejectOpenCampaignRequest",
      "outputs": [],
      "payable": false,
      "stateMutability": "nonpayable",
      "type": "function"
    },
    {
      "constant": false,
      "inputs": [
        {
          "internalType": "bytes32",
          "name": "requestToCreateDonationActivityCode",
          "type": "bytes32"
        }
      ],
      "name": "newDonationActivity",
      "outputs": [],
      "payable": false,
      "stateMutability": "nonpayable",
      "type": "function"
    },
    {
      "constant": true,
      "inputs": [
        {
          "internalType": "address",
          "name": "donationActivity_key",
          "type": "address"
        }
      ],
      "name": "getDonationActivity",
      "outputs": [
        {
          "internalType": "address",
          "name": "_host",
          "type": "address"
        },
        {
          "internalType": "address",
          "name": "_authority",
          "type": "address"
        }
      ],
      "payable": false,
      "stateMutability": "view",
      "type": "function"
    },
    {
      "constant": true,
      "inputs": [],
      "name": "getDonationActivityList",
      "outputs": [
        {
          "internalType": "address[]",
          "name": "",
          "type": "address[]"
        }
      ],
      "payable": false,
      "stateMutability": "view",
      "type": "function"
    },
    {
      "constant": false,
      "inputs": [
        {
          "internalType": "bytes32",
          "name": "requestToCreateOrderFromDonationActivityCode",
          "type": "bytes32"
        },
        {
          "internalType": "address payable",
          "name": "_donationActivity",
          "type": "address"
        },
        {
          "internalType": "address payable",
          "name": "_retailer",
          "type": "address"
        },
        {
          "internalType": "string",
          "name": "_receiptURI",
          "type": "string"
        },
        {
          "internalType": "uint256",
          "name": "_totalAmount",
          "type": "uint256"
        }
      ],
      "name": "requestToCreateOrderFromDonationActivity",
      "outputs": [],
      "payable": false,
      "stateMutability": "nonpayable",
      "type": "function"
    },
    {
      "constant": false,
      "inputs": [
        {
          "internalType": "bytes32",
          "name": "requestToCreateOrderFromDonationActivityCode",
          "type": "bytes32"
        }
      ],
      "name": "newOrderFromDonationActivity",
      "outputs": [],
      "payable": false,
      "stateMutability": "nonpayable",
      "type": "function"
    },
    {
      "constant": false,
      "inputs": [
        {
          "internalType": "bytes32",
          "name": "requestToCreateOrderFromDonationActivityCode",
          "type": "bytes32"
        }
      ],
      "name": "cancelOrderFromDonationActivity",
      "outputs": [],
      "payable": false,
      "stateMutability": "nonpayable",
      "type": "function"
    },
    {
      "constant": true,
      "inputs": [
        {
          "internalType": "bytes32",
          "name": "requestToCreateOrderFromDonationActivityCode",
          "type": "bytes32"
        }
      ],
      "name": "getRequestToCreateOrderFromDonationActivity",
      "outputs": [
        {
          "internalType": "address",
          "name": "donationActivity",
          "type": "address"
        },
        {
          "internalType": "address payable",
          "name": "retailer",
          "type": "address"
        },
        {
          "internalType": "string",
          "name": "receiptURI",
          "type": "string"
        },
        {
          "internalType": "uint256",
          "name": "totalAmount",
          "type": "uint256"
        }
      ],
      "payable": false,
      "stateMutability": "view",
      "type": "function"
    },
    {
      "constant": true,
      "inputs": [],
      "name": "getRequestToCreateOrderFromDonationActivityList",
      "outputs": [
        {
          "internalType": "bytes32[]",
          "name": "",
          "type": "bytes32[]"
        }
      ],
      "payable": false,
      "stateMutability": "view",
      "type": "function"
    },
    {
      "constant": false,
      "inputs": [
        {
          "internalType": "bytes32",
          "name": "requestToCreateCashOutFromDonationActivityCode",
          "type": "bytes32"
        },
        {
          "internalType": "uint256",
          "name": "_amount",
          "type": "uint256"
        },
        {
          "internalType": "address payable",
          "name": "_donationActivity",
          "type": "address"
        }
      ],
      "name": "requestToCreateCashOutFromDonationActivity",
      "outputs": [],
      "payable": false,
      "stateMutability": "nonpayable",
      "type": "function"
    },
    {
      "constant": false,
      "inputs": [
        {
          "internalType": "bytes32",
          "name": "requestToCreateCashOutFromDonationActivityCode",
          "type": "bytes32"
        },
        {
          "internalType": "address payable",
          "name": "_donationActivity",
          "type": "address"
        }
      ],
      "name": "newCashOutFromDonationActivity",
      "outputs": [],
      "payable": false,
      "stateMutability": "nonpayable",
      "type": "function"
    },
    {
      "constant": false,
      "inputs": [
        {
          "internalType": "bytes32",
          "name": "requestToCreateCashOutFromDonationActivityCode",
          "type": "bytes32"
        }
      ],
      "name": "cancelCashOutFromDonationActivity",
      "outputs": [],
      "payable": false,
      "stateMutability": "nonpayable",
      "type": "function"
    },
    {
      "constant": true,
      "inputs": [
        {
          "internalType": "bytes32",
          "name": "requestToCreateCashOutFromDonationActivityCode",
          "type": "bytes32"
        }
      ],
      "name": "getRequestToCreateCashOutFromDonationActivity",
      "outputs": [
        {
          "internalType": "uint256",
          "name": "amount",
          "type": "uint256"
        }
      ],
      "payable": false,
      "stateMutability": "view",
      "type": "function"
    },
    {
      "constant": true,
      "inputs": [],
      "name": "getRequestToCreateCashOutFromDonationActivityList",
      "outputs": [
        {
          "internalType": "bytes32[]",
          "name": "",
          "type": "bytes32[]"
        }
      ],
      "payable": false,
      "stateMutability": "view",
      "type": "function"
    }
  ],
  "bytecode": "0x608060405234801561001057600080fd5b50604051613c2b380380613c2b8339818101604052606081101561003357600080fd5b508051602082015160409283015183516347952e3f60e11b8152935192939192909133918291638f2a5c7e916004808301926000929190829003018186803b15801561007e57600080fd5b505afa158015610092573d6000803e3d6000fd5b5050600080546001600160a01b039687166001600160a01b0319918216179091556002969096555050600180549290931691841691909117909155506003805490911633179055613b43806100e86000396000f3fe608060405260043610620001e25760003560e01c80638729a0e81162000103578063da6c0ba91162000097578063f437bc59116200006d578063f437bc5914620007b5578063f7779d4814620007cd578063f84038b114620007fb578063f851a440146200081357620001e2565b8063da6c0ba91462000757578063e91b6501146200076f578063eac1d7ac146200078757620001e2565b8063af1f668411620000d9578063af1f668414620005e6578063b59f80cd1462000614578063cdf0f14a1462000671578063d7bb99ba146200074d57620001e2565b80638729a0e81462000493578063937e09b114620004ec5780639e013968146200050457620001e2565b806340874ea4116200017b5780635effc5d511620001515780635effc5d5146200040757806366e0700614620004355780636e9960c3146200046357806374c4c604146200047b57620001e2565b806340874ea414620003725780634a6b419c146200038a57806352d209e714620003d957620001e2565b80631ff8885211620001bd5780631ff88852146200027f57806320bc442514620002bc5780632fbd685614620002f0578063315d4e67146200030857620001e2565b806312065fe014620001e45780631825a0be146200020e5780631e8e2808146200023c575b005b348015620001f157600080fd5b50620001fc6200082b565b60408051918252519081900360200190f35b3480156200021b57600080fd5b50620001e2600480360360208110156200023457600080fd5b503562000830565b3480156200024957600080fd5b50620001e2600480360360608110156200026257600080fd5b50803590602081013590604001356001600160a01b031662000905565b3480156200028c57600080fd5b50620001e260048036036040811015620002a557600080fd5b50803590602001356001600160a01b031662000b5b565b348015620002c957600080fd5b50620002d462000d12565b604080516001600160a01b039092168252519081900360200190f35b348015620002fd57600080fd5b50620002d462000d21565b3480156200031557600080fd5b506200032062000d30565b60408051602080825283518183015283519192839290830191858101910280838360005b838110156200035e57818101518382015260200162000344565b505050509050019250505060405180910390f35b3480156200037f57600080fd5b506200032062000d43565b3480156200039757600080fd5b50620001e260048036036080811015620003b057600080fd5b508035906001600160a01b03602082013581169160408101358216916060909101351662000d51565b348015620003e657600080fd5b50620001e260048036036020811015620003ff57600080fd5b503562000e8e565b3480156200041457600080fd5b50620001fc600480360360208110156200042d57600080fd5b503562000f76565b3480156200044257600080fd5b50620001e2600480360360208110156200045b57600080fd5b503562000fdb565b3480156200047057600080fd5b50620002d462001343565b3480156200048857600080fd5b506200032062001352565b348015620004a057600080fd5b50620004c160048036036020811015620004b957600080fd5b503562001360565b604080516001600160a01b039485168152928416602084015292168183015290519081900360600190f35b348015620004f957600080fd5b50620001fc620013bc565b3480156200051157600080fd5b5062000532600480360360208110156200052a57600080fd5b5035620013c2565b60405180856001600160a01b03166001600160a01b03168152602001846001600160a01b03166001600160a01b0316815260200180602001838152602001828103825284818151815260200191508051906020019080838360005b83811015620005a75781810151838201526020016200058d565b50505050905090810190601f168015620005d55780820380516001836020036101000a031916815260200191505b509550505050505060405180910390f35b348015620005f357600080fd5b50620001e2600480360360208110156200060c57600080fd5b50356200151e565b3480156200062157600080fd5b506200064b600480360360208110156200063a57600080fd5b50356001600160a01b031662001628565b604080516001600160a01b03938416815291909216602082015281519081900390910190f35b3480156200067e57600080fd5b50620001e2600480360360a08110156200069757600080fd5b8135916001600160a01b03602082013581169260408301359091169190810190608081016060820135640100000000811115620006d357600080fd5b820183602082011115620006e657600080fd5b803590602001918460018302840111640100000000831117156200070957600080fd5b91908080601f016020809104026020016040519081016040528093929190818152602001838380828437600092019190915250929550509135925062001775915050565b620001e262001a96565b3480156200076457600080fd5b50620002d462001aa7565b3480156200077c57600080fd5b506200032062001ab6565b3480156200079457600080fd5b50620001e260048036036020811015620007ad57600080fd5b503562001ac4565b348015620007c257600080fd5b50620002d462001b24565b348015620007da57600080fd5b50620001e260048036036020811015620007f357600080fd5b503562001b33565b3480156200080857600080fd5b50620001fc62001cfd565b3480156200082057600080fd5b50620002d462001d03565b475b90565b6000546001600160a01b03163314806200085457506001546001600160a01b031633145b620008915760405162461bcd60e51b8152600401808060200182810382526025815260200180620038846025913960400191505060405180910390fd5b620008a4600b8263ffffffff62001d1216565b620008e15760405162461bcd60e51b815260040180806020018281038252603b815260200180620037aa603b913960400191505060405180910390fd5b620008f4600b8263ffffffff62001d5e16565b6000908152600f6020526040812055565b6000546001600160a01b0316331462000954576040805162461bcd60e51b815260206004820152601c602482015260008051602062003a8f833981519152604482015290519081900360640190fd5b80836000829050806001600160a01b0316635c73b79e836040518263ffffffff1660e01b81526004018082815260200191505060206040518083038186803b158015620009a057600080fd5b505afa158015620009b5573d6000803e3d6000fd5b505050506040513d6020811015620009cc57600080fd5b505115156001141562000a26576040805162461bcd60e51b815260206004820152601a60248201527f43616e6e6f74206475706c6963617465207468697320636f6465000000000000604482015290519081900360640190fd5b6040805163447c795960e11b81523360048201529051859182916001600160a01b038316916388f8f2b2916024808301926020929190829003018186803b15801562000a7157600080fd5b505afa15801562000a86573d6000803e3d6000fd5b505050506040513d602081101562000a9d57600080fd5b505162000adc5760405162461bcd60e51b815260040180806020018281038252602a815260200180620039ed602a913960400191505060405180910390fd5b62000aef600b8963ffffffff62001d1216565b1562000b2d5760405162461bcd60e51b8152600401808060200182810382526041815260200180620037e56041913960600191505060405180910390fd5b6000888152600f6020526040902087905562000b51600b8963ffffffff62001e3316565b5050505050505050565b6000546001600160a01b0316331462000baa576040805162461bcd60e51b815260206004820152601c602482015260008051602062003a8f833981519152604482015290519081900360640190fd5b62000bbd600b8363ffffffff62001d1216565b62000bfa5760405162461bcd60e51b815260040180806020018281038252603b815260200180620037aa603b913960400191505060405180910390fd5b6000828152600f6020526040902054814782111562000c4b5760405162461bcd60e51b8152600401808060200182810382526023815260200180620038616023913960400191505060405180910390fd5b806001600160a01b0316632b140eda85846040518363ffffffff1660e01b81526004018083815260200182815260200192505050600060405180830381600087803b15801562000c9a57600080fd5b505af115801562000caf573d6000803e3d6000fd5b50506040516001600160a01b038616925084156108fc02915084906000818181858888f1935050505015801562000cea573d6000803e3d6000fd5b5062000cfe600b8563ffffffff62001d5e16565b5050506000908152600f6020526040812055565b6000546001600160a01b031690565b6003546001600160a01b031681565b606062000d3e600962001ee5565b905090565b606062000d3e600b62001ee5565b6000546001600160a01b0316331462000da0576040805162461bcd60e51b815260206004820152601c602482015260008051602062003a8f833981519152604482015290519081900360640190fd5b62000db360078563ffffffff62001d1216565b1562000df15760405162461bcd60e51b8152600401808060200182810382526034815260200180620039806034913960400191505060405180910390fd5b62000dfb620020e4565b50604080516060810182526001600160a01b038086168252848116602080840191825285831684860190815260008a8152600d909252949020835181549084166001600160a01b031991821617825591516001820180549185169184169190911790559351600290940180549490921693169290921790915562000e8760078663ffffffff62001e3316565b5050505050565b6000546001600160a01b0316331462000edd576040805162461bcd60e51b815260206004820152601c602482015260008051602062003a8f833981519152604482015290519081900360640190fd5b62000ef060078263ffffffff62001d1216565b62000f2d5760405162461bcd60e51b815260040180806020018281038252602a81526020018062003956602a913960400191505060405180910390fd5b62000f4060078263ffffffff62001d5e16565b6000908152600d6020526040902080546001600160a01b0319908116825560018201805482169055600290910180549091169055565b600062000f8b600b8363ffffffff62001d1216565b62000fc85760405162461bcd60e51b815260040180806020018281038252603b81526020018062003826603b913960400191505060405180910390fd5b506000908152600f602052604090205490565b6000546001600160a01b031633146200102a576040805162461bcd60e51b815260206004820152601c602482015260008051602062003a8f833981519152604482015290519081900360640190fd5b6200103d60098263ffffffff62001d1216565b6200107a5760405162461bcd60e51b815260040180806020018281038252603981526020018062003a176039913960400191505060405180910390fd5b6200108462002104565b6000828152600e6020908152604091829020825160808101845281546001600160a01b039081168252600180840154909116828501526002808401805487516101009482161594909402600019011691909104601f810186900486028301860187528083529295939493860193919290918301828280156200114a5780601f106200111e576101008083540402835291602001916200114a565b820191906000526020600020905b8154815290600101906020018083116200112c57829003601f168201915b5050505050815260200160038201548152505090506000816000015190504782606001511115620011ad5760405162461bcd60e51b8152600401808060200182810382526023815260200180620038616023913960400191505060405180910390fd5b806001600160a01b031663eb170761848460200151856040015186606001516040518563ffffffff1660e01b815260040180858152602001846001600160a01b03166001600160a01b0316815260200180602001838152602001828103825284818151815260200191508051906020019080838360005b838110156200123e57818101518382015260200162001224565b50505050905090810190601f1680156200126c5780820380516001836020036101000a031916815260200191505b5095505050505050600060405180830381600087803b1580156200128f57600080fd5b505af1158015620012a4573d6000803e3d6000fd5b5050835160608501516040516001600160a01b03909216935080156108fc029250906000818181858888f19350505050158015620012e6573d6000803e3d6000fd5b50620012fa60098463ffffffff62001d5e16565b6000838152600e6020526040812080546001600160a01b031990811682556001820180549091169055906200133360028301826200213e565b600382016000905550505b505050565b6001546001600160a01b031690565b606062000d3e600562001f43565b60008060006200136f620020e4565b505050600091825250600d6020908152604091829020825160608101845281546001600160a01b039081168083526001840154821694830185905260029093015416930183905292909190565b60025481565b600080606081620013db60098663ffffffff62001d1216565b620014185760405162461bcd60e51b8152600401808060200182810382526039815260200180620039b46039913960400191505060405180910390fd5b6200142262002104565b6000868152600e6020908152604091829020825160808101845281546001600160a01b039081168252600180840154909116828501526002808401805487516101009482161594909402600019011691909104601f81018690048602830186018752808352929593949386019391929091830182828015620014e85780601f10620014bc57610100808354040283529160200191620014e8565b820191906000526020600020905b815481529060010190602001808311620014ca57829003601f168201915b50505091835250506003919091015460209182015281519082015160408301516060909301519199909850919650945092505050565b6000546001600160a01b03163314806200154257506001546001600160a01b031633145b6200157f5760405162461bcd60e51b8152600401808060200182810382526025815260200180620038846025913960400191505060405180910390fd5b6200159260098263ffffffff62001d1216565b620015cf5760405162461bcd60e51b815260040180806020018281038252603981526020018062003a176039913960400191505060405180910390fd5b620015e260098263ffffffff62001d5e16565b6000818152600e6020526040812080546001600160a01b031990811682556001820180549091169055906200161b60028301826200213e565b6003820160009055505050565b6000806200163e60058463ffffffff62001faa16565b6200167b5760405162461bcd60e51b815260040180806020018281038252603081526020018062003adf6030913960400191505060405180910390fd5b6001600160a01b038084166000908152600460208181526040928390205483516320bc442560e01b8152935194169384936320bc442593818101939291829003018186803b158015620016cd57600080fd5b505afa158015620016e2573d6000803e3d6000fd5b505050506040513d6020811015620016f957600080fd5b5051604080516307158bc560e51b815290516001600160a01b0384169163e2b178a0916004808301926020929190829003018186803b1580156200173c57600080fd5b505afa15801562001751573d6000803e3d6000fd5b505050506040513d60208110156200176857600080fd5b5051909350915050915091565b6000546001600160a01b03163314620017c4576040805162461bcd60e51b815260206004820152601c602482015260008051602062003a8f833981519152604482015290519081900360640190fd5b83856000829050806001600160a01b031663cb1e6758836040518263ffffffff1660e01b81526004018082815260200191505060206040518083038186803b1580156200181057600080fd5b505afa15801562001825573d6000803e3d6000fd5b505050506040513d60208110156200183c57600080fd5b505115156001141562001896576040805162461bcd60e51b815260206004820152601a60248201527f43616e6e6f74206475706c6963617465207468697320636f6465000000000000604482015290519081900360640190fd5b6040805163447c795960e11b81523360048201529051889182916001600160a01b038316916388f8f2b2916024808301926020929190829003018186803b158015620018e157600080fd5b505afa158015620018f6573d6000803e3d6000fd5b505050506040513d60208110156200190d57600080fd5b50516200194c5760405162461bcd60e51b815260040180806020018281038252602a815260200180620039ed602a913960400191505060405180910390fd5b6200195f60098b63ffffffff62001d1216565b156200199d5760405162461bcd60e51b815260040180806020018281038252603f81526020018062003a50603f913960400191505060405180910390fd5b620019a762002104565b60405180608001604052808b6001600160a01b031681526020018a6001600160a01b0316815260200189815260200188815250905080600e60008d815260200190815260200160002060008201518160000160006101000a8154816001600160a01b0302191690836001600160a01b0316021790555060208201518160010160006101000a8154816001600160a01b0302191690836001600160a01b03160217905550604082015181600201908051906020019062001a6892919062002189565b506060919091015160039091015562001a8960098c63ffffffff62001e3316565b5050505050505050505050565b600254341162001aa557600080fd5b565b6003546001600160a01b031690565b606062000d3e600762001ee5565b6001546001600160a01b0316331462000edd576040805162461bcd60e51b815260206004820152601d60248201527f596f75206d7573742062652061646d696e20746f20657865637574652e000000604482015290519081900360640190fd5b6000546001600160a01b031681565b6000546001600160a01b0316331462001b82576040805162461bcd60e51b815260206004820152601c602482015260008051602062003a8f833981519152604482015290519081900360640190fd5b62001b9560078263ffffffff62001d1216565b62001bd25760405162461bcd60e51b815260040180806020018281038252603081526020018062003aaf6030913960400191505060405180910390fd5b62001bdc620020e4565b506000818152600d60209081526040808320815160608101835281546001600160a01b039081168083526001840154821695830186905260029093015416818401819052925190949391929062001c33906200220e565b6001600160a01b03938416815291831660208301529091166040808301919091525190819003606001906000f08015801562001c73573d6000803e3d6000fd5b506001600160a01b038116600081815260046020526040902080546001600160a01b0319169091179055905062001cb260058263ffffffff6200200816565b62001cc560078463ffffffff62001d5e16565b50506000908152600d6020526040902080546001600160a01b0319908116825560018201805482169055600290910180549091169055565b60025490565b6001546001600160a01b031681565b600182015460009062001d285750600062001d58565b600082815260208490526040902054600184018054849290811062001d4957fe5b90600052602060002001541490505b92915050565b62001d6a828262001d12565b62001da75760405162461bcd60e51b8152600401808060200182810382526035815260200180620038ec6035913960400191505060405180910390fd5b600082600101600162001dba85620020dd565b038154811062001dc657fe5b600091825260208083209091015484835290859052604080832054828452922082905560018501805491935083918390811062001dff57fe5b60009182526020808320909101929092558481529085905260408120556001840180549062000e879060001983016200221c565b8062001e715760405162461bcd60e51b8152600401808060200182810382526028815260200180620037826028913960400191505060405180910390fd5b62001e7d828262001d12565b1562001ebb5760405162461bcd60e51b8152600401808060200182810382526035815260200180620039216035913960400191505060405180910390fd5b60018281018054918201815560009081526020808220830184905592815292909152604090912055565b60608160010180548060200260200160405190810160405280929190818152602001828054801562001f3757602002820191906000526020600020905b81548152602001906001019080831162001f22575b50505050509050919050565b60608160010180548060200260200160405190810160405280929190818152602001828054801562001f3757602002820191906000526020600020905b81546001600160a01b0316815260019091019060200180831162001f805750505050509050919050565b600182015460009062001fc05750600062001d58565b6001600160a01b038216600081815260208590526040902054600185018054909190811062001feb57fe5b6000918252602090912001546001600160a01b0316149392505050565b6001600160a01b0381166200204f5760405162461bcd60e51b8152600401808060200182810382526028815260200180620037826028913960400191505060405180910390fd5b6200205b828262001faa565b15620020995760405162461bcd60e51b8152600401808060200182810382526043815260200180620038a96043913960600191505060405180910390fd5b60018281018054918201815560009081526020808220830180546001600160a01b039095166001600160a01b03199095168517905592815292909152604090912055565b6001015490565b604080516060810182526000808252602082018190529181019190915290565b604051806080016040528060006001600160a01b0316815260200160006001600160a01b0316815260200160608152602001600081525090565b50805460018160011615610100020316600290046000825580601f1062002166575062002186565b601f0160209004906000526020600020908101906200218691906200223e565b50565b828054600181600116156101000203166002900490600052602060002090601f016020900481019282601f10620021cc57805160ff1916838001178555620021fc565b82800160010185558215620021fc579182015b82811115620021fc578251825591602001919060010190620021df565b506200220a9291506200223e565b5090565b611526806200225c83390190565b8154818355818111156200133e576000838152602090206200133e9181019083015b6200082d91905b808211156200220a57600081556001016200224556fe608060405234801561001057600080fd5b5060405162001526380380620015268339818101604052606081101561003557600080fd5b508051602080830151604093840151845163da6c0ba960e01b815294519394919390923392839263da6c0ba992600480840193919291829003018186803b15801561007f57600080fd5b505afa158015610093573d6000803e3d6000fd5b505050506040513d60208110156100a957600080fd5b5051600280546001600160a01b0319166001600160a01b03928316179055604080516001621b9ac960e11b03198152868316600482015290518492879284929183169163ffc8ca6e91602480820192602092909190829003018186803b15801561011257600080fd5b505afa158015610126573d6000803e3d6000fd5b505050506040513d602081101561013c57600080fd5b5051610183576040805162461bcd60e51b81526020600482015260116024820152702cb7ba9030b932903737ba103437b9ba1760791b604482015290519081900360640190fd5b84866000829050806001600160a01b0316632330f247836040518263ffffffff1660e01b815260040180826001600160a01b03166001600160a01b0316815260200191505060206040518083038186803b1580156101e057600080fd5b505afa1580156101f4573d6000803e3d6000fd5b505050506040513d602081101561020a57600080fd5b505161025d576040805162461bcd60e51b815260206004820152601660248201527f596f7520617265206e6f7420617574686f726974792e00000000000000000000604482015290519081900360640190fd5b5050600080546001600160a01b03998a166001600160a01b031991821617909155600180549890991697169690961790965550505050505061128180620002a56000396000f3fe60806040526004361061011f5760003560e01c806360d93d78116100a0578063bf7e214f11610064578063bf7e214f146104a3578063cb1e6758146104b8578063e2b178a0146104e2578063eb170761146104f7578063f437bc59146105c15761011f565b806360d93d78146103255780637489ec231461033a57806388f8f2b21461036457806399f4e5ea14610397578063a6f0b2af146103c15761011f565b80632fbd6856116100e75780632fbd68561461023b57806331634eed146102505780633ff2550b1461027a57806358fa468b146102bd5780635c73b79e146102e75761011f565b806303a2775314610121578063163dd8bb1461014b57806320bc4425146101b05780632b140eda146101e15780632d692e3a14610211575b005b34801561012d57600080fd5b5061011f6004803603602081101561014457600080fd5b50356105d6565b34801561015757600080fd5b506101606106d3565b60408051602080825283518183015283519192839290830191858101910280838360005b8381101561019c578181015183820152602001610184565b505050509050019250505060405180910390f35b3480156101bc57600080fd5b506101c56106e5565b604080516001600160a01b039092168252519081900360200190f35b3480156101ed57600080fd5b5061011f6004803603604081101561020457600080fd5b50803590602001356106f4565b34801561021d57600080fd5b5061011f6004803603602081101561023457600080fd5b50356107d3565b34801561024757600080fd5b506101c5610850565b34801561025c57600080fd5b5061011f6004803603602081101561027357600080fd5b503561085f565b34801561028657600080fd5b506102a46004803603602081101561029d57600080fd5b503561091c565b6040805192835290151560208301528051918290030190f35b3480156102c957600080fd5b5061011f600480360360208110156102e057600080fd5b503561095e565b3480156102f357600080fd5b506103116004803603602081101561030a57600080fd5b503561098d565b604080519115158252519081900360200190f35b34801561033157600080fd5b506101606109b5565b34801561034657600080fd5b5061011f6004803603602081101561035d57600080fd5b50356109c1565b34801561037057600080fd5b506103116004803603602081101561038757600080fd5b50356001600160a01b0316610a06565b3480156103a357600080fd5b5061011f600480360360208110156103ba57600080fd5b5035610a2d565b3480156103cd57600080fd5b506103eb600480360360208110156103e457600080fd5b5035610b13565b6040518086815260200180602001856001600160a01b03166001600160a01b0316815260200184600281111561041d57fe5b60ff16815260200183151515158152602001828103825286818151815260200191508051906020019080838360005b8381101561046457818101518382015260200161044c565b50505050905090810190601f1680156104915780820380516001836020036101000a031916815260200191505b50965050505050505060405180910390f35b3480156104af57600080fd5b506101c5610c6a565b3480156104c457600080fd5b50610311600480360360208110156104db57600080fd5b5035610c79565b3480156104ee57600080fd5b506101c5610c8c565b34801561050357600080fd5b5061011f6004803603608081101561051a57600080fd5b8135916001600160a01b036020820135169181019060608101604082013564010000000081111561054a57600080fd5b82018360208201111561055c57600080fd5b8035906020019184600183028401116401000000008311171561057e57600080fd5b91908080601f0160208091040260200160405190810160405280939291908181526020018383808284376000920191909152509295505091359250610c9b915050565b3480156105cd57600080fd5b506101c5610e28565b6001546001600160a01b0316331461062f576040805162461bcd60e51b8152602060048201526017602482015276596f7520617265206e6f7420417574686f72697479202160481b604482015290519081900360640190fd5b60008181526005602052604090206002808201805460ff60a81b1916600160a81b1790555b600282810154600160a01b900460ff169081111561066e57fe5b14801561068b57506002810154600160a81b900460ff1615156001145b156106cf57600281015481546040516001600160a01b039092169181156108fc0291906000818181858888f193505050501580156106cd573d6000803e3d6000fd5b505b5050565b60606106df6003610e37565b90505b90565b6000546001600160a01b031690565b6000339050806001600160a01b031663da6c0ba96040518163ffffffff1660e01b815260040160206040518083038186803b15801561073257600080fd5b505afa158015610746573d6000803e3d6000fd5b505050506040513d602081101561075c57600080fd5b5051600280546001600160a01b0319166001600160a01b03909216919091179055610785611061565b506040805180820182528381526000602080830182815287835260089091529290208151815591516001909201805460ff1916921515929092179091556107cd600685610e93565b50505050565b6000546001600160a01b03163314610827576040805162461bcd60e51b8152602060048201526012602482015271596f7520617265206e6f7420486f7374202160701b604482015290519081900360640190fd5b60008181526005602052604090206002808201805460ff60a01b1916600160a11b179055610654565b6002546001600160a01b031681565b6001546001600160a01b031633146108b8576040805162461bcd60e51b8152602060048201526017602482015276596f7520617265206e6f7420417574686f72697479202160481b604482015290519081900360640190fd5b60008181526008602052604090206001808201805460ff191682179081905560ff16151514156106cf576000805482546040516001600160a01b039092169281156108fc029290818181858888f193505050501580156106cd573d6000803e3d6000fd5b600080610927611061565b5050506000908152600860209081526040918290208251808401909352805480845260019091015460ff1615159290910182905291565b61096f60068263ffffffff610f3f16565b6000908152600860205260408120908155600101805460ff19169055565b60006109a060068363ffffffff61101116565b6109ac575060006109b0565b5060015b919050565b60606106df6006610e37565b6109d260038263ffffffff610f3f16565b6000818152600560205260408120818155906109f16001830182611078565b5060020180546001600160b01b031916905550565b600080546001600160a01b0383811691161415610a25575060016109b0565b5060006109b0565b60025460408051630bb4137160e31b815233600482015290516001600160a01b03909216918291635da09b88916024808301926020929190829003018186803b158015610a7957600080fd5b505afa158015610a8d573d6000803e3d6000fd5b505050506040513d6020811015610aa357600080fd5b5051610aee576040805162461bcd60e51b81526020600482015260156024820152742cb7ba9030b932903737ba103932ba30b4b632b91760591b604482015290519081900360640190fd5b506000908152600560205260409020600201805460ff60a01b1916600160a01b179055565b600060606000806000610b246110bf565b600560008881526020019081526020016000206040518060a001604052908160008201548152602001600182018054600181600116156101000203166002900480601f016020809104026020016040519081016040528092919081815260200182805460018160011615610100020316600290048015610be55780601f10610bba57610100808354040283529160200191610be5565b820191906000526020600020905b815481529060010190602001808311610bc857829003601f168201915b50505091835250506002828101546001600160a01b0381166020840152604090920191600160a01b900460ff1690811115610c1c57fe5b6002811115610c2757fe5b815260029190910154600160a81b900460ff16151560209182015281519082015160408301516060840151608090940151929b919a509850919650945092505050565b6001546001600160a01b031681565b60006109a060038363ffffffff61101116565b6001546001600160a01b031690565b6000339050806001600160a01b031663da6c0ba96040518163ffffffff1660e01b815260040160206040518083038186803b158015610cd957600080fd5b505afa158015610ced573d6000803e3d6000fd5b505050506040513d6020811015610d0357600080fd5b5051600280546001600160a01b0319166001600160a01b03909216919091179055610d2c6110bf565b6040518060a00160405280848152602001858152602001866001600160a01b0316815260200160006002811115610d5f57fe5b81526000602091820181905288815260058252604090208251815582820151805193945084939192610d9992600185019290910190611102565b506040820151600282810180546001600160a01b0319166001600160a01b03909316929092178083556060850151929160ff60a01b1990911690600160a01b908490811115610de457fe5b02179055506080919091015160029091018054911515600160a81b0260ff60a81b19909216919091179055610e2060038763ffffffff610e9316565b505050505050565b6000546001600160a01b031681565b606081600101805480602002602001604051908101604052809291908181526020018280548015610e8757602002820191906000526020600020905b815481526020019060010190808311610e73575b50505050509050919050565b80610ecf5760405162461bcd60e51b81526004018080602001828103825260288152602001806111bb6028913960400191505060405180910390fd5b610ed98282611011565b15610f155760405162461bcd60e51b81526004018080602001828103825260358152602001806112186035913960400191505060405180910390fd5b60018281018054918201815560009081526020808220830184905592815292909152604090912055565b610f498282611011565b610f845760405162461bcd60e51b81526004018080602001828103825260358152602001806111e36035913960400191505060405180910390fd5b6000826001016001610f958561105a565b0381548110610fa057fe5b6000918252602080832090910154848352908590526040808320548284529220829055600185018054919350839183908110610fd857fe5b60009182526020808320909101929092558481529085905260408120556001840180549061100a906000198301611180565b5050505050565b600182015460009061102557506000611054565b600082815260208490526040902054600184018054849290811061104557fe5b90600052602060002001541490505b92915050565b6001015490565b604080518082019091526000808252602082015290565b50805460018160011615610100020316600290046000825580601f1061109e57506110bc565b601f0160209004906000526020600020908101906110bc91906111a0565b50565b6040518060a00160405280600081526020016060815260200160006001600160a01b03168152602001600060028111156110f557fe5b8152600060209091015290565b828054600181600116156101000203166002900490600052602060002090601f016020900481019282601f1061114357805160ff1916838001178555611170565b82800160010185558215611170579182015b82811115611170578251825591602001919060010190611155565b5061117c9291506111a0565b5090565b8154818355818111156106cd576000838152602090206106cd9181019083015b6106e291905b8082111561117c57600081556001016111a656fe556e6f7264657265644b65795365742831303029202d204b65792063616e6e6f7420626520307830556e6f7264657265644b65795365742831303229202d204b657920646f6573206e6f7420657869737420696e20746865207365742e556e6f7264657265644b65795365742831303129202d204b657920616c72656164792065786973747320696e20746865207365742ea265627a7a723158209a41db0383786e8c6618dcd5358d0f4be1c3b92ac4709a21e009883ab1ed78cf64736f6c63430005100032556e6f7264657265644b65795365742831303029202d204b65792063616e6e6f742062652030783072657175657374546f437265617465436173684f757446726f6d446f6e6174696f6e4163746976697479436f6465206973206e6f742076616c696472657175657374546f437265617465436173684f757446726f6d446f6e6174696f6e4163746976697479436f646520494420616c7265616479206578697374732e52657175657374546f437265617465436173684f757446726f6d446f6e6174696f6e4163746976697479436f6465206973206e6f742076616c6964446f6e2774204861766520456e6f756768204d6f6e657920496e2043616d706169676e596f75206d75737420626520686f7374206f722061646d696e20746f20657865637574652e556e6f726465726564416464726573735365742831303129202d204164647265737320286b65792920616c72656164792065786973747320696e20746865207365742e556e6f7264657265644b65795365742831303229202d204b657920646f6573206e6f7420657869737420696e20746865207365742e556e6f7264657265644b65795365742831303129202d204b657920616c72656164792065786973747320696e20746865207365742e496e76616c69642072657175657374546f437265617465446f6e6174696f6e416374697669747920494452657175657374437265617465446f6e6174696f6e4163746976697479436f646520494420616c7265616479206578697374732e52657175657374546f4372656174654f7264657246726f6d446f6e6174696f6e4163746976697479436f6465206973206e6f742076616c6964596f7520617265206e6f7420686f7374206f66207468697320646f6e6174696f6e20616374697669747972657175657374546f4372656174654f7264657246726f6d446f6e6174696f6e4163746976697479436f6465206973206e6f742076616c696472657175657374546f4372656174654f7264657246726f6d446f6e6174696f6e4163746976697479436f646520494420616c7265616479206578697374732e596f75206d75737420626520686f737420746f20657865637574652e0000000072657175657374546f437265617465446f6e6174696f6e4163746976697479436f6465206973206e6f742076616c696443616e277420676574206120446f6e6174696f6e4163746976697479207468617420646f65736e27742065786973742ea265627a7a72315820c9b472dcdde8907cd2870068b21929bf02a21b0648f96efd6220955362d6e37064736f6c63430005100032",
  "source": "pragma solidity 0.5.16;\r\n\r\nimport \"./HitchensUnorderedAddressSet.sol\";\r\nimport \"./HitchensUnorderedKeySet.sol\";\r\nimport \"./CampaignFactory.sol\";\r\nimport \"./DonationActivity.sol\";\r\n\r\ncontract Campaign{\r\n    \r\n    struct RequestToCreateDonationActivity {\r\n        address payable host;\r\n        address authority;\r\n        address campaignFactory;\r\n    }\r\n\r\n    struct RequestToCreateOrderFromDonationActivity {\r\n        address payable donationActivity;\r\n        address payable retailer;\r\n        string receiptURI;\r\n        uint256 totalAmount;\r\n    }\r\n    \r\n    address payable public host;\r\n    address public admin;\r\n    uint public minimumContribution;\r\n    address public campaignFactory;\r\n    mapping(address => DonationActivity) donationActivities;\r\n    // address[] public contributers;\r\n    \r\n    using HitchensUnorderedAddressSetLib for HitchensUnorderedAddressSetLib.Set;\r\n    using HitchensUnorderedKeySetLib for HitchensUnorderedKeySetLib.Set;\r\n    HitchensUnorderedAddressSetLib.Set donationActivitySet;\r\n    HitchensUnorderedKeySetLib.Set requestToCreateDonationActivitySet;\r\n    HitchensUnorderedKeySetLib.Set requestToCreateOrderFromDonationActivitySet;\r\n    HitchensUnorderedKeySetLib.Set requestToCreateCashOutFromDonationActivitySet;\r\n\r\n    mapping(bytes32 => RequestToCreateDonationActivity) requestsToCreateDonationActivity;\r\n    mapping(bytes32 => RequestToCreateOrderFromDonationActivity) requestsToCreateOrderFromDonationActivity;\r\n    mapping(bytes32 => uint256) requestsToCreateCashOutFromDonationActivity;\r\n    constructor (uint _minimum, address payable _host, address _initialAdmin) public originFromCampaignFactory{\r\n        host = _host;\r\n        minimumContribution = _minimum;\r\n        admin = _initialAdmin;\r\n        campaignFactory = msg.sender;\r\n    }\r\n\r\n    function modifierFromCampaign() public view returns(address _campaignFactory){\r\n        return campaignFactory;\r\n    }\r\n\r\n    modifier originFromCampaignFactory() {\r\n        CampaignFactory _cf = CampaignFactory(msg.sender);\r\n        _cf.modifierFromCampaignFactory();\r\n        _;\r\n    }\r\n\r\n    modifier onlyHost() {\r\n        require(msg.sender== host, \"You must be host to execute.\");\r\n        _;\r\n    }\r\n    modifier onlyAdmin() {\r\n        require(msg.sender == admin ,\"You must be admin to execute.\");\r\n        _;\r\n    }\r\n    modifier onlyHostOrAdmin() {\r\n        require(((msg.sender == host) || (msg.sender== admin)), \"You must be host or admin to execute.\");\r\n        _;\r\n    }\r\n    \r\n    function contribute() public payable {\r\n        require(msg.value > minimumContribution);\r\n        \r\n    }\r\n\r\n    //getter\r\n    function getHost() public view returns(address) { return host; }\r\n    function getAdmin() public view returns(address) { return admin; }\r\n\r\n    function getMinimumContribution() public view returns(uint) { return minimumContribution; }\r\n    \r\n    function getBalance() public view returns(uint256) {return address(this).balance; }\r\n    function () external payable{\r\n        \r\n    }\r\n    //REQUEST TO CREATE DONATION ACTIVITY CRUD \r\n    function requestToCreateDonationActivity(bytes32 requestCreateDonationActivityCode,address payable _host, address _authority, address _campaignFactory) onlyHost public{\r\n        require(!requestToCreateDonationActivitySet.exists(requestCreateDonationActivityCode), \"RequestCreateDonationActivityCode ID already exists.\");\r\n        RequestToCreateDonationActivity memory re = RequestToCreateDonationActivity(_host, _authority, _campaignFactory);\r\n        requestsToCreateDonationActivity[requestCreateDonationActivityCode] = re;\r\n        requestToCreateDonationActivitySet.insert(requestCreateDonationActivityCode);\r\n    }\r\n    \r\n    function getRequestToCreateDonationActivityList() public view returns(bytes32[] memory){\r\n        return requestToCreateDonationActivitySet.listKey();\r\n    }\r\n    \r\n    function getRequestToCreateDonationActivityListAtKey(bytes32 key) public view returns(address _host, address _authority, address _campaignFactory) {\r\n        RequestToCreateDonationActivity memory re = requestsToCreateDonationActivity[key];\r\n        return (re.host, re.authority,re.campaignFactory);\r\n    }\r\n\r\n    function cancelOpenCampaignRequest(bytes32 requestToCreateDonationActivityCode) onlyHost public {\r\n        require(requestToCreateDonationActivitySet.exists(requestToCreateDonationActivityCode), \"Invalid requestToCreateDonationActivity ID\");\r\n        requestToCreateDonationActivitySet.remove(requestToCreateDonationActivityCode);\r\n        delete requestsToCreateDonationActivity[requestToCreateDonationActivityCode];\r\n    }\r\n\r\n    function rejectOpenCampaignRequest(bytes32 requestToCreateDonationActivityCode) onlyAdmin public {\r\n        require(requestToCreateDonationActivitySet.exists(requestToCreateDonationActivityCode), \"Invalid requestToCreateDonationActivity ID\");\r\n        requestToCreateDonationActivitySet.remove(requestToCreateDonationActivityCode);\r\n        delete requestsToCreateDonationActivity[requestToCreateDonationActivityCode];\r\n    }\r\n\r\n    function newDonationActivity(bytes32 requestToCreateDonationActivityCode) public onlyHost{\r\n         // Note that this will fail automatically if the key already exists.\r\n        // require(validatedHostSet.exists(host), \"Host is not validated.\r\n        require(requestToCreateDonationActivitySet.exists(requestToCreateDonationActivityCode), \"requestToCreateDonationActivityCode is not valid\");\r\n        \r\n        RequestToCreateDonationActivity memory re = requestsToCreateDonationActivity[requestToCreateDonationActivityCode];\r\n        \r\n        DonationActivity w = new DonationActivity(re.host, re.authority,re.campaignFactory);\r\n    \r\n        donationActivities[address(w)] = w ;\r\n        donationActivitySet.insert(address(w));\r\n        \r\n        requestToCreateDonationActivitySet.remove(requestToCreateDonationActivityCode);\r\n        delete requestsToCreateDonationActivity[requestToCreateDonationActivityCode];\r\n        // emit LogNewDonationActivity(address(w),tx.origin,re.requestHost,re.minimumContribution);\r\n    }\r\n\r\n    function getDonationActivity(address donationActivity_key) public view returns(address _host, address _authority) {\r\n        require(donationActivitySet.exists(donationActivity_key), \"Can't get a DonationActivity that doesn't exist.\");\r\n        DonationActivity w = donationActivities[donationActivity_key];\r\n        return (w.getHost(), w.getAuthority());\r\n    }\r\n    \r\n    function getDonationActivityList() public view returns(address[] memory){\r\n        return donationActivitySet.listKey();\r\n    }\r\n\r\n    //ORDER OF DONATION ACTIVITY CRUD\r\n    modifier requestToCreateOrderFromDonationActivityCodeExist(address payable _donationActivity,bytes32 _requestToCreateOrderFromDonationActivityCode) {\r\n        DonationActivity w = DonationActivity(_donationActivity);\r\n        if( w.orderCodeExist(_requestToCreateOrderFromDonationActivityCode) == true){\r\n            revert(\"Cannot duplicate this code\");\r\n        }\r\n        _;\r\n    }\r\n\r\n    modifier checkHostDonationActivity(address payable _donationActivity) {\r\n        DonationActivity w = DonationActivity(_donationActivity);\r\n        if(w.isDonationActivityHost(msg.sender) == false){\r\n            revert(\"You are not host of this donation activity\");\r\n        }\r\n        _;\r\n    }\r\n    \r\n    function requestToCreateOrderFromDonationActivity(bytes32 requestToCreateOrderFromDonationActivityCode,address payable _donationActivity,address payable _retailer, string memory _receiptURI, uint256 _totalAmount) onlyHost requestToCreateOrderFromDonationActivityCodeExist(_donationActivity,requestToCreateOrderFromDonationActivityCode) checkHostDonationActivity(_donationActivity) public{\r\n        require(!requestToCreateOrderFromDonationActivitySet.exists(requestToCreateOrderFromDonationActivityCode), \"requestToCreateOrderFromDonationActivityCode ID already exists.\");\r\n        RequestToCreateOrderFromDonationActivity memory re = RequestToCreateOrderFromDonationActivity(_donationActivity,_retailer, _receiptURI, _totalAmount);\r\n        requestsToCreateOrderFromDonationActivity[requestToCreateOrderFromDonationActivityCode] = re;\r\n        requestToCreateOrderFromDonationActivitySet.insert(requestToCreateOrderFromDonationActivityCode);\r\n    }\r\n\r\n    function newOrderFromDonationActivity(bytes32 requestToCreateOrderFromDonationActivityCode) public onlyHost{\r\n\r\n        require(requestToCreateOrderFromDonationActivitySet.exists(requestToCreateOrderFromDonationActivityCode), \"requestToCreateOrderFromDonationActivityCode is not valid\");\r\n        \r\n        RequestToCreateOrderFromDonationActivity memory re = requestsToCreateOrderFromDonationActivity[requestToCreateOrderFromDonationActivityCode];\r\n        \r\n        DonationActivity w = DonationActivity(re.donationActivity);\r\n        if(re.totalAmount > address(this).balance){\r\n            revert(\"Don't Have Enough Money In Campaign\");\r\n        } else {\r\n            w.addOrder(requestToCreateOrderFromDonationActivityCode, re.retailer, re.receiptURI, re.totalAmount);\r\n            address(re.donationActivity).transfer(re.totalAmount);\r\n            \r\n            requestToCreateOrderFromDonationActivitySet.remove(requestToCreateOrderFromDonationActivityCode);\r\n            delete requestsToCreateOrderFromDonationActivity[requestToCreateOrderFromDonationActivityCode];\r\n        }\r\n\r\n    }\r\n\r\n    function cancelOrderFromDonationActivity(bytes32 requestToCreateOrderFromDonationActivityCode) public onlyHostOrAdmin{\r\n        require(requestToCreateOrderFromDonationActivitySet.exists(requestToCreateOrderFromDonationActivityCode), \"requestToCreateOrderFromDonationActivityCode is not valid\");\r\n        requestToCreateOrderFromDonationActivitySet.remove(requestToCreateOrderFromDonationActivityCode);\r\n        delete requestsToCreateOrderFromDonationActivity[requestToCreateOrderFromDonationActivityCode];\r\n    }\r\n\r\n    function getRequestToCreateOrderFromDonationActivity(bytes32 requestToCreateOrderFromDonationActivityCode) public view returns(address donationActivity,address payable retailer,string memory receiptURI,uint256 totalAmount) {\r\n        require(requestToCreateOrderFromDonationActivitySet.exists(requestToCreateOrderFromDonationActivityCode), \"RequestToCreateOrderFromDonationActivityCode is not valid\");\r\n        RequestToCreateOrderFromDonationActivity memory w = requestsToCreateOrderFromDonationActivity[requestToCreateOrderFromDonationActivityCode];\r\n        return (w.donationActivity,w.retailer,w.receiptURI,w.totalAmount);\r\n    }\r\n    \r\n    function getRequestToCreateOrderFromDonationActivityList() public view returns(bytes32[] memory){\r\n        return requestToCreateOrderFromDonationActivitySet.listKey();\r\n    }\r\n\r\n    //CASH OUT OF DONATION ACTIVITY CRUD\r\n    modifier requestToCreateCashOutFromDonationActivityCodeExist(address payable _donationActivity,bytes32 _requestToCreateCashOutFromDonationActivityCode) {\r\n        DonationActivity w = DonationActivity(_donationActivity);\r\n        if( w.cashOutCodeExist(_requestToCreateCashOutFromDonationActivityCode) == true){\r\n            revert(\"Cannot duplicate this code\");\r\n        }\r\n        _;\r\n    }\r\n    \r\n    function requestToCreateCashOutFromDonationActivity(bytes32 requestToCreateCashOutFromDonationActivityCode,uint256 _amount, address payable _donationActivity) onlyHost requestToCreateCashOutFromDonationActivityCodeExist(_donationActivity,requestToCreateCashOutFromDonationActivityCode) checkHostDonationActivity(_donationActivity) public{\r\n        require(!requestToCreateCashOutFromDonationActivitySet.exists(requestToCreateCashOutFromDonationActivityCode), \"requestToCreateCashOutFromDonationActivityCode ID already exists.\");\r\n        requestsToCreateCashOutFromDonationActivity[requestToCreateCashOutFromDonationActivityCode] = _amount;\r\n        requestToCreateCashOutFromDonationActivitySet.insert(requestToCreateCashOutFromDonationActivityCode);\r\n    }\r\n\r\n    function newCashOutFromDonationActivity(bytes32 requestToCreateCashOutFromDonationActivityCode, address payable _donationActivity) public onlyHost{\r\n\r\n        require(requestToCreateCashOutFromDonationActivitySet.exists(requestToCreateCashOutFromDonationActivityCode), \"requestToCreateCashOutFromDonationActivityCode is not valid\");\r\n        \r\n        uint256 amount = requestsToCreateCashOutFromDonationActivity[requestToCreateCashOutFromDonationActivityCode];\r\n        \r\n        DonationActivity w = DonationActivity(_donationActivity);\r\n        if(amount > address(this).balance){\r\n            revert(\"Don't Have Enough Money In Campaign\");\r\n        } else {\r\n            w.addCashOut(requestToCreateCashOutFromDonationActivityCode, amount);\r\n            address(_donationActivity).transfer(amount);\r\n            \r\n            requestToCreateCashOutFromDonationActivitySet.remove(requestToCreateCashOutFromDonationActivityCode);\r\n            delete requestsToCreateCashOutFromDonationActivity[requestToCreateCashOutFromDonationActivityCode];\r\n        }\r\n\r\n    }\r\n    function cancelCashOutFromDonationActivity(bytes32 requestToCreateCashOutFromDonationActivityCode) public onlyHostOrAdmin{\r\n \r\n        require(requestToCreateCashOutFromDonationActivitySet.exists(requestToCreateCashOutFromDonationActivityCode), \"requestToCreateCashOutFromDonationActivityCode is not valid\");\r\n        \r\n        requestToCreateCashOutFromDonationActivitySet.remove(requestToCreateCashOutFromDonationActivityCode);\r\n        delete requestsToCreateCashOutFromDonationActivity[requestToCreateCashOutFromDonationActivityCode];\r\n    }\r\n\r\n    function getRequestToCreateCashOutFromDonationActivity(bytes32 requestToCreateCashOutFromDonationActivityCode) public view returns(uint256 amount) {\r\n        require(requestToCreateCashOutFromDonationActivitySet.exists(requestToCreateCashOutFromDonationActivityCode), \"RequestToCreateCashOutFromDonationActivityCode is not valid\");\r\n        uint _amount = requestsToCreateCashOutFromDonationActivity[requestToCreateCashOutFromDonationActivityCode];\r\n        return (_amount);\r\n    }\r\n    \r\n    function getRequestToCreateCashOutFromDonationActivityList() public view returns(bytes32[] memory){\r\n        return requestToCreateCashOutFromDonationActivitySet.listKey();\r\n    }\r\n    \r\n}",
  "sourcePath": "D:\\UNI\\D n\\Main Project\\blockchain_charity_repo\\Truffle_Test\\contracts\\Campaign.sol",
  "compiler": {
    "name": "solc",
    "version": "0.5.16+commit.9c3226ce.Emscripten.clang"
  },
  "schemaVersion": "3.4.3",
  "updatedAt": "2021-12-04T10:18:00.554Z",
  "devdoc": {
    "methods": {}
  },
  "userdoc": {
    "methods": {}
  }
}