{
  "contractName": "Campaign",
  "abi": [
    {
      "inputs": [
        {
          "internalType": "uint256",
          "name": "_minimum",
          "type": "uint256"
        },
        {
          "internalType": "address payable",
          "name": "_host",
          "type": "address"
        },
        {
          "internalType": "address",
          "name": "_initialAdmin",
          "type": "address"
        }
      ],
      "payable": false,
      "stateMutability": "nonpayable",
      "type": "constructor"
    },
    {
      "payable": true,
      "stateMutability": "payable",
      "type": "fallback"
    },
    {
      "constant": true,
      "inputs": [],
      "name": "admin",
      "outputs": [
        {
          "internalType": "address",
          "name": "",
          "type": "address"
        }
      ],
      "payable": false,
      "stateMutability": "view",
      "type": "function"
    },
    {
      "constant": true,
      "inputs": [],
      "name": "campaignFactory",
      "outputs": [
        {
          "internalType": "address",
          "name": "",
          "type": "address"
        }
      ],
      "payable": false,
      "stateMutability": "view",
      "type": "function"
    },
    {
      "constant": true,
      "inputs": [],
      "name": "host",
      "outputs": [
        {
          "internalType": "address payable",
          "name": "",
          "type": "address"
        }
      ],
      "payable": false,
      "stateMutability": "view",
      "type": "function"
    },
    {
      "constant": true,
      "inputs": [],
      "name": "minimumContribution",
      "outputs": [
        {
          "internalType": "uint256",
          "name": "",
          "type": "uint256"
        }
      ],
      "payable": false,
      "stateMutability": "view",
      "type": "function"
    },
    {
      "constant": true,
      "inputs": [],
      "name": "modifierFromCampaign",
      "outputs": [
        {
          "internalType": "address",
          "name": "_campaignFactory",
          "type": "address"
        }
      ],
      "payable": false,
      "stateMutability": "view",
      "type": "function"
    },
    {
      "constant": false,
      "inputs": [],
      "name": "contribute",
      "outputs": [],
      "payable": true,
      "stateMutability": "payable",
      "type": "function"
    },
    {
      "constant": true,
      "inputs": [],
      "name": "getHost",
      "outputs": [
        {
          "internalType": "address",
          "name": "",
          "type": "address"
        }
      ],
      "payable": false,
      "stateMutability": "view",
      "type": "function"
    },
    {
      "constant": true,
      "inputs": [],
      "name": "getAdmin",
      "outputs": [
        {
          "internalType": "address",
          "name": "",
          "type": "address"
        }
      ],
      "payable": false,
      "stateMutability": "view",
      "type": "function"
    },
    {
      "constant": true,
      "inputs": [],
      "name": "getMinimumContribution",
      "outputs": [
        {
          "internalType": "uint256",
          "name": "",
          "type": "uint256"
        }
      ],
      "payable": false,
      "stateMutability": "view",
      "type": "function"
    },
    {
      "constant": true,
      "inputs": [],
      "name": "getBalance",
      "outputs": [
        {
          "internalType": "uint256",
          "name": "",
          "type": "uint256"
        }
      ],
      "payable": false,
      "stateMutability": "view",
      "type": "function"
    },
    {
      "constant": false,
      "inputs": [
        {
          "internalType": "address payable",
          "name": "new_host",
          "type": "address"
        }
      ],
      "name": "setHost",
      "outputs": [],
      "payable": false,
      "stateMutability": "nonpayable",
      "type": "function"
    },
    {
      "constant": false,
      "inputs": [
        {
          "internalType": "uint256",
          "name": "new_minimum_contribution",
          "type": "uint256"
        }
      ],
      "name": "setMinimumContribution",
      "outputs": [],
      "payable": false,
      "stateMutability": "nonpayable",
      "type": "function"
    },
    {
      "constant": false,
      "inputs": [
        {
          "internalType": "bytes32",
          "name": "requestCreateDonationActivityCode",
          "type": "bytes32"
        },
        {
          "internalType": "address payable",
          "name": "_host",
          "type": "address"
        },
        {
          "internalType": "address",
          "name": "_authority",
          "type": "address"
        },
        {
          "internalType": "address",
          "name": "_campaignFactory",
          "type": "address"
        }
      ],
      "name": "requestToCreateDonationActivity",
      "outputs": [],
      "payable": false,
      "stateMutability": "nonpayable",
      "type": "function"
    },
    {
      "constant": true,
      "inputs": [],
      "name": "getRequestToCreateDonationActivityList",
      "outputs": [
        {
          "internalType": "bytes32[]",
          "name": "",
          "type": "bytes32[]"
        }
      ],
      "payable": false,
      "stateMutability": "view",
      "type": "function"
    },
    {
      "constant": true,
      "inputs": [
        {
          "internalType": "bytes32",
          "name": "key",
          "type": "bytes32"
        }
      ],
      "name": "getRequestToCreateDonationActivityListAtKey",
      "outputs": [
        {
          "internalType": "address",
          "name": "_host",
          "type": "address"
        },
        {
          "internalType": "address",
          "name": "_authority",
          "type": "address"
        },
        {
          "internalType": "address",
          "name": "_campaignFactory",
          "type": "address"
        }
      ],
      "payable": false,
      "stateMutability": "view",
      "type": "function"
    },
    {
      "constant": false,
      "inputs": [
        {
          "internalType": "bytes32",
          "name": "requestToCreateDonationActivityCode",
          "type": "bytes32"
        }
      ],
      "name": "cancelOpenCampaignRequest",
      "outputs": [],
      "payable": false,
      "stateMutability": "nonpayable",
      "type": "function"
    },
    {
      "constant": false,
      "inputs": [
        {
          "internalType": "bytes32",
          "name": "requestToCreateDonationActivityCode",
          "type": "bytes32"
        }
      ],
      "name": "rejectOpenCampaignRequest",
      "outputs": [],
      "payable": false,
      "stateMutability": "nonpayable",
      "type": "function"
    },
    {
      "constant": false,
      "inputs": [
        {
          "internalType": "bytes32",
          "name": "requestToCreateDonationActivityCode",
          "type": "bytes32"
        }
      ],
      "name": "newDonationActivity",
      "outputs": [],
      "payable": false,
      "stateMutability": "nonpayable",
      "type": "function"
    },
    {
      "constant": true,
      "inputs": [
        {
          "internalType": "address",
          "name": "donationActivity_key",
          "type": "address"
        }
      ],
      "name": "getDonationActivity",
      "outputs": [
        {
          "internalType": "address",
          "name": "_host",
          "type": "address"
        },
        {
          "internalType": "address",
          "name": "_authority",
          "type": "address"
        }
      ],
      "payable": false,
      "stateMutability": "view",
      "type": "function"
    },
    {
      "constant": true,
      "inputs": [],
      "name": "getDonationActivityList",
      "outputs": [
        {
          "internalType": "address[]",
          "name": "",
          "type": "address[]"
        }
      ],
      "payable": false,
      "stateMutability": "view",
      "type": "function"
    },
    {
      "constant": false,
      "inputs": [
        {
          "internalType": "bytes32",
          "name": "requestToCreateOrderFromDonationActivityCode",
          "type": "bytes32"
        },
        {
          "internalType": "address payable",
          "name": "_donationActivity",
          "type": "address"
        },
        {
          "internalType": "address payable",
          "name": "_retailer",
          "type": "address"
        },
        {
          "internalType": "string",
          "name": "_receiptURI",
          "type": "string"
        },
        {
          "internalType": "uint256",
          "name": "_totalAmount",
          "type": "uint256"
        }
      ],
      "name": "requestToCreateOrderFromDonationActivity",
      "outputs": [],
      "payable": false,
      "stateMutability": "nonpayable",
      "type": "function"
    },
    {
      "constant": false,
      "inputs": [
        {
          "internalType": "bytes32",
          "name": "requestToCreateOrderFromDonationActivityCode",
          "type": "bytes32"
        }
      ],
      "name": "newOrderFromDonationActivity",
      "outputs": [],
      "payable": false,
      "stateMutability": "nonpayable",
      "type": "function"
    },
    {
      "constant": false,
      "inputs": [
        {
          "internalType": "bytes32",
          "name": "requestToCreateOrderFromDonationActivityCode",
          "type": "bytes32"
        }
      ],
      "name": "cancelOrderFromDonationActivity",
      "outputs": [],
      "payable": false,
      "stateMutability": "nonpayable",
      "type": "function"
    },
    {
      "constant": true,
      "inputs": [
        {
          "internalType": "bytes32",
          "name": "requestToCreateOrderFromDonationActivityCode",
          "type": "bytes32"
        }
      ],
      "name": "getRequestToCreateOrderFromDonationActivity",
      "outputs": [
        {
          "internalType": "address",
          "name": "donationActivity",
          "type": "address"
        },
        {
          "internalType": "address payable",
          "name": "retailer",
          "type": "address"
        },
        {
          "internalType": "string",
          "name": "receiptURI",
          "type": "string"
        },
        {
          "internalType": "uint256",
          "name": "totalAmount",
          "type": "uint256"
        }
      ],
      "payable": false,
      "stateMutability": "view",
      "type": "function"
    },
    {
      "constant": true,
      "inputs": [],
      "name": "getRequestToCreateOrderFromDonationActivityList",
      "outputs": [
        {
          "internalType": "bytes32[]",
          "name": "",
          "type": "bytes32[]"
        }
      ],
      "payable": false,
      "stateMutability": "view",
      "type": "function"
    },
    {
      "constant": false,
      "inputs": [
        {
          "internalType": "bytes32",
          "name": "requestToCreateCashOutFromDonationActivityCode",
          "type": "bytes32"
        },
        {
          "internalType": "uint256",
          "name": "_amount",
          "type": "uint256"
        },
        {
          "internalType": "address payable",
          "name": "_donationActivity",
          "type": "address"
        }
      ],
      "name": "requestToCreateCashOutFromDonationActivity",
      "outputs": [],
      "payable": false,
      "stateMutability": "nonpayable",
      "type": "function"
    },
    {
      "constant": false,
      "inputs": [
        {
          "internalType": "bytes32",
          "name": "requestToCreateCashOutFromDonationActivityCode",
          "type": "bytes32"
        },
        {
          "internalType": "address payable",
          "name": "_donationActivity",
          "type": "address"
        }
      ],
      "name": "newCashOutFromDonationActivity",
      "outputs": [],
      "payable": false,
      "stateMutability": "nonpayable",
      "type": "function"
    },
    {
      "constant": false,
      "inputs": [
        {
          "internalType": "bytes32",
          "name": "requestToCreateCashOutFromDonationActivityCode",
          "type": "bytes32"
        }
      ],
      "name": "cancelCashOutFromDonationActivity",
      "outputs": [],
      "payable": false,
      "stateMutability": "nonpayable",
      "type": "function"
    },
    {
      "constant": true,
      "inputs": [
        {
          "internalType": "bytes32",
          "name": "requestToCreateCashOutFromDonationActivityCode",
          "type": "bytes32"
        }
      ],
      "name": "getRequestToCreateCashOutFromDonationActivity",
      "outputs": [
        {
          "internalType": "uint256",
          "name": "amount",
          "type": "uint256"
        }
      ],
      "payable": false,
      "stateMutability": "view",
      "type": "function"
    },
    {
      "constant": true,
      "inputs": [],
      "name": "getRequestToCreateCashOutFromDonationActivityList",
      "outputs": [
        {
          "internalType": "bytes32[]",
          "name": "",
          "type": "bytes32[]"
        }
      ],
      "payable": false,
      "stateMutability": "view",
      "type": "function"
    }
  ],
  "bytecode": "0x608060405234801561001057600080fd5b50604051613e18380380613e188339818101604052606081101561003357600080fd5b508051602082015160409283015183516347952e3f60e11b8152935192939192909133918291638f2a5c7e916004808301926000929190829003018186803b15801561007e57600080fd5b505afa158015610092573d6000803e3d6000fd5b5050600080546001600160a01b039687166001600160a01b0319918216179091556002969096555050600180549290931691841691909117909155506003805490911633179055613d30806100e86000396000f3fe608060405260043610620001fa5760003560e01c8063937e09b1116200010f578063da6c0ba911620000a3578063f437bc59116200006d578063f437bc591462000832578063f7779d48146200084a578063f84038b11462000878578063f851a440146200089057620001fa565b8063da6c0ba914620007a6578063dba3e70414620007be578063e91b650114620007ec578063eac1d7ac146200080457620001fa565b8063b59f80cd11620000e5578063b59f80cd146200062c578063c85e0be21462000689578063cdf0f14a14620006c0578063d7bb99ba146200079c57620001fa565b8063937e09b114620005045780639e013968146200051c578063af1f668414620005fe57620001fa565b806340874ea4116200019357806366e07006116200015d57806366e07006146200044d5780636e9960c3146200047b57806374c4c60414620004935780638729a0e814620004ab57620001fa565b806340874ea4146200038a5780634a6b419c14620003a257806352d209e714620003f15780635effc5d5146200041f57620001fa565b80631ff8885211620001d55780631ff88852146200029757806320bc442514620002d45780632fbd68561462000308578063315d4e67146200032057620001fa565b806312065fe014620001fc5780631825a0be14620002265780631e8e28081462000254575b005b3480156200020957600080fd5b5062000214620008a8565b60408051918252519081900360200190f35b3480156200023357600080fd5b50620001fa600480360360208110156200024c57600080fd5b5035620008ad565b3480156200026157600080fd5b50620001fa600480360360608110156200027a57600080fd5b50803590602081013590604001356001600160a01b031662000982565b348015620002a457600080fd5b50620001fa60048036036040811015620002bd57600080fd5b50803590602001356001600160a01b031662000bd8565b348015620002e157600080fd5b50620002ec62000d8f565b604080516001600160a01b039092168252519081900360200190f35b3480156200031557600080fd5b50620002ec62000d9e565b3480156200032d57600080fd5b506200033862000dad565b60408051602080825283518183015283519192839290830191858101910280838360005b83811015620003765781810151838201526020016200035c565b505050509050019250505060405180910390f35b3480156200039757600080fd5b506200033862000dc0565b348015620003af57600080fd5b50620001fa60048036036080811015620003c857600080fd5b508035906001600160a01b03602082013581169160408101358216916060909101351662000dce565b348015620003fe57600080fd5b50620001fa600480360360208110156200041757600080fd5b503562000f0b565b3480156200042c57600080fd5b5062000214600480360360208110156200044557600080fd5b503562000ff3565b3480156200045a57600080fd5b50620001fa600480360360208110156200047357600080fd5b503562001058565b3480156200048857600080fd5b50620002ec620013c0565b348015620004a057600080fd5b5062000338620013cf565b348015620004b857600080fd5b50620004d960048036036020811015620004d157600080fd5b5035620013dd565b604080516001600160a01b039485168152928416602084015292168183015290519081900360600190f35b3480156200051157600080fd5b506200021462001439565b3480156200052957600080fd5b506200054a600480360360208110156200054257600080fd5b50356200143f565b60405180856001600160a01b03166001600160a01b03168152602001846001600160a01b03166001600160a01b0316815260200180602001838152602001828103825284818151815260200191508051906020019080838360005b83811015620005bf578181015183820152602001620005a5565b50505050905090810190601f168015620005ed5780820380516001836020036101000a031916815260200191505b509550505050505060405180910390f35b3480156200060b57600080fd5b50620001fa600480360360208110156200062457600080fd5b50356200159b565b3480156200063957600080fd5b5062000663600480360360208110156200065257600080fd5b50356001600160a01b0316620016a5565b604080516001600160a01b03938416815291909216602082015281519081900390910190f35b3480156200069657600080fd5b50620001fa60048036036020811015620006af57600080fd5b50356001600160a01b0316620017f2565b348015620006cd57600080fd5b50620001fa600480360360a0811015620006e657600080fd5b8135916001600160a01b036020820135811692604083013590911691908101906080810160608201356401000000008111156200072257600080fd5b8201836020820111156200073557600080fd5b803590602001918460018302840111640100000000831117156200075857600080fd5b91908080601f016020809104026020016040519081016040528093929190818152602001838380828437600092019190915250929550509135925062001874915050565b620001fa62001b95565b348015620007b357600080fd5b50620002ec62001ba6565b348015620007cb57600080fd5b50620001fa60048036036020811015620007e457600080fd5b503562001bb5565b348015620007f957600080fd5b506200033862001c1a565b3480156200081157600080fd5b50620001fa600480360360208110156200082a57600080fd5b503562001c28565b3480156200083f57600080fd5b50620002ec62001c88565b3480156200085757600080fd5b50620001fa600480360360208110156200087057600080fd5b503562001c97565b3480156200088557600080fd5b506200021462001e61565b3480156200089d57600080fd5b50620002ec62001e67565b475b90565b6000546001600160a01b0316331480620008d157506001546001600160a01b031633145b6200090e5760405162461bcd60e51b815260040180806020018281038252602581526020018062003a716025913960400191505060405180910390fd5b62000921600b8263ffffffff62001e7616565b6200095e5760405162461bcd60e51b815260040180806020018281038252603b81526020018062003997603b913960400191505060405180910390fd5b62000971600b8263ffffffff62001ec216565b6000908152600f6020526040812055565b6000546001600160a01b03163314620009d1576040805162461bcd60e51b815260206004820152601c602482015260008051602062003c7c833981519152604482015290519081900360640190fd5b80836000829050806001600160a01b0316635c73b79e836040518263ffffffff1660e01b81526004018082815260200191505060206040518083038186803b15801562000a1d57600080fd5b505afa15801562000a32573d6000803e3d6000fd5b505050506040513d602081101562000a4957600080fd5b505115156001141562000aa3576040805162461bcd60e51b815260206004820152601a60248201527f43616e6e6f74206475706c6963617465207468697320636f6465000000000000604482015290519081900360640190fd5b6040805163447c795960e11b81523360048201529051859182916001600160a01b038316916388f8f2b2916024808301926020929190829003018186803b15801562000aee57600080fd5b505afa15801562000b03573d6000803e3d6000fd5b505050506040513d602081101562000b1a57600080fd5b505162000b595760405162461bcd60e51b815260040180806020018281038252602a81526020018062003bda602a913960400191505060405180910390fd5b62000b6c600b8963ffffffff62001e7616565b1562000baa5760405162461bcd60e51b8152600401808060200182810382526041815260200180620039d26041913960600191505060405180910390fd5b6000888152600f6020526040902087905562000bce600b8963ffffffff62001f9716565b5050505050505050565b6000546001600160a01b0316331462000c27576040805162461bcd60e51b815260206004820152601c602482015260008051602062003c7c833981519152604482015290519081900360640190fd5b62000c3a600b8363ffffffff62001e7616565b62000c775760405162461bcd60e51b815260040180806020018281038252603b81526020018062003997603b913960400191505060405180910390fd5b6000828152600f6020526040902054814782111562000cc85760405162461bcd60e51b815260040180806020018281038252602381526020018062003a4e6023913960400191505060405180910390fd5b806001600160a01b0316632b140eda85846040518363ffffffff1660e01b81526004018083815260200182815260200192505050600060405180830381600087803b15801562000d1757600080fd5b505af115801562000d2c573d6000803e3d6000fd5b50506040516001600160a01b038616925084156108fc02915084906000818181858888f1935050505015801562000d67573d6000803e3d6000fd5b5062000d7b600b8563ffffffff62001ec216565b5050506000908152600f6020526040812055565b6000546001600160a01b031690565b6003546001600160a01b031681565b606062000dbb600962002049565b905090565b606062000dbb600b62002049565b6000546001600160a01b0316331462000e1d576040805162461bcd60e51b815260206004820152601c602482015260008051602062003c7c833981519152604482015290519081900360640190fd5b62000e3060078563ffffffff62001e7616565b1562000e6e5760405162461bcd60e51b815260040180806020018281038252603481526020018062003b6d6034913960400191505060405180910390fd5b62000e7862002248565b50604080516060810182526001600160a01b038086168252848116602080840191825285831684860190815260008a8152600d909252949020835181549084166001600160a01b031991821617825591516001820180549185169184169190911790559351600290940180549490921693169290921790915562000f0460078663ffffffff62001f9716565b5050505050565b6000546001600160a01b0316331462000f5a576040805162461bcd60e51b815260206004820152601c602482015260008051602062003c7c833981519152604482015290519081900360640190fd5b62000f6d60078263ffffffff62001e7616565b62000faa5760405162461bcd60e51b815260040180806020018281038252602a81526020018062003b43602a913960400191505060405180910390fd5b62000fbd60078263ffffffff62001ec216565b6000908152600d6020526040902080546001600160a01b0319908116825560018201805482169055600290910180549091169055565b600062001008600b8363ffffffff62001e7616565b620010455760405162461bcd60e51b815260040180806020018281038252603b81526020018062003a13603b913960400191505060405180910390fd5b506000908152600f602052604090205490565b6000546001600160a01b03163314620010a7576040805162461bcd60e51b815260206004820152601c602482015260008051602062003c7c833981519152604482015290519081900360640190fd5b620010ba60098263ffffffff62001e7616565b620010f75760405162461bcd60e51b815260040180806020018281038252603981526020018062003c046039913960400191505060405180910390fd5b6200110162002268565b6000828152600e6020908152604091829020825160808101845281546001600160a01b039081168252600180840154909116828501526002808401805487516101009482161594909402600019011691909104601f81018690048602830186018752808352929593949386019391929091830182828015620011c75780601f106200119b57610100808354040283529160200191620011c7565b820191906000526020600020905b815481529060010190602001808311620011a957829003601f168201915b50505050508152602001600382015481525050905060008160000151905047826060015111156200122a5760405162461bcd60e51b815260040180806020018281038252602381526020018062003a4e6023913960400191505060405180910390fd5b806001600160a01b031663eb170761848460200151856040015186606001516040518563ffffffff1660e01b815260040180858152602001846001600160a01b03166001600160a01b0316815260200180602001838152602001828103825284818151815260200191508051906020019080838360005b83811015620012bb578181015183820152602001620012a1565b50505050905090810190601f168015620012e95780820380516001836020036101000a031916815260200191505b5095505050505050600060405180830381600087803b1580156200130c57600080fd5b505af115801562001321573d6000803e3d6000fd5b5050835160608501516040516001600160a01b03909216935080156108fc029250906000818181858888f1935050505015801562001363573d6000803e3d6000fd5b506200137760098463ffffffff62001ec216565b6000838152600e6020526040812080546001600160a01b03199081168255600182018054909116905590620013b06002830182620022a2565b600382016000905550505b505050565b6001546001600160a01b031690565b606062000dbb6005620020a7565b6000806000620013ec62002248565b505050600091825250600d6020908152604091829020825160608101845281546001600160a01b039081168083526001840154821694830185905260029093015416930183905292909190565b60025481565b6000806060816200145860098663ffffffff62001e7616565b620014955760405162461bcd60e51b815260040180806020018281038252603981526020018062003ba16039913960400191505060405180910390fd5b6200149f62002268565b6000868152600e6020908152604091829020825160808101845281546001600160a01b039081168252600180840154909116828501526002808401805487516101009482161594909402600019011691909104601f81018690048602830186018752808352929593949386019391929091830182828015620015655780601f10620015395761010080835404028352916020019162001565565b820191906000526020600020905b8154815290600101906020018083116200154757829003601f168201915b50505091835250506003919091015460209182015281519082015160408301516060909301519199909850919650945092505050565b6000546001600160a01b0316331480620015bf57506001546001600160a01b031633145b620015fc5760405162461bcd60e51b815260040180806020018281038252602581526020018062003a716025913960400191505060405180910390fd5b6200160f60098263ffffffff62001e7616565b6200164c5760405162461bcd60e51b815260040180806020018281038252603981526020018062003c046039913960400191505060405180910390fd5b6200165f60098263ffffffff62001ec216565b6000818152600e6020526040812080546001600160a01b03199081168255600182018054909116905590620016986002830182620022a2565b6003820160009055505050565b600080620016bb60058463ffffffff6200210e16565b620016f85760405162461bcd60e51b815260040180806020018281038252603081526020018062003ccc6030913960400191505060405180910390fd5b6001600160a01b038084166000908152600460208181526040928390205483516320bc442560e01b8152935194169384936320bc442593818101939291829003018186803b1580156200174a57600080fd5b505afa1580156200175f573d6000803e3d6000fd5b505050506040513d60208110156200177657600080fd5b5051604080516307158bc560e51b815290516001600160a01b0384169163e2b178a0916004808301926020929190829003018186803b158015620017b957600080fd5b505afa158015620017ce573d6000803e3d6000fd5b505050506040513d6020811015620017e557600080fd5b5051909350915050915091565b6001546001600160a01b0316331462001852576040805162461bcd60e51b815260206004820152601d60248201527f596f75206d7573742062652061646d696e20746f20657865637574652e000000604482015290519081900360640190fd5b600080546001600160a01b0319166001600160a01b0392909216919091179055565b6000546001600160a01b03163314620018c3576040805162461bcd60e51b815260206004820152601c602482015260008051602062003c7c833981519152604482015290519081900360640190fd5b83856000829050806001600160a01b031663cb1e6758836040518263ffffffff1660e01b81526004018082815260200191505060206040518083038186803b1580156200190f57600080fd5b505afa15801562001924573d6000803e3d6000fd5b505050506040513d60208110156200193b57600080fd5b505115156001141562001995576040805162461bcd60e51b815260206004820152601a60248201527f43616e6e6f74206475706c6963617465207468697320636f6465000000000000604482015290519081900360640190fd5b6040805163447c795960e11b81523360048201529051889182916001600160a01b038316916388f8f2b2916024808301926020929190829003018186803b158015620019e057600080fd5b505afa158015620019f5573d6000803e3d6000fd5b505050506040513d602081101562001a0c57600080fd5b505162001a4b5760405162461bcd60e51b815260040180806020018281038252602a81526020018062003bda602a913960400191505060405180910390fd5b62001a5e60098b63ffffffff62001e7616565b1562001a9c5760405162461bcd60e51b815260040180806020018281038252603f81526020018062003c3d603f913960400191505060405180910390fd5b62001aa662002268565b60405180608001604052808b6001600160a01b031681526020018a6001600160a01b0316815260200189815260200188815250905080600e60008d815260200190815260200160002060008201518160000160006101000a8154816001600160a01b0302191690836001600160a01b0316021790555060208201518160010160006101000a8154816001600160a01b0302191690836001600160a01b03160217905550604082015181600201908051906020019062001b67929190620022ed565b506060919091015160039091015562001b8860098c63ffffffff62001f9716565b5050505050505050505050565b600254341162001ba457600080fd5b565b6003546001600160a01b031690565b6001546001600160a01b0316331462001c15576040805162461bcd60e51b815260206004820152601d60248201527f596f75206d7573742062652061646d696e20746f20657865637574652e000000604482015290519081900360640190fd5b600255565b606062000dbb600762002049565b6001546001600160a01b0316331462000f5a576040805162461bcd60e51b815260206004820152601d60248201527f596f75206d7573742062652061646d696e20746f20657865637574652e000000604482015290519081900360640190fd5b6000546001600160a01b031681565b6000546001600160a01b0316331462001ce6576040805162461bcd60e51b815260206004820152601c602482015260008051602062003c7c833981519152604482015290519081900360640190fd5b62001cf960078263ffffffff62001e7616565b62001d365760405162461bcd60e51b815260040180806020018281038252603081526020018062003c9c6030913960400191505060405180910390fd5b62001d4062002248565b506000818152600d60209081526040808320815160608101835281546001600160a01b039081168083526001840154821695830186905260029093015416818401819052925190949391929062001d979062002372565b6001600160a01b03938416815291831660208301529091166040808301919091525190819003606001906000f08015801562001dd7573d6000803e3d6000fd5b506001600160a01b038116600081815260046020526040902080546001600160a01b0319169091179055905062001e1660058263ffffffff6200216c16565b62001e2960078463ffffffff62001ec216565b50506000908152600d6020526040902080546001600160a01b0319908116825560018201805482169055600290910180549091169055565b60025490565b6001546001600160a01b031681565b600182015460009062001e8c5750600062001ebc565b600082815260208490526040902054600184018054849290811062001ead57fe5b90600052602060002001541490505b92915050565b62001ece828262001e76565b62001f0b5760405162461bcd60e51b815260040180806020018281038252603581526020018062003ad96035913960400191505060405180910390fd5b600082600101600162001f1e8562002241565b038154811062001f2a57fe5b600091825260208083209091015484835290859052604080832054828452922082905560018501805491935083918390811062001f6357fe5b60009182526020808320909101929092558481529085905260408120556001840180549062000f0490600019830162002380565b8062001fd55760405162461bcd60e51b81526004018080602001828103825260288152602001806200396f6028913960400191505060405180910390fd5b62001fe1828262001e76565b156200201f5760405162461bcd60e51b815260040180806020018281038252603581526020018062003b0e6035913960400191505060405180910390fd5b60018281018054918201815560009081526020808220830184905592815292909152604090912055565b6060816001018054806020026020016040519081016040528092919081815260200182805480156200209b57602002820191906000526020600020905b81548152602001906001019080831162002086575b50505050509050919050565b6060816001018054806020026020016040519081016040528092919081815260200182805480156200209b57602002820191906000526020600020905b81546001600160a01b03168152600190910190602001808311620020e45750505050509050919050565b6001820154600090620021245750600062001ebc565b6001600160a01b03821660008181526020859052604090205460018501805490919081106200214f57fe5b6000918252602090912001546001600160a01b0316149392505050565b6001600160a01b038116620021b35760405162461bcd60e51b81526004018080602001828103825260288152602001806200396f6028913960400191505060405180910390fd5b620021bf82826200210e565b15620021fd5760405162461bcd60e51b815260040180806020018281038252604381526020018062003a966043913960600191505060405180910390fd5b60018281018054918201815560009081526020808220830180546001600160a01b039095166001600160a01b03199095168517905592815292909152604090912055565b6001015490565b604080516060810182526000808252602082018190529181019190915290565b604051806080016040528060006001600160a01b0316815260200160006001600160a01b0316815260200160608152602001600081525090565b50805460018160011615610100020316600290046000825580601f10620022ca5750620022ea565b601f016020900490600052602060002090810190620022ea9190620023a2565b50565b828054600181600116156101000203166002900490600052602060002090601f016020900481019282601f106200233057805160ff191683800117855562002360565b8280016001018555821562002360579182015b828111156200236057825182559160200191906001019062002343565b506200236e929150620023a2565b5090565b6115af80620023c083390190565b815481835581811115620013bb57600083815260209020620013bb9181019083015b620008aa91905b808211156200236e5760008155600101620023a956fe60806040523480156200001157600080fd5b50604051620015af380380620015af833981810160405260608110156200003757600080fd5b508051602080830151604093840151845163da6c0ba960e01b815294519394919390923392839263da6c0ba992600480840193919291829003018186803b1580156200008257600080fd5b505afa15801562000097573d6000803e3d6000fd5b505050506040513d6020811015620000ae57600080fd5b5051600280546001600160a01b0319166001600160a01b03928316179055604080516001621b9ac960e11b03198152868316600482015290518492879284929183169163ffc8ca6e91602480820192602092909190829003018186803b1580156200011857600080fd5b505afa1580156200012d573d6000803e3d6000fd5b505050506040513d60208110156200014457600080fd5b50516200018c576040805162461bcd60e51b81526020600482015260116024820152702cb7ba9030b932903737ba103437b9ba1760791b604482015290519081900360640190fd5b84866000829050806001600160a01b0316632330f247836040518263ffffffff1660e01b815260040180826001600160a01b03166001600160a01b0316815260200191505060206040518083038186803b158015620001ea57600080fd5b505afa158015620001ff573d6000803e3d6000fd5b505050506040513d60208110156200021657600080fd5b50516200026a576040805162461bcd60e51b815260206004820152601660248201527f596f7520617265206e6f7420617574686f726974792e00000000000000000000604482015290519081900360640190fd5b5050600080546001600160a01b03998a166001600160a01b03199182161790915560018054989099169716969096179096555050505050506112fd80620002b26000396000f3fe60806040526004361061011f5760003560e01c806360d93d78116100a0578063bf7e214f11610064578063bf7e214f146104a3578063cb1e6758146104b8578063e2b178a0146104e2578063eb170761146104f7578063f437bc59146105c15761011f565b806360d93d78146103255780637489ec231461033a57806388f8f2b21461036457806399f4e5ea14610397578063a6f0b2af146103c15761011f565b80632fbd6856116100e75780632fbd68561461023b57806331634eed146102505780633ff2550b1461027a57806358fa468b146102bd5780635c73b79e146102e75761011f565b806303a2775314610121578063163dd8bb1461014b57806320bc4425146101b05780632b140eda146101e15780632d692e3a14610211575b005b34801561012d57600080fd5b5061011f6004803603602081101561014457600080fd5b50356105d6565b34801561015757600080fd5b50610160610715565b60408051602080825283518183015283519192839290830191858101910280838360005b8381101561019c578181015183820152602001610184565b505050509050019250505060405180910390f35b3480156101bc57600080fd5b506101c5610727565b604080516001600160a01b039092168252519081900360200190f35b3480156101ed57600080fd5b5061011f6004803603604081101561020457600080fd5b5080359060200135610736565b34801561021d57600080fd5b5061011f6004803603602081101561023457600080fd5b5035610815565b34801561024757600080fd5b506101c5610892565b34801561025c57600080fd5b5061011f6004803603602081101561027357600080fd5b50356108a1565b34801561028657600080fd5b506102a46004803603602081101561029d57600080fd5b503561098f565b6040805192835290151560208301528051918290030190f35b3480156102c957600080fd5b5061011f600480360360208110156102e057600080fd5b50356109d1565b3480156102f357600080fd5b506103116004803603602081101561030a57600080fd5b5035610a00565b604080519115158252519081900360200190f35b34801561033157600080fd5b50610160610a28565b34801561034657600080fd5b5061011f6004803603602081101561035d57600080fd5b5035610a34565b34801561037057600080fd5b506103116004803603602081101561038757600080fd5b50356001600160a01b0316610a79565b3480156103a357600080fd5b5061011f600480360360208110156103ba57600080fd5b5035610aa0565b3480156103cd57600080fd5b506103eb600480360360208110156103e457600080fd5b5035610b86565b6040518086815260200180602001856001600160a01b03166001600160a01b0316815260200184600281111561041d57fe5b60ff16815260200183151515158152602001828103825286818151815260200191508051906020019080838360005b8381101561046457818101518382015260200161044c565b50505050905090810190601f1680156104915780820380516001836020036101000a031916815260200191505b50965050505050505060405180910390f35b3480156104af57600080fd5b506101c5610cdd565b3480156104c457600080fd5b50610311600480360360208110156104db57600080fd5b5035610cec565b3480156104ee57600080fd5b506101c5610cff565b34801561050357600080fd5b5061011f6004803603608081101561051a57600080fd5b8135916001600160a01b036020820135169181019060608101604082013564010000000081111561054a57600080fd5b82018360208201111561055c57600080fd5b8035906020019184600183028401116401000000008311171561057e57600080fd5b91908080601f0160208091040260200160405190810160405280939291908181526020018383808284376000920191909152509295505091359250610d0e915050565b3480156105cd57600080fd5b506101c5610e9b565b6001546001600160a01b0316331461062f576040805162461bcd60e51b8152602060048201526017602482015276596f7520617265206e6f7420417574686f72697479202160481b604482015290519081900360640190fd5b60008181526005602052604090206002808201805460ff60a81b1916600160a81b1790555b600282810154600160a01b900460ff169081111561066e57fe5b14801561068b57506002810154600160a81b900460ff1615156001145b1561071157600281015481546040516001600160a01b039092169181156108fc0291906000818181858888f193505050501580156106cd573d6000803e3d6000fd5b506106df60038363ffffffff610eaa16565b6000828152600560205260408120818155906106fe60018301826110d4565b5060020180546001600160b01b03191690555b5050565b60606107216003610f7c565b90505b90565b6000546001600160a01b031690565b6000339050806001600160a01b031663da6c0ba96040518163ffffffff1660e01b815260040160206040518083038186803b15801561077457600080fd5b505afa158015610788573d6000803e3d6000fd5b505050506040513d602081101561079e57600080fd5b5051600280546001600160a01b0319166001600160a01b039092169190911790556107c761111b565b506040805180820182528381526000602080830182815287835260089091529290208151815591516001909201805460ff19169215159290921790915561080f600685610fd8565b50505050565b6000546001600160a01b03163314610869576040805162461bcd60e51b8152602060048201526012602482015271596f7520617265206e6f7420486f7374202160701b604482015290519081900360640190fd5b60008181526005602052604090206002808201805460ff60a01b1916600160a11b179055610654565b6002546001600160a01b031681565b6001546001600160a01b031633146108fa576040805162461bcd60e51b8152602060048201526017602482015276596f7520617265206e6f7420417574686f72697479202160481b604482015290519081900360640190fd5b60008181526008602052604090206001808201805460ff191682179081905560ff1615151415610711576000805482546040516001600160a01b039092169281156108fc029290818181858888f1935050505015801561095e573d6000803e3d6000fd5b5061097060068363ffffffff610eaa16565b506000908152600860205260408120908155600101805460ff19169055565b60008061099a61111b565b5050506000908152600860209081526040918290208251808401909352805480845260019091015460ff1615159290910182905291565b6109e260068263ffffffff610eaa16565b6000908152600860205260408120908155600101805460ff19169055565b6000610a1360068363ffffffff61108416565b610a1f57506000610a23565b5060015b919050565b60606107216006610f7c565b610a4560038263ffffffff610eaa16565b600081815260056020526040812081815590610a6460018301826110d4565b5060020180546001600160b01b031916905550565b600080546001600160a01b0383811691161415610a9857506001610a23565b506000610a23565b60025460408051630bb4137160e31b815233600482015290516001600160a01b03909216918291635da09b88916024808301926020929190829003018186803b158015610aec57600080fd5b505afa158015610b00573d6000803e3d6000fd5b505050506040513d6020811015610b1657600080fd5b5051610b61576040805162461bcd60e51b81526020600482015260156024820152742cb7ba9030b932903737ba103932ba30b4b632b91760591b604482015290519081900360640190fd5b506000908152600560205260409020600201805460ff60a01b1916600160a01b179055565b600060606000806000610b97611132565b600560008881526020019081526020016000206040518060a001604052908160008201548152602001600182018054600181600116156101000203166002900480601f016020809104026020016040519081016040528092919081815260200182805460018160011615610100020316600290048015610c585780601f10610c2d57610100808354040283529160200191610c58565b820191906000526020600020905b815481529060010190602001808311610c3b57829003601f168201915b50505091835250506002828101546001600160a01b0381166020840152604090920191600160a01b900460ff1690811115610c8f57fe5b6002811115610c9a57fe5b815260029190910154600160a81b900460ff16151560209182015281519082015160408301516060840151608090940151929b919a509850919650945092505050565b6001546001600160a01b031681565b6000610a1360038363ffffffff61108416565b6001546001600160a01b031690565b6000339050806001600160a01b031663da6c0ba96040518163ffffffff1660e01b815260040160206040518083038186803b158015610d4c57600080fd5b505afa158015610d60573d6000803e3d6000fd5b505050506040513d6020811015610d7657600080fd5b5051600280546001600160a01b0319166001600160a01b03909216919091179055610d9f611132565b6040518060a00160405280848152602001858152602001866001600160a01b0316815260200160006002811115610dd257fe5b81526000602091820181905288815260058252604090208251815582820151805193945084939192610e0c92600185019290910190611175565b506040820151600282810180546001600160a01b0319166001600160a01b03909316929092178083556060850151929160ff60a01b1990911690600160a01b908490811115610e5757fe5b02179055506080919091015160029091018054911515600160a81b0260ff60a81b19909216919091179055610e9360038763ffffffff610fd816565b505050505050565b6000546001600160a01b031681565b610eb48282611084565b610eef5760405162461bcd60e51b815260040180806020018281038252603581526020018061125f6035913960400191505060405180910390fd5b6000826001016001610f00856110cd565b0381548110610f0b57fe5b6000918252602080832090910154848352908590526040808320548284529220829055600185018054919350839183908110610f4357fe5b600091825260208083209091019290925584815290859052604081205560018401805490610f759060001983016111f3565b5050505050565b606081600101805480602002602001604051908101604052809291908181526020018280548015610fcc57602002820191906000526020600020905b815481526020019060010190808311610fb8575b50505050509050919050565b806110145760405162461bcd60e51b81526004018080602001828103825260288152602001806112376028913960400191505060405180910390fd5b61101e8282611084565b1561105a5760405162461bcd60e51b81526004018080602001828103825260358152602001806112946035913960400191505060405180910390fd5b60018281018054918201815560009081526020808220830184905592815292909152604090912055565b6001820154600090611098575060006110c7565b60008281526020849052604090205460018401805484929081106110b857fe5b90600052602060002001541490505b92915050565b6001015490565b50805460018160011615610100020316600290046000825580601f106110fa5750611118565b601f016020900490600052602060002090810190611118919061121c565b50565b604080518082019091526000808252602082015290565b6040518060a00160405280600081526020016060815260200160006001600160a01b031681526020016000600281111561116857fe5b8152600060209091015290565b828054600181600116156101000203166002900490600052602060002090601f016020900481019282601f106111b657805160ff19168380011785556111e3565b828001600101855582156111e3579182015b828111156111e35782518255916020019190600101906111c8565b506111ef92915061121c565b5090565b8154818355818111156112175760008381526020902061121791810190830161121c565b505050565b61072491905b808211156111ef576000815560010161122256fe556e6f7264657265644b65795365742831303029202d204b65792063616e6e6f7420626520307830556e6f7264657265644b65795365742831303229202d204b657920646f6573206e6f7420657869737420696e20746865207365742e556e6f7264657265644b65795365742831303129202d204b657920616c72656164792065786973747320696e20746865207365742ea265627a7a72315820ce432d08cb19bc236afcb68c7fc3fdc02a49640f6a4e9a5a64206bb7013a964c64736f6c63430005100032556e6f7264657265644b65795365742831303029202d204b65792063616e6e6f742062652030783072657175657374546f437265617465436173684f757446726f6d446f6e6174696f6e4163746976697479436f6465206973206e6f742076616c696472657175657374546f437265617465436173684f757446726f6d446f6e6174696f6e4163746976697479436f646520494420616c7265616479206578697374732e52657175657374546f437265617465436173684f757446726f6d446f6e6174696f6e4163746976697479436f6465206973206e6f742076616c6964446f6e2774204861766520456e6f756768204d6f6e657920496e2043616d706169676e596f75206d75737420626520686f7374206f722061646d696e20746f20657865637574652e556e6f726465726564416464726573735365742831303129202d204164647265737320286b65792920616c72656164792065786973747320696e20746865207365742e556e6f7264657265644b65795365742831303229202d204b657920646f6573206e6f7420657869737420696e20746865207365742e556e6f7264657265644b65795365742831303129202d204b657920616c72656164792065786973747320696e20746865207365742e496e76616c69642072657175657374546f437265617465446f6e6174696f6e416374697669747920494452657175657374437265617465446f6e6174696f6e4163746976697479436f646520494420616c7265616479206578697374732e52657175657374546f4372656174654f7264657246726f6d446f6e6174696f6e4163746976697479436f6465206973206e6f742076616c6964596f7520617265206e6f7420686f7374206f66207468697320646f6e6174696f6e20616374697669747972657175657374546f4372656174654f7264657246726f6d446f6e6174696f6e4163746976697479436f6465206973206e6f742076616c696472657175657374546f4372656174654f7264657246726f6d446f6e6174696f6e4163746976697479436f646520494420616c7265616479206578697374732e596f75206d75737420626520686f737420746f20657865637574652e0000000072657175657374546f437265617465446f6e6174696f6e4163746976697479436f6465206973206e6f742076616c696443616e277420676574206120446f6e6174696f6e4163746976697479207468617420646f65736e27742065786973742ea265627a7a723158203eb5c076465e33cc214d47b7987253a2d497a9a1e8fc375e692cbbaae3c1720464736f6c63430005100032",
  "source": "pragma solidity 0.5.16;\r\n\r\nimport \"./HitchensUnorderedAddressSet.sol\";\r\nimport \"./HitchensUnorderedKeySet.sol\";\r\nimport \"./CampaignFactory.sol\";\r\nimport \"./DonationActivity.sol\";\r\n\r\ncontract Campaign{\r\n    \r\n    struct RequestToCreateDonationActivity {\r\n        address payable host;\r\n        address authority;\r\n        address campaignFactory;\r\n    }\r\n\r\n    struct RequestToCreateOrderFromDonationActivity {\r\n        address payable donationActivity;\r\n        address payable retailer;\r\n        string receiptURI;\r\n        uint256 totalAmount;\r\n    }\r\n    \r\n    address payable public host;\r\n    address public admin;\r\n    uint public minimumContribution;\r\n    address public campaignFactory;\r\n    mapping(address => DonationActivity) donationActivities;\r\n    // address[] public contributers;\r\n    \r\n    using HitchensUnorderedAddressSetLib for HitchensUnorderedAddressSetLib.Set;\r\n    using HitchensUnorderedKeySetLib for HitchensUnorderedKeySetLib.Set;\r\n    HitchensUnorderedAddressSetLib.Set donationActivitySet;\r\n    HitchensUnorderedKeySetLib.Set requestToCreateDonationActivitySet;\r\n    HitchensUnorderedKeySetLib.Set requestToCreateOrderFromDonationActivitySet;\r\n    HitchensUnorderedKeySetLib.Set requestToCreateCashOutFromDonationActivitySet;\r\n\r\n    mapping(bytes32 => RequestToCreateDonationActivity) requestsToCreateDonationActivity;\r\n    mapping(bytes32 => RequestToCreateOrderFromDonationActivity) requestsToCreateOrderFromDonationActivity;\r\n    mapping(bytes32 => uint256) requestsToCreateCashOutFromDonationActivity;\r\n    constructor (uint _minimum, address payable _host, address _initialAdmin) public originFromCampaignFactory{\r\n        host = _host;\r\n        minimumContribution = _minimum;\r\n        admin = _initialAdmin;\r\n        campaignFactory = msg.sender;\r\n    }\r\n\r\n    function modifierFromCampaign() public view returns(address _campaignFactory){\r\n        return campaignFactory;\r\n    }\r\n\r\n    modifier originFromCampaignFactory() {\r\n        CampaignFactory _cf = CampaignFactory(msg.sender);\r\n        _cf.modifierFromCampaignFactory();\r\n        _;\r\n    }\r\n\r\n    modifier onlyHost() {\r\n        require(msg.sender== host, \"You must be host to execute.\");\r\n        _;\r\n    }\r\n    modifier onlyAdmin() {\r\n        require(msg.sender == admin ,\"You must be admin to execute.\");\r\n        _;\r\n    }\r\n    modifier onlyHostOrAdmin() {\r\n        require(((msg.sender == host) || (msg.sender== admin)), \"You must be host or admin to execute.\");\r\n        _;\r\n    }\r\n    \r\n    function contribute() public payable {\r\n        require(msg.value > minimumContribution);\r\n        \r\n    }\r\n\r\n    //getter\r\n    function getHost() public view returns(address) { return host; }\r\n    function getAdmin() public view returns(address) { return admin; }\r\n\r\n    function getMinimumContribution() public view returns(uint) { return minimumContribution; }\r\n    \r\n    function getBalance() public view returns(uint256) {return address(this).balance; }\r\n\r\n    //setter\r\n    function setHost(address payable new_host) public onlyAdmin { host = new_host; }\r\n    function setMinimumContribution(uint new_minimum_contribution) public onlyAdmin { minimumContribution = new_minimum_contribution; }\r\n    function () external payable{\r\n        \r\n    }\r\n    //REQUEST TO CREATE DONATION ACTIVITY CRUD \r\n    function requestToCreateDonationActivity(bytes32 requestCreateDonationActivityCode,address payable _host, address _authority, address _campaignFactory) onlyHost public{\r\n        require(!requestToCreateDonationActivitySet.exists(requestCreateDonationActivityCode), \"RequestCreateDonationActivityCode ID already exists.\");\r\n        RequestToCreateDonationActivity memory re = RequestToCreateDonationActivity(_host, _authority, _campaignFactory);\r\n        requestsToCreateDonationActivity[requestCreateDonationActivityCode] = re;\r\n        requestToCreateDonationActivitySet.insert(requestCreateDonationActivityCode);\r\n    }\r\n    \r\n    function getRequestToCreateDonationActivityList() public view returns(bytes32[] memory){\r\n        return requestToCreateDonationActivitySet.listKey();\r\n    }\r\n    \r\n    function getRequestToCreateDonationActivityListAtKey(bytes32 key) public view returns(address _host, address _authority, address _campaignFactory) {\r\n        RequestToCreateDonationActivity memory re = requestsToCreateDonationActivity[key];\r\n        return (re.host, re.authority,re.campaignFactory);\r\n    }\r\n\r\n    function cancelOpenCampaignRequest(bytes32 requestToCreateDonationActivityCode) onlyHost public {\r\n        require(requestToCreateDonationActivitySet.exists(requestToCreateDonationActivityCode), \"Invalid requestToCreateDonationActivity ID\");\r\n        requestToCreateDonationActivitySet.remove(requestToCreateDonationActivityCode);\r\n        delete requestsToCreateDonationActivity[requestToCreateDonationActivityCode];\r\n    }\r\n\r\n    function rejectOpenCampaignRequest(bytes32 requestToCreateDonationActivityCode) onlyAdmin public {\r\n        require(requestToCreateDonationActivitySet.exists(requestToCreateDonationActivityCode), \"Invalid requestToCreateDonationActivity ID\");\r\n        requestToCreateDonationActivitySet.remove(requestToCreateDonationActivityCode);\r\n        delete requestsToCreateDonationActivity[requestToCreateDonationActivityCode];\r\n    }\r\n\r\n    function newDonationActivity(bytes32 requestToCreateDonationActivityCode) public onlyHost{\r\n         // Note that this will fail automatically if the key already exists.\r\n        // require(validatedHostSet.exists(host), \"Host is not validated.\r\n        require(requestToCreateDonationActivitySet.exists(requestToCreateDonationActivityCode), \"requestToCreateDonationActivityCode is not valid\");\r\n        \r\n        RequestToCreateDonationActivity memory re = requestsToCreateDonationActivity[requestToCreateDonationActivityCode];\r\n        \r\n        DonationActivity w = new DonationActivity(re.host, re.authority,re.campaignFactory);\r\n    \r\n        donationActivities[address(w)] = w ;\r\n        donationActivitySet.insert(address(w));\r\n        \r\n        requestToCreateDonationActivitySet.remove(requestToCreateDonationActivityCode);\r\n        delete requestsToCreateDonationActivity[requestToCreateDonationActivityCode];\r\n        // emit LogNewDonationActivity(address(w),tx.origin,re.requestHost,re.minimumContribution);\r\n    }\r\n\r\n    function getDonationActivity(address donationActivity_key) public view returns(address _host, address _authority) {\r\n        require(donationActivitySet.exists(donationActivity_key), \"Can't get a DonationActivity that doesn't exist.\");\r\n        DonationActivity w = donationActivities[donationActivity_key];\r\n        return (w.getHost(), w.getAuthority());\r\n    }\r\n    \r\n    function getDonationActivityList() public view returns(address[] memory){\r\n        return donationActivitySet.listKey();\r\n    }\r\n\r\n    //ORDER OF DONATION ACTIVITY CRUD\r\n    modifier requestToCreateOrderFromDonationActivityCodeExist(address payable _donationActivity,bytes32 _requestToCreateOrderFromDonationActivityCode) {\r\n        DonationActivity w = DonationActivity(_donationActivity);\r\n        if( w.orderCodeExist(_requestToCreateOrderFromDonationActivityCode) == true){\r\n            revert(\"Cannot duplicate this code\");\r\n        }\r\n        _;\r\n    }\r\n\r\n    modifier checkHostDonationActivity(address payable _donationActivity) {\r\n        DonationActivity w = DonationActivity(_donationActivity);\r\n        if(w.isDonationActivityHost(msg.sender) == false){\r\n            revert(\"You are not host of this donation activity\");\r\n        }\r\n        _;\r\n    }\r\n    \r\n    function requestToCreateOrderFromDonationActivity(bytes32 requestToCreateOrderFromDonationActivityCode,address payable _donationActivity,address payable _retailer, string memory _receiptURI, uint256 _totalAmount) onlyHost requestToCreateOrderFromDonationActivityCodeExist(_donationActivity,requestToCreateOrderFromDonationActivityCode) checkHostDonationActivity(_donationActivity) public{\r\n        require(!requestToCreateOrderFromDonationActivitySet.exists(requestToCreateOrderFromDonationActivityCode), \"requestToCreateOrderFromDonationActivityCode ID already exists.\");\r\n        RequestToCreateOrderFromDonationActivity memory re = RequestToCreateOrderFromDonationActivity(_donationActivity,_retailer, _receiptURI, _totalAmount);\r\n        requestsToCreateOrderFromDonationActivity[requestToCreateOrderFromDonationActivityCode] = re;\r\n        requestToCreateOrderFromDonationActivitySet.insert(requestToCreateOrderFromDonationActivityCode);\r\n    }\r\n\r\n    function newOrderFromDonationActivity(bytes32 requestToCreateOrderFromDonationActivityCode) public onlyHost{\r\n\r\n        require(requestToCreateOrderFromDonationActivitySet.exists(requestToCreateOrderFromDonationActivityCode), \"requestToCreateOrderFromDonationActivityCode is not valid\");\r\n        \r\n        RequestToCreateOrderFromDonationActivity memory re = requestsToCreateOrderFromDonationActivity[requestToCreateOrderFromDonationActivityCode];\r\n        \r\n        DonationActivity w = DonationActivity(re.donationActivity);\r\n        if(re.totalAmount > address(this).balance){\r\n            revert(\"Don't Have Enough Money In Campaign\");\r\n        } else {\r\n            w.addOrder(requestToCreateOrderFromDonationActivityCode, re.retailer, re.receiptURI, re.totalAmount);\r\n            address(re.donationActivity).transfer(re.totalAmount);\r\n            \r\n            requestToCreateOrderFromDonationActivitySet.remove(requestToCreateOrderFromDonationActivityCode);\r\n            delete requestsToCreateOrderFromDonationActivity[requestToCreateOrderFromDonationActivityCode];\r\n        }\r\n\r\n    }\r\n\r\n    function cancelOrderFromDonationActivity(bytes32 requestToCreateOrderFromDonationActivityCode) public onlyHostOrAdmin{\r\n        require(requestToCreateOrderFromDonationActivitySet.exists(requestToCreateOrderFromDonationActivityCode), \"requestToCreateOrderFromDonationActivityCode is not valid\");\r\n        requestToCreateOrderFromDonationActivitySet.remove(requestToCreateOrderFromDonationActivityCode);\r\n        delete requestsToCreateOrderFromDonationActivity[requestToCreateOrderFromDonationActivityCode];\r\n    }\r\n\r\n    function getRequestToCreateOrderFromDonationActivity(bytes32 requestToCreateOrderFromDonationActivityCode) public view returns(address donationActivity,address payable retailer,string memory receiptURI,uint256 totalAmount) {\r\n        require(requestToCreateOrderFromDonationActivitySet.exists(requestToCreateOrderFromDonationActivityCode), \"RequestToCreateOrderFromDonationActivityCode is not valid\");\r\n        RequestToCreateOrderFromDonationActivity memory w = requestsToCreateOrderFromDonationActivity[requestToCreateOrderFromDonationActivityCode];\r\n        return (w.donationActivity,w.retailer,w.receiptURI,w.totalAmount);\r\n    }\r\n    \r\n    function getRequestToCreateOrderFromDonationActivityList() public view returns(bytes32[] memory){\r\n        return requestToCreateOrderFromDonationActivitySet.listKey();\r\n    }\r\n\r\n    //CASH OUT OF DONATION ACTIVITY CRUD\r\n    modifier requestToCreateCashOutFromDonationActivityCodeExist(address payable _donationActivity,bytes32 _requestToCreateCashOutFromDonationActivityCode) {\r\n        DonationActivity w = DonationActivity(_donationActivity);\r\n        if( w.cashOutCodeExist(_requestToCreateCashOutFromDonationActivityCode) == true){\r\n            revert(\"Cannot duplicate this code\");\r\n        }\r\n        _;\r\n    }\r\n    \r\n    function requestToCreateCashOutFromDonationActivity(bytes32 requestToCreateCashOutFromDonationActivityCode,uint256 _amount, address payable _donationActivity) onlyHost requestToCreateCashOutFromDonationActivityCodeExist(_donationActivity,requestToCreateCashOutFromDonationActivityCode) checkHostDonationActivity(_donationActivity) public{\r\n        require(!requestToCreateCashOutFromDonationActivitySet.exists(requestToCreateCashOutFromDonationActivityCode), \"requestToCreateCashOutFromDonationActivityCode ID already exists.\");\r\n        requestsToCreateCashOutFromDonationActivity[requestToCreateCashOutFromDonationActivityCode] = _amount;\r\n        requestToCreateCashOutFromDonationActivitySet.insert(requestToCreateCashOutFromDonationActivityCode);\r\n    }\r\n\r\n    function newCashOutFromDonationActivity(bytes32 requestToCreateCashOutFromDonationActivityCode, address payable _donationActivity) public onlyHost{\r\n\r\n        require(requestToCreateCashOutFromDonationActivitySet.exists(requestToCreateCashOutFromDonationActivityCode), \"requestToCreateCashOutFromDonationActivityCode is not valid\");\r\n        \r\n        uint256 amount = requestsToCreateCashOutFromDonationActivity[requestToCreateCashOutFromDonationActivityCode];\r\n        \r\n        DonationActivity w = DonationActivity(_donationActivity);\r\n        if(amount > address(this).balance){\r\n            revert(\"Don't Have Enough Money In Campaign\");\r\n        } else {\r\n            w.addCashOut(requestToCreateCashOutFromDonationActivityCode, amount);\r\n            address(_donationActivity).transfer(amount);\r\n            \r\n            requestToCreateCashOutFromDonationActivitySet.remove(requestToCreateCashOutFromDonationActivityCode);\r\n            delete requestsToCreateCashOutFromDonationActivity[requestToCreateCashOutFromDonationActivityCode];\r\n        }\r\n\r\n    }\r\n    function cancelCashOutFromDonationActivity(bytes32 requestToCreateCashOutFromDonationActivityCode) public onlyHostOrAdmin{\r\n \r\n        require(requestToCreateCashOutFromDonationActivitySet.exists(requestToCreateCashOutFromDonationActivityCode), \"requestToCreateCashOutFromDonationActivityCode is not valid\");\r\n        \r\n        requestToCreateCashOutFromDonationActivitySet.remove(requestToCreateCashOutFromDonationActivityCode);\r\n        delete requestsToCreateCashOutFromDonationActivity[requestToCreateCashOutFromDonationActivityCode];\r\n    }\r\n\r\n    function getRequestToCreateCashOutFromDonationActivity(bytes32 requestToCreateCashOutFromDonationActivityCode) public view returns(uint256 amount) {\r\n        require(requestToCreateCashOutFromDonationActivitySet.exists(requestToCreateCashOutFromDonationActivityCode), \"RequestToCreateCashOutFromDonationActivityCode is not valid\");\r\n        uint _amount = requestsToCreateCashOutFromDonationActivity[requestToCreateCashOutFromDonationActivityCode];\r\n        return (_amount);\r\n    }\r\n    \r\n    function getRequestToCreateCashOutFromDonationActivityList() public view returns(bytes32[] memory){\r\n        return requestToCreateCashOutFromDonationActivitySet.listKey();\r\n    }\r\n    \r\n}",
  "sourcePath": "D:\\Tum\\Study\\University\\D n\\Truffle_Test\\contracts\\Campaign.sol",
  "compiler": {
    "name": "solc",
    "version": "0.5.16+commit.9c3226ce.Emscripten.clang"
  },
  "schemaVersion": "3.4.3",
  "updatedAt": "2021-12-04T03:13:04.811Z",
  "devdoc": {
    "methods": {}
  },
  "userdoc": {
    "methods": {}
  }
}